{"contracts/algorithms/ED25519.sol":{"ED25519":{"abi":[{"inputs":[{"internalType":"uint256[2]","name":"_a","type":"uint256[2]"},{"internalType":"uint256[2]","name":"_b","type":"uint256[2]"}],"name":"ecAddVec","outputs":[{"internalType":"uint256[2]","name":"","type":"uint256[2]"}],"stateMutability":"view","type":"function"},{"inputs":[{"internalType":"uint256[2]","name":"point","type":"uint256[2]"},{"internalType":"uint256","name":"s","type":"uint256"}],"name":"scalarMult","outputs":[{"internalType":"uint256","name":"","type":"uint256"},{"internalType":"uint256","name":"","type":"uint256"}],"stateMutability":"view","type":"function"}],"evm":{"bytecode":{"linkReferences":{},"object":"608060405234801561001057600080fd5b506117d5806100206000396000f3fe608060405234801561001057600080fd5b50600436106100365760003560e01c8063500d81071461003b5780639b0fd8cd1461006c575b600080fd5b6100556004803603810190610050919061155b565b61009c565b60405161006392919061163f565b60405180910390f35b6100866004803603810190610081919061151f565b610297565b6040516100939190611624565b60405180910390f35b6000806100a76113f8565b6100af6113f8565b856000600281106100e9577f4e487b7100000000000000000000000000000000000000000000000000000000600052603260045260246000fd5b602002015182600001818152505085600160028110610131577f4e487b7100000000000000000000000000000000000000000000000000000000600052603260045260246000fd5b602002015182602001818152505060018260400181815250506000816000018181525050600181602001818152505060018160400181815250505b60008511156101a4576001808616141561018d5761018a81836104db565b90505b600185901c945061019d82610cdc565b915061016c565b60006101b3826040015161135a565b90507f7fffffffffffffffffffffffffffffffffffffffffffffffffffffffffffffed8061020a577f4e487b7100000000000000000000000000000000000000000000000000000000600052601260045260246000fd5b818360000151098260000181815250507f7fffffffffffffffffffffffffffffffffffffffffffffffffffffffffffffed8061026f577f4e487b7100000000000000000000000000000000000000000000000000000000600052601260045260246000fd5b8183602001510982602001818152505081600001518260200151945094505050509250929050565b61029f611419565b6102a76113f8565b6102af6113f8565b846000600281106102e9577f4e487b7100000000000000000000000000000000000000000000000000000000600052603260045260246000fd5b602002015182600001818152505084600160028110610331577f4e487b7100000000000000000000000000000000000000000000000000000000600052603260045260246000fd5b6020020151826020018181525050600182604001818152505083600060028110610384577f4e487b7100000000000000000000000000000000000000000000000000000000600052603260045260246000fd5b6020020151816000018181525050836001600281106103cc577f4e487b7100000000000000000000000000000000000000000000000000000000600052603260045260246000fd5b6020020151816020018181525050600181604001818152505060006103f183836104db565b90506000610402826040015161135a565b905060405180604001604052807f7fffffffffffffffffffffffffffffffffffffffffffffffffffffffffffffed80610464577f4e487b7100000000000000000000000000000000000000000000000000000000600052601260045260246000fd5b8385600001510981526020017f7fffffffffffffffffffffffffffffffffffffffffffffffffffffffffffffed806104c5577f4e487b7100000000000000000000000000000000000000000000000000000000600052601260045260246000fd5b8385602001510981525094505050505092915050565b6104e36113f8565b6104eb61143b565b7f7fffffffffffffffffffffffffffffffffffffffffffffffffffffffffffffed80610540577f4e487b7100000000000000000000000000000000000000000000000000000000600052601260045260246000fd5b83604001518560400151098160000181815250507f7fffffffffffffffffffffffffffffffffffffffffffffffffffffffffffffed806105a9577f4e487b7100000000000000000000000000000000000000000000000000000000600052601260045260246000fd5b81600001518260000151098160200181815250507f7fffffffffffffffffffffffffffffffffffffffffffffffffffffffffffffed80610612577f4e487b7100000000000000000000000000000000000000000000000000000000600052601260045260246000fd5b83600001518560000151098160400181815250507f7fffffffffffffffffffffffffffffffffffffffffffffffffffffffffffffed8061067b577f4e487b7100000000000000000000000000000000000000000000000000000000600052601260045260246000fd5b83602001518560200151098160600181815250507f7fffffffffffffffffffffffffffffffffffffffffffffffffffffffffffffed806106e4577f4e487b7100000000000000000000000000000000000000000000000000000000600052601260045260246000fd5b7f7fffffffffffffffffffffffffffffffffffffffffffffffffffffffffffffed80610739577f4e487b7100000000000000000000000000000000000000000000000000000000600052601260045260246000fd5b82606001518360400151097f52036cee2b6ffe738cc740797779e89800700a4d4141d8ab75eb4dca135978a3098160800181815250507f7fffffffffffffffffffffffffffffffffffffffffffffffffffffffffffffed806107c4577f4e487b7100000000000000000000000000000000000000000000000000000000600052601260045260246000fd5b81608001517f7fffffffffffffffffffffffffffffffffffffffffffffffffffffffffffffed6107f491906116ec565b8260200151088160a00181815250507f7fffffffffffffffffffffffffffffffffffffffffffffffffffffffffffffed80610858577f4e487b7100000000000000000000000000000000000000000000000000000000600052601260045260246000fd5b81608001518260200151088160c00181815250507f7fffffffffffffffffffffffffffffffffffffffffffffffffffffffffffffed806108c1577f4e487b7100000000000000000000000000000000000000000000000000000000600052601260045260246000fd5b7f7fffffffffffffffffffffffffffffffffffffffffffffffffffffffffffffed80610916577f4e487b7100000000000000000000000000000000000000000000000000000000600052601260045260246000fd5b82606001517f7fffffffffffffffffffffffffffffffffffffffffffffffffffffffffffffed61094691906116ec565b7f7fffffffffffffffffffffffffffffffffffffffffffffffffffffffffffffed8061099b577f4e487b7100000000000000000000000000000000000000000000000000000000600052601260045260246000fd5b84604001517f7fffffffffffffffffffffffffffffffffffffffffffffffffffffffffffffed6109cb91906116ec565b7f7fffffffffffffffffffffffffffffffffffffffffffffffffffffffffffffed80610a20577f4e487b7100000000000000000000000000000000000000000000000000000000600052601260045260246000fd5b7f7fffffffffffffffffffffffffffffffffffffffffffffffffffffffffffffed80610a75577f4e487b7100000000000000000000000000000000000000000000000000000000600052601260045260246000fd5b89602001518a60000151087f7fffffffffffffffffffffffffffffffffffffffffffffffffffffffffffffed80610ad5577f4e487b7100000000000000000000000000000000000000000000000000000000600052601260045260246000fd5b8b602001518c60000151080908087f7fffffffffffffffffffffffffffffffffffffffffffffffffffffffffffffed80610b38577f4e487b7100000000000000000000000000000000000000000000000000000000600052601260045260246000fd5b8360a00151846000015109098260000181815250507f7fffffffffffffffffffffffffffffffffffffffffffffffffffffffffffffed80610ba2577f4e487b7100000000000000000000000000000000000000000000000000000000600052601260045260246000fd5b7f7fffffffffffffffffffffffffffffffffffffffffffffffffffffffffffffed80610bf7577f4e487b7100000000000000000000000000000000000000000000000000000000600052601260045260246000fd5b82604001518360600151087f7fffffffffffffffffffffffffffffffffffffffffffffffffffffffffffffed80610c57577f4e487b7100000000000000000000000000000000000000000000000000000000600052601260045260246000fd5b8360c00151846000015109098260200181815250507f7fffffffffffffffffffffffffffffffffffffffffffffffffffffffffffffed80610cc1577f4e487b7100000000000000000000000000000000000000000000000000000000600052601260045260246000fd5b8160c001518260a00151098260400181815250505092915050565b610ce46113f8565b610cec61143b565b7f7fffffffffffffffffffffffffffffffffffffffffffffffffffffffffffffed80610d41577f4e487b7100000000000000000000000000000000000000000000000000000000600052601260045260246000fd5b83602001518460000151088160000181815250507f7fffffffffffffffffffffffffffffffffffffffffffffffffffffffffffffed80610daa577f4e487b7100000000000000000000000000000000000000000000000000000000600052601260045260246000fd5b81600001518260000151098160200181815250507f7fffffffffffffffffffffffffffffffffffffffffffffffffffffffffffffed80610e13577f4e487b7100000000000000000000000000000000000000000000000000000000600052601260045260246000fd5b83600001518460000151098160400181815250507f7fffffffffffffffffffffffffffffffffffffffffffffffffffffffffffffed80610e7c577f4e487b7100000000000000000000000000000000000000000000000000000000600052601260045260246000fd5b836020015184602001510981606001818152505080604001517f7fffffffffffffffffffffffffffffffffffffffffffffffffffffffffffffed610ec091906116ec565b8160800181815250507f7fffffffffffffffffffffffffffffffffffffffffffffffffffffffffffffed80610f1e577f4e487b7100000000000000000000000000000000000000000000000000000000600052601260045260246000fd5b81606001518260800151088160a00181815250507f7fffffffffffffffffffffffffffffffffffffffffffffffffffffffffffffed80610f87577f4e487b7100000000000000000000000000000000000000000000000000000000600052601260045260246000fd5b83604001518460400151098160e00181815250507f7fffffffffffffffffffffffffffffffffffffffffffffffffffffffffffffed80610ff0577f4e487b7100000000000000000000000000000000000000000000000000000000600052601260045260246000fd5b7f7fffffffffffffffffffffffffffffffffffffffffffffffffffffffffffffed80611045577f4e487b7100000000000000000000000000000000000000000000000000000000600052601260045260246000fd5b8260e001516002097f7fffffffffffffffffffffffffffffffffffffffffffffffffffffffffffffed61107891906116ec565b8260a00151088160c00181815250507f7fffffffffffffffffffffffffffffffffffffffffffffffffffffffffffffed806110dc577f4e487b7100000000000000000000000000000000000000000000000000000000600052601260045260246000fd5b8160c001517f7fffffffffffffffffffffffffffffffffffffffffffffffffffffffffffffed80611136577f4e487b7100000000000000000000000000000000000000000000000000000000600052601260045260246000fd5b83606001517f7fffffffffffffffffffffffffffffffffffffffffffffffffffffffffffffed61116691906116ec565b7f7fffffffffffffffffffffffffffffffffffffffffffffffffffffffffffffed806111bb577f4e487b7100000000000000000000000000000000000000000000000000000000600052601260045260246000fd5b85604001517f7fffffffffffffffffffffffffffffffffffffffffffffffffffffffffffffed6111eb91906116ec565b86602001510808098260000181815250507f7fffffffffffffffffffffffffffffffffffffffffffffffffffffffffffffed80611251577f4e487b7100000000000000000000000000000000000000000000000000000000600052601260045260246000fd5b7f7fffffffffffffffffffffffffffffffffffffffffffffffffffffffffffffed806112a6577f4e487b7100000000000000000000000000000000000000000000000000000000600052601260045260246000fd5b82606001517f7fffffffffffffffffffffffffffffffffffffffffffffffffffffffffffffed6112d691906116ec565b8360800151088260a00151098260200181815250507f7fffffffffffffffffffffffffffffffffffffffffffffffffffffffffffffed80611340577f4e487b7100000000000000000000000000000000000000000000000000000000600052601260045260246000fd5b8160c001518260a001510982604001818152505050919050565b60008060027f7fffffffffffffffffffffffffffffffffffffffffffffffffffffffffffffed61138a91906116ec565b905060007f7fffffffffffffffffffffffffffffffffffffffffffffffffffffffffffffed905060405160208152602080820152602060408201528460608201528260808201528160a082015260208160c0836005600019fa6113ec57600080fd5b80519350505050919050565b60405180606001604052806000815260200160008152602001600081525090565b6040518060400160405280600290602082028036833780820191505090505090565b60405180610100016040528060008152602001600081526020016000815260200160008152602001600081526020016000815260200160008152602001600081525090565b600061149361148e84611699565b611668565b905080828560208602820111156114a957600080fd5b60005b858110156114d957816114bf888261150a565b8452602084019350602083019250506001810190506114ac565b5050509392505050565b600082601f8301126114f457600080fd5b6002611501848285611480565b91505092915050565b60008135905061151981611788565b92915050565b6000806080838503121561153257600080fd5b6000611540858286016114e3565b9250506040611551858286016114e3565b9150509250929050565b6000806060838503121561156e57600080fd5b600061157c858286016114e3565b925050604061158d8582860161150a565b9150509250929050565b60006115a38383611606565b60208301905092915050565b6115b8816116c9565b6115c281846116e1565b92506115cd826116bf565b8060005b838110156115fe5781516115e58782611597565b96506115f0836116d4565b9250506001810190506115d1565b505050505050565b61160f81611720565b82525050565b61161e81611720565b82525050565b600060408201905061163960008301846115af565b92915050565b60006040820190506116546000830185611615565b6116616020830184611615565b9392505050565b6000604051905081810181811067ffffffffffffffff8211171561168f5761168e611759565b5b8060405250919050565b600067ffffffffffffffff8211156116b4576116b3611759565b5b602082029050919050565b6000819050919050565b600060029050919050565b6000602082019050919050565b600081905092915050565b60006116f782611720565b915061170283611720565b9250828210156117155761171461172a565b5b828203905092915050565b6000819050919050565b7f4e487b7100000000000000000000000000000000000000000000000000000000600052601160045260246000fd5b7f4e487b7100000000000000000000000000000000000000000000000000000000600052604160045260246000fd5b61179181611720565b811461179c57600080fd5b5056fea26469706673582212201edb0c31c14880a368ce6b87a4b301e947ced4415ee2e91ac3b7dcba717f211564736f6c63430008000033","opcodes":"PUSH1 0x80 PUSH1 0x40 MSTORE CALLVALUE DUP1 ISZERO PUSH2 0x10 JUMPI PUSH1 0x0 DUP1 REVERT JUMPDEST POP PUSH2 0x17D5 DUP1 PUSH2 0x20 PUSH1 0x0 CODECOPY PUSH1 0x0 RETURN INVALID PUSH1 0x80 PUSH1 0x40 MSTORE CALLVALUE DUP1 ISZERO PUSH2 0x10 JUMPI PUSH1 0x0 DUP1 REVERT JUMPDEST POP PUSH1 0x4 CALLDATASIZE LT PUSH2 0x36 JUMPI PUSH1 0x0 CALLDATALOAD PUSH1 0xE0 SHR DUP1 PUSH4 0x500D8107 EQ PUSH2 0x3B JUMPI DUP1 PUSH4 0x9B0FD8CD EQ PUSH2 0x6C JUMPI JUMPDEST PUSH1 0x0 DUP1 REVERT JUMPDEST PUSH2 0x55 PUSH1 0x4 DUP1 CALLDATASIZE SUB DUP2 ADD SWAP1 PUSH2 0x50 SWAP2 SWAP1 PUSH2 0x155B JUMP JUMPDEST PUSH2 0x9C JUMP JUMPDEST PUSH1 0x40 MLOAD PUSH2 0x63 SWAP3 SWAP2 SWAP1 PUSH2 0x163F JUMP JUMPDEST PUSH1 0x40 MLOAD DUP1 SWAP2 SUB SWAP1 RETURN JUMPDEST PUSH2 0x86 PUSH1 0x4 DUP1 CALLDATASIZE SUB DUP2 ADD SWAP1 PUSH2 0x81 SWAP2 SWAP1 PUSH2 0x151F JUMP JUMPDEST PUSH2 0x297 JUMP JUMPDEST PUSH1 0x40 MLOAD PUSH2 0x93 SWAP2 SWAP1 PUSH2 0x1624 JUMP JUMPDEST PUSH1 0x40 MLOAD DUP1 SWAP2 SUB SWAP1 RETURN JUMPDEST PUSH1 0x0 DUP1 PUSH2 0xA7 PUSH2 0x13F8 JUMP JUMPDEST PUSH2 0xAF PUSH2 0x13F8 JUMP JUMPDEST DUP6 PUSH1 0x0 PUSH1 0x2 DUP2 LT PUSH2 0xE9 JUMPI PUSH32 0x4E487B7100000000000000000000000000000000000000000000000000000000 PUSH1 0x0 MSTORE PUSH1 0x32 PUSH1 0x4 MSTORE PUSH1 0x24 PUSH1 0x0 REVERT JUMPDEST PUSH1 0x20 MUL ADD MLOAD DUP3 PUSH1 0x0 ADD DUP2 DUP2 MSTORE POP POP DUP6 PUSH1 0x1 PUSH1 0x2 DUP2 LT PUSH2 0x131 JUMPI PUSH32 0x4E487B7100000000000000000000000000000000000000000000000000000000 PUSH1 0x0 MSTORE PUSH1 0x32 PUSH1 0x4 MSTORE PUSH1 0x24 PUSH1 0x0 REVERT JUMPDEST PUSH1 0x20 MUL ADD MLOAD DUP3 PUSH1 0x20 ADD DUP2 DUP2 MSTORE POP POP PUSH1 0x1 DUP3 PUSH1 0x40 ADD DUP2 DUP2 MSTORE POP POP PUSH1 0x0 DUP2 PUSH1 0x0 ADD DUP2 DUP2 MSTORE POP POP PUSH1 0x1 DUP2 PUSH1 0x20 ADD DUP2 DUP2 MSTORE POP POP PUSH1 0x1 DUP2 PUSH1 0x40 ADD DUP2 DUP2 MSTORE POP POP JUMPDEST PUSH1 0x0 DUP6 GT ISZERO PUSH2 0x1A4 JUMPI PUSH1 0x1 DUP1 DUP7 AND EQ ISZERO PUSH2 0x18D JUMPI PUSH2 0x18A DUP2 DUP4 PUSH2 0x4DB JUMP JUMPDEST SWAP1 POP JUMPDEST PUSH1 0x1 DUP6 SWAP1 SHR SWAP5 POP PUSH2 0x19D DUP3 PUSH2 0xCDC JUMP JUMPDEST SWAP2 POP PUSH2 0x16C JUMP JUMPDEST PUSH1 0x0 PUSH2 0x1B3 DUP3 PUSH1 0x40 ADD MLOAD PUSH2 0x135A JUMP JUMPDEST SWAP1 POP PUSH32 0x7FFFFFFFFFFFFFFFFFFFFFFFFFFFFFFFFFFFFFFFFFFFFFFFFFFFFFFFFFFFFFED DUP1 PUSH2 0x20A JUMPI PUSH32 0x4E487B7100000000000000000000000000000000000000000000000000000000 PUSH1 0x0 MSTORE PUSH1 0x12 PUSH1 0x4 MSTORE PUSH1 0x24 PUSH1 0x0 REVERT JUMPDEST DUP2 DUP4 PUSH1 0x0 ADD MLOAD MULMOD DUP3 PUSH1 0x0 ADD DUP2 DUP2 MSTORE POP POP PUSH32 0x7FFFFFFFFFFFFFFFFFFFFFFFFFFFFFFFFFFFFFFFFFFFFFFFFFFFFFFFFFFFFFED DUP1 PUSH2 0x26F JUMPI PUSH32 0x4E487B7100000000000000000000000000000000000000000000000000000000 PUSH1 0x0 MSTORE PUSH1 0x12 PUSH1 0x4 MSTORE PUSH1 0x24 PUSH1 0x0 REVERT JUMPDEST DUP2 DUP4 PUSH1 0x20 ADD MLOAD MULMOD DUP3 PUSH1 0x20 ADD DUP2 DUP2 MSTORE POP POP DUP2 PUSH1 0x0 ADD MLOAD DUP3 PUSH1 0x20 ADD MLOAD SWAP5 POP SWAP5 POP POP POP POP SWAP3 POP SWAP3 SWAP1 POP JUMP JUMPDEST PUSH2 0x29F PUSH2 0x1419 JUMP JUMPDEST PUSH2 0x2A7 PUSH2 0x13F8 JUMP JUMPDEST PUSH2 0x2AF PUSH2 0x13F8 JUMP JUMPDEST DUP5 PUSH1 0x0 PUSH1 0x2 DUP2 LT PUSH2 0x2E9 JUMPI PUSH32 0x4E487B7100000000000000000000000000000000000000000000000000000000 PUSH1 0x0 MSTORE PUSH1 0x32 PUSH1 0x4 MSTORE PUSH1 0x24 PUSH1 0x0 REVERT JUMPDEST PUSH1 0x20 MUL ADD MLOAD DUP3 PUSH1 0x0 ADD DUP2 DUP2 MSTORE POP POP DUP5 PUSH1 0x1 PUSH1 0x2 DUP2 LT PUSH2 0x331 JUMPI PUSH32 0x4E487B7100000000000000000000000000000000000000000000000000000000 PUSH1 0x0 MSTORE PUSH1 0x32 PUSH1 0x4 MSTORE PUSH1 0x24 PUSH1 0x0 REVERT JUMPDEST PUSH1 0x20 MUL ADD MLOAD DUP3 PUSH1 0x20 ADD DUP2 DUP2 MSTORE POP POP PUSH1 0x1 DUP3 PUSH1 0x40 ADD DUP2 DUP2 MSTORE POP POP DUP4 PUSH1 0x0 PUSH1 0x2 DUP2 LT PUSH2 0x384 JUMPI PUSH32 0x4E487B7100000000000000000000000000000000000000000000000000000000 PUSH1 0x0 MSTORE PUSH1 0x32 PUSH1 0x4 MSTORE PUSH1 0x24 PUSH1 0x0 REVERT JUMPDEST PUSH1 0x20 MUL ADD MLOAD DUP2 PUSH1 0x0 ADD DUP2 DUP2 MSTORE POP POP DUP4 PUSH1 0x1 PUSH1 0x2 DUP2 LT PUSH2 0x3CC JUMPI PUSH32 0x4E487B7100000000000000000000000000000000000000000000000000000000 PUSH1 0x0 MSTORE PUSH1 0x32 PUSH1 0x4 MSTORE PUSH1 0x24 PUSH1 0x0 REVERT JUMPDEST PUSH1 0x20 MUL ADD MLOAD DUP2 PUSH1 0x20 ADD DUP2 DUP2 MSTORE POP POP PUSH1 0x1 DUP2 PUSH1 0x40 ADD DUP2 DUP2 MSTORE POP POP PUSH1 0x0 PUSH2 0x3F1 DUP4 DUP4 PUSH2 0x4DB JUMP JUMPDEST SWAP1 POP PUSH1 0x0 PUSH2 0x402 DUP3 PUSH1 0x40 ADD MLOAD PUSH2 0x135A JUMP JUMPDEST SWAP1 POP PUSH1 0x40 MLOAD DUP1 PUSH1 0x40 ADD PUSH1 0x40 MSTORE DUP1 PUSH32 0x7FFFFFFFFFFFFFFFFFFFFFFFFFFFFFFFFFFFFFFFFFFFFFFFFFFFFFFFFFFFFFED DUP1 PUSH2 0x464 JUMPI PUSH32 0x4E487B7100000000000000000000000000000000000000000000000000000000 PUSH1 0x0 MSTORE PUSH1 0x12 PUSH1 0x4 MSTORE PUSH1 0x24 PUSH1 0x0 REVERT JUMPDEST DUP4 DUP6 PUSH1 0x0 ADD MLOAD MULMOD DUP2 MSTORE PUSH1 0x20 ADD PUSH32 0x7FFFFFFFFFFFFFFFFFFFFFFFFFFFFFFFFFFFFFFFFFFFFFFFFFFFFFFFFFFFFFED DUP1 PUSH2 0x4C5 JUMPI PUSH32 0x4E487B7100000000000000000000000000000000000000000000000000000000 PUSH1 0x0 MSTORE PUSH1 0x12 PUSH1 0x4 MSTORE PUSH1 0x24 PUSH1 0x0 REVERT JUMPDEST DUP4 DUP6 PUSH1 0x20 ADD MLOAD MULMOD DUP2 MSTORE POP SWAP5 POP POP POP POP POP SWAP3 SWAP2 POP POP JUMP JUMPDEST PUSH2 0x4E3 PUSH2 0x13F8 JUMP JUMPDEST PUSH2 0x4EB PUSH2 0x143B JUMP JUMPDEST PUSH32 0x7FFFFFFFFFFFFFFFFFFFFFFFFFFFFFFFFFFFFFFFFFFFFFFFFFFFFFFFFFFFFFED DUP1 PUSH2 0x540 JUMPI PUSH32 0x4E487B7100000000000000000000000000000000000000000000000000000000 PUSH1 0x0 MSTORE PUSH1 0x12 PUSH1 0x4 MSTORE PUSH1 0x24 PUSH1 0x0 REVERT JUMPDEST DUP4 PUSH1 0x40 ADD MLOAD DUP6 PUSH1 0x40 ADD MLOAD MULMOD DUP2 PUSH1 0x0 ADD DUP2 DUP2 MSTORE POP POP PUSH32 0x7FFFFFFFFFFFFFFFFFFFFFFFFFFFFFFFFFFFFFFFFFFFFFFFFFFFFFFFFFFFFFED DUP1 PUSH2 0x5A9 JUMPI PUSH32 0x4E487B7100000000000000000000000000000000000000000000000000000000 PUSH1 0x0 MSTORE PUSH1 0x12 PUSH1 0x4 MSTORE PUSH1 0x24 PUSH1 0x0 REVERT JUMPDEST DUP2 PUSH1 0x0 ADD MLOAD DUP3 PUSH1 0x0 ADD MLOAD MULMOD DUP2 PUSH1 0x20 ADD DUP2 DUP2 MSTORE POP POP PUSH32 0x7FFFFFFFFFFFFFFFFFFFFFFFFFFFFFFFFFFFFFFFFFFFFFFFFFFFFFFFFFFFFFED DUP1 PUSH2 0x612 JUMPI PUSH32 0x4E487B7100000000000000000000000000000000000000000000000000000000 PUSH1 0x0 MSTORE PUSH1 0x12 PUSH1 0x4 MSTORE PUSH1 0x24 PUSH1 0x0 REVERT JUMPDEST DUP4 PUSH1 0x0 ADD MLOAD DUP6 PUSH1 0x0 ADD MLOAD MULMOD DUP2 PUSH1 0x40 ADD DUP2 DUP2 MSTORE POP POP PUSH32 0x7FFFFFFFFFFFFFFFFFFFFFFFFFFFFFFFFFFFFFFFFFFFFFFFFFFFFFFFFFFFFFED DUP1 PUSH2 0x67B JUMPI PUSH32 0x4E487B7100000000000000000000000000000000000000000000000000000000 PUSH1 0x0 MSTORE PUSH1 0x12 PUSH1 0x4 MSTORE PUSH1 0x24 PUSH1 0x0 REVERT JUMPDEST DUP4 PUSH1 0x20 ADD MLOAD DUP6 PUSH1 0x20 ADD MLOAD MULMOD DUP2 PUSH1 0x60 ADD DUP2 DUP2 MSTORE POP POP PUSH32 0x7FFFFFFFFFFFFFFFFFFFFFFFFFFFFFFFFFFFFFFFFFFFFFFFFFFFFFFFFFFFFFED DUP1 PUSH2 0x6E4 JUMPI PUSH32 0x4E487B7100000000000000000000000000000000000000000000000000000000 PUSH1 0x0 MSTORE PUSH1 0x12 PUSH1 0x4 MSTORE PUSH1 0x24 PUSH1 0x0 REVERT JUMPDEST PUSH32 0x7FFFFFFFFFFFFFFFFFFFFFFFFFFFFFFFFFFFFFFFFFFFFFFFFFFFFFFFFFFFFFED DUP1 PUSH2 0x739 JUMPI PUSH32 0x4E487B7100000000000000000000000000000000000000000000000000000000 PUSH1 0x0 MSTORE PUSH1 0x12 PUSH1 0x4 MSTORE PUSH1 0x24 PUSH1 0x0 REVERT JUMPDEST DUP3 PUSH1 0x60 ADD MLOAD DUP4 PUSH1 0x40 ADD MLOAD MULMOD PUSH32 0x52036CEE2B6FFE738CC740797779E89800700A4D4141D8AB75EB4DCA135978A3 MULMOD DUP2 PUSH1 0x80 ADD DUP2 DUP2 MSTORE POP POP PUSH32 0x7FFFFFFFFFFFFFFFFFFFFFFFFFFFFFFFFFFFFFFFFFFFFFFFFFFFFFFFFFFFFFED DUP1 PUSH2 0x7C4 JUMPI PUSH32 0x4E487B7100000000000000000000000000000000000000000000000000000000 PUSH1 0x0 MSTORE PUSH1 0x12 PUSH1 0x4 MSTORE PUSH1 0x24 PUSH1 0x0 REVERT JUMPDEST DUP2 PUSH1 0x80 ADD MLOAD PUSH32 0x7FFFFFFFFFFFFFFFFFFFFFFFFFFFFFFFFFFFFFFFFFFFFFFFFFFFFFFFFFFFFFED PUSH2 0x7F4 SWAP2 SWAP1 PUSH2 0x16EC JUMP JUMPDEST DUP3 PUSH1 0x20 ADD MLOAD ADDMOD DUP2 PUSH1 0xA0 ADD DUP2 DUP2 MSTORE POP POP PUSH32 0x7FFFFFFFFFFFFFFFFFFFFFFFFFFFFFFFFFFFFFFFFFFFFFFFFFFFFFFFFFFFFFED DUP1 PUSH2 0x858 JUMPI PUSH32 0x4E487B7100000000000000000000000000000000000000000000000000000000 PUSH1 0x0 MSTORE PUSH1 0x12 PUSH1 0x4 MSTORE PUSH1 0x24 PUSH1 0x0 REVERT JUMPDEST DUP2 PUSH1 0x80 ADD MLOAD DUP3 PUSH1 0x20 ADD MLOAD ADDMOD DUP2 PUSH1 0xC0 ADD DUP2 DUP2 MSTORE POP POP PUSH32 0x7FFFFFFFFFFFFFFFFFFFFFFFFFFFFFFFFFFFFFFFFFFFFFFFFFFFFFFFFFFFFFED DUP1 PUSH2 0x8C1 JUMPI PUSH32 0x4E487B7100000000000000000000000000000000000000000000000000000000 PUSH1 0x0 MSTORE PUSH1 0x12 PUSH1 0x4 MSTORE PUSH1 0x24 PUSH1 0x0 REVERT JUMPDEST PUSH32 0x7FFFFFFFFFFFFFFFFFFFFFFFFFFFFFFFFFFFFFFFFFFFFFFFFFFFFFFFFFFFFFED DUP1 PUSH2 0x916 JUMPI PUSH32 0x4E487B7100000000000000000000000000000000000000000000000000000000 PUSH1 0x0 MSTORE PUSH1 0x12 PUSH1 0x4 MSTORE PUSH1 0x24 PUSH1 0x0 REVERT JUMPDEST DUP3 PUSH1 0x60 ADD MLOAD PUSH32 0x7FFFFFFFFFFFFFFFFFFFFFFFFFFFFFFFFFFFFFFFFFFFFFFFFFFFFFFFFFFFFFED PUSH2 0x946 SWAP2 SWAP1 PUSH2 0x16EC JUMP JUMPDEST PUSH32 0x7FFFFFFFFFFFFFFFFFFFFFFFFFFFFFFFFFFFFFFFFFFFFFFFFFFFFFFFFFFFFFED DUP1 PUSH2 0x99B JUMPI PUSH32 0x4E487B7100000000000000000000000000000000000000000000000000000000 PUSH1 0x0 MSTORE PUSH1 0x12 PUSH1 0x4 MSTORE PUSH1 0x24 PUSH1 0x0 REVERT JUMPDEST DUP5 PUSH1 0x40 ADD MLOAD PUSH32 0x7FFFFFFFFFFFFFFFFFFFFFFFFFFFFFFFFFFFFFFFFFFFFFFFFFFFFFFFFFFFFFED PUSH2 0x9CB SWAP2 SWAP1 PUSH2 0x16EC JUMP JUMPDEST PUSH32 0x7FFFFFFFFFFFFFFFFFFFFFFFFFFFFFFFFFFFFFFFFFFFFFFFFFFFFFFFFFFFFFED DUP1 PUSH2 0xA20 JUMPI PUSH32 0x4E487B7100000000000000000000000000000000000000000000000000000000 PUSH1 0x0 MSTORE PUSH1 0x12 PUSH1 0x4 MSTORE PUSH1 0x24 PUSH1 0x0 REVERT JUMPDEST PUSH32 0x7FFFFFFFFFFFFFFFFFFFFFFFFFFFFFFFFFFFFFFFFFFFFFFFFFFFFFFFFFFFFFED DUP1 PUSH2 0xA75 JUMPI PUSH32 0x4E487B7100000000000000000000000000000000000000000000000000000000 PUSH1 0x0 MSTORE PUSH1 0x12 PUSH1 0x4 MSTORE PUSH1 0x24 PUSH1 0x0 REVERT JUMPDEST DUP10 PUSH1 0x20 ADD MLOAD DUP11 PUSH1 0x0 ADD MLOAD ADDMOD PUSH32 0x7FFFFFFFFFFFFFFFFFFFFFFFFFFFFFFFFFFFFFFFFFFFFFFFFFFFFFFFFFFFFFED DUP1 PUSH2 0xAD5 JUMPI PUSH32 0x4E487B7100000000000000000000000000000000000000000000000000000000 PUSH1 0x0 MSTORE PUSH1 0x12 PUSH1 0x4 MSTORE PUSH1 0x24 PUSH1 0x0 REVERT JUMPDEST DUP12 PUSH1 0x20 ADD MLOAD DUP13 PUSH1 0x0 ADD MLOAD ADDMOD MULMOD ADDMOD ADDMOD PUSH32 0x7FFFFFFFFFFFFFFFFFFFFFFFFFFFFFFFFFFFFFFFFFFFFFFFFFFFFFFFFFFFFFED DUP1 PUSH2 0xB38 JUMPI PUSH32 0x4E487B7100000000000000000000000000000000000000000000000000000000 PUSH1 0x0 MSTORE PUSH1 0x12 PUSH1 0x4 MSTORE PUSH1 0x24 PUSH1 0x0 REVERT JUMPDEST DUP4 PUSH1 0xA0 ADD MLOAD DUP5 PUSH1 0x0 ADD MLOAD MULMOD MULMOD DUP3 PUSH1 0x0 ADD DUP2 DUP2 MSTORE POP POP PUSH32 0x7FFFFFFFFFFFFFFFFFFFFFFFFFFFFFFFFFFFFFFFFFFFFFFFFFFFFFFFFFFFFFED DUP1 PUSH2 0xBA2 JUMPI PUSH32 0x4E487B7100000000000000000000000000000000000000000000000000000000 PUSH1 0x0 MSTORE PUSH1 0x12 PUSH1 0x4 MSTORE PUSH1 0x24 PUSH1 0x0 REVERT JUMPDEST PUSH32 0x7FFFFFFFFFFFFFFFFFFFFFFFFFFFFFFFFFFFFFFFFFFFFFFFFFFFFFFFFFFFFFED DUP1 PUSH2 0xBF7 JUMPI PUSH32 0x4E487B7100000000000000000000000000000000000000000000000000000000 PUSH1 0x0 MSTORE PUSH1 0x12 PUSH1 0x4 MSTORE PUSH1 0x24 PUSH1 0x0 REVERT JUMPDEST DUP3 PUSH1 0x40 ADD MLOAD DUP4 PUSH1 0x60 ADD MLOAD ADDMOD PUSH32 0x7FFFFFFFFFFFFFFFFFFFFFFFFFFFFFFFFFFFFFFFFFFFFFFFFFFFFFFFFFFFFFED DUP1 PUSH2 0xC57 JUMPI PUSH32 0x4E487B7100000000000000000000000000000000000000000000000000000000 PUSH1 0x0 MSTORE PUSH1 0x12 PUSH1 0x4 MSTORE PUSH1 0x24 PUSH1 0x0 REVERT JUMPDEST DUP4 PUSH1 0xC0 ADD MLOAD DUP5 PUSH1 0x0 ADD MLOAD MULMOD MULMOD DUP3 PUSH1 0x20 ADD DUP2 DUP2 MSTORE POP POP PUSH32 0x7FFFFFFFFFFFFFFFFFFFFFFFFFFFFFFFFFFFFFFFFFFFFFFFFFFFFFFFFFFFFFED DUP1 PUSH2 0xCC1 JUMPI PUSH32 0x4E487B7100000000000000000000000000000000000000000000000000000000 PUSH1 0x0 MSTORE PUSH1 0x12 PUSH1 0x4 MSTORE PUSH1 0x24 PUSH1 0x0 REVERT JUMPDEST DUP2 PUSH1 0xC0 ADD MLOAD DUP3 PUSH1 0xA0 ADD MLOAD MULMOD DUP3 PUSH1 0x40 ADD DUP2 DUP2 MSTORE POP POP POP SWAP3 SWAP2 POP POP JUMP JUMPDEST PUSH2 0xCE4 PUSH2 0x13F8 JUMP JUMPDEST PUSH2 0xCEC PUSH2 0x143B JUMP JUMPDEST PUSH32 0x7FFFFFFFFFFFFFFFFFFFFFFFFFFFFFFFFFFFFFFFFFFFFFFFFFFFFFFFFFFFFFED DUP1 PUSH2 0xD41 JUMPI PUSH32 0x4E487B7100000000000000000000000000000000000000000000000000000000 PUSH1 0x0 MSTORE PUSH1 0x12 PUSH1 0x4 MSTORE PUSH1 0x24 PUSH1 0x0 REVERT JUMPDEST DUP4 PUSH1 0x20 ADD MLOAD DUP5 PUSH1 0x0 ADD MLOAD ADDMOD DUP2 PUSH1 0x0 ADD DUP2 DUP2 MSTORE POP POP PUSH32 0x7FFFFFFFFFFFFFFFFFFFFFFFFFFFFFFFFFFFFFFFFFFFFFFFFFFFFFFFFFFFFFED DUP1 PUSH2 0xDAA JUMPI PUSH32 0x4E487B7100000000000000000000000000000000000000000000000000000000 PUSH1 0x0 MSTORE PUSH1 0x12 PUSH1 0x4 MSTORE PUSH1 0x24 PUSH1 0x0 REVERT JUMPDEST DUP2 PUSH1 0x0 ADD MLOAD DUP3 PUSH1 0x0 ADD MLOAD MULMOD DUP2 PUSH1 0x20 ADD DUP2 DUP2 MSTORE POP POP PUSH32 0x7FFFFFFFFFFFFFFFFFFFFFFFFFFFFFFFFFFFFFFFFFFFFFFFFFFFFFFFFFFFFFED DUP1 PUSH2 0xE13 JUMPI PUSH32 0x4E487B7100000000000000000000000000000000000000000000000000000000 PUSH1 0x0 MSTORE PUSH1 0x12 PUSH1 0x4 MSTORE PUSH1 0x24 PUSH1 0x0 REVERT JUMPDEST DUP4 PUSH1 0x0 ADD MLOAD DUP5 PUSH1 0x0 ADD MLOAD MULMOD DUP2 PUSH1 0x40 ADD DUP2 DUP2 MSTORE POP POP PUSH32 0x7FFFFFFFFFFFFFFFFFFFFFFFFFFFFFFFFFFFFFFFFFFFFFFFFFFFFFFFFFFFFFED DUP1 PUSH2 0xE7C JUMPI PUSH32 0x4E487B7100000000000000000000000000000000000000000000000000000000 PUSH1 0x0 MSTORE PUSH1 0x12 PUSH1 0x4 MSTORE PUSH1 0x24 PUSH1 0x0 REVERT JUMPDEST DUP4 PUSH1 0x20 ADD MLOAD DUP5 PUSH1 0x20 ADD MLOAD MULMOD DUP2 PUSH1 0x60 ADD DUP2 DUP2 MSTORE POP POP DUP1 PUSH1 0x40 ADD MLOAD PUSH32 0x7FFFFFFFFFFFFFFFFFFFFFFFFFFFFFFFFFFFFFFFFFFFFFFFFFFFFFFFFFFFFFED PUSH2 0xEC0 SWAP2 SWAP1 PUSH2 0x16EC JUMP JUMPDEST DUP2 PUSH1 0x80 ADD DUP2 DUP2 MSTORE POP POP PUSH32 0x7FFFFFFFFFFFFFFFFFFFFFFFFFFFFFFFFFFFFFFFFFFFFFFFFFFFFFFFFFFFFFED DUP1 PUSH2 0xF1E JUMPI PUSH32 0x4E487B7100000000000000000000000000000000000000000000000000000000 PUSH1 0x0 MSTORE PUSH1 0x12 PUSH1 0x4 MSTORE PUSH1 0x24 PUSH1 0x0 REVERT JUMPDEST DUP2 PUSH1 0x60 ADD MLOAD DUP3 PUSH1 0x80 ADD MLOAD ADDMOD DUP2 PUSH1 0xA0 ADD DUP2 DUP2 MSTORE POP POP PUSH32 0x7FFFFFFFFFFFFFFFFFFFFFFFFFFFFFFFFFFFFFFFFFFFFFFFFFFFFFFFFFFFFFED DUP1 PUSH2 0xF87 JUMPI PUSH32 0x4E487B7100000000000000000000000000000000000000000000000000000000 PUSH1 0x0 MSTORE PUSH1 0x12 PUSH1 0x4 MSTORE PUSH1 0x24 PUSH1 0x0 REVERT JUMPDEST DUP4 PUSH1 0x40 ADD MLOAD DUP5 PUSH1 0x40 ADD MLOAD MULMOD DUP2 PUSH1 0xE0 ADD DUP2 DUP2 MSTORE POP POP PUSH32 0x7FFFFFFFFFFFFFFFFFFFFFFFFFFFFFFFFFFFFFFFFFFFFFFFFFFFFFFFFFFFFFED DUP1 PUSH2 0xFF0 JUMPI PUSH32 0x4E487B7100000000000000000000000000000000000000000000000000000000 PUSH1 0x0 MSTORE PUSH1 0x12 PUSH1 0x4 MSTORE PUSH1 0x24 PUSH1 0x0 REVERT JUMPDEST PUSH32 0x7FFFFFFFFFFFFFFFFFFFFFFFFFFFFFFFFFFFFFFFFFFFFFFFFFFFFFFFFFFFFFED DUP1 PUSH2 0x1045 JUMPI PUSH32 0x4E487B7100000000000000000000000000000000000000000000000000000000 PUSH1 0x0 MSTORE PUSH1 0x12 PUSH1 0x4 MSTORE PUSH1 0x24 PUSH1 0x0 REVERT JUMPDEST DUP3 PUSH1 0xE0 ADD MLOAD PUSH1 0x2 MULMOD PUSH32 0x7FFFFFFFFFFFFFFFFFFFFFFFFFFFFFFFFFFFFFFFFFFFFFFFFFFFFFFFFFFFFFED PUSH2 0x1078 SWAP2 SWAP1 PUSH2 0x16EC JUMP JUMPDEST DUP3 PUSH1 0xA0 ADD MLOAD ADDMOD DUP2 PUSH1 0xC0 ADD DUP2 DUP2 MSTORE POP POP PUSH32 0x7FFFFFFFFFFFFFFFFFFFFFFFFFFFFFFFFFFFFFFFFFFFFFFFFFFFFFFFFFFFFFED DUP1 PUSH2 0x10DC JUMPI PUSH32 0x4E487B7100000000000000000000000000000000000000000000000000000000 PUSH1 0x0 MSTORE PUSH1 0x12 PUSH1 0x4 MSTORE PUSH1 0x24 PUSH1 0x0 REVERT JUMPDEST DUP2 PUSH1 0xC0 ADD MLOAD PUSH32 0x7FFFFFFFFFFFFFFFFFFFFFFFFFFFFFFFFFFFFFFFFFFFFFFFFFFFFFFFFFFFFFED DUP1 PUSH2 0x1136 JUMPI PUSH32 0x4E487B7100000000000000000000000000000000000000000000000000000000 PUSH1 0x0 MSTORE PUSH1 0x12 PUSH1 0x4 MSTORE PUSH1 0x24 PUSH1 0x0 REVERT JUMPDEST DUP4 PUSH1 0x60 ADD MLOAD PUSH32 0x7FFFFFFFFFFFFFFFFFFFFFFFFFFFFFFFFFFFFFFFFFFFFFFFFFFFFFFFFFFFFFED PUSH2 0x1166 SWAP2 SWAP1 PUSH2 0x16EC JUMP JUMPDEST PUSH32 0x7FFFFFFFFFFFFFFFFFFFFFFFFFFFFFFFFFFFFFFFFFFFFFFFFFFFFFFFFFFFFFED DUP1 PUSH2 0x11BB JUMPI PUSH32 0x4E487B7100000000000000000000000000000000000000000000000000000000 PUSH1 0x0 MSTORE PUSH1 0x12 PUSH1 0x4 MSTORE PUSH1 0x24 PUSH1 0x0 REVERT JUMPDEST DUP6 PUSH1 0x40 ADD MLOAD PUSH32 0x7FFFFFFFFFFFFFFFFFFFFFFFFFFFFFFFFFFFFFFFFFFFFFFFFFFFFFFFFFFFFFED PUSH2 0x11EB SWAP2 SWAP1 PUSH2 0x16EC JUMP JUMPDEST DUP7 PUSH1 0x20 ADD MLOAD ADDMOD ADDMOD MULMOD DUP3 PUSH1 0x0 ADD DUP2 DUP2 MSTORE POP POP PUSH32 0x7FFFFFFFFFFFFFFFFFFFFFFFFFFFFFFFFFFFFFFFFFFFFFFFFFFFFFFFFFFFFFED DUP1 PUSH2 0x1251 JUMPI PUSH32 0x4E487B7100000000000000000000000000000000000000000000000000000000 PUSH1 0x0 MSTORE PUSH1 0x12 PUSH1 0x4 MSTORE PUSH1 0x24 PUSH1 0x0 REVERT JUMPDEST PUSH32 0x7FFFFFFFFFFFFFFFFFFFFFFFFFFFFFFFFFFFFFFFFFFFFFFFFFFFFFFFFFFFFFED DUP1 PUSH2 0x12A6 JUMPI PUSH32 0x4E487B7100000000000000000000000000000000000000000000000000000000 PUSH1 0x0 MSTORE PUSH1 0x12 PUSH1 0x4 MSTORE PUSH1 0x24 PUSH1 0x0 REVERT JUMPDEST DUP3 PUSH1 0x60 ADD MLOAD PUSH32 0x7FFFFFFFFFFFFFFFFFFFFFFFFFFFFFFFFFFFFFFFFFFFFFFFFFFFFFFFFFFFFFED PUSH2 0x12D6 SWAP2 SWAP1 PUSH2 0x16EC JUMP JUMPDEST DUP4 PUSH1 0x80 ADD MLOAD ADDMOD DUP3 PUSH1 0xA0 ADD MLOAD MULMOD DUP3 PUSH1 0x20 ADD DUP2 DUP2 MSTORE POP POP PUSH32 0x7FFFFFFFFFFFFFFFFFFFFFFFFFFFFFFFFFFFFFFFFFFFFFFFFFFFFFFFFFFFFFED DUP1 PUSH2 0x1340 JUMPI PUSH32 0x4E487B7100000000000000000000000000000000000000000000000000000000 PUSH1 0x0 MSTORE PUSH1 0x12 PUSH1 0x4 MSTORE PUSH1 0x24 PUSH1 0x0 REVERT JUMPDEST DUP2 PUSH1 0xC0 ADD MLOAD DUP3 PUSH1 0xA0 ADD MLOAD MULMOD DUP3 PUSH1 0x40 ADD DUP2 DUP2 MSTORE POP POP POP SWAP2 SWAP1 POP JUMP JUMPDEST PUSH1 0x0 DUP1 PUSH1 0x2 PUSH32 0x7FFFFFFFFFFFFFFFFFFFFFFFFFFFFFFFFFFFFFFFFFFFFFFFFFFFFFFFFFFFFFED PUSH2 0x138A SWAP2 SWAP1 PUSH2 0x16EC JUMP JUMPDEST SWAP1 POP PUSH1 0x0 PUSH32 0x7FFFFFFFFFFFFFFFFFFFFFFFFFFFFFFFFFFFFFFFFFFFFFFFFFFFFFFFFFFFFFED SWAP1 POP PUSH1 0x40 MLOAD PUSH1 0x20 DUP2 MSTORE PUSH1 0x20 DUP1 DUP3 ADD MSTORE PUSH1 0x20 PUSH1 0x40 DUP3 ADD MSTORE DUP5 PUSH1 0x60 DUP3 ADD MSTORE DUP3 PUSH1 0x80 DUP3 ADD MSTORE DUP2 PUSH1 0xA0 DUP3 ADD MSTORE PUSH1 0x20 DUP2 PUSH1 0xC0 DUP4 PUSH1 0x5 PUSH1 0x0 NOT STATICCALL PUSH2 0x13EC JUMPI PUSH1 0x0 DUP1 REVERT JUMPDEST DUP1 MLOAD SWAP4 POP POP POP POP SWAP2 SWAP1 POP JUMP JUMPDEST PUSH1 0x40 MLOAD DUP1 PUSH1 0x60 ADD PUSH1 0x40 MSTORE DUP1 PUSH1 0x0 DUP2 MSTORE PUSH1 0x20 ADD PUSH1 0x0 DUP2 MSTORE PUSH1 0x20 ADD PUSH1 0x0 DUP2 MSTORE POP SWAP1 JUMP JUMPDEST PUSH1 0x40 MLOAD DUP1 PUSH1 0x40 ADD PUSH1 0x40 MSTORE DUP1 PUSH1 0x2 SWAP1 PUSH1 0x20 DUP3 MUL DUP1 CALLDATASIZE DUP4 CALLDATACOPY DUP1 DUP3 ADD SWAP2 POP POP SWAP1 POP POP SWAP1 JUMP JUMPDEST PUSH1 0x40 MLOAD DUP1 PUSH2 0x100 ADD PUSH1 0x40 MSTORE DUP1 PUSH1 0x0 DUP2 MSTORE PUSH1 0x20 ADD PUSH1 0x0 DUP2 MSTORE PUSH1 0x20 ADD PUSH1 0x0 DUP2 MSTORE PUSH1 0x20 ADD PUSH1 0x0 DUP2 MSTORE PUSH1 0x20 ADD PUSH1 0x0 DUP2 MSTORE PUSH1 0x20 ADD PUSH1 0x0 DUP2 MSTORE PUSH1 0x20 ADD PUSH1 0x0 DUP2 MSTORE PUSH1 0x20 ADD PUSH1 0x0 DUP2 MSTORE POP SWAP1 JUMP JUMPDEST PUSH1 0x0 PUSH2 0x1493 PUSH2 0x148E DUP5 PUSH2 0x1699 JUMP JUMPDEST PUSH2 0x1668 JUMP JUMPDEST SWAP1 POP DUP1 DUP3 DUP6 PUSH1 0x20 DUP7 MUL DUP3 ADD GT ISZERO PUSH2 0x14A9 JUMPI PUSH1 0x0 DUP1 REVERT JUMPDEST PUSH1 0x0 JUMPDEST DUP6 DUP2 LT ISZERO PUSH2 0x14D9 JUMPI DUP2 PUSH2 0x14BF DUP9 DUP3 PUSH2 0x150A JUMP JUMPDEST DUP5 MSTORE PUSH1 0x20 DUP5 ADD SWAP4 POP PUSH1 0x20 DUP4 ADD SWAP3 POP POP PUSH1 0x1 DUP2 ADD SWAP1 POP PUSH2 0x14AC JUMP JUMPDEST POP POP POP SWAP4 SWAP3 POP POP POP JUMP JUMPDEST PUSH1 0x0 DUP3 PUSH1 0x1F DUP4 ADD SLT PUSH2 0x14F4 JUMPI PUSH1 0x0 DUP1 REVERT JUMPDEST PUSH1 0x2 PUSH2 0x1501 DUP5 DUP3 DUP6 PUSH2 0x1480 JUMP JUMPDEST SWAP2 POP POP SWAP3 SWAP2 POP POP JUMP JUMPDEST PUSH1 0x0 DUP2 CALLDATALOAD SWAP1 POP PUSH2 0x1519 DUP2 PUSH2 0x1788 JUMP JUMPDEST SWAP3 SWAP2 POP POP JUMP JUMPDEST PUSH1 0x0 DUP1 PUSH1 0x80 DUP4 DUP6 SUB SLT ISZERO PUSH2 0x1532 JUMPI PUSH1 0x0 DUP1 REVERT JUMPDEST PUSH1 0x0 PUSH2 0x1540 DUP6 DUP3 DUP7 ADD PUSH2 0x14E3 JUMP JUMPDEST SWAP3 POP POP PUSH1 0x40 PUSH2 0x1551 DUP6 DUP3 DUP7 ADD PUSH2 0x14E3 JUMP JUMPDEST SWAP2 POP POP SWAP3 POP SWAP3 SWAP1 POP JUMP JUMPDEST PUSH1 0x0 DUP1 PUSH1 0x60 DUP4 DUP6 SUB SLT ISZERO PUSH2 0x156E JUMPI PUSH1 0x0 DUP1 REVERT JUMPDEST PUSH1 0x0 PUSH2 0x157C DUP6 DUP3 DUP7 ADD PUSH2 0x14E3 JUMP JUMPDEST SWAP3 POP POP PUSH1 0x40 PUSH2 0x158D DUP6 DUP3 DUP7 ADD PUSH2 0x150A JUMP JUMPDEST SWAP2 POP POP SWAP3 POP SWAP3 SWAP1 POP JUMP JUMPDEST PUSH1 0x0 PUSH2 0x15A3 DUP4 DUP4 PUSH2 0x1606 JUMP JUMPDEST PUSH1 0x20 DUP4 ADD SWAP1 POP SWAP3 SWAP2 POP POP JUMP JUMPDEST PUSH2 0x15B8 DUP2 PUSH2 0x16C9 JUMP JUMPDEST PUSH2 0x15C2 DUP2 DUP5 PUSH2 0x16E1 JUMP JUMPDEST SWAP3 POP PUSH2 0x15CD DUP3 PUSH2 0x16BF JUMP JUMPDEST DUP1 PUSH1 0x0 JUMPDEST DUP4 DUP2 LT ISZERO PUSH2 0x15FE JUMPI DUP2 MLOAD PUSH2 0x15E5 DUP8 DUP3 PUSH2 0x1597 JUMP JUMPDEST SWAP7 POP PUSH2 0x15F0 DUP4 PUSH2 0x16D4 JUMP JUMPDEST SWAP3 POP POP PUSH1 0x1 DUP2 ADD SWAP1 POP PUSH2 0x15D1 JUMP JUMPDEST POP POP POP POP POP POP JUMP JUMPDEST PUSH2 0x160F DUP2 PUSH2 0x1720 JUMP JUMPDEST DUP3 MSTORE POP POP JUMP JUMPDEST PUSH2 0x161E DUP2 PUSH2 0x1720 JUMP JUMPDEST DUP3 MSTORE POP POP JUMP JUMPDEST PUSH1 0x0 PUSH1 0x40 DUP3 ADD SWAP1 POP PUSH2 0x1639 PUSH1 0x0 DUP4 ADD DUP5 PUSH2 0x15AF JUMP JUMPDEST SWAP3 SWAP2 POP POP JUMP JUMPDEST PUSH1 0x0 PUSH1 0x40 DUP3 ADD SWAP1 POP PUSH2 0x1654 PUSH1 0x0 DUP4 ADD DUP6 PUSH2 0x1615 JUMP JUMPDEST PUSH2 0x1661 PUSH1 0x20 DUP4 ADD DUP5 PUSH2 0x1615 JUMP JUMPDEST SWAP4 SWAP3 POP POP POP JUMP JUMPDEST PUSH1 0x0 PUSH1 0x40 MLOAD SWAP1 POP DUP2 DUP2 ADD DUP2 DUP2 LT PUSH8 0xFFFFFFFFFFFFFFFF DUP3 GT OR ISZERO PUSH2 0x168F JUMPI PUSH2 0x168E PUSH2 0x1759 JUMP JUMPDEST JUMPDEST DUP1 PUSH1 0x40 MSTORE POP SWAP2 SWAP1 POP JUMP JUMPDEST PUSH1 0x0 PUSH8 0xFFFFFFFFFFFFFFFF DUP3 GT ISZERO PUSH2 0x16B4 JUMPI PUSH2 0x16B3 PUSH2 0x1759 JUMP JUMPDEST JUMPDEST PUSH1 0x20 DUP3 MUL SWAP1 POP SWAP2 SWAP1 POP JUMP JUMPDEST PUSH1 0x0 DUP2 SWAP1 POP SWAP2 SWAP1 POP JUMP JUMPDEST PUSH1 0x0 PUSH1 0x2 SWAP1 POP SWAP2 SWAP1 POP JUMP JUMPDEST PUSH1 0x0 PUSH1 0x20 DUP3 ADD SWAP1 POP SWAP2 SWAP1 POP JUMP JUMPDEST PUSH1 0x0 DUP2 SWAP1 POP SWAP3 SWAP2 POP POP JUMP JUMPDEST PUSH1 0x0 PUSH2 0x16F7 DUP3 PUSH2 0x1720 JUMP JUMPDEST SWAP2 POP PUSH2 0x1702 DUP4 PUSH2 0x1720 JUMP JUMPDEST SWAP3 POP DUP3 DUP3 LT ISZERO PUSH2 0x1715 JUMPI PUSH2 0x1714 PUSH2 0x172A JUMP JUMPDEST JUMPDEST DUP3 DUP3 SUB SWAP1 POP SWAP3 SWAP2 POP POP JUMP JUMPDEST PUSH1 0x0 DUP2 SWAP1 POP SWAP2 SWAP1 POP JUMP JUMPDEST PUSH32 0x4E487B7100000000000000000000000000000000000000000000000000000000 PUSH1 0x0 MSTORE PUSH1 0x11 PUSH1 0x4 MSTORE PUSH1 0x24 PUSH1 0x0 REVERT JUMPDEST PUSH32 0x4E487B7100000000000000000000000000000000000000000000000000000000 PUSH1 0x0 MSTORE PUSH1 0x41 PUSH1 0x4 MSTORE PUSH1 0x24 PUSH1 0x0 REVERT JUMPDEST PUSH2 0x1791 DUP2 PUSH2 0x1720 JUMP JUMPDEST DUP2 EQ PUSH2 0x179C JUMPI PUSH1 0x0 DUP1 REVERT JUMPDEST POP JUMP INVALID LOG2 PUSH5 0x6970667358 0x22 SLT KECCAK256 0x1E 0xDB 0xC BALANCE 0xC1 0x48 DUP1 LOG3 PUSH9 0xCE6B87A4B301E947CE 0xD4 COINBASE 0x5E 0xE2 0xE9 BYTE 0xC3 0xB7 0xDC 0xBA PUSH18 0x7F211564736F6C6343000800003300000000 "},"methodIdentifiers":{"ecAddVec(uint256[2],uint256[2])":"9b0fd8cd","scalarMult(uint256[2],uint256)":"500d8107"}}}}}