{"contracts/SCW.sol":{"SCWDeployer":{"abi":[{"inputs":[{"internalType":"address","name":"dkimCheckerAddress","type":"address"}],"stateMutability":"nonpayable","type":"constructor"},{"anonymous":false,"inputs":[{"indexed":false,"internalType":"bool","name":"","type":"bool"}],"name":"ReturnVal","type":"event"},{"inputs":[{"internalType":"string","name":"a","type":"string"},{"internalType":"string","name":"b","type":"string"}],"name":"compareStrings","outputs":[{"internalType":"bool","name":"","type":"bool"}],"stateMutability":"pure","type":"function"},{"inputs":[{"internalType":"string","name":"_selector","type":"string"},{"internalType":"string","name":"_domain","type":"string"},{"internalType":"bytes","name":"_sig","type":"bytes"},{"internalType":"bytes","name":"_canonicalizedHeader","type":"bytes"},{"internalType":"string","name":"_emailToVerify","type":"string"},{"internalType":"string","name":"_nonceToVerify","type":"string"}],"name":"confirmNewAccountEmail","outputs":[{"internalType":"bool","name":"","type":"bool"}],"stateMutability":"nonpayable","type":"function"},{"inputs":[{"internalType":"string","name":"email","type":"string"},{"internalType":"string","name":"nonce","type":"string"}],"name":"createNewAccount","outputs":[{"internalType":"bool","name":"","type":"bool"}],"stateMutability":"nonpayable","type":"function"},{"inputs":[{"internalType":"string","name":"ownerEmail","type":"string"},{"internalType":"address","name":"ownerAddress","type":"address"}],"name":"deployNewSWC","outputs":[{"internalType":"address","name":"","type":"address"}],"stateMutability":"nonpayable","type":"function"},{"inputs":[{"internalType":"string","name":"userAddress","type":"string"}],"name":"getSCWAddressByEmail","outputs":[{"internalType":"address","name":"","type":"address"}],"stateMutability":"view","type":"function"}],"evm":{"bytecode":{"linkReferences":{},"object":"60806040523480156200001157600080fd5b50604051620020c6380380620020c6833981810160405281019062000037919062000096565b80600560006101000a81548173ffffffffffffffffffffffffffffffffffffffff021916908373ffffffffffffffffffffffffffffffffffffffff1602179055505062000110565b6000815190506200009081620000f6565b92915050565b600060208284031215620000a957600080fd5b6000620000b9848285016200007f565b91505092915050565b6000620000cf82620000d6565b9050919050565b600073ffffffffffffffffffffffffffffffffffffffff82169050919050565b6200010181620000c2565b81146200010d57600080fd5b50565b611fa680620001206000396000f3fe60806040523480156200001157600080fd5b50600436106200005e5760003560e01c80632380cca61462000063578063710f5d931462000099578063bed34bba14620000cf578063d98dd1b41462000105578063dab76a1b146200013b575b600080fd5b6200008160048036038101906200007b919062000e3b565b62000171565b60405162000090919062001461565b60405180910390f35b620000b76004803603810190620000b1919062000eda565b620001ba565b604051620000c69190620014b2565b60405180910390f35b620000ed6004803603810190620000e7919062000eda565b6200036c565b604051620000fc9190620014b2565b60405180910390f35b6200012360048036038101906200011d919062000e80565b62000387565b60405162000132919062001461565b60405180910390f35b62000159600480360381019062000153919062000f4d565b62000705565b604051620001689190620014b2565b60405180910390f35b6000808260405162000184919062001448565b908152602001604051809103902060009054906101000a900473ffffffffffffffffffffffffffffffffffffffff169050919050565b60008073ffffffffffffffffffffffffffffffffffffffff16600084604051620001e5919062001448565b908152602001604051809103902060009054906101000a900473ffffffffffffffffffffffffffffffffffffffff1673ffffffffffffffffffffffffffffffffffffffff16146200026d576040517f08c379a000000000000000000000000000000000000000000000000000000000815260040162000264906200157c565b60405180910390fd5b3360018460405162000280919062001448565b908152602001604051809103902060006101000a81548173ffffffffffffffffffffffffffffffffffffffff021916908373ffffffffffffffffffffffffffffffffffffffff16021790555042600284604051620002df919062001448565b9081526020016040518091039020819055508160038460405162000304919062001448565b908152602001604051809103902090805190602001906200032792919062000c3f565b507fff3010ae5fe3144d9922cf3389b9bf30da6f991746f58a3177e3427ff9c7ef5460016040516200035a9190620014b2565b60405180910390a16001905092915050565b60008180519060200120838051906020012014905092915050565b60006004836040516200039b919062001448565b908152602001604051809103902060009054906101000a900460ff16620003f9576040517f08c379a0000000000000000000000000000000000000000000000000000000008152600401620003f09062001626565b60405180910390fd5b3373ffffffffffffffffffffffffffffffffffffffff1660018460405162000422919062001448565b908152602001604051809103902060009054906101000a900473ffffffffffffffffffffffffffffffffffffffff1673ffffffffffffffffffffffffffffffffffffffff1614620004aa576040517f08c379a0000000000000000000000000000000000000000000000000000000008152600401620004a1906200159e565b60405180910390fd5b620004d5600284604051620004c0919062001448565b90815260200160405180910390205462000c23565b156200061d576000600184604051620004ef919062001448565b908152602001604051809103902060006101000a81548173ffffffffffffffffffffffffffffffffffffffff021916908373ffffffffffffffffffffffffffffffffffffffff16021790555060006002846040516200054f919062001448565b9081526020016040518091039020819055506040518060200160405280600081525060038460405162000583919062001448565b90815260200160405180910390209080519060200190620005a692919062000c3f565b506000600484604051620005bb919062001448565b908152602001604051809103902060006101000a81548160ff0219169083151502179055506040517f08c379a000000000000000000000000000000000000000000000000000000000815260040162000614906200155a565b60405180910390fd5b600082846040516200062f9062000cd0565b6200063c9291906200147e565b604051809103906000f08015801562000659573d6000803e3d6000fd5b509050806000856040516200066f919062001448565b908152602001604051809103902060006101000a81548173ffffffffffffffffffffffffffffffffffffffff021916908373ffffffffffffffffffffffffffffffffffffffff160217905550600084604051620006cd919062001448565b908152602001604051809103902060009054906101000a900473ffffffffffffffffffffffffffffffffffffffff1691505092915050565b60008073ffffffffffffffffffffffffffffffffffffffff1660018460405162000730919062001448565b908152602001604051809103902060009054906101000a900473ffffffffffffffffffffffffffffffffffffffff1673ffffffffffffffffffffffffffffffffffffffff161415620007b9576040517f08c379a0000000000000000000000000000000000000000000000000000000008152600401620007b090620015c0565b60405180910390fd5b3373ffffffffffffffffffffffffffffffffffffffff16600184604051620007e2919062001448565b908152602001604051809103902060009054906101000a900473ffffffffffffffffffffffffffffffffffffffff1673ffffffffffffffffffffffffffffffffffffffff16146200086a576040517f08c379a00000000000000000000000000000000000000000000000000000000081526004016200086190620015e2565b60405180910390fd5b6200089560028460405162000880919062001448565b90815260200160405180910390205462000c23565b15620009dd576000600184604051620008af919062001448565b908152602001604051809103902060006101000a81548173ffffffffffffffffffffffffffffffffffffffff021916908373ffffffffffffffffffffffffffffffffffffffff16021790555060006002846040516200090f919062001448565b9081526020016040518091039020819055506040518060200160405280600081525060038460405162000943919062001448565b908152602001604051809103902090805190602001906200096692919062000c3f565b5060006004846040516200097b919062001448565b908152602001604051809103902060006101000a81548160ff0219169083151502179055506040517f08c379a0000000000000000000000000000000000000000000000000000000008152600401620009d4906200155a565b60405180910390fd5b62000a9982600385604051620009f4919062001448565b9081526020016040518091039020805462000a0f9062001811565b80601f016020809104026020016040519081016040528092919081815260200182805462000a3d9062001811565b801562000a8e5780601f1062000a625761010080835404028352916020019162000a8e565b820191906000526020600020905b81548152906001019060200180831162000a7057829003601f168201915b50505050506200036c565b62000adb576040517f08c379a000000000000000000000000000000000000000000000000000000000815260040162000ad29062001538565b60405180910390fd5b6000600560009054906101000a900473ffffffffffffffffffffffffffffffffffffffff1673ffffffffffffffffffffffffffffffffffffffff16633d69d2f7898989896040518563ffffffff1660e01b815260040162000b409493929190620014cf565b602060405180830381600087803b15801562000b5b57600080fd5b505af115801562000b70573d6000803e3d6000fd5b505050506040513d601f19601f8201168201806040525081019062000b96919062000e0f565b90508062000bdb576040517f08c379a000000000000000000000000000000000000000000000000000000000815260040162000bd29062001604565b60405180910390fd5b600160048560405162000bef919062001448565b908152602001604051809103902060006101000a81548160ff02191690831515021790555060019150509695505050505050565b600061012c8262000c35919062001725565b4210159050919050565b82805462000c4d9062001811565b90600052602060002090601f01602090048101928262000c71576000855562000cbd565b82601f1062000c8c57805160ff191683800117855562000cbd565b8280016001018555821562000cbd579182015b8281111562000cbc57825182559160200191906001019062000c9f565b5b50905062000ccc919062000cde565b5090565b610657806200191a83390190565b5b8082111562000cf957600081600090555060010162000cdf565b5090565b600062000d1462000d0e846200167c565b62001648565b90508281526020810184848401111562000d2d57600080fd5b62000d3a848285620017cc565b509392505050565b600062000d5962000d5384620016af565b62001648565b90508281526020810184848401111562000d7257600080fd5b62000d7f848285620017cc565b509392505050565b60008135905062000d9881620018e5565b92915050565b60008151905062000daf81620018ff565b92915050565b600082601f83011262000dc757600080fd5b813562000dd984826020860162000cfd565b91505092915050565b600082601f83011262000df457600080fd5b813562000e0684826020860162000d42565b91505092915050565b60006020828403121562000e2257600080fd5b600062000e328482850162000d9e565b91505092915050565b60006020828403121562000e4e57600080fd5b600082013567ffffffffffffffff81111562000e6957600080fd5b62000e778482850162000de2565b91505092915050565b6000806040838503121562000e9457600080fd5b600083013567ffffffffffffffff81111562000eaf57600080fd5b62000ebd8582860162000de2565b925050602062000ed08582860162000d87565b9150509250929050565b6000806040838503121562000eee57600080fd5b600083013567ffffffffffffffff81111562000f0957600080fd5b62000f178582860162000de2565b925050602083013567ffffffffffffffff81111562000f3557600080fd5b62000f438582860162000de2565b9150509250929050565b60008060008060008060c0878903121562000f6757600080fd5b600087013567ffffffffffffffff81111562000f8257600080fd5b62000f9089828a0162000de2565b965050602087013567ffffffffffffffff81111562000fae57600080fd5b62000fbc89828a0162000de2565b955050604087013567ffffffffffffffff81111562000fda57600080fd5b62000fe889828a0162000db5565b945050606087013567ffffffffffffffff8111156200100657600080fd5b6200101489828a0162000db5565b935050608087013567ffffffffffffffff8111156200103257600080fd5b6200104089828a0162000de2565b92505060a087013567ffffffffffffffff8111156200105e57600080fd5b6200106c89828a0162000de2565b9150509295509295509295565b620010848162001782565b82525050565b620010958162001796565b82525050565b6000620010a882620016e2565b620010b48185620016f8565b9350620010c6818560208601620017db565b620010d181620018d4565b840191505092915050565b6000620010e982620016ed565b620010f5818562001709565b935062001107818560208601620017db565b6200111281620018d4565b840191505092915050565b60006200112a82620016ed565b6200113681856200171a565b935062001148818560208601620017db565b80840191505092915050565b600062001163600d8362001709565b91507f496e76616c6964206e6f6e6365000000000000000000000000000000000000006000830152602082019050919050565b6000620011a560158362001709565b91507f417574682070726f6363657373206578706972656400000000000000000000006000830152602082019050919050565b6000620011e7602d8362001709565b91507f5468697320656d61696c20697320616c7265616479206173736f63696174656460008301527f20746f2061206163636f756e74000000000000000000000000000000000000006020830152604082019050919050565b60006200124f604e8362001709565b91507f6465706c6f794e6577535743206d7573742062652063616c6c6564206279207460008301527f68652073616d652061646472657373207468617420737461727465642074686560208301527f20617574682070726f63636573730000000000000000000000000000000000006040830152606082019050919050565b6000620012dd603a8362001709565b91507f417574682070726f636365737320686173206e6f7420737461727465642e204360008301527f616c6c206372656174654e65774163636f756e742066697273740000000000006020830152604082019050919050565b600062001345603b8362001709565b91507f4576657279207374657073206f6620417574682070726f63657373206d75737460008301527f20626520646f6e65206279207468652073616d652073656e64657200000000006020830152604082019050919050565b6000620013ad60208362001709565b91507f444b494d20636865636b206661696c656420666f72207468697320656d61696c6000830152602082019050919050565b6000620013ef60388362001709565b91507f456d61696c206973206e6f742076657269666965642e2043616c6c20636f6e6660008301527f69726d4e65774163636f756e74456d61696c20666972737400000000000000006020830152604082019050919050565b60006200145682846200111d565b915081905092915050565b600060208201905062001478600083018462001079565b92915050565b600060408201905062001495600083018562001079565b8181036020830152620014a98184620010dc565b90509392505050565b6000602082019050620014c960008301846200108a565b92915050565b60006080820190508181036000830152620014eb8187620010dc565b90508181036020830152620015018186620010dc565b905081810360408301526200151781856200109b565b905081810360608301526200152d81846200109b565b905095945050505050565b60006020820190508181036000830152620015538162001154565b9050919050565b60006020820190508181036000830152620015758162001196565b9050919050565b600060208201905081810360008301526200159781620011d8565b9050919050565b60006020820190508181036000830152620015b98162001240565b9050919050565b60006020820190508181036000830152620015db81620012ce565b9050919050565b60006020820190508181036000830152620015fd8162001336565b9050919050565b600060208201905081810360008301526200161f816200139e565b9050919050565b600060208201905081810360008301526200164181620013e0565b9050919050565b6000604051905081810181811067ffffffffffffffff82111715620016725762001671620018a5565b5b8060405250919050565b600067ffffffffffffffff8211156200169a5762001699620018a5565b5b601f19601f8301169050602081019050919050565b600067ffffffffffffffff821115620016cd57620016cc620018a5565b5b601f19601f8301169050602081019050919050565b600081519050919050565b600081519050919050565b600082825260208201905092915050565b600082825260208201905092915050565b600081905092915050565b60006200173282620017c2565b91506200173f83620017c2565b9250827fffffffffffffffffffffffffffffffffffffffffffffffffffffffffffffffff0382111562001777576200177662001847565b5b828201905092915050565b60006200178f82620017a2565b9050919050565b60008115159050919050565b600073ffffffffffffffffffffffffffffffffffffffff82169050919050565b6000819050919050565b82818337600083830152505050565b60005b83811015620017fb578082015181840152602081019050620017de565b838111156200180b576000848401525b50505050565b600060028204905060018216806200182a57607f821691505b6020821081141562001841576200184062001876565b5b50919050565b7f4e487b7100000000000000000000000000000000000000000000000000000000600052601160045260246000fd5b7f4e487b7100000000000000000000000000000000000000000000000000000000600052602260045260246000fd5b7f4e487b7100000000000000000000000000000000000000000000000000000000600052604160045260246000fd5b6000601f19601f8301169050919050565b620018f08162001782565b8114620018fc57600080fd5b50565b6200190a8162001796565b81146200191657600080fd5b5056fe608060405234801561001057600080fd5b50604051610657380380610657833981810160405281019061003291906101b0565b816000806101000a81548173ffffffffffffffffffffffffffffffffffffffff021916908373ffffffffffffffffffffffffffffffffffffffff1602179055508060019080519060200190610088929190610090565b505050610371565b82805461009c906102ca565b90600052602060002090601f0160209004810192826100be5760008555610105565b82601f106100d757805160ff1916838001178555610105565b82800160010185558215610105579182015b828111156101045782518255916020019190600101906100e9565b5b5090506101129190610116565b5090565b5b8082111561012f576000816000905550600101610117565b5090565b600061014661014184610235565b610204565b90508281526020810184848401111561015e57600080fd5b610169848285610297565b509392505050565b6000815190506101808161035a565b92915050565b600082601f83011261019757600080fd5b81516101a7848260208601610133565b91505092915050565b600080604083850312156101c357600080fd5b60006101d185828601610171565b925050602083015167ffffffffffffffff8111156101ee57600080fd5b6101fa85828601610186565b9150509250929050565b6000604051905081810181811067ffffffffffffffff8211171561022b5761022a61032b565b5b8060405250919050565b600067ffffffffffffffff8211156102505761024f61032b565b5b601f19601f8301169050602081019050919050565b600061027082610277565b9050919050565b600073ffffffffffffffffffffffffffffffffffffffff82169050919050565b60005b838110156102b557808201518184015260208101905061029a565b838111156102c4576000848401525b50505050565b600060028204905060018216806102e257607f821691505b602082108114156102f6576102f56102fc565b5b50919050565b7f4e487b7100000000000000000000000000000000000000000000000000000000600052602260045260246000fd5b7f4e487b7100000000000000000000000000000000000000000000000000000000600052604160045260246000fd5b61036381610265565b811461036e57600080fd5b50565b6102d7806103806000396000f3fe608060405234801561001057600080fd5b50600436106100365760003560e01c806328ef87051461003b5780638f84aa0914610059575b600080fd5b610043610077565b604051610050919061018c565b60405180910390f35b610061610105565b60405161006e9190610171565b60405180910390f35b600180546100849061022f565b80601f01602080910402602001604051908101604052809291908181526020018280546100b09061022f565b80156100fd5780601f106100d2576101008083540402835291602001916100fd565b820191906000526020600020905b8154815290600101906020018083116100e057829003601f168201915b505050505081565b60008054906101000a900473ffffffffffffffffffffffffffffffffffffffff1681565b610132816101ca565b82525050565b6000610143826101ae565b61014d81856101b9565b935061015d8185602086016101fc565b61016681610290565b840191505092915050565b60006020820190506101866000830184610129565b92915050565b600060208201905081810360008301526101a68184610138565b905092915050565b600081519050919050565b600082825260208201905092915050565b60006101d5826101dc565b9050919050565b600073ffffffffffffffffffffffffffffffffffffffff82169050919050565b60005b8381101561021a5780820151818401526020810190506101ff565b83811115610229576000848401525b50505050565b6000600282049050600182168061024757607f821691505b6020821081141561025b5761025a610261565b5b50919050565b7f4e487b7100000000000000000000000000000000000000000000000000000000600052602260045260246000fd5b6000601f19601f830116905091905056fea264697066735822122035295e85977f49e44a860fbdb7a4b9ab3eee6d11b8693b45f6e9c5f4836cde1e64736f6c63430008000033a2646970667358221220094245afc3dff8e373be99f67b0e5d6dda181749cfcb6182239d8cbdfe59081264736f6c63430008000033","opcodes":"PUSH1 0x80 PUSH1 0x40 MSTORE CALLVALUE DUP1 ISZERO PUSH3 0x11 JUMPI PUSH1 0x0 DUP1 REVERT JUMPDEST POP PUSH1 0x40 MLOAD PUSH3 0x20C6 CODESIZE SUB DUP1 PUSH3 0x20C6 DUP4 CODECOPY DUP2 DUP2 ADD PUSH1 0x40 MSTORE DUP2 ADD SWAP1 PUSH3 0x37 SWAP2 SWAP1 PUSH3 0x96 JUMP JUMPDEST DUP1 PUSH1 0x5 PUSH1 0x0 PUSH2 0x100 EXP DUP2 SLOAD DUP2 PUSH20 0xFFFFFFFFFFFFFFFFFFFFFFFFFFFFFFFFFFFFFFFF MUL NOT AND SWAP1 DUP4 PUSH20 0xFFFFFFFFFFFFFFFFFFFFFFFFFFFFFFFFFFFFFFFF AND MUL OR SWAP1 SSTORE POP POP PUSH3 0x110 JUMP JUMPDEST PUSH1 0x0 DUP2 MLOAD SWAP1 POP PUSH3 0x90 DUP2 PUSH3 0xF6 JUMP JUMPDEST SWAP3 SWAP2 POP POP JUMP JUMPDEST PUSH1 0x0 PUSH1 0x20 DUP3 DUP5 SUB SLT ISZERO PUSH3 0xA9 JUMPI PUSH1 0x0 DUP1 REVERT JUMPDEST PUSH1 0x0 PUSH3 0xB9 DUP5 DUP3 DUP6 ADD PUSH3 0x7F JUMP JUMPDEST SWAP2 POP POP SWAP3 SWAP2 POP POP JUMP JUMPDEST PUSH1 0x0 PUSH3 0xCF DUP3 PUSH3 0xD6 JUMP JUMPDEST SWAP1 POP SWAP2 SWAP1 POP JUMP JUMPDEST PUSH1 0x0 PUSH20 0xFFFFFFFFFFFFFFFFFFFFFFFFFFFFFFFFFFFFFFFF DUP3 AND SWAP1 POP SWAP2 SWAP1 POP JUMP JUMPDEST PUSH3 0x101 DUP2 PUSH3 0xC2 JUMP JUMPDEST DUP2 EQ PUSH3 0x10D JUMPI PUSH1 0x0 DUP1 REVERT JUMPDEST POP JUMP JUMPDEST PUSH2 0x1FA6 DUP1 PUSH3 0x120 PUSH1 0x0 CODECOPY PUSH1 0x0 RETURN INVALID PUSH1 0x80 PUSH1 0x40 MSTORE CALLVALUE DUP1 ISZERO PUSH3 0x11 JUMPI PUSH1 0x0 DUP1 REVERT JUMPDEST POP PUSH1 0x4 CALLDATASIZE LT PUSH3 0x5E JUMPI PUSH1 0x0 CALLDATALOAD PUSH1 0xE0 SHR DUP1 PUSH4 0x2380CCA6 EQ PUSH3 0x63 JUMPI DUP1 PUSH4 0x710F5D93 EQ PUSH3 0x99 JUMPI DUP1 PUSH4 0xBED34BBA EQ PUSH3 0xCF JUMPI DUP1 PUSH4 0xD98DD1B4 EQ PUSH3 0x105 JUMPI DUP1 PUSH4 0xDAB76A1B EQ PUSH3 0x13B JUMPI JUMPDEST PUSH1 0x0 DUP1 REVERT JUMPDEST PUSH3 0x81 PUSH1 0x4 DUP1 CALLDATASIZE SUB DUP2 ADD SWAP1 PUSH3 0x7B SWAP2 SWAP1 PUSH3 0xE3B JUMP JUMPDEST PUSH3 0x171 JUMP JUMPDEST PUSH1 0x40 MLOAD PUSH3 0x90 SWAP2 SWAP1 PUSH3 0x1461 JUMP JUMPDEST PUSH1 0x40 MLOAD DUP1 SWAP2 SUB SWAP1 RETURN JUMPDEST PUSH3 0xB7 PUSH1 0x4 DUP1 CALLDATASIZE SUB DUP2 ADD SWAP1 PUSH3 0xB1 SWAP2 SWAP1 PUSH3 0xEDA JUMP JUMPDEST PUSH3 0x1BA JUMP JUMPDEST PUSH1 0x40 MLOAD PUSH3 0xC6 SWAP2 SWAP1 PUSH3 0x14B2 JUMP JUMPDEST PUSH1 0x40 MLOAD DUP1 SWAP2 SUB SWAP1 RETURN JUMPDEST PUSH3 0xED PUSH1 0x4 DUP1 CALLDATASIZE SUB DUP2 ADD SWAP1 PUSH3 0xE7 SWAP2 SWAP1 PUSH3 0xEDA JUMP JUMPDEST PUSH3 0x36C JUMP JUMPDEST PUSH1 0x40 MLOAD PUSH3 0xFC SWAP2 SWAP1 PUSH3 0x14B2 JUMP JUMPDEST PUSH1 0x40 MLOAD DUP1 SWAP2 SUB SWAP1 RETURN JUMPDEST PUSH3 0x123 PUSH1 0x4 DUP1 CALLDATASIZE SUB DUP2 ADD SWAP1 PUSH3 0x11D SWAP2 SWAP1 PUSH3 0xE80 JUMP JUMPDEST PUSH3 0x387 JUMP JUMPDEST PUSH1 0x40 MLOAD PUSH3 0x132 SWAP2 SWAP1 PUSH3 0x1461 JUMP JUMPDEST PUSH1 0x40 MLOAD DUP1 SWAP2 SUB SWAP1 RETURN JUMPDEST PUSH3 0x159 PUSH1 0x4 DUP1 CALLDATASIZE SUB DUP2 ADD SWAP1 PUSH3 0x153 SWAP2 SWAP1 PUSH3 0xF4D JUMP JUMPDEST PUSH3 0x705 JUMP JUMPDEST PUSH1 0x40 MLOAD PUSH3 0x168 SWAP2 SWAP1 PUSH3 0x14B2 JUMP JUMPDEST PUSH1 0x40 MLOAD DUP1 SWAP2 SUB SWAP1 RETURN JUMPDEST PUSH1 0x0 DUP1 DUP3 PUSH1 0x40 MLOAD PUSH3 0x184 SWAP2 SWAP1 PUSH3 0x1448 JUMP JUMPDEST SWAP1 DUP2 MSTORE PUSH1 0x20 ADD PUSH1 0x40 MLOAD DUP1 SWAP2 SUB SWAP1 KECCAK256 PUSH1 0x0 SWAP1 SLOAD SWAP1 PUSH2 0x100 EXP SWAP1 DIV PUSH20 0xFFFFFFFFFFFFFFFFFFFFFFFFFFFFFFFFFFFFFFFF AND SWAP1 POP SWAP2 SWAP1 POP JUMP JUMPDEST PUSH1 0x0 DUP1 PUSH20 0xFFFFFFFFFFFFFFFFFFFFFFFFFFFFFFFFFFFFFFFF AND PUSH1 0x0 DUP5 PUSH1 0x40 MLOAD PUSH3 0x1E5 SWAP2 SWAP1 PUSH3 0x1448 JUMP JUMPDEST SWAP1 DUP2 MSTORE PUSH1 0x20 ADD PUSH1 0x40 MLOAD DUP1 SWAP2 SUB SWAP1 KECCAK256 PUSH1 0x0 SWAP1 SLOAD SWAP1 PUSH2 0x100 EXP SWAP1 DIV PUSH20 0xFFFFFFFFFFFFFFFFFFFFFFFFFFFFFFFFFFFFFFFF AND PUSH20 0xFFFFFFFFFFFFFFFFFFFFFFFFFFFFFFFFFFFFFFFF AND EQ PUSH3 0x26D JUMPI PUSH1 0x40 MLOAD PUSH32 0x8C379A000000000000000000000000000000000000000000000000000000000 DUP2 MSTORE PUSH1 0x4 ADD PUSH3 0x264 SWAP1 PUSH3 0x157C JUMP JUMPDEST PUSH1 0x40 MLOAD DUP1 SWAP2 SUB SWAP1 REVERT JUMPDEST CALLER PUSH1 0x1 DUP5 PUSH1 0x40 MLOAD PUSH3 0x280 SWAP2 SWAP1 PUSH3 0x1448 JUMP JUMPDEST SWAP1 DUP2 MSTORE PUSH1 0x20 ADD PUSH1 0x40 MLOAD DUP1 SWAP2 SUB SWAP1 KECCAK256 PUSH1 0x0 PUSH2 0x100 EXP DUP2 SLOAD DUP2 PUSH20 0xFFFFFFFFFFFFFFFFFFFFFFFFFFFFFFFFFFFFFFFF MUL NOT AND SWAP1 DUP4 PUSH20 0xFFFFFFFFFFFFFFFFFFFFFFFFFFFFFFFFFFFFFFFF AND MUL OR SWAP1 SSTORE POP TIMESTAMP PUSH1 0x2 DUP5 PUSH1 0x40 MLOAD PUSH3 0x2DF SWAP2 SWAP1 PUSH3 0x1448 JUMP JUMPDEST SWAP1 DUP2 MSTORE PUSH1 0x20 ADD PUSH1 0x40 MLOAD DUP1 SWAP2 SUB SWAP1 KECCAK256 DUP2 SWAP1 SSTORE POP DUP2 PUSH1 0x3 DUP5 PUSH1 0x40 MLOAD PUSH3 0x304 SWAP2 SWAP1 PUSH3 0x1448 JUMP JUMPDEST SWAP1 DUP2 MSTORE PUSH1 0x20 ADD PUSH1 0x40 MLOAD DUP1 SWAP2 SUB SWAP1 KECCAK256 SWAP1 DUP1 MLOAD SWAP1 PUSH1 0x20 ADD SWAP1 PUSH3 0x327 SWAP3 SWAP2 SWAP1 PUSH3 0xC3F JUMP JUMPDEST POP PUSH32 0xFF3010AE5FE3144D9922CF3389B9BF30DA6F991746F58A3177E3427FF9C7EF54 PUSH1 0x1 PUSH1 0x40 MLOAD PUSH3 0x35A SWAP2 SWAP1 PUSH3 0x14B2 JUMP JUMPDEST PUSH1 0x40 MLOAD DUP1 SWAP2 SUB SWAP1 LOG1 PUSH1 0x1 SWAP1 POP SWAP3 SWAP2 POP POP JUMP JUMPDEST PUSH1 0x0 DUP2 DUP1 MLOAD SWAP1 PUSH1 0x20 ADD KECCAK256 DUP4 DUP1 MLOAD SWAP1 PUSH1 0x20 ADD KECCAK256 EQ SWAP1 POP SWAP3 SWAP2 POP POP JUMP JUMPDEST PUSH1 0x0 PUSH1 0x4 DUP4 PUSH1 0x40 MLOAD PUSH3 0x39B SWAP2 SWAP1 PUSH3 0x1448 JUMP JUMPDEST SWAP1 DUP2 MSTORE PUSH1 0x20 ADD PUSH1 0x40 MLOAD DUP1 SWAP2 SUB SWAP1 KECCAK256 PUSH1 0x0 SWAP1 SLOAD SWAP1 PUSH2 0x100 EXP SWAP1 DIV PUSH1 0xFF AND PUSH3 0x3F9 JUMPI PUSH1 0x40 MLOAD PUSH32 0x8C379A000000000000000000000000000000000000000000000000000000000 DUP2 MSTORE PUSH1 0x4 ADD PUSH3 0x3F0 SWAP1 PUSH3 0x1626 JUMP JUMPDEST PUSH1 0x40 MLOAD DUP1 SWAP2 SUB SWAP1 REVERT JUMPDEST CALLER PUSH20 0xFFFFFFFFFFFFFFFFFFFFFFFFFFFFFFFFFFFFFFFF AND PUSH1 0x1 DUP5 PUSH1 0x40 MLOAD PUSH3 0x422 SWAP2 SWAP1 PUSH3 0x1448 JUMP JUMPDEST SWAP1 DUP2 MSTORE PUSH1 0x20 ADD PUSH1 0x40 MLOAD DUP1 SWAP2 SUB SWAP1 KECCAK256 PUSH1 0x0 SWAP1 SLOAD SWAP1 PUSH2 0x100 EXP SWAP1 DIV PUSH20 0xFFFFFFFFFFFFFFFFFFFFFFFFFFFFFFFFFFFFFFFF AND PUSH20 0xFFFFFFFFFFFFFFFFFFFFFFFFFFFFFFFFFFFFFFFF AND EQ PUSH3 0x4AA JUMPI PUSH1 0x40 MLOAD PUSH32 0x8C379A000000000000000000000000000000000000000000000000000000000 DUP2 MSTORE PUSH1 0x4 ADD PUSH3 0x4A1 SWAP1 PUSH3 0x159E JUMP JUMPDEST PUSH1 0x40 MLOAD DUP1 SWAP2 SUB SWAP1 REVERT JUMPDEST PUSH3 0x4D5 PUSH1 0x2 DUP5 PUSH1 0x40 MLOAD PUSH3 0x4C0 SWAP2 SWAP1 PUSH3 0x1448 JUMP JUMPDEST SWAP1 DUP2 MSTORE PUSH1 0x20 ADD PUSH1 0x40 MLOAD DUP1 SWAP2 SUB SWAP1 KECCAK256 SLOAD PUSH3 0xC23 JUMP JUMPDEST ISZERO PUSH3 0x61D JUMPI PUSH1 0x0 PUSH1 0x1 DUP5 PUSH1 0x40 MLOAD PUSH3 0x4EF SWAP2 SWAP1 PUSH3 0x1448 JUMP JUMPDEST SWAP1 DUP2 MSTORE PUSH1 0x20 ADD PUSH1 0x40 MLOAD DUP1 SWAP2 SUB SWAP1 KECCAK256 PUSH1 0x0 PUSH2 0x100 EXP DUP2 SLOAD DUP2 PUSH20 0xFFFFFFFFFFFFFFFFFFFFFFFFFFFFFFFFFFFFFFFF MUL NOT AND SWAP1 DUP4 PUSH20 0xFFFFFFFFFFFFFFFFFFFFFFFFFFFFFFFFFFFFFFFF AND MUL OR SWAP1 SSTORE POP PUSH1 0x0 PUSH1 0x2 DUP5 PUSH1 0x40 MLOAD PUSH3 0x54F SWAP2 SWAP1 PUSH3 0x1448 JUMP JUMPDEST SWAP1 DUP2 MSTORE PUSH1 0x20 ADD PUSH1 0x40 MLOAD DUP1 SWAP2 SUB SWAP1 KECCAK256 DUP2 SWAP1 SSTORE POP PUSH1 0x40 MLOAD DUP1 PUSH1 0x20 ADD PUSH1 0x40 MSTORE DUP1 PUSH1 0x0 DUP2 MSTORE POP PUSH1 0x3 DUP5 PUSH1 0x40 MLOAD PUSH3 0x583 SWAP2 SWAP1 PUSH3 0x1448 JUMP JUMPDEST SWAP1 DUP2 MSTORE PUSH1 0x20 ADD PUSH1 0x40 MLOAD DUP1 SWAP2 SUB SWAP1 KECCAK256 SWAP1 DUP1 MLOAD SWAP1 PUSH1 0x20 ADD SWAP1 PUSH3 0x5A6 SWAP3 SWAP2 SWAP1 PUSH3 0xC3F JUMP JUMPDEST POP PUSH1 0x0 PUSH1 0x4 DUP5 PUSH1 0x40 MLOAD PUSH3 0x5BB SWAP2 SWAP1 PUSH3 0x1448 JUMP JUMPDEST SWAP1 DUP2 MSTORE PUSH1 0x20 ADD PUSH1 0x40 MLOAD DUP1 SWAP2 SUB SWAP1 KECCAK256 PUSH1 0x0 PUSH2 0x100 EXP DUP2 SLOAD DUP2 PUSH1 0xFF MUL NOT AND SWAP1 DUP4 ISZERO ISZERO MUL OR SWAP1 SSTORE POP PUSH1 0x40 MLOAD PUSH32 0x8C379A000000000000000000000000000000000000000000000000000000000 DUP2 MSTORE PUSH1 0x4 ADD PUSH3 0x614 SWAP1 PUSH3 0x155A JUMP JUMPDEST PUSH1 0x40 MLOAD DUP1 SWAP2 SUB SWAP1 REVERT JUMPDEST PUSH1 0x0 DUP3 DUP5 PUSH1 0x40 MLOAD PUSH3 0x62F SWAP1 PUSH3 0xCD0 JUMP JUMPDEST PUSH3 0x63C SWAP3 SWAP2 SWAP1 PUSH3 0x147E JUMP JUMPDEST PUSH1 0x40 MLOAD DUP1 SWAP2 SUB SWAP1 PUSH1 0x0 CREATE DUP1 ISZERO DUP1 ISZERO PUSH3 0x659 JUMPI RETURNDATASIZE PUSH1 0x0 DUP1 RETURNDATACOPY RETURNDATASIZE PUSH1 0x0 REVERT JUMPDEST POP SWAP1 POP DUP1 PUSH1 0x0 DUP6 PUSH1 0x40 MLOAD PUSH3 0x66F SWAP2 SWAP1 PUSH3 0x1448 JUMP JUMPDEST SWAP1 DUP2 MSTORE PUSH1 0x20 ADD PUSH1 0x40 MLOAD DUP1 SWAP2 SUB SWAP1 KECCAK256 PUSH1 0x0 PUSH2 0x100 EXP DUP2 SLOAD DUP2 PUSH20 0xFFFFFFFFFFFFFFFFFFFFFFFFFFFFFFFFFFFFFFFF MUL NOT AND SWAP1 DUP4 PUSH20 0xFFFFFFFFFFFFFFFFFFFFFFFFFFFFFFFFFFFFFFFF AND MUL OR SWAP1 SSTORE POP PUSH1 0x0 DUP5 PUSH1 0x40 MLOAD PUSH3 0x6CD SWAP2 SWAP1 PUSH3 0x1448 JUMP JUMPDEST SWAP1 DUP2 MSTORE PUSH1 0x20 ADD PUSH1 0x40 MLOAD DUP1 SWAP2 SUB SWAP1 KECCAK256 PUSH1 0x0 SWAP1 SLOAD SWAP1 PUSH2 0x100 EXP SWAP1 DIV PUSH20 0xFFFFFFFFFFFFFFFFFFFFFFFFFFFFFFFFFFFFFFFF AND SWAP2 POP POP SWAP3 SWAP2 POP POP JUMP JUMPDEST PUSH1 0x0 DUP1 PUSH20 0xFFFFFFFFFFFFFFFFFFFFFFFFFFFFFFFFFFFFFFFF AND PUSH1 0x1 DUP5 PUSH1 0x40 MLOAD PUSH3 0x730 SWAP2 SWAP1 PUSH3 0x1448 JUMP JUMPDEST SWAP1 DUP2 MSTORE PUSH1 0x20 ADD PUSH1 0x40 MLOAD DUP1 SWAP2 SUB SWAP1 KECCAK256 PUSH1 0x0 SWAP1 SLOAD SWAP1 PUSH2 0x100 EXP SWAP1 DIV PUSH20 0xFFFFFFFFFFFFFFFFFFFFFFFFFFFFFFFFFFFFFFFF AND PUSH20 0xFFFFFFFFFFFFFFFFFFFFFFFFFFFFFFFFFFFFFFFF AND EQ ISZERO PUSH3 0x7B9 JUMPI PUSH1 0x40 MLOAD PUSH32 0x8C379A000000000000000000000000000000000000000000000000000000000 DUP2 MSTORE PUSH1 0x4 ADD PUSH3 0x7B0 SWAP1 PUSH3 0x15C0 JUMP JUMPDEST PUSH1 0x40 MLOAD DUP1 SWAP2 SUB SWAP1 REVERT JUMPDEST CALLER PUSH20 0xFFFFFFFFFFFFFFFFFFFFFFFFFFFFFFFFFFFFFFFF AND PUSH1 0x1 DUP5 PUSH1 0x40 MLOAD PUSH3 0x7E2 SWAP2 SWAP1 PUSH3 0x1448 JUMP JUMPDEST SWAP1 DUP2 MSTORE PUSH1 0x20 ADD PUSH1 0x40 MLOAD DUP1 SWAP2 SUB SWAP1 KECCAK256 PUSH1 0x0 SWAP1 SLOAD SWAP1 PUSH2 0x100 EXP SWAP1 DIV PUSH20 0xFFFFFFFFFFFFFFFFFFFFFFFFFFFFFFFFFFFFFFFF AND PUSH20 0xFFFFFFFFFFFFFFFFFFFFFFFFFFFFFFFFFFFFFFFF AND EQ PUSH3 0x86A JUMPI PUSH1 0x40 MLOAD PUSH32 0x8C379A000000000000000000000000000000000000000000000000000000000 DUP2 MSTORE PUSH1 0x4 ADD PUSH3 0x861 SWAP1 PUSH3 0x15E2 JUMP JUMPDEST PUSH1 0x40 MLOAD DUP1 SWAP2 SUB SWAP1 REVERT JUMPDEST PUSH3 0x895 PUSH1 0x2 DUP5 PUSH1 0x40 MLOAD PUSH3 0x880 SWAP2 SWAP1 PUSH3 0x1448 JUMP JUMPDEST SWAP1 DUP2 MSTORE PUSH1 0x20 ADD PUSH1 0x40 MLOAD DUP1 SWAP2 SUB SWAP1 KECCAK256 SLOAD PUSH3 0xC23 JUMP JUMPDEST ISZERO PUSH3 0x9DD JUMPI PUSH1 0x0 PUSH1 0x1 DUP5 PUSH1 0x40 MLOAD PUSH3 0x8AF SWAP2 SWAP1 PUSH3 0x1448 JUMP JUMPDEST SWAP1 DUP2 MSTORE PUSH1 0x20 ADD PUSH1 0x40 MLOAD DUP1 SWAP2 SUB SWAP1 KECCAK256 PUSH1 0x0 PUSH2 0x100 EXP DUP2 SLOAD DUP2 PUSH20 0xFFFFFFFFFFFFFFFFFFFFFFFFFFFFFFFFFFFFFFFF MUL NOT AND SWAP1 DUP4 PUSH20 0xFFFFFFFFFFFFFFFFFFFFFFFFFFFFFFFFFFFFFFFF AND MUL OR SWAP1 SSTORE POP PUSH1 0x0 PUSH1 0x2 DUP5 PUSH1 0x40 MLOAD PUSH3 0x90F SWAP2 SWAP1 PUSH3 0x1448 JUMP JUMPDEST SWAP1 DUP2 MSTORE PUSH1 0x20 ADD PUSH1 0x40 MLOAD DUP1 SWAP2 SUB SWAP1 KECCAK256 DUP2 SWAP1 SSTORE POP PUSH1 0x40 MLOAD DUP1 PUSH1 0x20 ADD PUSH1 0x40 MSTORE DUP1 PUSH1 0x0 DUP2 MSTORE POP PUSH1 0x3 DUP5 PUSH1 0x40 MLOAD PUSH3 0x943 SWAP2 SWAP1 PUSH3 0x1448 JUMP JUMPDEST SWAP1 DUP2 MSTORE PUSH1 0x20 ADD PUSH1 0x40 MLOAD DUP1 SWAP2 SUB SWAP1 KECCAK256 SWAP1 DUP1 MLOAD SWAP1 PUSH1 0x20 ADD SWAP1 PUSH3 0x966 SWAP3 SWAP2 SWAP1 PUSH3 0xC3F JUMP JUMPDEST POP PUSH1 0x0 PUSH1 0x4 DUP5 PUSH1 0x40 MLOAD PUSH3 0x97B SWAP2 SWAP1 PUSH3 0x1448 JUMP JUMPDEST SWAP1 DUP2 MSTORE PUSH1 0x20 ADD PUSH1 0x40 MLOAD DUP1 SWAP2 SUB SWAP1 KECCAK256 PUSH1 0x0 PUSH2 0x100 EXP DUP2 SLOAD DUP2 PUSH1 0xFF MUL NOT AND SWAP1 DUP4 ISZERO ISZERO MUL OR SWAP1 SSTORE POP PUSH1 0x40 MLOAD PUSH32 0x8C379A000000000000000000000000000000000000000000000000000000000 DUP2 MSTORE PUSH1 0x4 ADD PUSH3 0x9D4 SWAP1 PUSH3 0x155A JUMP JUMPDEST PUSH1 0x40 MLOAD DUP1 SWAP2 SUB SWAP1 REVERT JUMPDEST PUSH3 0xA99 DUP3 PUSH1 0x3 DUP6 PUSH1 0x40 MLOAD PUSH3 0x9F4 SWAP2 SWAP1 PUSH3 0x1448 JUMP JUMPDEST SWAP1 DUP2 MSTORE PUSH1 0x20 ADD PUSH1 0x40 MLOAD DUP1 SWAP2 SUB SWAP1 KECCAK256 DUP1 SLOAD PUSH3 0xA0F SWAP1 PUSH3 0x1811 JUMP JUMPDEST DUP1 PUSH1 0x1F ADD PUSH1 0x20 DUP1 SWAP2 DIV MUL PUSH1 0x20 ADD PUSH1 0x40 MLOAD SWAP1 DUP2 ADD PUSH1 0x40 MSTORE DUP1 SWAP3 SWAP2 SWAP1 DUP2 DUP2 MSTORE PUSH1 0x20 ADD DUP3 DUP1 SLOAD PUSH3 0xA3D SWAP1 PUSH3 0x1811 JUMP JUMPDEST DUP1 ISZERO PUSH3 0xA8E JUMPI DUP1 PUSH1 0x1F LT PUSH3 0xA62 JUMPI PUSH2 0x100 DUP1 DUP4 SLOAD DIV MUL DUP4 MSTORE SWAP2 PUSH1 0x20 ADD SWAP2 PUSH3 0xA8E JUMP JUMPDEST DUP3 ADD SWAP2 SWAP1 PUSH1 0x0 MSTORE PUSH1 0x20 PUSH1 0x0 KECCAK256 SWAP1 JUMPDEST DUP2 SLOAD DUP2 MSTORE SWAP1 PUSH1 0x1 ADD SWAP1 PUSH1 0x20 ADD DUP1 DUP4 GT PUSH3 0xA70 JUMPI DUP3 SWAP1 SUB PUSH1 0x1F AND DUP3 ADD SWAP2 JUMPDEST POP POP POP POP POP PUSH3 0x36C JUMP JUMPDEST PUSH3 0xADB JUMPI PUSH1 0x40 MLOAD PUSH32 0x8C379A000000000000000000000000000000000000000000000000000000000 DUP2 MSTORE PUSH1 0x4 ADD PUSH3 0xAD2 SWAP1 PUSH3 0x1538 JUMP JUMPDEST PUSH1 0x40 MLOAD DUP1 SWAP2 SUB SWAP1 REVERT JUMPDEST PUSH1 0x0 PUSH1 0x5 PUSH1 0x0 SWAP1 SLOAD SWAP1 PUSH2 0x100 EXP SWAP1 DIV PUSH20 0xFFFFFFFFFFFFFFFFFFFFFFFFFFFFFFFFFFFFFFFF AND PUSH20 0xFFFFFFFFFFFFFFFFFFFFFFFFFFFFFFFFFFFFFFFF AND PUSH4 0x3D69D2F7 DUP10 DUP10 DUP10 DUP10 PUSH1 0x40 MLOAD DUP6 PUSH4 0xFFFFFFFF AND PUSH1 0xE0 SHL DUP2 MSTORE PUSH1 0x4 ADD PUSH3 0xB40 SWAP5 SWAP4 SWAP3 SWAP2 SWAP1 PUSH3 0x14CF JUMP JUMPDEST PUSH1 0x20 PUSH1 0x40 MLOAD DUP1 DUP4 SUB DUP2 PUSH1 0x0 DUP8 DUP1 EXTCODESIZE ISZERO DUP1 ISZERO PUSH3 0xB5B JUMPI PUSH1 0x0 DUP1 REVERT JUMPDEST POP GAS CALL ISZERO DUP1 ISZERO PUSH3 0xB70 JUMPI RETURNDATASIZE PUSH1 0x0 DUP1 RETURNDATACOPY RETURNDATASIZE PUSH1 0x0 REVERT JUMPDEST POP POP POP POP PUSH1 0x40 MLOAD RETURNDATASIZE PUSH1 0x1F NOT PUSH1 0x1F DUP3 ADD AND DUP3 ADD DUP1 PUSH1 0x40 MSTORE POP DUP2 ADD SWAP1 PUSH3 0xB96 SWAP2 SWAP1 PUSH3 0xE0F JUMP JUMPDEST SWAP1 POP DUP1 PUSH3 0xBDB JUMPI PUSH1 0x40 MLOAD PUSH32 0x8C379A000000000000000000000000000000000000000000000000000000000 DUP2 MSTORE PUSH1 0x4 ADD PUSH3 0xBD2 SWAP1 PUSH3 0x1604 JUMP JUMPDEST PUSH1 0x40 MLOAD DUP1 SWAP2 SUB SWAP1 REVERT JUMPDEST PUSH1 0x1 PUSH1 0x4 DUP6 PUSH1 0x40 MLOAD PUSH3 0xBEF SWAP2 SWAP1 PUSH3 0x1448 JUMP JUMPDEST SWAP1 DUP2 MSTORE PUSH1 0x20 ADD PUSH1 0x40 MLOAD DUP1 SWAP2 SUB SWAP1 KECCAK256 PUSH1 0x0 PUSH2 0x100 EXP DUP2 SLOAD DUP2 PUSH1 0xFF MUL NOT AND SWAP1 DUP4 ISZERO ISZERO MUL OR SWAP1 SSTORE POP PUSH1 0x1 SWAP2 POP POP SWAP7 SWAP6 POP POP POP POP POP POP JUMP JUMPDEST PUSH1 0x0 PUSH2 0x12C DUP3 PUSH3 0xC35 SWAP2 SWAP1 PUSH3 0x1725 JUMP JUMPDEST TIMESTAMP LT ISZERO SWAP1 POP SWAP2 SWAP1 POP JUMP JUMPDEST DUP3 DUP1 SLOAD PUSH3 0xC4D SWAP1 PUSH3 0x1811 JUMP JUMPDEST SWAP1 PUSH1 0x0 MSTORE PUSH1 0x20 PUSH1 0x0 KECCAK256 SWAP1 PUSH1 0x1F ADD PUSH1 0x20 SWAP1 DIV DUP2 ADD SWAP3 DUP3 PUSH3 0xC71 JUMPI PUSH1 0x0 DUP6 SSTORE PUSH3 0xCBD JUMP JUMPDEST DUP3 PUSH1 0x1F LT PUSH3 0xC8C JUMPI DUP1 MLOAD PUSH1 0xFF NOT AND DUP4 DUP1 ADD OR DUP6 SSTORE PUSH3 0xCBD JUMP JUMPDEST DUP3 DUP1 ADD PUSH1 0x1 ADD DUP6 SSTORE DUP3 ISZERO PUSH3 0xCBD JUMPI SWAP2 DUP3 ADD JUMPDEST DUP3 DUP2 GT ISZERO PUSH3 0xCBC JUMPI DUP3 MLOAD DUP3 SSTORE SWAP2 PUSH1 0x20 ADD SWAP2 SWAP1 PUSH1 0x1 ADD SWAP1 PUSH3 0xC9F JUMP JUMPDEST JUMPDEST POP SWAP1 POP PUSH3 0xCCC SWAP2 SWAP1 PUSH3 0xCDE JUMP JUMPDEST POP SWAP1 JUMP JUMPDEST PUSH2 0x657 DUP1 PUSH3 0x191A DUP4 CODECOPY ADD SWAP1 JUMP JUMPDEST JUMPDEST DUP1 DUP3 GT ISZERO PUSH3 0xCF9 JUMPI PUSH1 0x0 DUP2 PUSH1 0x0 SWAP1 SSTORE POP PUSH1 0x1 ADD PUSH3 0xCDF JUMP JUMPDEST POP SWAP1 JUMP JUMPDEST PUSH1 0x0 PUSH3 0xD14 PUSH3 0xD0E DUP5 PUSH3 0x167C JUMP JUMPDEST PUSH3 0x1648 JUMP JUMPDEST SWAP1 POP DUP3 DUP2 MSTORE PUSH1 0x20 DUP2 ADD DUP5 DUP5 DUP5 ADD GT ISZERO PUSH3 0xD2D JUMPI PUSH1 0x0 DUP1 REVERT JUMPDEST PUSH3 0xD3A DUP5 DUP3 DUP6 PUSH3 0x17CC JUMP JUMPDEST POP SWAP4 SWAP3 POP POP POP JUMP JUMPDEST PUSH1 0x0 PUSH3 0xD59 PUSH3 0xD53 DUP5 PUSH3 0x16AF JUMP JUMPDEST PUSH3 0x1648 JUMP JUMPDEST SWAP1 POP DUP3 DUP2 MSTORE PUSH1 0x20 DUP2 ADD DUP5 DUP5 DUP5 ADD GT ISZERO PUSH3 0xD72 JUMPI PUSH1 0x0 DUP1 REVERT JUMPDEST PUSH3 0xD7F DUP5 DUP3 DUP6 PUSH3 0x17CC JUMP JUMPDEST POP SWAP4 SWAP3 POP POP POP JUMP JUMPDEST PUSH1 0x0 DUP2 CALLDATALOAD SWAP1 POP PUSH3 0xD98 DUP2 PUSH3 0x18E5 JUMP JUMPDEST SWAP3 SWAP2 POP POP JUMP JUMPDEST PUSH1 0x0 DUP2 MLOAD SWAP1 POP PUSH3 0xDAF DUP2 PUSH3 0x18FF JUMP JUMPDEST SWAP3 SWAP2 POP POP JUMP JUMPDEST PUSH1 0x0 DUP3 PUSH1 0x1F DUP4 ADD SLT PUSH3 0xDC7 JUMPI PUSH1 0x0 DUP1 REVERT JUMPDEST DUP2 CALLDATALOAD PUSH3 0xDD9 DUP5 DUP3 PUSH1 0x20 DUP7 ADD PUSH3 0xCFD JUMP JUMPDEST SWAP2 POP POP SWAP3 SWAP2 POP POP JUMP JUMPDEST PUSH1 0x0 DUP3 PUSH1 0x1F DUP4 ADD SLT PUSH3 0xDF4 JUMPI PUSH1 0x0 DUP1 REVERT JUMPDEST DUP2 CALLDATALOAD PUSH3 0xE06 DUP5 DUP3 PUSH1 0x20 DUP7 ADD PUSH3 0xD42 JUMP JUMPDEST SWAP2 POP POP SWAP3 SWAP2 POP POP JUMP JUMPDEST PUSH1 0x0 PUSH1 0x20 DUP3 DUP5 SUB SLT ISZERO PUSH3 0xE22 JUMPI PUSH1 0x0 DUP1 REVERT JUMPDEST PUSH1 0x0 PUSH3 0xE32 DUP5 DUP3 DUP6 ADD PUSH3 0xD9E JUMP JUMPDEST SWAP2 POP POP SWAP3 SWAP2 POP POP JUMP JUMPDEST PUSH1 0x0 PUSH1 0x20 DUP3 DUP5 SUB SLT ISZERO PUSH3 0xE4E JUMPI PUSH1 0x0 DUP1 REVERT JUMPDEST PUSH1 0x0 DUP3 ADD CALLDATALOAD PUSH8 0xFFFFFFFFFFFFFFFF DUP2 GT ISZERO PUSH3 0xE69 JUMPI PUSH1 0x0 DUP1 REVERT JUMPDEST PUSH3 0xE77 DUP5 DUP3 DUP6 ADD PUSH3 0xDE2 JUMP JUMPDEST SWAP2 POP POP SWAP3 SWAP2 POP POP JUMP JUMPDEST PUSH1 0x0 DUP1 PUSH1 0x40 DUP4 DUP6 SUB SLT ISZERO PUSH3 0xE94 JUMPI PUSH1 0x0 DUP1 REVERT JUMPDEST PUSH1 0x0 DUP4 ADD CALLDATALOAD PUSH8 0xFFFFFFFFFFFFFFFF DUP2 GT ISZERO PUSH3 0xEAF JUMPI PUSH1 0x0 DUP1 REVERT JUMPDEST PUSH3 0xEBD DUP6 DUP3 DUP7 ADD PUSH3 0xDE2 JUMP JUMPDEST SWAP3 POP POP PUSH1 0x20 PUSH3 0xED0 DUP6 DUP3 DUP7 ADD PUSH3 0xD87 JUMP JUMPDEST SWAP2 POP POP SWAP3 POP SWAP3 SWAP1 POP JUMP JUMPDEST PUSH1 0x0 DUP1 PUSH1 0x40 DUP4 DUP6 SUB SLT ISZERO PUSH3 0xEEE JUMPI PUSH1 0x0 DUP1 REVERT JUMPDEST PUSH1 0x0 DUP4 ADD CALLDATALOAD PUSH8 0xFFFFFFFFFFFFFFFF DUP2 GT ISZERO PUSH3 0xF09 JUMPI PUSH1 0x0 DUP1 REVERT JUMPDEST PUSH3 0xF17 DUP6 DUP3 DUP7 ADD PUSH3 0xDE2 JUMP JUMPDEST SWAP3 POP POP PUSH1 0x20 DUP4 ADD CALLDATALOAD PUSH8 0xFFFFFFFFFFFFFFFF DUP2 GT ISZERO PUSH3 0xF35 JUMPI PUSH1 0x0 DUP1 REVERT JUMPDEST PUSH3 0xF43 DUP6 DUP3 DUP7 ADD PUSH3 0xDE2 JUMP JUMPDEST SWAP2 POP POP SWAP3 POP SWAP3 SWAP1 POP JUMP JUMPDEST PUSH1 0x0 DUP1 PUSH1 0x0 DUP1 PUSH1 0x0 DUP1 PUSH1 0xC0 DUP8 DUP10 SUB SLT ISZERO PUSH3 0xF67 JUMPI PUSH1 0x0 DUP1 REVERT JUMPDEST PUSH1 0x0 DUP8 ADD CALLDATALOAD PUSH8 0xFFFFFFFFFFFFFFFF DUP2 GT ISZERO PUSH3 0xF82 JUMPI PUSH1 0x0 DUP1 REVERT JUMPDEST PUSH3 0xF90 DUP10 DUP3 DUP11 ADD PUSH3 0xDE2 JUMP JUMPDEST SWAP7 POP POP PUSH1 0x20 DUP8 ADD CALLDATALOAD PUSH8 0xFFFFFFFFFFFFFFFF DUP2 GT ISZERO PUSH3 0xFAE JUMPI PUSH1 0x0 DUP1 REVERT JUMPDEST PUSH3 0xFBC DUP10 DUP3 DUP11 ADD PUSH3 0xDE2 JUMP JUMPDEST SWAP6 POP POP PUSH1 0x40 DUP8 ADD CALLDATALOAD PUSH8 0xFFFFFFFFFFFFFFFF DUP2 GT ISZERO PUSH3 0xFDA JUMPI PUSH1 0x0 DUP1 REVERT JUMPDEST PUSH3 0xFE8 DUP10 DUP3 DUP11 ADD PUSH3 0xDB5 JUMP JUMPDEST SWAP5 POP POP PUSH1 0x60 DUP8 ADD CALLDATALOAD PUSH8 0xFFFFFFFFFFFFFFFF DUP2 GT ISZERO PUSH3 0x1006 JUMPI PUSH1 0x0 DUP1 REVERT JUMPDEST PUSH3 0x1014 DUP10 DUP3 DUP11 ADD PUSH3 0xDB5 JUMP JUMPDEST SWAP4 POP POP PUSH1 0x80 DUP8 ADD CALLDATALOAD PUSH8 0xFFFFFFFFFFFFFFFF DUP2 GT ISZERO PUSH3 0x1032 JUMPI PUSH1 0x0 DUP1 REVERT JUMPDEST PUSH3 0x1040 DUP10 DUP3 DUP11 ADD PUSH3 0xDE2 JUMP JUMPDEST SWAP3 POP POP PUSH1 0xA0 DUP8 ADD CALLDATALOAD PUSH8 0xFFFFFFFFFFFFFFFF DUP2 GT ISZERO PUSH3 0x105E JUMPI PUSH1 0x0 DUP1 REVERT JUMPDEST PUSH3 0x106C DUP10 DUP3 DUP11 ADD PUSH3 0xDE2 JUMP JUMPDEST SWAP2 POP POP SWAP3 SWAP6 POP SWAP3 SWAP6 POP SWAP3 SWAP6 JUMP JUMPDEST PUSH3 0x1084 DUP2 PUSH3 0x1782 JUMP JUMPDEST DUP3 MSTORE POP POP JUMP JUMPDEST PUSH3 0x1095 DUP2 PUSH3 0x1796 JUMP JUMPDEST DUP3 MSTORE POP POP JUMP JUMPDEST PUSH1 0x0 PUSH3 0x10A8 DUP3 PUSH3 0x16E2 JUMP JUMPDEST PUSH3 0x10B4 DUP2 DUP6 PUSH3 0x16F8 JUMP JUMPDEST SWAP4 POP PUSH3 0x10C6 DUP2 DUP6 PUSH1 0x20 DUP7 ADD PUSH3 0x17DB JUMP JUMPDEST PUSH3 0x10D1 DUP2 PUSH3 0x18D4 JUMP JUMPDEST DUP5 ADD SWAP2 POP POP SWAP3 SWAP2 POP POP JUMP JUMPDEST PUSH1 0x0 PUSH3 0x10E9 DUP3 PUSH3 0x16ED JUMP JUMPDEST PUSH3 0x10F5 DUP2 DUP6 PUSH3 0x1709 JUMP JUMPDEST SWAP4 POP PUSH3 0x1107 DUP2 DUP6 PUSH1 0x20 DUP7 ADD PUSH3 0x17DB JUMP JUMPDEST PUSH3 0x1112 DUP2 PUSH3 0x18D4 JUMP JUMPDEST DUP5 ADD SWAP2 POP POP SWAP3 SWAP2 POP POP JUMP JUMPDEST PUSH1 0x0 PUSH3 0x112A DUP3 PUSH3 0x16ED JUMP JUMPDEST PUSH3 0x1136 DUP2 DUP6 PUSH3 0x171A JUMP JUMPDEST SWAP4 POP PUSH3 0x1148 DUP2 DUP6 PUSH1 0x20 DUP7 ADD PUSH3 0x17DB JUMP JUMPDEST DUP1 DUP5 ADD SWAP2 POP POP SWAP3 SWAP2 POP POP JUMP JUMPDEST PUSH1 0x0 PUSH3 0x1163 PUSH1 0xD DUP4 PUSH3 0x1709 JUMP JUMPDEST SWAP2 POP PUSH32 0x496E76616C6964206E6F6E636500000000000000000000000000000000000000 PUSH1 0x0 DUP4 ADD MSTORE PUSH1 0x20 DUP3 ADD SWAP1 POP SWAP2 SWAP1 POP JUMP JUMPDEST PUSH1 0x0 PUSH3 0x11A5 PUSH1 0x15 DUP4 PUSH3 0x1709 JUMP JUMPDEST SWAP2 POP PUSH32 0x417574682070726F636365737320657870697265640000000000000000000000 PUSH1 0x0 DUP4 ADD MSTORE PUSH1 0x20 DUP3 ADD SWAP1 POP SWAP2 SWAP1 POP JUMP JUMPDEST PUSH1 0x0 PUSH3 0x11E7 PUSH1 0x2D DUP4 PUSH3 0x1709 JUMP JUMPDEST SWAP2 POP PUSH32 0x5468697320656D61696C20697320616C7265616479206173736F636961746564 PUSH1 0x0 DUP4 ADD MSTORE PUSH32 0x20746F2061206163636F756E7400000000000000000000000000000000000000 PUSH1 0x20 DUP4 ADD MSTORE PUSH1 0x40 DUP3 ADD SWAP1 POP SWAP2 SWAP1 POP JUMP JUMPDEST PUSH1 0x0 PUSH3 0x124F PUSH1 0x4E DUP4 PUSH3 0x1709 JUMP JUMPDEST SWAP2 POP PUSH32 0x6465706C6F794E6577535743206D7573742062652063616C6C65642062792074 PUSH1 0x0 DUP4 ADD MSTORE PUSH32 0x68652073616D6520616464726573732074686174207374617274656420746865 PUSH1 0x20 DUP4 ADD MSTORE PUSH32 0x20617574682070726F6363657373000000000000000000000000000000000000 PUSH1 0x40 DUP4 ADD MSTORE PUSH1 0x60 DUP3 ADD SWAP1 POP SWAP2 SWAP1 POP JUMP JUMPDEST PUSH1 0x0 PUSH3 0x12DD PUSH1 0x3A DUP4 PUSH3 0x1709 JUMP JUMPDEST SWAP2 POP PUSH32 0x417574682070726F636365737320686173206E6F7420737461727465642E2043 PUSH1 0x0 DUP4 ADD MSTORE PUSH32 0x616C6C206372656174654E65774163636F756E74206669727374000000000000 PUSH1 0x20 DUP4 ADD MSTORE PUSH1 0x40 DUP3 ADD SWAP1 POP SWAP2 SWAP1 POP JUMP JUMPDEST PUSH1 0x0 PUSH3 0x1345 PUSH1 0x3B DUP4 PUSH3 0x1709 JUMP JUMPDEST SWAP2 POP PUSH32 0x4576657279207374657073206F6620417574682070726F63657373206D757374 PUSH1 0x0 DUP4 ADD MSTORE PUSH32 0x20626520646F6E65206279207468652073616D652073656E6465720000000000 PUSH1 0x20 DUP4 ADD MSTORE PUSH1 0x40 DUP3 ADD SWAP1 POP SWAP2 SWAP1 POP JUMP JUMPDEST PUSH1 0x0 PUSH3 0x13AD PUSH1 0x20 DUP4 PUSH3 0x1709 JUMP JUMPDEST SWAP2 POP PUSH32 0x444B494D20636865636B206661696C656420666F72207468697320656D61696C PUSH1 0x0 DUP4 ADD MSTORE PUSH1 0x20 DUP3 ADD SWAP1 POP SWAP2 SWAP1 POP JUMP JUMPDEST PUSH1 0x0 PUSH3 0x13EF PUSH1 0x38 DUP4 PUSH3 0x1709 JUMP JUMPDEST SWAP2 POP PUSH32 0x456D61696C206973206E6F742076657269666965642E2043616C6C20636F6E66 PUSH1 0x0 DUP4 ADD MSTORE PUSH32 0x69726D4E65774163636F756E74456D61696C2066697273740000000000000000 PUSH1 0x20 DUP4 ADD MSTORE PUSH1 0x40 DUP3 ADD SWAP1 POP SWAP2 SWAP1 POP JUMP JUMPDEST PUSH1 0x0 PUSH3 0x1456 DUP3 DUP5 PUSH3 0x111D JUMP JUMPDEST SWAP2 POP DUP2 SWAP1 POP SWAP3 SWAP2 POP POP JUMP JUMPDEST PUSH1 0x0 PUSH1 0x20 DUP3 ADD SWAP1 POP PUSH3 0x1478 PUSH1 0x0 DUP4 ADD DUP5 PUSH3 0x1079 JUMP JUMPDEST SWAP3 SWAP2 POP POP JUMP JUMPDEST PUSH1 0x0 PUSH1 0x40 DUP3 ADD SWAP1 POP PUSH3 0x1495 PUSH1 0x0 DUP4 ADD DUP6 PUSH3 0x1079 JUMP JUMPDEST DUP2 DUP2 SUB PUSH1 0x20 DUP4 ADD MSTORE PUSH3 0x14A9 DUP2 DUP5 PUSH3 0x10DC JUMP JUMPDEST SWAP1 POP SWAP4 SWAP3 POP POP POP JUMP JUMPDEST PUSH1 0x0 PUSH1 0x20 DUP3 ADD SWAP1 POP PUSH3 0x14C9 PUSH1 0x0 DUP4 ADD DUP5 PUSH3 0x108A JUMP JUMPDEST SWAP3 SWAP2 POP POP JUMP JUMPDEST PUSH1 0x0 PUSH1 0x80 DUP3 ADD SWAP1 POP DUP2 DUP2 SUB PUSH1 0x0 DUP4 ADD MSTORE PUSH3 0x14EB DUP2 DUP8 PUSH3 0x10DC JUMP JUMPDEST SWAP1 POP DUP2 DUP2 SUB PUSH1 0x20 DUP4 ADD MSTORE PUSH3 0x1501 DUP2 DUP7 PUSH3 0x10DC JUMP JUMPDEST SWAP1 POP DUP2 DUP2 SUB PUSH1 0x40 DUP4 ADD MSTORE PUSH3 0x1517 DUP2 DUP6 PUSH3 0x109B JUMP JUMPDEST SWAP1 POP DUP2 DUP2 SUB PUSH1 0x60 DUP4 ADD MSTORE PUSH3 0x152D DUP2 DUP5 PUSH3 0x109B JUMP JUMPDEST SWAP1 POP SWAP6 SWAP5 POP POP POP POP POP JUMP JUMPDEST PUSH1 0x0 PUSH1 0x20 DUP3 ADD SWAP1 POP DUP2 DUP2 SUB PUSH1 0x0 DUP4 ADD MSTORE PUSH3 0x1553 DUP2 PUSH3 0x1154 JUMP JUMPDEST SWAP1 POP SWAP2 SWAP1 POP JUMP JUMPDEST PUSH1 0x0 PUSH1 0x20 DUP3 ADD SWAP1 POP DUP2 DUP2 SUB PUSH1 0x0 DUP4 ADD MSTORE PUSH3 0x1575 DUP2 PUSH3 0x1196 JUMP JUMPDEST SWAP1 POP SWAP2 SWAP1 POP JUMP JUMPDEST PUSH1 0x0 PUSH1 0x20 DUP3 ADD SWAP1 POP DUP2 DUP2 SUB PUSH1 0x0 DUP4 ADD MSTORE PUSH3 0x1597 DUP2 PUSH3 0x11D8 JUMP JUMPDEST SWAP1 POP SWAP2 SWAP1 POP JUMP JUMPDEST PUSH1 0x0 PUSH1 0x20 DUP3 ADD SWAP1 POP DUP2 DUP2 SUB PUSH1 0x0 DUP4 ADD MSTORE PUSH3 0x15B9 DUP2 PUSH3 0x1240 JUMP JUMPDEST SWAP1 POP SWAP2 SWAP1 POP JUMP JUMPDEST PUSH1 0x0 PUSH1 0x20 DUP3 ADD SWAP1 POP DUP2 DUP2 SUB PUSH1 0x0 DUP4 ADD MSTORE PUSH3 0x15DB DUP2 PUSH3 0x12CE JUMP JUMPDEST SWAP1 POP SWAP2 SWAP1 POP JUMP JUMPDEST PUSH1 0x0 PUSH1 0x20 DUP3 ADD SWAP1 POP DUP2 DUP2 SUB PUSH1 0x0 DUP4 ADD MSTORE PUSH3 0x15FD DUP2 PUSH3 0x1336 JUMP JUMPDEST SWAP1 POP SWAP2 SWAP1 POP JUMP JUMPDEST PUSH1 0x0 PUSH1 0x20 DUP3 ADD SWAP1 POP DUP2 DUP2 SUB PUSH1 0x0 DUP4 ADD MSTORE PUSH3 0x161F DUP2 PUSH3 0x139E JUMP JUMPDEST SWAP1 POP SWAP2 SWAP1 POP JUMP JUMPDEST PUSH1 0x0 PUSH1 0x20 DUP3 ADD SWAP1 POP DUP2 DUP2 SUB PUSH1 0x0 DUP4 ADD MSTORE PUSH3 0x1641 DUP2 PUSH3 0x13E0 JUMP JUMPDEST SWAP1 POP SWAP2 SWAP1 POP JUMP JUMPDEST PUSH1 0x0 PUSH1 0x40 MLOAD SWAP1 POP DUP2 DUP2 ADD DUP2 DUP2 LT PUSH8 0xFFFFFFFFFFFFFFFF DUP3 GT OR ISZERO PUSH3 0x1672 JUMPI PUSH3 0x1671 PUSH3 0x18A5 JUMP JUMPDEST JUMPDEST DUP1 PUSH1 0x40 MSTORE POP SWAP2 SWAP1 POP JUMP JUMPDEST PUSH1 0x0 PUSH8 0xFFFFFFFFFFFFFFFF DUP3 GT ISZERO PUSH3 0x169A JUMPI PUSH3 0x1699 PUSH3 0x18A5 JUMP JUMPDEST JUMPDEST PUSH1 0x1F NOT PUSH1 0x1F DUP4 ADD AND SWAP1 POP PUSH1 0x20 DUP2 ADD SWAP1 POP SWAP2 SWAP1 POP JUMP JUMPDEST PUSH1 0x0 PUSH8 0xFFFFFFFFFFFFFFFF DUP3 GT ISZERO PUSH3 0x16CD JUMPI PUSH3 0x16CC PUSH3 0x18A5 JUMP JUMPDEST JUMPDEST PUSH1 0x1F NOT PUSH1 0x1F DUP4 ADD AND SWAP1 POP PUSH1 0x20 DUP2 ADD SWAP1 POP SWAP2 SWAP1 POP JUMP JUMPDEST PUSH1 0x0 DUP2 MLOAD SWAP1 POP SWAP2 SWAP1 POP JUMP JUMPDEST PUSH1 0x0 DUP2 MLOAD SWAP1 POP SWAP2 SWAP1 POP JUMP JUMPDEST PUSH1 0x0 DUP3 DUP3 MSTORE PUSH1 0x20 DUP3 ADD SWAP1 POP SWAP3 SWAP2 POP POP JUMP JUMPDEST PUSH1 0x0 DUP3 DUP3 MSTORE PUSH1 0x20 DUP3 ADD SWAP1 POP SWAP3 SWAP2 POP POP JUMP JUMPDEST PUSH1 0x0 DUP2 SWAP1 POP SWAP3 SWAP2 POP POP JUMP JUMPDEST PUSH1 0x0 PUSH3 0x1732 DUP3 PUSH3 0x17C2 JUMP JUMPDEST SWAP2 POP PUSH3 0x173F DUP4 PUSH3 0x17C2 JUMP JUMPDEST SWAP3 POP DUP3 PUSH32 0xFFFFFFFFFFFFFFFFFFFFFFFFFFFFFFFFFFFFFFFFFFFFFFFFFFFFFFFFFFFFFFFF SUB DUP3 GT ISZERO PUSH3 0x1777 JUMPI PUSH3 0x1776 PUSH3 0x1847 JUMP JUMPDEST JUMPDEST DUP3 DUP3 ADD SWAP1 POP SWAP3 SWAP2 POP POP JUMP JUMPDEST PUSH1 0x0 PUSH3 0x178F DUP3 PUSH3 0x17A2 JUMP JUMPDEST SWAP1 POP SWAP2 SWAP1 POP JUMP JUMPDEST PUSH1 0x0 DUP2 ISZERO ISZERO SWAP1 POP SWAP2 SWAP1 POP JUMP JUMPDEST PUSH1 0x0 PUSH20 0xFFFFFFFFFFFFFFFFFFFFFFFFFFFFFFFFFFFFFFFF DUP3 AND SWAP1 POP SWAP2 SWAP1 POP JUMP JUMPDEST PUSH1 0x0 DUP2 SWAP1 POP SWAP2 SWAP1 POP JUMP JUMPDEST DUP3 DUP2 DUP4 CALLDATACOPY PUSH1 0x0 DUP4 DUP4 ADD MSTORE POP POP POP JUMP JUMPDEST PUSH1 0x0 JUMPDEST DUP4 DUP2 LT ISZERO PUSH3 0x17FB JUMPI DUP1 DUP3 ADD MLOAD DUP2 DUP5 ADD MSTORE PUSH1 0x20 DUP2 ADD SWAP1 POP PUSH3 0x17DE JUMP JUMPDEST DUP4 DUP2 GT ISZERO PUSH3 0x180B JUMPI PUSH1 0x0 DUP5 DUP5 ADD MSTORE JUMPDEST POP POP POP POP JUMP JUMPDEST PUSH1 0x0 PUSH1 0x2 DUP3 DIV SWAP1 POP PUSH1 0x1 DUP3 AND DUP1 PUSH3 0x182A JUMPI PUSH1 0x7F DUP3 AND SWAP2 POP JUMPDEST PUSH1 0x20 DUP3 LT DUP2 EQ ISZERO PUSH3 0x1841 JUMPI PUSH3 0x1840 PUSH3 0x1876 JUMP JUMPDEST JUMPDEST POP SWAP2 SWAP1 POP JUMP JUMPDEST PUSH32 0x4E487B7100000000000000000000000000000000000000000000000000000000 PUSH1 0x0 MSTORE PUSH1 0x11 PUSH1 0x4 MSTORE PUSH1 0x24 PUSH1 0x0 REVERT JUMPDEST PUSH32 0x4E487B7100000000000000000000000000000000000000000000000000000000 PUSH1 0x0 MSTORE PUSH1 0x22 PUSH1 0x4 MSTORE PUSH1 0x24 PUSH1 0x0 REVERT JUMPDEST PUSH32 0x4E487B7100000000000000000000000000000000000000000000000000000000 PUSH1 0x0 MSTORE PUSH1 0x41 PUSH1 0x4 MSTORE PUSH1 0x24 PUSH1 0x0 REVERT JUMPDEST PUSH1 0x0 PUSH1 0x1F NOT PUSH1 0x1F DUP4 ADD AND SWAP1 POP SWAP2 SWAP1 POP JUMP JUMPDEST PUSH3 0x18F0 DUP2 PUSH3 0x1782 JUMP JUMPDEST DUP2 EQ PUSH3 0x18FC JUMPI PUSH1 0x0 DUP1 REVERT JUMPDEST POP JUMP JUMPDEST PUSH3 0x190A DUP2 PUSH3 0x1796 JUMP JUMPDEST DUP2 EQ PUSH3 0x1916 JUMPI PUSH1 0x0 DUP1 REVERT JUMPDEST POP JUMP INVALID PUSH1 0x80 PUSH1 0x40 MSTORE CALLVALUE DUP1 ISZERO PUSH2 0x10 JUMPI PUSH1 0x0 DUP1 REVERT JUMPDEST POP PUSH1 0x40 MLOAD PUSH2 0x657 CODESIZE SUB DUP1 PUSH2 0x657 DUP4 CODECOPY DUP2 DUP2 ADD PUSH1 0x40 MSTORE DUP2 ADD SWAP1 PUSH2 0x32 SWAP2 SWAP1 PUSH2 0x1B0 JUMP JUMPDEST DUP2 PUSH1 0x0 DUP1 PUSH2 0x100 EXP DUP2 SLOAD DUP2 PUSH20 0xFFFFFFFFFFFFFFFFFFFFFFFFFFFFFFFFFFFFFFFF MUL NOT AND SWAP1 DUP4 PUSH20 0xFFFFFFFFFFFFFFFFFFFFFFFFFFFFFFFFFFFFFFFF AND MUL OR SWAP1 SSTORE POP DUP1 PUSH1 0x1 SWAP1 DUP1 MLOAD SWAP1 PUSH1 0x20 ADD SWAP1 PUSH2 0x88 SWAP3 SWAP2 SWAP1 PUSH2 0x90 JUMP JUMPDEST POP POP POP PUSH2 0x371 JUMP JUMPDEST DUP3 DUP1 SLOAD PUSH2 0x9C SWAP1 PUSH2 0x2CA JUMP JUMPDEST SWAP1 PUSH1 0x0 MSTORE PUSH1 0x20 PUSH1 0x0 KECCAK256 SWAP1 PUSH1 0x1F ADD PUSH1 0x20 SWAP1 DIV DUP2 ADD SWAP3 DUP3 PUSH2 0xBE JUMPI PUSH1 0x0 DUP6 SSTORE PUSH2 0x105 JUMP JUMPDEST DUP3 PUSH1 0x1F LT PUSH2 0xD7 JUMPI DUP1 MLOAD PUSH1 0xFF NOT AND DUP4 DUP1 ADD OR DUP6 SSTORE PUSH2 0x105 JUMP JUMPDEST DUP3 DUP1 ADD PUSH1 0x1 ADD DUP6 SSTORE DUP3 ISZERO PUSH2 0x105 JUMPI SWAP2 DUP3 ADD JUMPDEST DUP3 DUP2 GT ISZERO PUSH2 0x104 JUMPI DUP3 MLOAD DUP3 SSTORE SWAP2 PUSH1 0x20 ADD SWAP2 SWAP1 PUSH1 0x1 ADD SWAP1 PUSH2 0xE9 JUMP JUMPDEST JUMPDEST POP SWAP1 POP PUSH2 0x112 SWAP2 SWAP1 PUSH2 0x116 JUMP JUMPDEST POP SWAP1 JUMP JUMPDEST JUMPDEST DUP1 DUP3 GT ISZERO PUSH2 0x12F JUMPI PUSH1 0x0 DUP2 PUSH1 0x0 SWAP1 SSTORE POP PUSH1 0x1 ADD PUSH2 0x117 JUMP JUMPDEST POP SWAP1 JUMP JUMPDEST PUSH1 0x0 PUSH2 0x146 PUSH2 0x141 DUP5 PUSH2 0x235 JUMP JUMPDEST PUSH2 0x204 JUMP JUMPDEST SWAP1 POP DUP3 DUP2 MSTORE PUSH1 0x20 DUP2 ADD DUP5 DUP5 DUP5 ADD GT ISZERO PUSH2 0x15E JUMPI PUSH1 0x0 DUP1 REVERT JUMPDEST PUSH2 0x169 DUP5 DUP3 DUP6 PUSH2 0x297 JUMP JUMPDEST POP SWAP4 SWAP3 POP POP POP JUMP JUMPDEST PUSH1 0x0 DUP2 MLOAD SWAP1 POP PUSH2 0x180 DUP2 PUSH2 0x35A JUMP JUMPDEST SWAP3 SWAP2 POP POP JUMP JUMPDEST PUSH1 0x0 DUP3 PUSH1 0x1F DUP4 ADD SLT PUSH2 0x197 JUMPI PUSH1 0x0 DUP1 REVERT JUMPDEST DUP2 MLOAD PUSH2 0x1A7 DUP5 DUP3 PUSH1 0x20 DUP7 ADD PUSH2 0x133 JUMP JUMPDEST SWAP2 POP POP SWAP3 SWAP2 POP POP JUMP JUMPDEST PUSH1 0x0 DUP1 PUSH1 0x40 DUP4 DUP6 SUB SLT ISZERO PUSH2 0x1C3 JUMPI PUSH1 0x0 DUP1 REVERT JUMPDEST PUSH1 0x0 PUSH2 0x1D1 DUP6 DUP3 DUP7 ADD PUSH2 0x171 JUMP JUMPDEST SWAP3 POP POP PUSH1 0x20 DUP4 ADD MLOAD PUSH8 0xFFFFFFFFFFFFFFFF DUP2 GT ISZERO PUSH2 0x1EE JUMPI PUSH1 0x0 DUP1 REVERT JUMPDEST PUSH2 0x1FA DUP6 DUP3 DUP7 ADD PUSH2 0x186 JUMP JUMPDEST SWAP2 POP POP SWAP3 POP SWAP3 SWAP1 POP JUMP JUMPDEST PUSH1 0x0 PUSH1 0x40 MLOAD SWAP1 POP DUP2 DUP2 ADD DUP2 DUP2 LT PUSH8 0xFFFFFFFFFFFFFFFF DUP3 GT OR ISZERO PUSH2 0x22B JUMPI PUSH2 0x22A PUSH2 0x32B JUMP JUMPDEST JUMPDEST DUP1 PUSH1 0x40 MSTORE POP SWAP2 SWAP1 POP JUMP JUMPDEST PUSH1 0x0 PUSH8 0xFFFFFFFFFFFFFFFF DUP3 GT ISZERO PUSH2 0x250 JUMPI PUSH2 0x24F PUSH2 0x32B JUMP JUMPDEST JUMPDEST PUSH1 0x1F NOT PUSH1 0x1F DUP4 ADD AND SWAP1 POP PUSH1 0x20 DUP2 ADD SWAP1 POP SWAP2 SWAP1 POP JUMP JUMPDEST PUSH1 0x0 PUSH2 0x270 DUP3 PUSH2 0x277 JUMP JUMPDEST SWAP1 POP SWAP2 SWAP1 POP JUMP JUMPDEST PUSH1 0x0 PUSH20 0xFFFFFFFFFFFFFFFFFFFFFFFFFFFFFFFFFFFFFFFF DUP3 AND SWAP1 POP SWAP2 SWAP1 POP JUMP JUMPDEST PUSH1 0x0 JUMPDEST DUP4 DUP2 LT ISZERO PUSH2 0x2B5 JUMPI DUP1 DUP3 ADD MLOAD DUP2 DUP5 ADD MSTORE PUSH1 0x20 DUP2 ADD SWAP1 POP PUSH2 0x29A JUMP JUMPDEST DUP4 DUP2 GT ISZERO PUSH2 0x2C4 JUMPI PUSH1 0x0 DUP5 DUP5 ADD MSTORE JUMPDEST POP POP POP POP JUMP JUMPDEST PUSH1 0x0 PUSH1 0x2 DUP3 DIV SWAP1 POP PUSH1 0x1 DUP3 AND DUP1 PUSH2 0x2E2 JUMPI PUSH1 0x7F DUP3 AND SWAP2 POP JUMPDEST PUSH1 0x20 DUP3 LT DUP2 EQ ISZERO PUSH2 0x2F6 JUMPI PUSH2 0x2F5 PUSH2 0x2FC JUMP JUMPDEST JUMPDEST POP SWAP2 SWAP1 POP JUMP JUMPDEST PUSH32 0x4E487B7100000000000000000000000000000000000000000000000000000000 PUSH1 0x0 MSTORE PUSH1 0x22 PUSH1 0x4 MSTORE PUSH1 0x24 PUSH1 0x0 REVERT JUMPDEST PUSH32 0x4E487B7100000000000000000000000000000000000000000000000000000000 PUSH1 0x0 MSTORE PUSH1 0x41 PUSH1 0x4 MSTORE PUSH1 0x24 PUSH1 0x0 REVERT JUMPDEST PUSH2 0x363 DUP2 PUSH2 0x265 JUMP JUMPDEST DUP2 EQ PUSH2 0x36E JUMPI PUSH1 0x0 DUP1 REVERT JUMPDEST POP JUMP JUMPDEST PUSH2 0x2D7 DUP1 PUSH2 0x380 PUSH1 0x0 CODECOPY PUSH1 0x0 RETURN INVALID PUSH1 0x80 PUSH1 0x40 MSTORE CALLVALUE DUP1 ISZERO PUSH2 0x10 JUMPI PUSH1 0x0 DUP1 REVERT JUMPDEST POP PUSH1 0x4 CALLDATASIZE LT PUSH2 0x36 JUMPI PUSH1 0x0 CALLDATALOAD PUSH1 0xE0 SHR DUP1 PUSH4 0x28EF8705 EQ PUSH2 0x3B JUMPI DUP1 PUSH4 0x8F84AA09 EQ PUSH2 0x59 JUMPI JUMPDEST PUSH1 0x0 DUP1 REVERT JUMPDEST PUSH2 0x43 PUSH2 0x77 JUMP JUMPDEST PUSH1 0x40 MLOAD PUSH2 0x50 SWAP2 SWAP1 PUSH2 0x18C JUMP JUMPDEST PUSH1 0x40 MLOAD DUP1 SWAP2 SUB SWAP1 RETURN JUMPDEST PUSH2 0x61 PUSH2 0x105 JUMP JUMPDEST PUSH1 0x40 MLOAD PUSH2 0x6E SWAP2 SWAP1 PUSH2 0x171 JUMP JUMPDEST PUSH1 0x40 MLOAD DUP1 SWAP2 SUB SWAP1 RETURN JUMPDEST PUSH1 0x1 DUP1 SLOAD PUSH2 0x84 SWAP1 PUSH2 0x22F JUMP JUMPDEST DUP1 PUSH1 0x1F ADD PUSH1 0x20 DUP1 SWAP2 DIV MUL PUSH1 0x20 ADD PUSH1 0x40 MLOAD SWAP1 DUP2 ADD PUSH1 0x40 MSTORE DUP1 SWAP3 SWAP2 SWAP1 DUP2 DUP2 MSTORE PUSH1 0x20 ADD DUP3 DUP1 SLOAD PUSH2 0xB0 SWAP1 PUSH2 0x22F JUMP JUMPDEST DUP1 ISZERO PUSH2 0xFD JUMPI DUP1 PUSH1 0x1F LT PUSH2 0xD2 JUMPI PUSH2 0x100 DUP1 DUP4 SLOAD DIV MUL DUP4 MSTORE SWAP2 PUSH1 0x20 ADD SWAP2 PUSH2 0xFD JUMP JUMPDEST DUP3 ADD SWAP2 SWAP1 PUSH1 0x0 MSTORE PUSH1 0x20 PUSH1 0x0 KECCAK256 SWAP1 JUMPDEST DUP2 SLOAD DUP2 MSTORE SWAP1 PUSH1 0x1 ADD SWAP1 PUSH1 0x20 ADD DUP1 DUP4 GT PUSH2 0xE0 JUMPI DUP3 SWAP1 SUB PUSH1 0x1F AND DUP3 ADD SWAP2 JUMPDEST POP POP POP POP POP DUP2 JUMP JUMPDEST PUSH1 0x0 DUP1 SLOAD SWAP1 PUSH2 0x100 EXP SWAP1 DIV PUSH20 0xFFFFFFFFFFFFFFFFFFFFFFFFFFFFFFFFFFFFFFFF AND DUP2 JUMP JUMPDEST PUSH2 0x132 DUP2 PUSH2 0x1CA JUMP JUMPDEST DUP3 MSTORE POP POP JUMP JUMPDEST PUSH1 0x0 PUSH2 0x143 DUP3 PUSH2 0x1AE JUMP JUMPDEST PUSH2 0x14D DUP2 DUP6 PUSH2 0x1B9 JUMP JUMPDEST SWAP4 POP PUSH2 0x15D DUP2 DUP6 PUSH1 0x20 DUP7 ADD PUSH2 0x1FC JUMP JUMPDEST PUSH2 0x166 DUP2 PUSH2 0x290 JUMP JUMPDEST DUP5 ADD SWAP2 POP POP SWAP3 SWAP2 POP POP JUMP JUMPDEST PUSH1 0x0 PUSH1 0x20 DUP3 ADD SWAP1 POP PUSH2 0x186 PUSH1 0x0 DUP4 ADD DUP5 PUSH2 0x129 JUMP JUMPDEST SWAP3 SWAP2 POP POP JUMP JUMPDEST PUSH1 0x0 PUSH1 0x20 DUP3 ADD SWAP1 POP DUP2 DUP2 SUB PUSH1 0x0 DUP4 ADD MSTORE PUSH2 0x1A6 DUP2 DUP5 PUSH2 0x138 JUMP JUMPDEST SWAP1 POP SWAP3 SWAP2 POP POP JUMP JUMPDEST PUSH1 0x0 DUP2 MLOAD SWAP1 POP SWAP2 SWAP1 POP JUMP JUMPDEST PUSH1 0x0 DUP3 DUP3 MSTORE PUSH1 0x20 DUP3 ADD SWAP1 POP SWAP3 SWAP2 POP POP JUMP JUMPDEST PUSH1 0x0 PUSH2 0x1D5 DUP3 PUSH2 0x1DC JUMP JUMPDEST SWAP1 POP SWAP2 SWAP1 POP JUMP JUMPDEST PUSH1 0x0 PUSH20 0xFFFFFFFFFFFFFFFFFFFFFFFFFFFFFFFFFFFFFFFF DUP3 AND SWAP1 POP SWAP2 SWAP1 POP JUMP JUMPDEST PUSH1 0x0 JUMPDEST DUP4 DUP2 LT ISZERO PUSH2 0x21A JUMPI DUP1 DUP3 ADD MLOAD DUP2 DUP5 ADD MSTORE PUSH1 0x20 DUP2 ADD SWAP1 POP PUSH2 0x1FF JUMP JUMPDEST DUP4 DUP2 GT ISZERO PUSH2 0x229 JUMPI PUSH1 0x0 DUP5 DUP5 ADD MSTORE JUMPDEST POP POP POP POP JUMP JUMPDEST PUSH1 0x0 PUSH1 0x2 DUP3 DIV SWAP1 POP PUSH1 0x1 DUP3 AND DUP1 PUSH2 0x247 JUMPI PUSH1 0x7F DUP3 AND SWAP2 POP JUMPDEST PUSH1 0x20 DUP3 LT DUP2 EQ ISZERO PUSH2 0x25B JUMPI PUSH2 0x25A PUSH2 0x261 JUMP JUMPDEST JUMPDEST POP SWAP2 SWAP1 POP JUMP JUMPDEST PUSH32 0x4E487B7100000000000000000000000000000000000000000000000000000000 PUSH1 0x0 MSTORE PUSH1 0x22 PUSH1 0x4 MSTORE PUSH1 0x24 PUSH1 0x0 REVERT JUMPDEST PUSH1 0x0 PUSH1 0x1F NOT PUSH1 0x1F DUP4 ADD AND SWAP1 POP SWAP2 SWAP1 POP JUMP INVALID LOG2 PUSH5 0x6970667358 0x22 SLT KECCAK256 CALLDATALOAD 0x29 0x5E DUP6 SWAP8 PUSH32 0x49E44A860FBDB7A4B9AB3EEE6D11B8693B45F6E9C5F4836CDE1E64736F6C6343 STOP ADDMOD STOP STOP CALLER LOG2 PUSH5 0x6970667358 0x22 SLT KECCAK256 MULMOD TIMESTAMP GASLIMIT 0xAF 0xC3 0xDF 0xF8 0xE3 PUSH20 0xBE99F67B0E5D6DDA181749CFCB6182239D8CBDFE MSIZE ADDMOD SLT PUSH5 0x736F6C6343 STOP ADDMOD STOP STOP CALLER "},"methodIdentifiers":{"compareStrings(string,string)":"bed34bba","confirmNewAccountEmail(string,string,bytes,bytes,string,string)":"dab76a1b","createNewAccount(string,string)":"710f5d93","deployNewSWC(string,address)":"d98dd1b4","getSCWAddressByEmail(string)":"2380cca6"}}}}}