{"contracts/algorithms/SHA512.sol":{"SHA512":{"abi":[{"inputs":[{"internalType":"uint256[8]","name":"Ai","type":"uint256[8]"}],"name":"arrayToLE","outputs":[{"internalType":"uint256","name":"high","type":"uint256"},{"internalType":"uint256","name":"low","type":"uint256"}],"stateMutability":"pure","type":"function"},{"inputs":[{"internalType":"uint256[2]","name":"_a","type":"uint256[2]"},{"internalType":"uint256[2]","name":"_b","type":"uint256[2]"}],"name":"ecAddVec","outputs":[{"internalType":"uint256[2]","name":"","type":"uint256[2]"}],"stateMutability":"view","type":"function"},{"inputs":[{"internalType":"uint256","name":"_r","type":"uint256"},{"internalType":"uint256","name":"_p","type":"uint256"},{"internalType":"uint256","name":"_hx","type":"uint256"},{"internalType":"uint256[80]","name":"w","type":"uint256[80]"}],"name":"initW","outputs":[],"stateMutability":"pure","type":"function"},{"inputs":[{"internalType":"uint256","name":"value","type":"uint256"},{"internalType":"uint256","name":"d","type":"uint256"}],"name":"rotr","outputs":[{"internalType":"uint256","name":"","type":"uint256"}],"stateMutability":"pure","type":"function"},{"inputs":[{"internalType":"uint256[2]","name":"point","type":"uint256[2]"},{"internalType":"uint256","name":"s","type":"uint256"}],"name":"scalarMult","outputs":[{"internalType":"uint256","name":"","type":"uint256"},{"internalType":"uint256","name":"","type":"uint256"}],"stateMutability":"view","type":"function"},{"inputs":[{"internalType":"uint256","name":"_r","type":"uint256"},{"internalType":"uint256","name":"_p","type":"uint256"},{"internalType":"uint256","name":"_hx","type":"uint256"}],"name":"sha512modl","outputs":[{"internalType":"uint256","name":"hashmodl","type":"uint256"}],"stateMutability":"view","type":"function"},{"inputs":[{"internalType":"uint256[80]","name":"W","type":"uint256[80]"}],"name":"update","outputs":[{"internalType":"uint256[8]","name":"","type":"uint256[8]"}],"stateMutability":"view","type":"function"}],"evm":{"bytecode":{"linkReferences":{},"object":"608060405260405180610a00016040528067428a2f98d728ae228152602001677137449123ef65cd815260200167b5c0fbcfec4d3b2f815260200167e9b5dba58189dbbc8152602001673956c25bf348b53881526020016759f111f1b605d019815260200167923f82a4af194f9b815260200167ab1c5ed5da6d8118815260200167d807aa98a303024281526020016712835b0145706fbe815260200167243185be4ee4b28c815260200167550c7dc3d5ffb4e281526020016772be5d74f27b896f81526020016780deb1fe3b1696b18152602001679bdc06a725c71235815260200167c19bf174cf692694815260200167e49b69c19ef14ad2815260200167efbe4786384f25e38152602001670fc19dc68b8cd5b5815260200167240ca1cc77ac9c658152602001672de92c6f592b02758152602001674a7484aa6ea6e4838152602001675cb0a9dcbd41fbd481526020016776f988da831153b5815260200167983e5152ee66dfab815260200167a831c66d2db43210815260200167b00327c898fb213f815260200167bf597fc7beef0ee4815260200167c6e00bf33da88fc2815260200167d5a79147930aa72581526020016706ca6351e003826f815260200167142929670a0e6e7081526020016727b70a8546d22ffc8152602001672e1b21385c26c9268152602001674d2c6dfc5ac42aed81526020016753380d139d95b3df815260200167650a73548baf63de815260200167766a0abb3c77b2a881526020016781c2c92e47edaee681526020016792722c851482353b815260200167a2bfe8a14cf10364815260200167a81a664bbc423001815260200167c24b8b70d0f89791815260200167c76c51a30654be30815260200167d192e819d6ef5218815260200167d69906245565a910815260200167f40e35855771202a815260200167106aa07032bbd1b881526020016719a4c116b8d2d0c88152602001671e376c085141ab538152602001672748774cdf8eeb9981526020016734b0bcb5e19b48a8815260200167391c0cb3c5c95a638152602001674ed8aa4ae3418acb8152602001675b9cca4f7763e373815260200167682e6ff3d6b2b8a3815260200167748f82ee5defb2fc81526020016778a5636f43172f6081526020016784c87814a1f0ab728152602001678cc702081a6439ec81526020016790befffa23631e28815260200167a4506cebde82bde9815260200167bef9a3f7b2c67915815260200167c67178f2e372532b815260200167ca273eceea26619c815260200167d186b8c721c0c207815260200167eada7dd6cde0eb1e815260200167f57d4f7fee6ed17881526020016706f067aa72176fba8152602001670a637dc5a2c898a6815260200167113f9804bef90dae8152602001671b710b35131c471b81526020016728db77f523047d8481526020016732caab7b40c724938152602001673c9ebe0a15c9bebc815260200167431d67c49c100d4c8152602001674cc5d4becb3e42b6815260200167597f299cfc657e2a8152602001675fcb6fab3ad6faec8152602001676c44198c4a47581781525060009060506200048092919062000522565b50604051806101000160405280676a09e667f3bcc908815260200167bb67ae8584caa73b8152602001673c6ef372fe94f82b815260200167a54ff53a5f1d36f1815260200167510e527fade682d18152602001679b05688c2b3e6c1f8152602001671f83d9abfb41bd6b8152602001675be0cd19137e217981525060509060086200050d92919062000567565b503480156200051b57600080fd5b50620005cb565b826050810192821562000554579160200282015b828111156200055357825182559160200191906001019062000536565b5b509050620005639190620005ac565b5090565b826008810192821562000599579160200282015b82811115620005985782518255916020019190600101906200057b565b5b509050620005a89190620005ac565b5090565b5b80821115620005c7576000816000905550600101620005ad565b5090565b61285380620005db6000396000f3fe608060405234801561001057600080fd5b506004361061007d5760003560e01c806351b6c0a11161005b57806351b6c0a114610113578063755d4add146101435780639b0fd8cd14610174578063dcb90bb9146101a45761007d565b806301f743371461008257806305e4fa19146100b2578063500d8107146100e2575b600080fd5b61009c600480360381019061009791906123bc565b6101c0565b6040516100a9919061258a565b60405180910390f35b6100cc60048036038101906100c7919061232c565b6104c8565b6040516100d9919061256e565b60405180910390f35b6100fc60048036038101906100f791906122f0565b610903565b60405161010a9291906125a5565b60405180910390f35b61012d60048036038101906101289190612380565b610afe565b60405161013a919061258a565b60405180910390f35b61015d60048036038101906101589190612356565b610b27565b60405161016b9291906125a5565b60405180910390f35b61018e600480360381019061018991906122b4565b610dc3565b60405161019b9190612553565b60405180910390f35b6101be60048036038101906101b9919061240b565b611007565b005b60006101ca612033565b6101d685858584611007565b60006101e1826104c8565b905060005b60088110156102d25767ffffffffffffffff60508260088110610232577f4e487b7100000000000000000000000000000000000000000000000000000000600052603260045260246000fd5b015483836008811061026d577f4e487b7100000000000000000000000000000000000000000000000000000000600052603260045260246000fd5b602002015161027c91906126cb565b168282600881106102b6577f4e487b7100000000000000000000000000000000000000000000000000000000600052603260045260246000fd5b60200201818152505080806102ca9061275f565b9150506101e6565b506000806102df83610b27565b915091507f1000000000000000000000000000000014def9dea2f79cd65812631a5cf5d3ed80610338577f4e487b7100000000000000000000000000000000000000000000000000000000600052601260045260246000fd5b7f1000000000000000000000000000000014def9dea2f79cd65812631a5cf5d3ed8061038d577f4e487b7100000000000000000000000000000000000000000000000000000000600052601260045260246000fd5b600183097f1000000000000000000000000000000014def9dea2f79cd65812631a5cf5d3ed806103e6577f4e487b7100000000000000000000000000000000000000000000000000000000600052601260045260246000fd5b7f1000000000000000000000000000000014def9dea2f79cd65812631a5cf5d3ed8061043b577f4e487b7100000000000000000000000000000000000000000000000000000000600052601260045260246000fd5b6001700100000000000000000000000000000000097f1000000000000000000000000000000014def9dea2f79cd65812631a5cf5d3ed806104a5577f4e487b7100000000000000000000000000000000000000000000000000000000600052601260045260246000fd5b700100000000000000000000000000000000870909089450505050509392505050565b6104d0612056565b6000605060006008811061050d577f4e487b7100000000000000000000000000000000000000000000000000000000600052603260045260246000fd5b015490506000605060016008811061054e577f4e487b7100000000000000000000000000000000000000000000000000000000600052603260045260246000fd5b015490506000605060026008811061058f577f4e487b7100000000000000000000000000000000000000000000000000000000600052603260045260246000fd5b01549050600060506003600881106105d0577f4e487b7100000000000000000000000000000000000000000000000000000000600052603260045260246000fd5b0154905060006050600460088110610611577f4e487b7100000000000000000000000000000000000000000000000000000000600052603260045260246000fd5b0154905060006050600560088110610652577f4e487b7100000000000000000000000000000000000000000000000000000000600052603260045260246000fd5b0154905060006050600660088110610693577f4e487b7100000000000000000000000000000000000000000000000000000000600052603260045260246000fd5b01549050600060506007600881106106d4577f4e487b7100000000000000000000000000000000000000000000000000000000600052603260045260246000fd5b0154905060005b60508110156108b95760006106f1866029610afe565b6106fc876012610afe565b61070788600e610afe565b181890506000848719168688161890506000808460508110610752577f4e487b7100000000000000000000000000000000000000000000000000000000600052603260045260246000fd5b01548e856050811061078d577f4e487b7100000000000000000000000000000000000000000000000000000000600052603260045260246000fd5b602002015183858861079f91906126cb565b6107a991906126cb565b6107b391906126cb565b6107bd91906126cb565b905060006107cc8d6027610afe565b6107d78e6022610afe565b6107e28f601c610afe565b1818905060008b8e168d8f161890508b8d16811890506000818361080691906126cb565b90508897508998508a9950680100000000000000008061084f577f4e487b7100000000000000000000000000000000000000000000000000000000600052601260045260246000fd5b848d089a508c9b508d9c508e9d50680100000000000000008061089b577f4e487b7100000000000000000000000000000000000000000000000000000000600052601260045260246000fd5b8185089e5050505050505080806108b19061275f565b9150506106db565b506040518061010001604052808981526020018881526020018781526020018681526020018581526020018481526020018381526020018281525098505050505050505050919050565b60008061090e612079565b610916612079565b85600060028110610950577f4e487b7100000000000000000000000000000000000000000000000000000000600052603260045260246000fd5b602002015182600001818152505085600160028110610998577f4e487b7100000000000000000000000000000000000000000000000000000000600052603260045260246000fd5b602002015182602001818152505060018260400181815250506000816000018181525050600181602001818152505060018160400181815250505b6000851115610a0b57600180861614156109f4576109f18183611116565b90505b600185901c9450610a0482611917565b91506109d3565b6000610a1a8260400151611f95565b90507f7fffffffffffffffffffffffffffffffffffffffffffffffffffffffffffffed80610a71577f4e487b7100000000000000000000000000000000000000000000000000000000600052601260045260246000fd5b818360000151098260000181815250507f7fffffffffffffffffffffffffffffffffffffffffffffffffffffffffffffed80610ad6577f4e487b7100000000000000000000000000000000000000000000000000000000600052601260045260246000fd5b8183602001510982602001818152505081600001518260200151945094505050509250929050565b600067ffffffffffffffff826040610b169190612721565b84901b8385901c1716905092915050565b600080600083600360088110610b66577f4e487b7100000000000000000000000000000000000000000000000000000000600052603260045260246000fd5b6020020151604085600260088110610ba7577f4e487b7100000000000000000000000000000000000000000000000000000000600052603260045260246000fd5b6020020151901b608086600160088110610bea577f4e487b7100000000000000000000000000000000000000000000000000000000600052603260045260246000fd5b6020020151901b60c087600060088110610c2d577f4e487b7100000000000000000000000000000000000000000000000000000000600052603260045260246000fd5b6020020151901b1717179050600084600760088110610c75577f4e487b7100000000000000000000000000000000000000000000000000000000600052603260045260246000fd5b6020020151604086600660088110610cb6577f4e487b7100000000000000000000000000000000000000000000000000000000600052603260045260246000fd5b6020020151901b608087600560088110610cf9577f4e487b7100000000000000000000000000000000000000000000000000000000600052603260045260246000fd5b6020020151901b60c088600460088110610d3c577f4e487b7100000000000000000000000000000000000000000000000000000000600052603260045260246000fd5b6020020151901b17171790506040518260208201528160408201526060810160405260018101805b60208201811015610d8a5760ff8151166008838303021b86019550600181019050610d64565b50602081019050805b60208201811015610db95760ff8151166008838303021b87019650600181019050610d93565b5050505050915091565b610dcb61209a565b610dd3612079565b610ddb612079565b84600060028110610e15577f4e487b7100000000000000000000000000000000000000000000000000000000600052603260045260246000fd5b602002015182600001818152505084600160028110610e5d577f4e487b7100000000000000000000000000000000000000000000000000000000600052603260045260246000fd5b6020020151826020018181525050600182604001818152505083600060028110610eb0577f4e487b7100000000000000000000000000000000000000000000000000000000600052603260045260246000fd5b602002015181600001818152505083600160028110610ef8577f4e487b7100000000000000000000000000000000000000000000000000000000600052603260045260246000fd5b602002015181602001818152505060018160400181815250506000610f1d8383611116565b90506000610f2e8260400151611f95565b905060405180604001604052807f7fffffffffffffffffffffffffffffffffffffffffffffffffffffffffffffed80610f90577f4e487b7100000000000000000000000000000000000000000000000000000000600052601260045260246000fd5b8385600001510981526020017f7fffffffffffffffffffffffffffffffffffffffffffffffffffffffffffffed80610ff1577f4e487b7100000000000000000000000000000000000000000000000000000000600052601260045260246000fd5b8385602001510981525094505050505092915050565b604051604060020a856000830152846020830152836040830152607f60020a60801b6103001760608301526080820160405260005b601081101561106b5767ffffffffffffffff60088202601885030151168160200285015260018101905061103c565b5060105b605081101561110d576020600f82030284015160206002830302850151602060108403028601516020600785030287015167ffffffffffffffff8460071c8560381b8660081c1786603f1b8760011c1718181667ffffffffffffffff8460061c8560031b86603d1c1786602d1b8760131c1718181667ffffffffffffffff8184018386010116602088028b015250505050505060018101905061106f565b50505050505050565b61111e612079565b6111266120bc565b7f7fffffffffffffffffffffffffffffffffffffffffffffffffffffffffffffed8061117b577f4e487b7100000000000000000000000000000000000000000000000000000000600052601260045260246000fd5b83604001518560400151098160000181815250507f7fffffffffffffffffffffffffffffffffffffffffffffffffffffffffffffed806111e4577f4e487b7100000000000000000000000000000000000000000000000000000000600052601260045260246000fd5b81600001518260000151098160200181815250507f7fffffffffffffffffffffffffffffffffffffffffffffffffffffffffffffed8061124d577f4e487b7100000000000000000000000000000000000000000000000000000000600052601260045260246000fd5b83600001518560000151098160400181815250507f7fffffffffffffffffffffffffffffffffffffffffffffffffffffffffffffed806112b6577f4e487b7100000000000000000000000000000000000000000000000000000000600052601260045260246000fd5b83602001518560200151098160600181815250507f7fffffffffffffffffffffffffffffffffffffffffffffffffffffffffffffed8061131f577f4e487b7100000000000000000000000000000000000000000000000000000000600052601260045260246000fd5b7f7fffffffffffffffffffffffffffffffffffffffffffffffffffffffffffffed80611374577f4e487b7100000000000000000000000000000000000000000000000000000000600052601260045260246000fd5b82606001518360400151097f52036cee2b6ffe738cc740797779e89800700a4d4141d8ab75eb4dca135978a3098160800181815250507f7fffffffffffffffffffffffffffffffffffffffffffffffffffffffffffffed806113ff577f4e487b7100000000000000000000000000000000000000000000000000000000600052601260045260246000fd5b81608001517f7fffffffffffffffffffffffffffffffffffffffffffffffffffffffffffffed61142f9190612721565b8260200151088160a00181815250507f7fffffffffffffffffffffffffffffffffffffffffffffffffffffffffffffed80611493577f4e487b7100000000000000000000000000000000000000000000000000000000600052601260045260246000fd5b81608001518260200151088160c00181815250507f7fffffffffffffffffffffffffffffffffffffffffffffffffffffffffffffed806114fc577f4e487b7100000000000000000000000000000000000000000000000000000000600052601260045260246000fd5b7f7fffffffffffffffffffffffffffffffffffffffffffffffffffffffffffffed80611551577f4e487b7100000000000000000000000000000000000000000000000000000000600052601260045260246000fd5b82606001517f7fffffffffffffffffffffffffffffffffffffffffffffffffffffffffffffed6115819190612721565b7f7fffffffffffffffffffffffffffffffffffffffffffffffffffffffffffffed806115d6577f4e487b7100000000000000000000000000000000000000000000000000000000600052601260045260246000fd5b84604001517f7fffffffffffffffffffffffffffffffffffffffffffffffffffffffffffffed6116069190612721565b7f7fffffffffffffffffffffffffffffffffffffffffffffffffffffffffffffed8061165b577f4e487b7100000000000000000000000000000000000000000000000000000000600052601260045260246000fd5b7f7fffffffffffffffffffffffffffffffffffffffffffffffffffffffffffffed806116b0577f4e487b7100000000000000000000000000000000000000000000000000000000600052601260045260246000fd5b89602001518a60000151087f7fffffffffffffffffffffffffffffffffffffffffffffffffffffffffffffed80611710577f4e487b7100000000000000000000000000000000000000000000000000000000600052601260045260246000fd5b8b602001518c60000151080908087f7fffffffffffffffffffffffffffffffffffffffffffffffffffffffffffffed80611773577f4e487b7100000000000000000000000000000000000000000000000000000000600052601260045260246000fd5b8360a00151846000015109098260000181815250507f7fffffffffffffffffffffffffffffffffffffffffffffffffffffffffffffed806117dd577f4e487b7100000000000000000000000000000000000000000000000000000000600052601260045260246000fd5b7f7fffffffffffffffffffffffffffffffffffffffffffffffffffffffffffffed80611832577f4e487b7100000000000000000000000000000000000000000000000000000000600052601260045260246000fd5b82604001518360600151087f7fffffffffffffffffffffffffffffffffffffffffffffffffffffffffffffed80611892577f4e487b7100000000000000000000000000000000000000000000000000000000600052601260045260246000fd5b8360c00151846000015109098260200181815250507f7fffffffffffffffffffffffffffffffffffffffffffffffffffffffffffffed806118fc577f4e487b7100000000000000000000000000000000000000000000000000000000600052601260045260246000fd5b8160c001518260a00151098260400181815250505092915050565b61191f612079565b6119276120bc565b7f7fffffffffffffffffffffffffffffffffffffffffffffffffffffffffffffed8061197c577f4e487b7100000000000000000000000000000000000000000000000000000000600052601260045260246000fd5b83602001518460000151088160000181815250507f7fffffffffffffffffffffffffffffffffffffffffffffffffffffffffffffed806119e5577f4e487b7100000000000000000000000000000000000000000000000000000000600052601260045260246000fd5b81600001518260000151098160200181815250507f7fffffffffffffffffffffffffffffffffffffffffffffffffffffffffffffed80611a4e577f4e487b7100000000000000000000000000000000000000000000000000000000600052601260045260246000fd5b83600001518460000151098160400181815250507f7fffffffffffffffffffffffffffffffffffffffffffffffffffffffffffffed80611ab7577f4e487b7100000000000000000000000000000000000000000000000000000000600052601260045260246000fd5b836020015184602001510981606001818152505080604001517f7fffffffffffffffffffffffffffffffffffffffffffffffffffffffffffffed611afb9190612721565b8160800181815250507f7fffffffffffffffffffffffffffffffffffffffffffffffffffffffffffffed80611b59577f4e487b7100000000000000000000000000000000000000000000000000000000600052601260045260246000fd5b81606001518260800151088160a00181815250507f7fffffffffffffffffffffffffffffffffffffffffffffffffffffffffffffed80611bc2577f4e487b7100000000000000000000000000000000000000000000000000000000600052601260045260246000fd5b83604001518460400151098160e00181815250507f7fffffffffffffffffffffffffffffffffffffffffffffffffffffffffffffed80611c2b577f4e487b7100000000000000000000000000000000000000000000000000000000600052601260045260246000fd5b7f7fffffffffffffffffffffffffffffffffffffffffffffffffffffffffffffed80611c80577f4e487b7100000000000000000000000000000000000000000000000000000000600052601260045260246000fd5b8260e001516002097f7fffffffffffffffffffffffffffffffffffffffffffffffffffffffffffffed611cb39190612721565b8260a00151088160c00181815250507f7fffffffffffffffffffffffffffffffffffffffffffffffffffffffffffffed80611d17577f4e487b7100000000000000000000000000000000000000000000000000000000600052601260045260246000fd5b8160c001517f7fffffffffffffffffffffffffffffffffffffffffffffffffffffffffffffed80611d71577f4e487b7100000000000000000000000000000000000000000000000000000000600052601260045260246000fd5b83606001517f7fffffffffffffffffffffffffffffffffffffffffffffffffffffffffffffed611da19190612721565b7f7fffffffffffffffffffffffffffffffffffffffffffffffffffffffffffffed80611df6577f4e487b7100000000000000000000000000000000000000000000000000000000600052601260045260246000fd5b85604001517f7fffffffffffffffffffffffffffffffffffffffffffffffffffffffffffffed611e269190612721565b86602001510808098260000181815250507f7fffffffffffffffffffffffffffffffffffffffffffffffffffffffffffffed80611e8c577f4e487b7100000000000000000000000000000000000000000000000000000000600052601260045260246000fd5b7f7fffffffffffffffffffffffffffffffffffffffffffffffffffffffffffffed80611ee1577f4e487b7100000000000000000000000000000000000000000000000000000000600052601260045260246000fd5b82606001517f7fffffffffffffffffffffffffffffffffffffffffffffffffffffffffffffed611f119190612721565b8360800151088260a00151098260200181815250507f7fffffffffffffffffffffffffffffffffffffffffffffffffffffffffffffed80611f7b577f4e487b7100000000000000000000000000000000000000000000000000000000600052601260045260246000fd5b8160c001518260a001510982604001818152505050919050565b60008060027f7fffffffffffffffffffffffffffffffffffffffffffffffffffffffffffffed611fc59190612721565b905060007f7fffffffffffffffffffffffffffffffffffffffffffffffffffffffffffffed905060405160208152602080820152602060408201528460608201528260808201528160a082015260208160c0836005600019fa61202757600080fd5b80519350505050919050565b60405180610a000160405280605090602082028036833780820191505090505090565b604051806101000160405280600890602082028036833780820191505090505090565b60405180606001604052806000815260200160008152602001600081525090565b6040518060400160405280600290602082028036833780820191505090505090565b60405180610100016040528060008152602001600081526020016000815260200160008152602001600081526020016000815260200160008152602001600081525090565b600061211461210f846125ff565b6125ce565b9050808285602086028201111561212a57600080fd5b60005b8581101561215a5781612140888261229f565b84526020840193506020830192505060018101905061212d565b5050509392505050565b600061217761217284612625565b6125ce565b9050808285602086028201111561218d57600080fd5b60005b858110156121bd57816121a3888261229f565b845260208401935060208301925050600181019050612190565b5050509392505050565b60006121da6121d58461264b565b6125ce565b905080828560208602820111156121f057600080fd5b60005b858110156122205781612206888261229f565b8452602084019350602083019250506001810190506121f3565b5050509392505050565b600082601f83011261223b57600080fd5b6002612248848285612101565b91505092915050565b600082601f83011261226257600080fd5b605061226f848285612164565b91505092915050565b600082601f83011261228957600080fd5b60086122968482856121c7565b91505092915050565b6000813590506122ae81612806565b92915050565b600080608083850312156122c757600080fd5b60006122d58582860161222a565b92505060406122e68582860161222a565b9150509250929050565b6000806060838503121561230357600080fd5b60006123118582860161222a565b92505060406123228582860161229f565b9150509250929050565b6000610a00828403121561233f57600080fd5b600061234d84828501612251565b91505092915050565b6000610100828403121561236957600080fd5b600061237784828501612278565b91505092915050565b6000806040838503121561239357600080fd5b60006123a18582860161229f565b92505060206123b28582860161229f565b9150509250929050565b6000806000606084860312156123d157600080fd5b60006123df8682870161229f565b93505060206123f08682870161229f565b92505060406124018682870161229f565b9150509250925092565b600080600080610a60858703121561242257600080fd5b60006124308782880161229f565b94505060206124418782880161229f565b93505060406124528782880161229f565b925050606061246387828801612251565b91505092959194509250565b600061247b8383612535565b60208301905092915050565b61249081612685565b61249a81846126b5565b92506124a582612671565b8060005b838110156124d65781516124bd878261246f565b96506124c88361269b565b9250506001810190506124a9565b505050505050565b6124e781612690565b6124f181846126c0565b92506124fc8261267b565b8060005b8381101561252d578151612514878261246f565b965061251f836126a8565b925050600181019050612500565b505050505050565b61253e81612755565b82525050565b61254d81612755565b82525050565b60006040820190506125686000830184612487565b92915050565b60006101008201905061258460008301846124de565b92915050565b600060208201905061259f6000830184612544565b92915050565b60006040820190506125ba6000830185612544565b6125c76020830184612544565b9392505050565b6000604051905081810181811067ffffffffffffffff821117156125f5576125f46127d7565b5b8060405250919050565b600067ffffffffffffffff82111561261a576126196127d7565b5b602082029050919050565b600067ffffffffffffffff8211156126405761263f6127d7565b5b602082029050919050565b600067ffffffffffffffff821115612666576126656127d7565b5b602082029050919050565b6000819050919050565b6000819050919050565b600060029050919050565b600060089050919050565b6000602082019050919050565b6000602082019050919050565b600081905092915050565b600081905092915050565b60006126d682612755565b91506126e183612755565b9250827fffffffffffffffffffffffffffffffffffffffffffffffffffffffffffffffff03821115612716576127156127a8565b5b828201905092915050565b600061272c82612755565b915061273783612755565b92508282101561274a576127496127a8565b5b828203905092915050565b6000819050919050565b600061276a82612755565b91507fffffffffffffffffffffffffffffffffffffffffffffffffffffffffffffffff82141561279d5761279c6127a8565b5b600182019050919050565b7f4e487b7100000000000000000000000000000000000000000000000000000000600052601160045260246000fd5b7f4e487b7100000000000000000000000000000000000000000000000000000000600052604160045260246000fd5b61280f81612755565b811461281a57600080fd5b5056fea26469706673582212207e554260920b7034dfa13df1e87d0e8f30f0d4c78b28b24ddaadd54faac8a0ac64736f6c63430008000033","opcodes":"PUSH1 0x80 PUSH1 0x40 MSTORE PUSH1 0x40 MLOAD DUP1 PUSH2 0xA00 ADD PUSH1 0x40 MSTORE DUP1 PUSH8 0x428A2F98D728AE22 DUP2 MSTORE PUSH1 0x20 ADD PUSH8 0x7137449123EF65CD DUP2 MSTORE PUSH1 0x20 ADD PUSH8 0xB5C0FBCFEC4D3B2F DUP2 MSTORE PUSH1 0x20 ADD PUSH8 0xE9B5DBA58189DBBC DUP2 MSTORE PUSH1 0x20 ADD PUSH8 0x3956C25BF348B538 DUP2 MSTORE PUSH1 0x20 ADD PUSH8 0x59F111F1B605D019 DUP2 MSTORE PUSH1 0x20 ADD PUSH8 0x923F82A4AF194F9B DUP2 MSTORE PUSH1 0x20 ADD PUSH8 0xAB1C5ED5DA6D8118 DUP2 MSTORE PUSH1 0x20 ADD PUSH8 0xD807AA98A3030242 DUP2 MSTORE PUSH1 0x20 ADD PUSH8 0x12835B0145706FBE DUP2 MSTORE PUSH1 0x20 ADD PUSH8 0x243185BE4EE4B28C DUP2 MSTORE PUSH1 0x20 ADD PUSH8 0x550C7DC3D5FFB4E2 DUP2 MSTORE PUSH1 0x20 ADD PUSH8 0x72BE5D74F27B896F DUP2 MSTORE PUSH1 0x20 ADD PUSH8 0x80DEB1FE3B1696B1 DUP2 MSTORE PUSH1 0x20 ADD PUSH8 0x9BDC06A725C71235 DUP2 MSTORE PUSH1 0x20 ADD PUSH8 0xC19BF174CF692694 DUP2 MSTORE PUSH1 0x20 ADD PUSH8 0xE49B69C19EF14AD2 DUP2 MSTORE PUSH1 0x20 ADD PUSH8 0xEFBE4786384F25E3 DUP2 MSTORE PUSH1 0x20 ADD PUSH8 0xFC19DC68B8CD5B5 DUP2 MSTORE PUSH1 0x20 ADD PUSH8 0x240CA1CC77AC9C65 DUP2 MSTORE PUSH1 0x20 ADD PUSH8 0x2DE92C6F592B0275 DUP2 MSTORE PUSH1 0x20 ADD PUSH8 0x4A7484AA6EA6E483 DUP2 MSTORE PUSH1 0x20 ADD PUSH8 0x5CB0A9DCBD41FBD4 DUP2 MSTORE PUSH1 0x20 ADD PUSH8 0x76F988DA831153B5 DUP2 MSTORE PUSH1 0x20 ADD PUSH8 0x983E5152EE66DFAB DUP2 MSTORE PUSH1 0x20 ADD PUSH8 0xA831C66D2DB43210 DUP2 MSTORE PUSH1 0x20 ADD PUSH8 0xB00327C898FB213F DUP2 MSTORE PUSH1 0x20 ADD PUSH8 0xBF597FC7BEEF0EE4 DUP2 MSTORE PUSH1 0x20 ADD PUSH8 0xC6E00BF33DA88FC2 DUP2 MSTORE PUSH1 0x20 ADD PUSH8 0xD5A79147930AA725 DUP2 MSTORE PUSH1 0x20 ADD PUSH8 0x6CA6351E003826F DUP2 MSTORE PUSH1 0x20 ADD PUSH8 0x142929670A0E6E70 DUP2 MSTORE PUSH1 0x20 ADD PUSH8 0x27B70A8546D22FFC DUP2 MSTORE PUSH1 0x20 ADD PUSH8 0x2E1B21385C26C926 DUP2 MSTORE PUSH1 0x20 ADD PUSH8 0x4D2C6DFC5AC42AED DUP2 MSTORE PUSH1 0x20 ADD PUSH8 0x53380D139D95B3DF DUP2 MSTORE PUSH1 0x20 ADD PUSH8 0x650A73548BAF63DE DUP2 MSTORE PUSH1 0x20 ADD PUSH8 0x766A0ABB3C77B2A8 DUP2 MSTORE PUSH1 0x20 ADD PUSH8 0x81C2C92E47EDAEE6 DUP2 MSTORE PUSH1 0x20 ADD PUSH8 0x92722C851482353B DUP2 MSTORE PUSH1 0x20 ADD PUSH8 0xA2BFE8A14CF10364 DUP2 MSTORE PUSH1 0x20 ADD PUSH8 0xA81A664BBC423001 DUP2 MSTORE PUSH1 0x20 ADD PUSH8 0xC24B8B70D0F89791 DUP2 MSTORE PUSH1 0x20 ADD PUSH8 0xC76C51A30654BE30 DUP2 MSTORE PUSH1 0x20 ADD PUSH8 0xD192E819D6EF5218 DUP2 MSTORE PUSH1 0x20 ADD PUSH8 0xD69906245565A910 DUP2 MSTORE PUSH1 0x20 ADD PUSH8 0xF40E35855771202A DUP2 MSTORE PUSH1 0x20 ADD PUSH8 0x106AA07032BBD1B8 DUP2 MSTORE PUSH1 0x20 ADD PUSH8 0x19A4C116B8D2D0C8 DUP2 MSTORE PUSH1 0x20 ADD PUSH8 0x1E376C085141AB53 DUP2 MSTORE PUSH1 0x20 ADD PUSH8 0x2748774CDF8EEB99 DUP2 MSTORE PUSH1 0x20 ADD PUSH8 0x34B0BCB5E19B48A8 DUP2 MSTORE PUSH1 0x20 ADD PUSH8 0x391C0CB3C5C95A63 DUP2 MSTORE PUSH1 0x20 ADD PUSH8 0x4ED8AA4AE3418ACB DUP2 MSTORE PUSH1 0x20 ADD PUSH8 0x5B9CCA4F7763E373 DUP2 MSTORE PUSH1 0x20 ADD PUSH8 0x682E6FF3D6B2B8A3 DUP2 MSTORE PUSH1 0x20 ADD PUSH8 0x748F82EE5DEFB2FC DUP2 MSTORE PUSH1 0x20 ADD PUSH8 0x78A5636F43172F60 DUP2 MSTORE PUSH1 0x20 ADD PUSH8 0x84C87814A1F0AB72 DUP2 MSTORE PUSH1 0x20 ADD PUSH8 0x8CC702081A6439EC DUP2 MSTORE PUSH1 0x20 ADD PUSH8 0x90BEFFFA23631E28 DUP2 MSTORE PUSH1 0x20 ADD PUSH8 0xA4506CEBDE82BDE9 DUP2 MSTORE PUSH1 0x20 ADD PUSH8 0xBEF9A3F7B2C67915 DUP2 MSTORE PUSH1 0x20 ADD PUSH8 0xC67178F2E372532B DUP2 MSTORE PUSH1 0x20 ADD PUSH8 0xCA273ECEEA26619C DUP2 MSTORE PUSH1 0x20 ADD PUSH8 0xD186B8C721C0C207 DUP2 MSTORE PUSH1 0x20 ADD PUSH8 0xEADA7DD6CDE0EB1E DUP2 MSTORE PUSH1 0x20 ADD PUSH8 0xF57D4F7FEE6ED178 DUP2 MSTORE PUSH1 0x20 ADD PUSH8 0x6F067AA72176FBA DUP2 MSTORE PUSH1 0x20 ADD PUSH8 0xA637DC5A2C898A6 DUP2 MSTORE PUSH1 0x20 ADD PUSH8 0x113F9804BEF90DAE DUP2 MSTORE PUSH1 0x20 ADD PUSH8 0x1B710B35131C471B DUP2 MSTORE PUSH1 0x20 ADD PUSH8 0x28DB77F523047D84 DUP2 MSTORE PUSH1 0x20 ADD PUSH8 0x32CAAB7B40C72493 DUP2 MSTORE PUSH1 0x20 ADD PUSH8 0x3C9EBE0A15C9BEBC DUP2 MSTORE PUSH1 0x20 ADD PUSH8 0x431D67C49C100D4C DUP2 MSTORE PUSH1 0x20 ADD PUSH8 0x4CC5D4BECB3E42B6 DUP2 MSTORE PUSH1 0x20 ADD PUSH8 0x597F299CFC657E2A DUP2 MSTORE PUSH1 0x20 ADD PUSH8 0x5FCB6FAB3AD6FAEC DUP2 MSTORE PUSH1 0x20 ADD PUSH8 0x6C44198C4A475817 DUP2 MSTORE POP PUSH1 0x0 SWAP1 PUSH1 0x50 PUSH3 0x480 SWAP3 SWAP2 SWAP1 PUSH3 0x522 JUMP JUMPDEST POP PUSH1 0x40 MLOAD DUP1 PUSH2 0x100 ADD PUSH1 0x40 MSTORE DUP1 PUSH8 0x6A09E667F3BCC908 DUP2 MSTORE PUSH1 0x20 ADD PUSH8 0xBB67AE8584CAA73B DUP2 MSTORE PUSH1 0x20 ADD PUSH8 0x3C6EF372FE94F82B DUP2 MSTORE PUSH1 0x20 ADD PUSH8 0xA54FF53A5F1D36F1 DUP2 MSTORE PUSH1 0x20 ADD PUSH8 0x510E527FADE682D1 DUP2 MSTORE PUSH1 0x20 ADD PUSH8 0x9B05688C2B3E6C1F DUP2 MSTORE PUSH1 0x20 ADD PUSH8 0x1F83D9ABFB41BD6B DUP2 MSTORE PUSH1 0x20 ADD PUSH8 0x5BE0CD19137E2179 DUP2 MSTORE POP PUSH1 0x50 SWAP1 PUSH1 0x8 PUSH3 0x50D SWAP3 SWAP2 SWAP1 PUSH3 0x567 JUMP JUMPDEST POP CALLVALUE DUP1 ISZERO PUSH3 0x51B JUMPI PUSH1 0x0 DUP1 REVERT JUMPDEST POP PUSH3 0x5CB JUMP JUMPDEST DUP3 PUSH1 0x50 DUP2 ADD SWAP3 DUP3 ISZERO PUSH3 0x554 JUMPI SWAP2 PUSH1 0x20 MUL DUP3 ADD JUMPDEST DUP3 DUP2 GT ISZERO PUSH3 0x553 JUMPI DUP3 MLOAD DUP3 SSTORE SWAP2 PUSH1 0x20 ADD SWAP2 SWAP1 PUSH1 0x1 ADD SWAP1 PUSH3 0x536 JUMP JUMPDEST JUMPDEST POP SWAP1 POP PUSH3 0x563 SWAP2 SWAP1 PUSH3 0x5AC JUMP JUMPDEST POP SWAP1 JUMP JUMPDEST DUP3 PUSH1 0x8 DUP2 ADD SWAP3 DUP3 ISZERO PUSH3 0x599 JUMPI SWAP2 PUSH1 0x20 MUL DUP3 ADD JUMPDEST DUP3 DUP2 GT ISZERO PUSH3 0x598 JUMPI DUP3 MLOAD DUP3 SSTORE SWAP2 PUSH1 0x20 ADD SWAP2 SWAP1 PUSH1 0x1 ADD SWAP1 PUSH3 0x57B JUMP JUMPDEST JUMPDEST POP SWAP1 POP PUSH3 0x5A8 SWAP2 SWAP1 PUSH3 0x5AC JUMP JUMPDEST POP SWAP1 JUMP JUMPDEST JUMPDEST DUP1 DUP3 GT ISZERO PUSH3 0x5C7 JUMPI PUSH1 0x0 DUP2 PUSH1 0x0 SWAP1 SSTORE POP PUSH1 0x1 ADD PUSH3 0x5AD JUMP JUMPDEST POP SWAP1 JUMP JUMPDEST PUSH2 0x2853 DUP1 PUSH3 0x5DB PUSH1 0x0 CODECOPY PUSH1 0x0 RETURN INVALID PUSH1 0x80 PUSH1 0x40 MSTORE CALLVALUE DUP1 ISZERO PUSH2 0x10 JUMPI PUSH1 0x0 DUP1 REVERT JUMPDEST POP PUSH1 0x4 CALLDATASIZE LT PUSH2 0x7D JUMPI PUSH1 0x0 CALLDATALOAD PUSH1 0xE0 SHR DUP1 PUSH4 0x51B6C0A1 GT PUSH2 0x5B JUMPI DUP1 PUSH4 0x51B6C0A1 EQ PUSH2 0x113 JUMPI DUP1 PUSH4 0x755D4ADD EQ PUSH2 0x143 JUMPI DUP1 PUSH4 0x9B0FD8CD EQ PUSH2 0x174 JUMPI DUP1 PUSH4 0xDCB90BB9 EQ PUSH2 0x1A4 JUMPI PUSH2 0x7D JUMP JUMPDEST DUP1 PUSH4 0x1F74337 EQ PUSH2 0x82 JUMPI DUP1 PUSH4 0x5E4FA19 EQ PUSH2 0xB2 JUMPI DUP1 PUSH4 0x500D8107 EQ PUSH2 0xE2 JUMPI JUMPDEST PUSH1 0x0 DUP1 REVERT JUMPDEST PUSH2 0x9C PUSH1 0x4 DUP1 CALLDATASIZE SUB DUP2 ADD SWAP1 PUSH2 0x97 SWAP2 SWAP1 PUSH2 0x23BC JUMP JUMPDEST PUSH2 0x1C0 JUMP JUMPDEST PUSH1 0x40 MLOAD PUSH2 0xA9 SWAP2 SWAP1 PUSH2 0x258A JUMP JUMPDEST PUSH1 0x40 MLOAD DUP1 SWAP2 SUB SWAP1 RETURN JUMPDEST PUSH2 0xCC PUSH1 0x4 DUP1 CALLDATASIZE SUB DUP2 ADD SWAP1 PUSH2 0xC7 SWAP2 SWAP1 PUSH2 0x232C JUMP JUMPDEST PUSH2 0x4C8 JUMP JUMPDEST PUSH1 0x40 MLOAD PUSH2 0xD9 SWAP2 SWAP1 PUSH2 0x256E JUMP JUMPDEST PUSH1 0x40 MLOAD DUP1 SWAP2 SUB SWAP1 RETURN JUMPDEST PUSH2 0xFC PUSH1 0x4 DUP1 CALLDATASIZE SUB DUP2 ADD SWAP1 PUSH2 0xF7 SWAP2 SWAP1 PUSH2 0x22F0 JUMP JUMPDEST PUSH2 0x903 JUMP JUMPDEST PUSH1 0x40 MLOAD PUSH2 0x10A SWAP3 SWAP2 SWAP1 PUSH2 0x25A5 JUMP JUMPDEST PUSH1 0x40 MLOAD DUP1 SWAP2 SUB SWAP1 RETURN JUMPDEST PUSH2 0x12D PUSH1 0x4 DUP1 CALLDATASIZE SUB DUP2 ADD SWAP1 PUSH2 0x128 SWAP2 SWAP1 PUSH2 0x2380 JUMP JUMPDEST PUSH2 0xAFE JUMP JUMPDEST PUSH1 0x40 MLOAD PUSH2 0x13A SWAP2 SWAP1 PUSH2 0x258A JUMP JUMPDEST PUSH1 0x40 MLOAD DUP1 SWAP2 SUB SWAP1 RETURN JUMPDEST PUSH2 0x15D PUSH1 0x4 DUP1 CALLDATASIZE SUB DUP2 ADD SWAP1 PUSH2 0x158 SWAP2 SWAP1 PUSH2 0x2356 JUMP JUMPDEST PUSH2 0xB27 JUMP JUMPDEST PUSH1 0x40 MLOAD PUSH2 0x16B SWAP3 SWAP2 SWAP1 PUSH2 0x25A5 JUMP JUMPDEST PUSH1 0x40 MLOAD DUP1 SWAP2 SUB SWAP1 RETURN JUMPDEST PUSH2 0x18E PUSH1 0x4 DUP1 CALLDATASIZE SUB DUP2 ADD SWAP1 PUSH2 0x189 SWAP2 SWAP1 PUSH2 0x22B4 JUMP JUMPDEST PUSH2 0xDC3 JUMP JUMPDEST PUSH1 0x40 MLOAD PUSH2 0x19B SWAP2 SWAP1 PUSH2 0x2553 JUMP JUMPDEST PUSH1 0x40 MLOAD DUP1 SWAP2 SUB SWAP1 RETURN JUMPDEST PUSH2 0x1BE PUSH1 0x4 DUP1 CALLDATASIZE SUB DUP2 ADD SWAP1 PUSH2 0x1B9 SWAP2 SWAP1 PUSH2 0x240B JUMP JUMPDEST PUSH2 0x1007 JUMP JUMPDEST STOP JUMPDEST PUSH1 0x0 PUSH2 0x1CA PUSH2 0x2033 JUMP JUMPDEST PUSH2 0x1D6 DUP6 DUP6 DUP6 DUP5 PUSH2 0x1007 JUMP JUMPDEST PUSH1 0x0 PUSH2 0x1E1 DUP3 PUSH2 0x4C8 JUMP JUMPDEST SWAP1 POP PUSH1 0x0 JUMPDEST PUSH1 0x8 DUP2 LT ISZERO PUSH2 0x2D2 JUMPI PUSH8 0xFFFFFFFFFFFFFFFF PUSH1 0x50 DUP3 PUSH1 0x8 DUP2 LT PUSH2 0x232 JUMPI PUSH32 0x4E487B7100000000000000000000000000000000000000000000000000000000 PUSH1 0x0 MSTORE PUSH1 0x32 PUSH1 0x4 MSTORE PUSH1 0x24 PUSH1 0x0 REVERT JUMPDEST ADD SLOAD DUP4 DUP4 PUSH1 0x8 DUP2 LT PUSH2 0x26D JUMPI PUSH32 0x4E487B7100000000000000000000000000000000000000000000000000000000 PUSH1 0x0 MSTORE PUSH1 0x32 PUSH1 0x4 MSTORE PUSH1 0x24 PUSH1 0x0 REVERT JUMPDEST PUSH1 0x20 MUL ADD MLOAD PUSH2 0x27C SWAP2 SWAP1 PUSH2 0x26CB JUMP JUMPDEST AND DUP3 DUP3 PUSH1 0x8 DUP2 LT PUSH2 0x2B6 JUMPI PUSH32 0x4E487B7100000000000000000000000000000000000000000000000000000000 PUSH1 0x0 MSTORE PUSH1 0x32 PUSH1 0x4 MSTORE PUSH1 0x24 PUSH1 0x0 REVERT JUMPDEST PUSH1 0x20 MUL ADD DUP2 DUP2 MSTORE POP POP DUP1 DUP1 PUSH2 0x2CA SWAP1 PUSH2 0x275F JUMP JUMPDEST SWAP2 POP POP PUSH2 0x1E6 JUMP JUMPDEST POP PUSH1 0x0 DUP1 PUSH2 0x2DF DUP4 PUSH2 0xB27 JUMP JUMPDEST SWAP2 POP SWAP2 POP PUSH32 0x1000000000000000000000000000000014DEF9DEA2F79CD65812631A5CF5D3ED DUP1 PUSH2 0x338 JUMPI PUSH32 0x4E487B7100000000000000000000000000000000000000000000000000000000 PUSH1 0x0 MSTORE PUSH1 0x12 PUSH1 0x4 MSTORE PUSH1 0x24 PUSH1 0x0 REVERT JUMPDEST PUSH32 0x1000000000000000000000000000000014DEF9DEA2F79CD65812631A5CF5D3ED DUP1 PUSH2 0x38D JUMPI PUSH32 0x4E487B7100000000000000000000000000000000000000000000000000000000 PUSH1 0x0 MSTORE PUSH1 0x12 PUSH1 0x4 MSTORE PUSH1 0x24 PUSH1 0x0 REVERT JUMPDEST PUSH1 0x1 DUP4 MULMOD PUSH32 0x1000000000000000000000000000000014DEF9DEA2F79CD65812631A5CF5D3ED DUP1 PUSH2 0x3E6 JUMPI PUSH32 0x4E487B7100000000000000000000000000000000000000000000000000000000 PUSH1 0x0 MSTORE PUSH1 0x12 PUSH1 0x4 MSTORE PUSH1 0x24 PUSH1 0x0 REVERT JUMPDEST PUSH32 0x1000000000000000000000000000000014DEF9DEA2F79CD65812631A5CF5D3ED DUP1 PUSH2 0x43B JUMPI PUSH32 0x4E487B7100000000000000000000000000000000000000000000000000000000 PUSH1 0x0 MSTORE PUSH1 0x12 PUSH1 0x4 MSTORE PUSH1 0x24 PUSH1 0x0 REVERT JUMPDEST PUSH1 0x1 PUSH17 0x100000000000000000000000000000000 MULMOD PUSH32 0x1000000000000000000000000000000014DEF9DEA2F79CD65812631A5CF5D3ED DUP1 PUSH2 0x4A5 JUMPI PUSH32 0x4E487B7100000000000000000000000000000000000000000000000000000000 PUSH1 0x0 MSTORE PUSH1 0x12 PUSH1 0x4 MSTORE PUSH1 0x24 PUSH1 0x0 REVERT JUMPDEST PUSH17 0x100000000000000000000000000000000 DUP8 MULMOD MULMOD ADDMOD SWAP5 POP POP POP POP POP SWAP4 SWAP3 POP POP POP JUMP JUMPDEST PUSH2 0x4D0 PUSH2 0x2056 JUMP JUMPDEST PUSH1 0x0 PUSH1 0x50 PUSH1 0x0 PUSH1 0x8 DUP2 LT PUSH2 0x50D JUMPI PUSH32 0x4E487B7100000000000000000000000000000000000000000000000000000000 PUSH1 0x0 MSTORE PUSH1 0x32 PUSH1 0x4 MSTORE PUSH1 0x24 PUSH1 0x0 REVERT JUMPDEST ADD SLOAD SWAP1 POP PUSH1 0x0 PUSH1 0x50 PUSH1 0x1 PUSH1 0x8 DUP2 LT PUSH2 0x54E JUMPI PUSH32 0x4E487B7100000000000000000000000000000000000000000000000000000000 PUSH1 0x0 MSTORE PUSH1 0x32 PUSH1 0x4 MSTORE PUSH1 0x24 PUSH1 0x0 REVERT JUMPDEST ADD SLOAD SWAP1 POP PUSH1 0x0 PUSH1 0x50 PUSH1 0x2 PUSH1 0x8 DUP2 LT PUSH2 0x58F JUMPI PUSH32 0x4E487B7100000000000000000000000000000000000000000000000000000000 PUSH1 0x0 MSTORE PUSH1 0x32 PUSH1 0x4 MSTORE PUSH1 0x24 PUSH1 0x0 REVERT JUMPDEST ADD SLOAD SWAP1 POP PUSH1 0x0 PUSH1 0x50 PUSH1 0x3 PUSH1 0x8 DUP2 LT PUSH2 0x5D0 JUMPI PUSH32 0x4E487B7100000000000000000000000000000000000000000000000000000000 PUSH1 0x0 MSTORE PUSH1 0x32 PUSH1 0x4 MSTORE PUSH1 0x24 PUSH1 0x0 REVERT JUMPDEST ADD SLOAD SWAP1 POP PUSH1 0x0 PUSH1 0x50 PUSH1 0x4 PUSH1 0x8 DUP2 LT PUSH2 0x611 JUMPI PUSH32 0x4E487B7100000000000000000000000000000000000000000000000000000000 PUSH1 0x0 MSTORE PUSH1 0x32 PUSH1 0x4 MSTORE PUSH1 0x24 PUSH1 0x0 REVERT JUMPDEST ADD SLOAD SWAP1 POP PUSH1 0x0 PUSH1 0x50 PUSH1 0x5 PUSH1 0x8 DUP2 LT PUSH2 0x652 JUMPI PUSH32 0x4E487B7100000000000000000000000000000000000000000000000000000000 PUSH1 0x0 MSTORE PUSH1 0x32 PUSH1 0x4 MSTORE PUSH1 0x24 PUSH1 0x0 REVERT JUMPDEST ADD SLOAD SWAP1 POP PUSH1 0x0 PUSH1 0x50 PUSH1 0x6 PUSH1 0x8 DUP2 LT PUSH2 0x693 JUMPI PUSH32 0x4E487B7100000000000000000000000000000000000000000000000000000000 PUSH1 0x0 MSTORE PUSH1 0x32 PUSH1 0x4 MSTORE PUSH1 0x24 PUSH1 0x0 REVERT JUMPDEST ADD SLOAD SWAP1 POP PUSH1 0x0 PUSH1 0x50 PUSH1 0x7 PUSH1 0x8 DUP2 LT PUSH2 0x6D4 JUMPI PUSH32 0x4E487B7100000000000000000000000000000000000000000000000000000000 PUSH1 0x0 MSTORE PUSH1 0x32 PUSH1 0x4 MSTORE PUSH1 0x24 PUSH1 0x0 REVERT JUMPDEST ADD SLOAD SWAP1 POP PUSH1 0x0 JUMPDEST PUSH1 0x50 DUP2 LT ISZERO PUSH2 0x8B9 JUMPI PUSH1 0x0 PUSH2 0x6F1 DUP7 PUSH1 0x29 PUSH2 0xAFE JUMP JUMPDEST PUSH2 0x6FC DUP8 PUSH1 0x12 PUSH2 0xAFE JUMP JUMPDEST PUSH2 0x707 DUP9 PUSH1 0xE PUSH2 0xAFE JUMP JUMPDEST XOR XOR SWAP1 POP PUSH1 0x0 DUP5 DUP8 NOT AND DUP7 DUP9 AND XOR SWAP1 POP PUSH1 0x0 DUP1 DUP5 PUSH1 0x50 DUP2 LT PUSH2 0x752 JUMPI PUSH32 0x4E487B7100000000000000000000000000000000000000000000000000000000 PUSH1 0x0 MSTORE PUSH1 0x32 PUSH1 0x4 MSTORE PUSH1 0x24 PUSH1 0x0 REVERT JUMPDEST ADD SLOAD DUP15 DUP6 PUSH1 0x50 DUP2 LT PUSH2 0x78D JUMPI PUSH32 0x4E487B7100000000000000000000000000000000000000000000000000000000 PUSH1 0x0 MSTORE PUSH1 0x32 PUSH1 0x4 MSTORE PUSH1 0x24 PUSH1 0x0 REVERT JUMPDEST PUSH1 0x20 MUL ADD MLOAD DUP4 DUP6 DUP9 PUSH2 0x79F SWAP2 SWAP1 PUSH2 0x26CB JUMP JUMPDEST PUSH2 0x7A9 SWAP2 SWAP1 PUSH2 0x26CB JUMP JUMPDEST PUSH2 0x7B3 SWAP2 SWAP1 PUSH2 0x26CB JUMP JUMPDEST PUSH2 0x7BD SWAP2 SWAP1 PUSH2 0x26CB JUMP JUMPDEST SWAP1 POP PUSH1 0x0 PUSH2 0x7CC DUP14 PUSH1 0x27 PUSH2 0xAFE JUMP JUMPDEST PUSH2 0x7D7 DUP15 PUSH1 0x22 PUSH2 0xAFE JUMP JUMPDEST PUSH2 0x7E2 DUP16 PUSH1 0x1C PUSH2 0xAFE JUMP JUMPDEST XOR XOR SWAP1 POP PUSH1 0x0 DUP12 DUP15 AND DUP14 DUP16 AND XOR SWAP1 POP DUP12 DUP14 AND DUP2 XOR SWAP1 POP PUSH1 0x0 DUP2 DUP4 PUSH2 0x806 SWAP2 SWAP1 PUSH2 0x26CB JUMP JUMPDEST SWAP1 POP DUP9 SWAP8 POP DUP10 SWAP9 POP DUP11 SWAP10 POP PUSH9 0x10000000000000000 DUP1 PUSH2 0x84F JUMPI PUSH32 0x4E487B7100000000000000000000000000000000000000000000000000000000 PUSH1 0x0 MSTORE PUSH1 0x12 PUSH1 0x4 MSTORE PUSH1 0x24 PUSH1 0x0 REVERT JUMPDEST DUP5 DUP14 ADDMOD SWAP11 POP DUP13 SWAP12 POP DUP14 SWAP13 POP DUP15 SWAP14 POP PUSH9 0x10000000000000000 DUP1 PUSH2 0x89B JUMPI PUSH32 0x4E487B7100000000000000000000000000000000000000000000000000000000 PUSH1 0x0 MSTORE PUSH1 0x12 PUSH1 0x4 MSTORE PUSH1 0x24 PUSH1 0x0 REVERT JUMPDEST DUP2 DUP6 ADDMOD SWAP15 POP POP POP POP POP POP POP DUP1 DUP1 PUSH2 0x8B1 SWAP1 PUSH2 0x275F JUMP JUMPDEST SWAP2 POP POP PUSH2 0x6DB JUMP JUMPDEST POP PUSH1 0x40 MLOAD DUP1 PUSH2 0x100 ADD PUSH1 0x40 MSTORE DUP1 DUP10 DUP2 MSTORE PUSH1 0x20 ADD DUP9 DUP2 MSTORE PUSH1 0x20 ADD DUP8 DUP2 MSTORE PUSH1 0x20 ADD DUP7 DUP2 MSTORE PUSH1 0x20 ADD DUP6 DUP2 MSTORE PUSH1 0x20 ADD DUP5 DUP2 MSTORE PUSH1 0x20 ADD DUP4 DUP2 MSTORE PUSH1 0x20 ADD DUP3 DUP2 MSTORE POP SWAP9 POP POP POP POP POP POP POP POP POP SWAP2 SWAP1 POP JUMP JUMPDEST PUSH1 0x0 DUP1 PUSH2 0x90E PUSH2 0x2079 JUMP JUMPDEST PUSH2 0x916 PUSH2 0x2079 JUMP JUMPDEST DUP6 PUSH1 0x0 PUSH1 0x2 DUP2 LT PUSH2 0x950 JUMPI PUSH32 0x4E487B7100000000000000000000000000000000000000000000000000000000 PUSH1 0x0 MSTORE PUSH1 0x32 PUSH1 0x4 MSTORE PUSH1 0x24 PUSH1 0x0 REVERT JUMPDEST PUSH1 0x20 MUL ADD MLOAD DUP3 PUSH1 0x0 ADD DUP2 DUP2 MSTORE POP POP DUP6 PUSH1 0x1 PUSH1 0x2 DUP2 LT PUSH2 0x998 JUMPI PUSH32 0x4E487B7100000000000000000000000000000000000000000000000000000000 PUSH1 0x0 MSTORE PUSH1 0x32 PUSH1 0x4 MSTORE PUSH1 0x24 PUSH1 0x0 REVERT JUMPDEST PUSH1 0x20 MUL ADD MLOAD DUP3 PUSH1 0x20 ADD DUP2 DUP2 MSTORE POP POP PUSH1 0x1 DUP3 PUSH1 0x40 ADD DUP2 DUP2 MSTORE POP POP PUSH1 0x0 DUP2 PUSH1 0x0 ADD DUP2 DUP2 MSTORE POP POP PUSH1 0x1 DUP2 PUSH1 0x20 ADD DUP2 DUP2 MSTORE POP POP PUSH1 0x1 DUP2 PUSH1 0x40 ADD DUP2 DUP2 MSTORE POP POP JUMPDEST PUSH1 0x0 DUP6 GT ISZERO PUSH2 0xA0B JUMPI PUSH1 0x1 DUP1 DUP7 AND EQ ISZERO PUSH2 0x9F4 JUMPI PUSH2 0x9F1 DUP2 DUP4 PUSH2 0x1116 JUMP JUMPDEST SWAP1 POP JUMPDEST PUSH1 0x1 DUP6 SWAP1 SHR SWAP5 POP PUSH2 0xA04 DUP3 PUSH2 0x1917 JUMP JUMPDEST SWAP2 POP PUSH2 0x9D3 JUMP JUMPDEST PUSH1 0x0 PUSH2 0xA1A DUP3 PUSH1 0x40 ADD MLOAD PUSH2 0x1F95 JUMP JUMPDEST SWAP1 POP PUSH32 0x7FFFFFFFFFFFFFFFFFFFFFFFFFFFFFFFFFFFFFFFFFFFFFFFFFFFFFFFFFFFFFED DUP1 PUSH2 0xA71 JUMPI PUSH32 0x4E487B7100000000000000000000000000000000000000000000000000000000 PUSH1 0x0 MSTORE PUSH1 0x12 PUSH1 0x4 MSTORE PUSH1 0x24 PUSH1 0x0 REVERT JUMPDEST DUP2 DUP4 PUSH1 0x0 ADD MLOAD MULMOD DUP3 PUSH1 0x0 ADD DUP2 DUP2 MSTORE POP POP PUSH32 0x7FFFFFFFFFFFFFFFFFFFFFFFFFFFFFFFFFFFFFFFFFFFFFFFFFFFFFFFFFFFFFED DUP1 PUSH2 0xAD6 JUMPI PUSH32 0x4E487B7100000000000000000000000000000000000000000000000000000000 PUSH1 0x0 MSTORE PUSH1 0x12 PUSH1 0x4 MSTORE PUSH1 0x24 PUSH1 0x0 REVERT JUMPDEST DUP2 DUP4 PUSH1 0x20 ADD MLOAD MULMOD DUP3 PUSH1 0x20 ADD DUP2 DUP2 MSTORE POP POP DUP2 PUSH1 0x0 ADD MLOAD DUP3 PUSH1 0x20 ADD MLOAD SWAP5 POP SWAP5 POP POP POP POP SWAP3 POP SWAP3 SWAP1 POP JUMP JUMPDEST PUSH1 0x0 PUSH8 0xFFFFFFFFFFFFFFFF DUP3 PUSH1 0x40 PUSH2 0xB16 SWAP2 SWAP1 PUSH2 0x2721 JUMP JUMPDEST DUP5 SWAP1 SHL DUP4 DUP6 SWAP1 SHR OR AND SWAP1 POP SWAP3 SWAP2 POP POP JUMP JUMPDEST PUSH1 0x0 DUP1 PUSH1 0x0 DUP4 PUSH1 0x3 PUSH1 0x8 DUP2 LT PUSH2 0xB66 JUMPI PUSH32 0x4E487B7100000000000000000000000000000000000000000000000000000000 PUSH1 0x0 MSTORE PUSH1 0x32 PUSH1 0x4 MSTORE PUSH1 0x24 PUSH1 0x0 REVERT JUMPDEST PUSH1 0x20 MUL ADD MLOAD PUSH1 0x40 DUP6 PUSH1 0x2 PUSH1 0x8 DUP2 LT PUSH2 0xBA7 JUMPI PUSH32 0x4E487B7100000000000000000000000000000000000000000000000000000000 PUSH1 0x0 MSTORE PUSH1 0x32 PUSH1 0x4 MSTORE PUSH1 0x24 PUSH1 0x0 REVERT JUMPDEST PUSH1 0x20 MUL ADD MLOAD SWAP1 SHL PUSH1 0x80 DUP7 PUSH1 0x1 PUSH1 0x8 DUP2 LT PUSH2 0xBEA JUMPI PUSH32 0x4E487B7100000000000000000000000000000000000000000000000000000000 PUSH1 0x0 MSTORE PUSH1 0x32 PUSH1 0x4 MSTORE PUSH1 0x24 PUSH1 0x0 REVERT JUMPDEST PUSH1 0x20 MUL ADD MLOAD SWAP1 SHL PUSH1 0xC0 DUP8 PUSH1 0x0 PUSH1 0x8 DUP2 LT PUSH2 0xC2D JUMPI PUSH32 0x4E487B7100000000000000000000000000000000000000000000000000000000 PUSH1 0x0 MSTORE PUSH1 0x32 PUSH1 0x4 MSTORE PUSH1 0x24 PUSH1 0x0 REVERT JUMPDEST PUSH1 0x20 MUL ADD MLOAD SWAP1 SHL OR OR OR SWAP1 POP PUSH1 0x0 DUP5 PUSH1 0x7 PUSH1 0x8 DUP2 LT PUSH2 0xC75 JUMPI PUSH32 0x4E487B7100000000000000000000000000000000000000000000000000000000 PUSH1 0x0 MSTORE PUSH1 0x32 PUSH1 0x4 MSTORE PUSH1 0x24 PUSH1 0x0 REVERT JUMPDEST PUSH1 0x20 MUL ADD MLOAD PUSH1 0x40 DUP7 PUSH1 0x6 PUSH1 0x8 DUP2 LT PUSH2 0xCB6 JUMPI PUSH32 0x4E487B7100000000000000000000000000000000000000000000000000000000 PUSH1 0x0 MSTORE PUSH1 0x32 PUSH1 0x4 MSTORE PUSH1 0x24 PUSH1 0x0 REVERT JUMPDEST PUSH1 0x20 MUL ADD MLOAD SWAP1 SHL PUSH1 0x80 DUP8 PUSH1 0x5 PUSH1 0x8 DUP2 LT PUSH2 0xCF9 JUMPI PUSH32 0x4E487B7100000000000000000000000000000000000000000000000000000000 PUSH1 0x0 MSTORE PUSH1 0x32 PUSH1 0x4 MSTORE PUSH1 0x24 PUSH1 0x0 REVERT JUMPDEST PUSH1 0x20 MUL ADD MLOAD SWAP1 SHL PUSH1 0xC0 DUP9 PUSH1 0x4 PUSH1 0x8 DUP2 LT PUSH2 0xD3C JUMPI PUSH32 0x4E487B7100000000000000000000000000000000000000000000000000000000 PUSH1 0x0 MSTORE PUSH1 0x32 PUSH1 0x4 MSTORE PUSH1 0x24 PUSH1 0x0 REVERT JUMPDEST PUSH1 0x20 MUL ADD MLOAD SWAP1 SHL OR OR OR SWAP1 POP PUSH1 0x40 MLOAD DUP3 PUSH1 0x20 DUP3 ADD MSTORE DUP2 PUSH1 0x40 DUP3 ADD MSTORE PUSH1 0x60 DUP2 ADD PUSH1 0x40 MSTORE PUSH1 0x1 DUP2 ADD DUP1 JUMPDEST PUSH1 0x20 DUP3 ADD DUP2 LT ISZERO PUSH2 0xD8A JUMPI PUSH1 0xFF DUP2 MLOAD AND PUSH1 0x8 DUP4 DUP4 SUB MUL SHL DUP7 ADD SWAP6 POP PUSH1 0x1 DUP2 ADD SWAP1 POP PUSH2 0xD64 JUMP JUMPDEST POP PUSH1 0x20 DUP2 ADD SWAP1 POP DUP1 JUMPDEST PUSH1 0x20 DUP3 ADD DUP2 LT ISZERO PUSH2 0xDB9 JUMPI PUSH1 0xFF DUP2 MLOAD AND PUSH1 0x8 DUP4 DUP4 SUB MUL SHL DUP8 ADD SWAP7 POP PUSH1 0x1 DUP2 ADD SWAP1 POP PUSH2 0xD93 JUMP JUMPDEST POP POP POP POP POP SWAP2 POP SWAP2 JUMP JUMPDEST PUSH2 0xDCB PUSH2 0x209A JUMP JUMPDEST PUSH2 0xDD3 PUSH2 0x2079 JUMP JUMPDEST PUSH2 0xDDB PUSH2 0x2079 JUMP JUMPDEST DUP5 PUSH1 0x0 PUSH1 0x2 DUP2 LT PUSH2 0xE15 JUMPI PUSH32 0x4E487B7100000000000000000000000000000000000000000000000000000000 PUSH1 0x0 MSTORE PUSH1 0x32 PUSH1 0x4 MSTORE PUSH1 0x24 PUSH1 0x0 REVERT JUMPDEST PUSH1 0x20 MUL ADD MLOAD DUP3 PUSH1 0x0 ADD DUP2 DUP2 MSTORE POP POP DUP5 PUSH1 0x1 PUSH1 0x2 DUP2 LT PUSH2 0xE5D JUMPI PUSH32 0x4E487B7100000000000000000000000000000000000000000000000000000000 PUSH1 0x0 MSTORE PUSH1 0x32 PUSH1 0x4 MSTORE PUSH1 0x24 PUSH1 0x0 REVERT JUMPDEST PUSH1 0x20 MUL ADD MLOAD DUP3 PUSH1 0x20 ADD DUP2 DUP2 MSTORE POP POP PUSH1 0x1 DUP3 PUSH1 0x40 ADD DUP2 DUP2 MSTORE POP POP DUP4 PUSH1 0x0 PUSH1 0x2 DUP2 LT PUSH2 0xEB0 JUMPI PUSH32 0x4E487B7100000000000000000000000000000000000000000000000000000000 PUSH1 0x0 MSTORE PUSH1 0x32 PUSH1 0x4 MSTORE PUSH1 0x24 PUSH1 0x0 REVERT JUMPDEST PUSH1 0x20 MUL ADD MLOAD DUP2 PUSH1 0x0 ADD DUP2 DUP2 MSTORE POP POP DUP4 PUSH1 0x1 PUSH1 0x2 DUP2 LT PUSH2 0xEF8 JUMPI PUSH32 0x4E487B7100000000000000000000000000000000000000000000000000000000 PUSH1 0x0 MSTORE PUSH1 0x32 PUSH1 0x4 MSTORE PUSH1 0x24 PUSH1 0x0 REVERT JUMPDEST PUSH1 0x20 MUL ADD MLOAD DUP2 PUSH1 0x20 ADD DUP2 DUP2 MSTORE POP POP PUSH1 0x1 DUP2 PUSH1 0x40 ADD DUP2 DUP2 MSTORE POP POP PUSH1 0x0 PUSH2 0xF1D DUP4 DUP4 PUSH2 0x1116 JUMP JUMPDEST SWAP1 POP PUSH1 0x0 PUSH2 0xF2E DUP3 PUSH1 0x40 ADD MLOAD PUSH2 0x1F95 JUMP JUMPDEST SWAP1 POP PUSH1 0x40 MLOAD DUP1 PUSH1 0x40 ADD PUSH1 0x40 MSTORE DUP1 PUSH32 0x7FFFFFFFFFFFFFFFFFFFFFFFFFFFFFFFFFFFFFFFFFFFFFFFFFFFFFFFFFFFFFED DUP1 PUSH2 0xF90 JUMPI PUSH32 0x4E487B7100000000000000000000000000000000000000000000000000000000 PUSH1 0x0 MSTORE PUSH1 0x12 PUSH1 0x4 MSTORE PUSH1 0x24 PUSH1 0x0 REVERT JUMPDEST DUP4 DUP6 PUSH1 0x0 ADD MLOAD MULMOD DUP2 MSTORE PUSH1 0x20 ADD PUSH32 0x7FFFFFFFFFFFFFFFFFFFFFFFFFFFFFFFFFFFFFFFFFFFFFFFFFFFFFFFFFFFFFED DUP1 PUSH2 0xFF1 JUMPI PUSH32 0x4E487B7100000000000000000000000000000000000000000000000000000000 PUSH1 0x0 MSTORE PUSH1 0x12 PUSH1 0x4 MSTORE PUSH1 0x24 PUSH1 0x0 REVERT JUMPDEST DUP4 DUP6 PUSH1 0x20 ADD MLOAD MULMOD DUP2 MSTORE POP SWAP5 POP POP POP POP POP SWAP3 SWAP2 POP POP JUMP JUMPDEST PUSH1 0x40 MLOAD PUSH1 0x40 PUSH1 0x2 EXP DUP6 PUSH1 0x0 DUP4 ADD MSTORE DUP5 PUSH1 0x20 DUP4 ADD MSTORE DUP4 PUSH1 0x40 DUP4 ADD MSTORE PUSH1 0x7F PUSH1 0x2 EXP PUSH1 0x80 SHL PUSH2 0x300 OR PUSH1 0x60 DUP4 ADD MSTORE PUSH1 0x80 DUP3 ADD PUSH1 0x40 MSTORE PUSH1 0x0 JUMPDEST PUSH1 0x10 DUP2 LT ISZERO PUSH2 0x106B JUMPI PUSH8 0xFFFFFFFFFFFFFFFF PUSH1 0x8 DUP3 MUL PUSH1 0x18 DUP6 SUB ADD MLOAD AND DUP2 PUSH1 0x20 MUL DUP6 ADD MSTORE PUSH1 0x1 DUP2 ADD SWAP1 POP PUSH2 0x103C JUMP JUMPDEST POP PUSH1 0x10 JUMPDEST PUSH1 0x50 DUP2 LT ISZERO PUSH2 0x110D JUMPI PUSH1 0x20 PUSH1 0xF DUP3 SUB MUL DUP5 ADD MLOAD PUSH1 0x20 PUSH1 0x2 DUP4 SUB MUL DUP6 ADD MLOAD PUSH1 0x20 PUSH1 0x10 DUP5 SUB MUL DUP7 ADD MLOAD PUSH1 0x20 PUSH1 0x7 DUP6 SUB MUL DUP8 ADD MLOAD PUSH8 0xFFFFFFFFFFFFFFFF DUP5 PUSH1 0x7 SHR DUP6 PUSH1 0x38 SHL DUP7 PUSH1 0x8 SHR OR DUP7 PUSH1 0x3F SHL DUP8 PUSH1 0x1 SHR OR XOR XOR AND PUSH8 0xFFFFFFFFFFFFFFFF DUP5 PUSH1 0x6 SHR DUP6 PUSH1 0x3 SHL DUP7 PUSH1 0x3D SHR OR DUP7 PUSH1 0x2D SHL DUP8 PUSH1 0x13 SHR OR XOR XOR AND PUSH8 0xFFFFFFFFFFFFFFFF DUP2 DUP5 ADD DUP4 DUP7 ADD ADD AND PUSH1 0x20 DUP9 MUL DUP12 ADD MSTORE POP POP POP POP POP POP PUSH1 0x1 DUP2 ADD SWAP1 POP PUSH2 0x106F JUMP JUMPDEST POP POP POP POP POP POP POP JUMP JUMPDEST PUSH2 0x111E PUSH2 0x2079 JUMP JUMPDEST PUSH2 0x1126 PUSH2 0x20BC JUMP JUMPDEST PUSH32 0x7FFFFFFFFFFFFFFFFFFFFFFFFFFFFFFFFFFFFFFFFFFFFFFFFFFFFFFFFFFFFFED DUP1 PUSH2 0x117B JUMPI PUSH32 0x4E487B7100000000000000000000000000000000000000000000000000000000 PUSH1 0x0 MSTORE PUSH1 0x12 PUSH1 0x4 MSTORE PUSH1 0x24 PUSH1 0x0 REVERT JUMPDEST DUP4 PUSH1 0x40 ADD MLOAD DUP6 PUSH1 0x40 ADD MLOAD MULMOD DUP2 PUSH1 0x0 ADD DUP2 DUP2 MSTORE POP POP PUSH32 0x7FFFFFFFFFFFFFFFFFFFFFFFFFFFFFFFFFFFFFFFFFFFFFFFFFFFFFFFFFFFFFED DUP1 PUSH2 0x11E4 JUMPI PUSH32 0x4E487B7100000000000000000000000000000000000000000000000000000000 PUSH1 0x0 MSTORE PUSH1 0x12 PUSH1 0x4 MSTORE PUSH1 0x24 PUSH1 0x0 REVERT JUMPDEST DUP2 PUSH1 0x0 ADD MLOAD DUP3 PUSH1 0x0 ADD MLOAD MULMOD DUP2 PUSH1 0x20 ADD DUP2 DUP2 MSTORE POP POP PUSH32 0x7FFFFFFFFFFFFFFFFFFFFFFFFFFFFFFFFFFFFFFFFFFFFFFFFFFFFFFFFFFFFFED DUP1 PUSH2 0x124D JUMPI PUSH32 0x4E487B7100000000000000000000000000000000000000000000000000000000 PUSH1 0x0 MSTORE PUSH1 0x12 PUSH1 0x4 MSTORE PUSH1 0x24 PUSH1 0x0 REVERT JUMPDEST DUP4 PUSH1 0x0 ADD MLOAD DUP6 PUSH1 0x0 ADD MLOAD MULMOD DUP2 PUSH1 0x40 ADD DUP2 DUP2 MSTORE POP POP PUSH32 0x7FFFFFFFFFFFFFFFFFFFFFFFFFFFFFFFFFFFFFFFFFFFFFFFFFFFFFFFFFFFFFED DUP1 PUSH2 0x12B6 JUMPI PUSH32 0x4E487B7100000000000000000000000000000000000000000000000000000000 PUSH1 0x0 MSTORE PUSH1 0x12 PUSH1 0x4 MSTORE PUSH1 0x24 PUSH1 0x0 REVERT JUMPDEST DUP4 PUSH1 0x20 ADD MLOAD DUP6 PUSH1 0x20 ADD MLOAD MULMOD DUP2 PUSH1 0x60 ADD DUP2 DUP2 MSTORE POP POP PUSH32 0x7FFFFFFFFFFFFFFFFFFFFFFFFFFFFFFFFFFFFFFFFFFFFFFFFFFFFFFFFFFFFFED DUP1 PUSH2 0x131F JUMPI PUSH32 0x4E487B7100000000000000000000000000000000000000000000000000000000 PUSH1 0x0 MSTORE PUSH1 0x12 PUSH1 0x4 MSTORE PUSH1 0x24 PUSH1 0x0 REVERT JUMPDEST PUSH32 0x7FFFFFFFFFFFFFFFFFFFFFFFFFFFFFFFFFFFFFFFFFFFFFFFFFFFFFFFFFFFFFED DUP1 PUSH2 0x1374 JUMPI PUSH32 0x4E487B7100000000000000000000000000000000000000000000000000000000 PUSH1 0x0 MSTORE PUSH1 0x12 PUSH1 0x4 MSTORE PUSH1 0x24 PUSH1 0x0 REVERT JUMPDEST DUP3 PUSH1 0x60 ADD MLOAD DUP4 PUSH1 0x40 ADD MLOAD MULMOD PUSH32 0x52036CEE2B6FFE738CC740797779E89800700A4D4141D8AB75EB4DCA135978A3 MULMOD DUP2 PUSH1 0x80 ADD DUP2 DUP2 MSTORE POP POP PUSH32 0x7FFFFFFFFFFFFFFFFFFFFFFFFFFFFFFFFFFFFFFFFFFFFFFFFFFFFFFFFFFFFFED DUP1 PUSH2 0x13FF JUMPI PUSH32 0x4E487B7100000000000000000000000000000000000000000000000000000000 PUSH1 0x0 MSTORE PUSH1 0x12 PUSH1 0x4 MSTORE PUSH1 0x24 PUSH1 0x0 REVERT JUMPDEST DUP2 PUSH1 0x80 ADD MLOAD PUSH32 0x7FFFFFFFFFFFFFFFFFFFFFFFFFFFFFFFFFFFFFFFFFFFFFFFFFFFFFFFFFFFFFED PUSH2 0x142F SWAP2 SWAP1 PUSH2 0x2721 JUMP JUMPDEST DUP3 PUSH1 0x20 ADD MLOAD ADDMOD DUP2 PUSH1 0xA0 ADD DUP2 DUP2 MSTORE POP POP PUSH32 0x7FFFFFFFFFFFFFFFFFFFFFFFFFFFFFFFFFFFFFFFFFFFFFFFFFFFFFFFFFFFFFED DUP1 PUSH2 0x1493 JUMPI PUSH32 0x4E487B7100000000000000000000000000000000000000000000000000000000 PUSH1 0x0 MSTORE PUSH1 0x12 PUSH1 0x4 MSTORE PUSH1 0x24 PUSH1 0x0 REVERT JUMPDEST DUP2 PUSH1 0x80 ADD MLOAD DUP3 PUSH1 0x20 ADD MLOAD ADDMOD DUP2 PUSH1 0xC0 ADD DUP2 DUP2 MSTORE POP POP PUSH32 0x7FFFFFFFFFFFFFFFFFFFFFFFFFFFFFFFFFFFFFFFFFFFFFFFFFFFFFFFFFFFFFED DUP1 PUSH2 0x14FC JUMPI PUSH32 0x4E487B7100000000000000000000000000000000000000000000000000000000 PUSH1 0x0 MSTORE PUSH1 0x12 PUSH1 0x4 MSTORE PUSH1 0x24 PUSH1 0x0 REVERT JUMPDEST PUSH32 0x7FFFFFFFFFFFFFFFFFFFFFFFFFFFFFFFFFFFFFFFFFFFFFFFFFFFFFFFFFFFFFED DUP1 PUSH2 0x1551 JUMPI PUSH32 0x4E487B7100000000000000000000000000000000000000000000000000000000 PUSH1 0x0 MSTORE PUSH1 0x12 PUSH1 0x4 MSTORE PUSH1 0x24 PUSH1 0x0 REVERT JUMPDEST DUP3 PUSH1 0x60 ADD MLOAD PUSH32 0x7FFFFFFFFFFFFFFFFFFFFFFFFFFFFFFFFFFFFFFFFFFFFFFFFFFFFFFFFFFFFFED PUSH2 0x1581 SWAP2 SWAP1 PUSH2 0x2721 JUMP JUMPDEST PUSH32 0x7FFFFFFFFFFFFFFFFFFFFFFFFFFFFFFFFFFFFFFFFFFFFFFFFFFFFFFFFFFFFFED DUP1 PUSH2 0x15D6 JUMPI PUSH32 0x4E487B7100000000000000000000000000000000000000000000000000000000 PUSH1 0x0 MSTORE PUSH1 0x12 PUSH1 0x4 MSTORE PUSH1 0x24 PUSH1 0x0 REVERT JUMPDEST DUP5 PUSH1 0x40 ADD MLOAD PUSH32 0x7FFFFFFFFFFFFFFFFFFFFFFFFFFFFFFFFFFFFFFFFFFFFFFFFFFFFFFFFFFFFFED PUSH2 0x1606 SWAP2 SWAP1 PUSH2 0x2721 JUMP JUMPDEST PUSH32 0x7FFFFFFFFFFFFFFFFFFFFFFFFFFFFFFFFFFFFFFFFFFFFFFFFFFFFFFFFFFFFFED DUP1 PUSH2 0x165B JUMPI PUSH32 0x4E487B7100000000000000000000000000000000000000000000000000000000 PUSH1 0x0 MSTORE PUSH1 0x12 PUSH1 0x4 MSTORE PUSH1 0x24 PUSH1 0x0 REVERT JUMPDEST PUSH32 0x7FFFFFFFFFFFFFFFFFFFFFFFFFFFFFFFFFFFFFFFFFFFFFFFFFFFFFFFFFFFFFED DUP1 PUSH2 0x16B0 JUMPI PUSH32 0x4E487B7100000000000000000000000000000000000000000000000000000000 PUSH1 0x0 MSTORE PUSH1 0x12 PUSH1 0x4 MSTORE PUSH1 0x24 PUSH1 0x0 REVERT JUMPDEST DUP10 PUSH1 0x20 ADD MLOAD DUP11 PUSH1 0x0 ADD MLOAD ADDMOD PUSH32 0x7FFFFFFFFFFFFFFFFFFFFFFFFFFFFFFFFFFFFFFFFFFFFFFFFFFFFFFFFFFFFFED DUP1 PUSH2 0x1710 JUMPI PUSH32 0x4E487B7100000000000000000000000000000000000000000000000000000000 PUSH1 0x0 MSTORE PUSH1 0x12 PUSH1 0x4 MSTORE PUSH1 0x24 PUSH1 0x0 REVERT JUMPDEST DUP12 PUSH1 0x20 ADD MLOAD DUP13 PUSH1 0x0 ADD MLOAD ADDMOD MULMOD ADDMOD ADDMOD PUSH32 0x7FFFFFFFFFFFFFFFFFFFFFFFFFFFFFFFFFFFFFFFFFFFFFFFFFFFFFFFFFFFFFED DUP1 PUSH2 0x1773 JUMPI PUSH32 0x4E487B7100000000000000000000000000000000000000000000000000000000 PUSH1 0x0 MSTORE PUSH1 0x12 PUSH1 0x4 MSTORE PUSH1 0x24 PUSH1 0x0 REVERT JUMPDEST DUP4 PUSH1 0xA0 ADD MLOAD DUP5 PUSH1 0x0 ADD MLOAD MULMOD MULMOD DUP3 PUSH1 0x0 ADD DUP2 DUP2 MSTORE POP POP PUSH32 0x7FFFFFFFFFFFFFFFFFFFFFFFFFFFFFFFFFFFFFFFFFFFFFFFFFFFFFFFFFFFFFED DUP1 PUSH2 0x17DD JUMPI PUSH32 0x4E487B7100000000000000000000000000000000000000000000000000000000 PUSH1 0x0 MSTORE PUSH1 0x12 PUSH1 0x4 MSTORE PUSH1 0x24 PUSH1 0x0 REVERT JUMPDEST PUSH32 0x7FFFFFFFFFFFFFFFFFFFFFFFFFFFFFFFFFFFFFFFFFFFFFFFFFFFFFFFFFFFFFED DUP1 PUSH2 0x1832 JUMPI PUSH32 0x4E487B7100000000000000000000000000000000000000000000000000000000 PUSH1 0x0 MSTORE PUSH1 0x12 PUSH1 0x4 MSTORE PUSH1 0x24 PUSH1 0x0 REVERT JUMPDEST DUP3 PUSH1 0x40 ADD MLOAD DUP4 PUSH1 0x60 ADD MLOAD ADDMOD PUSH32 0x7FFFFFFFFFFFFFFFFFFFFFFFFFFFFFFFFFFFFFFFFFFFFFFFFFFFFFFFFFFFFFED DUP1 PUSH2 0x1892 JUMPI PUSH32 0x4E487B7100000000000000000000000000000000000000000000000000000000 PUSH1 0x0 MSTORE PUSH1 0x12 PUSH1 0x4 MSTORE PUSH1 0x24 PUSH1 0x0 REVERT JUMPDEST DUP4 PUSH1 0xC0 ADD MLOAD DUP5 PUSH1 0x0 ADD MLOAD MULMOD MULMOD DUP3 PUSH1 0x20 ADD DUP2 DUP2 MSTORE POP POP PUSH32 0x7FFFFFFFFFFFFFFFFFFFFFFFFFFFFFFFFFFFFFFFFFFFFFFFFFFFFFFFFFFFFFED DUP1 PUSH2 0x18FC JUMPI PUSH32 0x4E487B7100000000000000000000000000000000000000000000000000000000 PUSH1 0x0 MSTORE PUSH1 0x12 PUSH1 0x4 MSTORE PUSH1 0x24 PUSH1 0x0 REVERT JUMPDEST DUP2 PUSH1 0xC0 ADD MLOAD DUP3 PUSH1 0xA0 ADD MLOAD MULMOD DUP3 PUSH1 0x40 ADD DUP2 DUP2 MSTORE POP POP POP SWAP3 SWAP2 POP POP JUMP JUMPDEST PUSH2 0x191F PUSH2 0x2079 JUMP JUMPDEST PUSH2 0x1927 PUSH2 0x20BC JUMP JUMPDEST PUSH32 0x7FFFFFFFFFFFFFFFFFFFFFFFFFFFFFFFFFFFFFFFFFFFFFFFFFFFFFFFFFFFFFED DUP1 PUSH2 0x197C JUMPI PUSH32 0x4E487B7100000000000000000000000000000000000000000000000000000000 PUSH1 0x0 MSTORE PUSH1 0x12 PUSH1 0x4 MSTORE PUSH1 0x24 PUSH1 0x0 REVERT JUMPDEST DUP4 PUSH1 0x20 ADD MLOAD DUP5 PUSH1 0x0 ADD MLOAD ADDMOD DUP2 PUSH1 0x0 ADD DUP2 DUP2 MSTORE POP POP PUSH32 0x7FFFFFFFFFFFFFFFFFFFFFFFFFFFFFFFFFFFFFFFFFFFFFFFFFFFFFFFFFFFFFED DUP1 PUSH2 0x19E5 JUMPI PUSH32 0x4E487B7100000000000000000000000000000000000000000000000000000000 PUSH1 0x0 MSTORE PUSH1 0x12 PUSH1 0x4 MSTORE PUSH1 0x24 PUSH1 0x0 REVERT JUMPDEST DUP2 PUSH1 0x0 ADD MLOAD DUP3 PUSH1 0x0 ADD MLOAD MULMOD DUP2 PUSH1 0x20 ADD DUP2 DUP2 MSTORE POP POP PUSH32 0x7FFFFFFFFFFFFFFFFFFFFFFFFFFFFFFFFFFFFFFFFFFFFFFFFFFFFFFFFFFFFFED DUP1 PUSH2 0x1A4E JUMPI PUSH32 0x4E487B7100000000000000000000000000000000000000000000000000000000 PUSH1 0x0 MSTORE PUSH1 0x12 PUSH1 0x4 MSTORE PUSH1 0x24 PUSH1 0x0 REVERT JUMPDEST DUP4 PUSH1 0x0 ADD MLOAD DUP5 PUSH1 0x0 ADD MLOAD MULMOD DUP2 PUSH1 0x40 ADD DUP2 DUP2 MSTORE POP POP PUSH32 0x7FFFFFFFFFFFFFFFFFFFFFFFFFFFFFFFFFFFFFFFFFFFFFFFFFFFFFFFFFFFFFED DUP1 PUSH2 0x1AB7 JUMPI PUSH32 0x4E487B7100000000000000000000000000000000000000000000000000000000 PUSH1 0x0 MSTORE PUSH1 0x12 PUSH1 0x4 MSTORE PUSH1 0x24 PUSH1 0x0 REVERT JUMPDEST DUP4 PUSH1 0x20 ADD MLOAD DUP5 PUSH1 0x20 ADD MLOAD MULMOD DUP2 PUSH1 0x60 ADD DUP2 DUP2 MSTORE POP POP DUP1 PUSH1 0x40 ADD MLOAD PUSH32 0x7FFFFFFFFFFFFFFFFFFFFFFFFFFFFFFFFFFFFFFFFFFFFFFFFFFFFFFFFFFFFFED PUSH2 0x1AFB SWAP2 SWAP1 PUSH2 0x2721 JUMP JUMPDEST DUP2 PUSH1 0x80 ADD DUP2 DUP2 MSTORE POP POP PUSH32 0x7FFFFFFFFFFFFFFFFFFFFFFFFFFFFFFFFFFFFFFFFFFFFFFFFFFFFFFFFFFFFFED DUP1 PUSH2 0x1B59 JUMPI PUSH32 0x4E487B7100000000000000000000000000000000000000000000000000000000 PUSH1 0x0 MSTORE PUSH1 0x12 PUSH1 0x4 MSTORE PUSH1 0x24 PUSH1 0x0 REVERT JUMPDEST DUP2 PUSH1 0x60 ADD MLOAD DUP3 PUSH1 0x80 ADD MLOAD ADDMOD DUP2 PUSH1 0xA0 ADD DUP2 DUP2 MSTORE POP POP PUSH32 0x7FFFFFFFFFFFFFFFFFFFFFFFFFFFFFFFFFFFFFFFFFFFFFFFFFFFFFFFFFFFFFED DUP1 PUSH2 0x1BC2 JUMPI PUSH32 0x4E487B7100000000000000000000000000000000000000000000000000000000 PUSH1 0x0 MSTORE PUSH1 0x12 PUSH1 0x4 MSTORE PUSH1 0x24 PUSH1 0x0 REVERT JUMPDEST DUP4 PUSH1 0x40 ADD MLOAD DUP5 PUSH1 0x40 ADD MLOAD MULMOD DUP2 PUSH1 0xE0 ADD DUP2 DUP2 MSTORE POP POP PUSH32 0x7FFFFFFFFFFFFFFFFFFFFFFFFFFFFFFFFFFFFFFFFFFFFFFFFFFFFFFFFFFFFFED DUP1 PUSH2 0x1C2B JUMPI PUSH32 0x4E487B7100000000000000000000000000000000000000000000000000000000 PUSH1 0x0 MSTORE PUSH1 0x12 PUSH1 0x4 MSTORE PUSH1 0x24 PUSH1 0x0 REVERT JUMPDEST PUSH32 0x7FFFFFFFFFFFFFFFFFFFFFFFFFFFFFFFFFFFFFFFFFFFFFFFFFFFFFFFFFFFFFED DUP1 PUSH2 0x1C80 JUMPI PUSH32 0x4E487B7100000000000000000000000000000000000000000000000000000000 PUSH1 0x0 MSTORE PUSH1 0x12 PUSH1 0x4 MSTORE PUSH1 0x24 PUSH1 0x0 REVERT JUMPDEST DUP3 PUSH1 0xE0 ADD MLOAD PUSH1 0x2 MULMOD PUSH32 0x7FFFFFFFFFFFFFFFFFFFFFFFFFFFFFFFFFFFFFFFFFFFFFFFFFFFFFFFFFFFFFED PUSH2 0x1CB3 SWAP2 SWAP1 PUSH2 0x2721 JUMP JUMPDEST DUP3 PUSH1 0xA0 ADD MLOAD ADDMOD DUP2 PUSH1 0xC0 ADD DUP2 DUP2 MSTORE POP POP PUSH32 0x7FFFFFFFFFFFFFFFFFFFFFFFFFFFFFFFFFFFFFFFFFFFFFFFFFFFFFFFFFFFFFED DUP1 PUSH2 0x1D17 JUMPI PUSH32 0x4E487B7100000000000000000000000000000000000000000000000000000000 PUSH1 0x0 MSTORE PUSH1 0x12 PUSH1 0x4 MSTORE PUSH1 0x24 PUSH1 0x0 REVERT JUMPDEST DUP2 PUSH1 0xC0 ADD MLOAD PUSH32 0x7FFFFFFFFFFFFFFFFFFFFFFFFFFFFFFFFFFFFFFFFFFFFFFFFFFFFFFFFFFFFFED DUP1 PUSH2 0x1D71 JUMPI PUSH32 0x4E487B7100000000000000000000000000000000000000000000000000000000 PUSH1 0x0 MSTORE PUSH1 0x12 PUSH1 0x4 MSTORE PUSH1 0x24 PUSH1 0x0 REVERT JUMPDEST DUP4 PUSH1 0x60 ADD MLOAD PUSH32 0x7FFFFFFFFFFFFFFFFFFFFFFFFFFFFFFFFFFFFFFFFFFFFFFFFFFFFFFFFFFFFFED PUSH2 0x1DA1 SWAP2 SWAP1 PUSH2 0x2721 JUMP JUMPDEST PUSH32 0x7FFFFFFFFFFFFFFFFFFFFFFFFFFFFFFFFFFFFFFFFFFFFFFFFFFFFFFFFFFFFFED DUP1 PUSH2 0x1DF6 JUMPI PUSH32 0x4E487B7100000000000000000000000000000000000000000000000000000000 PUSH1 0x0 MSTORE PUSH1 0x12 PUSH1 0x4 MSTORE PUSH1 0x24 PUSH1 0x0 REVERT JUMPDEST DUP6 PUSH1 0x40 ADD MLOAD PUSH32 0x7FFFFFFFFFFFFFFFFFFFFFFFFFFFFFFFFFFFFFFFFFFFFFFFFFFFFFFFFFFFFFED PUSH2 0x1E26 SWAP2 SWAP1 PUSH2 0x2721 JUMP JUMPDEST DUP7 PUSH1 0x20 ADD MLOAD ADDMOD ADDMOD MULMOD DUP3 PUSH1 0x0 ADD DUP2 DUP2 MSTORE POP POP PUSH32 0x7FFFFFFFFFFFFFFFFFFFFFFFFFFFFFFFFFFFFFFFFFFFFFFFFFFFFFFFFFFFFFED DUP1 PUSH2 0x1E8C JUMPI PUSH32 0x4E487B7100000000000000000000000000000000000000000000000000000000 PUSH1 0x0 MSTORE PUSH1 0x12 PUSH1 0x4 MSTORE PUSH1 0x24 PUSH1 0x0 REVERT JUMPDEST PUSH32 0x7FFFFFFFFFFFFFFFFFFFFFFFFFFFFFFFFFFFFFFFFFFFFFFFFFFFFFFFFFFFFFED DUP1 PUSH2 0x1EE1 JUMPI PUSH32 0x4E487B7100000000000000000000000000000000000000000000000000000000 PUSH1 0x0 MSTORE PUSH1 0x12 PUSH1 0x4 MSTORE PUSH1 0x24 PUSH1 0x0 REVERT JUMPDEST DUP3 PUSH1 0x60 ADD MLOAD PUSH32 0x7FFFFFFFFFFFFFFFFFFFFFFFFFFFFFFFFFFFFFFFFFFFFFFFFFFFFFFFFFFFFFED PUSH2 0x1F11 SWAP2 SWAP1 PUSH2 0x2721 JUMP JUMPDEST DUP4 PUSH1 0x80 ADD MLOAD ADDMOD DUP3 PUSH1 0xA0 ADD MLOAD MULMOD DUP3 PUSH1 0x20 ADD DUP2 DUP2 MSTORE POP POP PUSH32 0x7FFFFFFFFFFFFFFFFFFFFFFFFFFFFFFFFFFFFFFFFFFFFFFFFFFFFFFFFFFFFFED DUP1 PUSH2 0x1F7B JUMPI PUSH32 0x4E487B7100000000000000000000000000000000000000000000000000000000 PUSH1 0x0 MSTORE PUSH1 0x12 PUSH1 0x4 MSTORE PUSH1 0x24 PUSH1 0x0 REVERT JUMPDEST DUP2 PUSH1 0xC0 ADD MLOAD DUP3 PUSH1 0xA0 ADD MLOAD MULMOD DUP3 PUSH1 0x40 ADD DUP2 DUP2 MSTORE POP POP POP SWAP2 SWAP1 POP JUMP JUMPDEST PUSH1 0x0 DUP1 PUSH1 0x2 PUSH32 0x7FFFFFFFFFFFFFFFFFFFFFFFFFFFFFFFFFFFFFFFFFFFFFFFFFFFFFFFFFFFFFED PUSH2 0x1FC5 SWAP2 SWAP1 PUSH2 0x2721 JUMP JUMPDEST SWAP1 POP PUSH1 0x0 PUSH32 0x7FFFFFFFFFFFFFFFFFFFFFFFFFFFFFFFFFFFFFFFFFFFFFFFFFFFFFFFFFFFFFED SWAP1 POP PUSH1 0x40 MLOAD PUSH1 0x20 DUP2 MSTORE PUSH1 0x20 DUP1 DUP3 ADD MSTORE PUSH1 0x20 PUSH1 0x40 DUP3 ADD MSTORE DUP5 PUSH1 0x60 DUP3 ADD MSTORE DUP3 PUSH1 0x80 DUP3 ADD MSTORE DUP2 PUSH1 0xA0 DUP3 ADD MSTORE PUSH1 0x20 DUP2 PUSH1 0xC0 DUP4 PUSH1 0x5 PUSH1 0x0 NOT STATICCALL PUSH2 0x2027 JUMPI PUSH1 0x0 DUP1 REVERT JUMPDEST DUP1 MLOAD SWAP4 POP POP POP POP SWAP2 SWAP1 POP JUMP JUMPDEST PUSH1 0x40 MLOAD DUP1 PUSH2 0xA00 ADD PUSH1 0x40 MSTORE DUP1 PUSH1 0x50 SWAP1 PUSH1 0x20 DUP3 MUL DUP1 CALLDATASIZE DUP4 CALLDATACOPY DUP1 DUP3 ADD SWAP2 POP POP SWAP1 POP POP SWAP1 JUMP JUMPDEST PUSH1 0x40 MLOAD DUP1 PUSH2 0x100 ADD PUSH1 0x40 MSTORE DUP1 PUSH1 0x8 SWAP1 PUSH1 0x20 DUP3 MUL DUP1 CALLDATASIZE DUP4 CALLDATACOPY DUP1 DUP3 ADD SWAP2 POP POP SWAP1 POP POP SWAP1 JUMP JUMPDEST PUSH1 0x40 MLOAD DUP1 PUSH1 0x60 ADD PUSH1 0x40 MSTORE DUP1 PUSH1 0x0 DUP2 MSTORE PUSH1 0x20 ADD PUSH1 0x0 DUP2 MSTORE PUSH1 0x20 ADD PUSH1 0x0 DUP2 MSTORE POP SWAP1 JUMP JUMPDEST PUSH1 0x40 MLOAD DUP1 PUSH1 0x40 ADD PUSH1 0x40 MSTORE DUP1 PUSH1 0x2 SWAP1 PUSH1 0x20 DUP3 MUL DUP1 CALLDATASIZE DUP4 CALLDATACOPY DUP1 DUP3 ADD SWAP2 POP POP SWAP1 POP POP SWAP1 JUMP JUMPDEST PUSH1 0x40 MLOAD DUP1 PUSH2 0x100 ADD PUSH1 0x40 MSTORE DUP1 PUSH1 0x0 DUP2 MSTORE PUSH1 0x20 ADD PUSH1 0x0 DUP2 MSTORE PUSH1 0x20 ADD PUSH1 0x0 DUP2 MSTORE PUSH1 0x20 ADD PUSH1 0x0 DUP2 MSTORE PUSH1 0x20 ADD PUSH1 0x0 DUP2 MSTORE PUSH1 0x20 ADD PUSH1 0x0 DUP2 MSTORE PUSH1 0x20 ADD PUSH1 0x0 DUP2 MSTORE PUSH1 0x20 ADD PUSH1 0x0 DUP2 MSTORE POP SWAP1 JUMP JUMPDEST PUSH1 0x0 PUSH2 0x2114 PUSH2 0x210F DUP5 PUSH2 0x25FF JUMP JUMPDEST PUSH2 0x25CE JUMP JUMPDEST SWAP1 POP DUP1 DUP3 DUP6 PUSH1 0x20 DUP7 MUL DUP3 ADD GT ISZERO PUSH2 0x212A JUMPI PUSH1 0x0 DUP1 REVERT JUMPDEST PUSH1 0x0 JUMPDEST DUP6 DUP2 LT ISZERO PUSH2 0x215A JUMPI DUP2 PUSH2 0x2140 DUP9 DUP3 PUSH2 0x229F JUMP JUMPDEST DUP5 MSTORE PUSH1 0x20 DUP5 ADD SWAP4 POP PUSH1 0x20 DUP4 ADD SWAP3 POP POP PUSH1 0x1 DUP2 ADD SWAP1 POP PUSH2 0x212D JUMP JUMPDEST POP POP POP SWAP4 SWAP3 POP POP POP JUMP JUMPDEST PUSH1 0x0 PUSH2 0x2177 PUSH2 0x2172 DUP5 PUSH2 0x2625 JUMP JUMPDEST PUSH2 0x25CE JUMP JUMPDEST SWAP1 POP DUP1 DUP3 DUP6 PUSH1 0x20 DUP7 MUL DUP3 ADD GT ISZERO PUSH2 0x218D JUMPI PUSH1 0x0 DUP1 REVERT JUMPDEST PUSH1 0x0 JUMPDEST DUP6 DUP2 LT ISZERO PUSH2 0x21BD JUMPI DUP2 PUSH2 0x21A3 DUP9 DUP3 PUSH2 0x229F JUMP JUMPDEST DUP5 MSTORE PUSH1 0x20 DUP5 ADD SWAP4 POP PUSH1 0x20 DUP4 ADD SWAP3 POP POP PUSH1 0x1 DUP2 ADD SWAP1 POP PUSH2 0x2190 JUMP JUMPDEST POP POP POP SWAP4 SWAP3 POP POP POP JUMP JUMPDEST PUSH1 0x0 PUSH2 0x21DA PUSH2 0x21D5 DUP5 PUSH2 0x264B JUMP JUMPDEST PUSH2 0x25CE JUMP JUMPDEST SWAP1 POP DUP1 DUP3 DUP6 PUSH1 0x20 DUP7 MUL DUP3 ADD GT ISZERO PUSH2 0x21F0 JUMPI PUSH1 0x0 DUP1 REVERT JUMPDEST PUSH1 0x0 JUMPDEST DUP6 DUP2 LT ISZERO PUSH2 0x2220 JUMPI DUP2 PUSH2 0x2206 DUP9 DUP3 PUSH2 0x229F JUMP JUMPDEST DUP5 MSTORE PUSH1 0x20 DUP5 ADD SWAP4 POP PUSH1 0x20 DUP4 ADD SWAP3 POP POP PUSH1 0x1 DUP2 ADD SWAP1 POP PUSH2 0x21F3 JUMP JUMPDEST POP POP POP SWAP4 SWAP3 POP POP POP JUMP JUMPDEST PUSH1 0x0 DUP3 PUSH1 0x1F DUP4 ADD SLT PUSH2 0x223B JUMPI PUSH1 0x0 DUP1 REVERT JUMPDEST PUSH1 0x2 PUSH2 0x2248 DUP5 DUP3 DUP6 PUSH2 0x2101 JUMP JUMPDEST SWAP2 POP POP SWAP3 SWAP2 POP POP JUMP JUMPDEST PUSH1 0x0 DUP3 PUSH1 0x1F DUP4 ADD SLT PUSH2 0x2262 JUMPI PUSH1 0x0 DUP1 REVERT JUMPDEST PUSH1 0x50 PUSH2 0x226F DUP5 DUP3 DUP6 PUSH2 0x2164 JUMP JUMPDEST SWAP2 POP POP SWAP3 SWAP2 POP POP JUMP JUMPDEST PUSH1 0x0 DUP3 PUSH1 0x1F DUP4 ADD SLT PUSH2 0x2289 JUMPI PUSH1 0x0 DUP1 REVERT JUMPDEST PUSH1 0x8 PUSH2 0x2296 DUP5 DUP3 DUP6 PUSH2 0x21C7 JUMP JUMPDEST SWAP2 POP POP SWAP3 SWAP2 POP POP JUMP JUMPDEST PUSH1 0x0 DUP2 CALLDATALOAD SWAP1 POP PUSH2 0x22AE DUP2 PUSH2 0x2806 JUMP JUMPDEST SWAP3 SWAP2 POP POP JUMP JUMPDEST PUSH1 0x0 DUP1 PUSH1 0x80 DUP4 DUP6 SUB SLT ISZERO PUSH2 0x22C7 JUMPI PUSH1 0x0 DUP1 REVERT JUMPDEST PUSH1 0x0 PUSH2 0x22D5 DUP6 DUP3 DUP7 ADD PUSH2 0x222A JUMP JUMPDEST SWAP3 POP POP PUSH1 0x40 PUSH2 0x22E6 DUP6 DUP3 DUP7 ADD PUSH2 0x222A JUMP JUMPDEST SWAP2 POP POP SWAP3 POP SWAP3 SWAP1 POP JUMP JUMPDEST PUSH1 0x0 DUP1 PUSH1 0x60 DUP4 DUP6 SUB SLT ISZERO PUSH2 0x2303 JUMPI PUSH1 0x0 DUP1 REVERT JUMPDEST PUSH1 0x0 PUSH2 0x2311 DUP6 DUP3 DUP7 ADD PUSH2 0x222A JUMP JUMPDEST SWAP3 POP POP PUSH1 0x40 PUSH2 0x2322 DUP6 DUP3 DUP7 ADD PUSH2 0x229F JUMP JUMPDEST SWAP2 POP POP SWAP3 POP SWAP3 SWAP1 POP JUMP JUMPDEST PUSH1 0x0 PUSH2 0xA00 DUP3 DUP5 SUB SLT ISZERO PUSH2 0x233F JUMPI PUSH1 0x0 DUP1 REVERT JUMPDEST PUSH1 0x0 PUSH2 0x234D DUP5 DUP3 DUP6 ADD PUSH2 0x2251 JUMP JUMPDEST SWAP2 POP POP SWAP3 SWAP2 POP POP JUMP JUMPDEST PUSH1 0x0 PUSH2 0x100 DUP3 DUP5 SUB SLT ISZERO PUSH2 0x2369 JUMPI PUSH1 0x0 DUP1 REVERT JUMPDEST PUSH1 0x0 PUSH2 0x2377 DUP5 DUP3 DUP6 ADD PUSH2 0x2278 JUMP JUMPDEST SWAP2 POP POP SWAP3 SWAP2 POP POP JUMP JUMPDEST PUSH1 0x0 DUP1 PUSH1 0x40 DUP4 DUP6 SUB SLT ISZERO PUSH2 0x2393 JUMPI PUSH1 0x0 DUP1 REVERT JUMPDEST PUSH1 0x0 PUSH2 0x23A1 DUP6 DUP3 DUP7 ADD PUSH2 0x229F JUMP JUMPDEST SWAP3 POP POP PUSH1 0x20 PUSH2 0x23B2 DUP6 DUP3 DUP7 ADD PUSH2 0x229F JUMP JUMPDEST SWAP2 POP POP SWAP3 POP SWAP3 SWAP1 POP JUMP JUMPDEST PUSH1 0x0 DUP1 PUSH1 0x0 PUSH1 0x60 DUP5 DUP7 SUB SLT ISZERO PUSH2 0x23D1 JUMPI PUSH1 0x0 DUP1 REVERT JUMPDEST PUSH1 0x0 PUSH2 0x23DF DUP7 DUP3 DUP8 ADD PUSH2 0x229F JUMP JUMPDEST SWAP4 POP POP PUSH1 0x20 PUSH2 0x23F0 DUP7 DUP3 DUP8 ADD PUSH2 0x229F JUMP JUMPDEST SWAP3 POP POP PUSH1 0x40 PUSH2 0x2401 DUP7 DUP3 DUP8 ADD PUSH2 0x229F JUMP JUMPDEST SWAP2 POP POP SWAP3 POP SWAP3 POP SWAP3 JUMP JUMPDEST PUSH1 0x0 DUP1 PUSH1 0x0 DUP1 PUSH2 0xA60 DUP6 DUP8 SUB SLT ISZERO PUSH2 0x2422 JUMPI PUSH1 0x0 DUP1 REVERT JUMPDEST PUSH1 0x0 PUSH2 0x2430 DUP8 DUP3 DUP9 ADD PUSH2 0x229F JUMP JUMPDEST SWAP5 POP POP PUSH1 0x20 PUSH2 0x2441 DUP8 DUP3 DUP9 ADD PUSH2 0x229F JUMP JUMPDEST SWAP4 POP POP PUSH1 0x40 PUSH2 0x2452 DUP8 DUP3 DUP9 ADD PUSH2 0x229F JUMP JUMPDEST SWAP3 POP POP PUSH1 0x60 PUSH2 0x2463 DUP8 DUP3 DUP9 ADD PUSH2 0x2251 JUMP JUMPDEST SWAP2 POP POP SWAP3 SWAP6 SWAP2 SWAP5 POP SWAP3 POP JUMP JUMPDEST PUSH1 0x0 PUSH2 0x247B DUP4 DUP4 PUSH2 0x2535 JUMP JUMPDEST PUSH1 0x20 DUP4 ADD SWAP1 POP SWAP3 SWAP2 POP POP JUMP JUMPDEST PUSH2 0x2490 DUP2 PUSH2 0x2685 JUMP JUMPDEST PUSH2 0x249A DUP2 DUP5 PUSH2 0x26B5 JUMP JUMPDEST SWAP3 POP PUSH2 0x24A5 DUP3 PUSH2 0x2671 JUMP JUMPDEST DUP1 PUSH1 0x0 JUMPDEST DUP4 DUP2 LT ISZERO PUSH2 0x24D6 JUMPI DUP2 MLOAD PUSH2 0x24BD DUP8 DUP3 PUSH2 0x246F JUMP JUMPDEST SWAP7 POP PUSH2 0x24C8 DUP4 PUSH2 0x269B JUMP JUMPDEST SWAP3 POP POP PUSH1 0x1 DUP2 ADD SWAP1 POP PUSH2 0x24A9 JUMP JUMPDEST POP POP POP POP POP POP JUMP JUMPDEST PUSH2 0x24E7 DUP2 PUSH2 0x2690 JUMP JUMPDEST PUSH2 0x24F1 DUP2 DUP5 PUSH2 0x26C0 JUMP JUMPDEST SWAP3 POP PUSH2 0x24FC DUP3 PUSH2 0x267B JUMP JUMPDEST DUP1 PUSH1 0x0 JUMPDEST DUP4 DUP2 LT ISZERO PUSH2 0x252D JUMPI DUP2 MLOAD PUSH2 0x2514 DUP8 DUP3 PUSH2 0x246F JUMP JUMPDEST SWAP7 POP PUSH2 0x251F DUP4 PUSH2 0x26A8 JUMP JUMPDEST SWAP3 POP POP PUSH1 0x1 DUP2 ADD SWAP1 POP PUSH2 0x2500 JUMP JUMPDEST POP POP POP POP POP POP JUMP JUMPDEST PUSH2 0x253E DUP2 PUSH2 0x2755 JUMP JUMPDEST DUP3 MSTORE POP POP JUMP JUMPDEST PUSH2 0x254D DUP2 PUSH2 0x2755 JUMP JUMPDEST DUP3 MSTORE POP POP JUMP JUMPDEST PUSH1 0x0 PUSH1 0x40 DUP3 ADD SWAP1 POP PUSH2 0x2568 PUSH1 0x0 DUP4 ADD DUP5 PUSH2 0x2487 JUMP JUMPDEST SWAP3 SWAP2 POP POP JUMP JUMPDEST PUSH1 0x0 PUSH2 0x100 DUP3 ADD SWAP1 POP PUSH2 0x2584 PUSH1 0x0 DUP4 ADD DUP5 PUSH2 0x24DE JUMP JUMPDEST SWAP3 SWAP2 POP POP JUMP JUMPDEST PUSH1 0x0 PUSH1 0x20 DUP3 ADD SWAP1 POP PUSH2 0x259F PUSH1 0x0 DUP4 ADD DUP5 PUSH2 0x2544 JUMP JUMPDEST SWAP3 SWAP2 POP POP JUMP JUMPDEST PUSH1 0x0 PUSH1 0x40 DUP3 ADD SWAP1 POP PUSH2 0x25BA PUSH1 0x0 DUP4 ADD DUP6 PUSH2 0x2544 JUMP JUMPDEST PUSH2 0x25C7 PUSH1 0x20 DUP4 ADD DUP5 PUSH2 0x2544 JUMP JUMPDEST SWAP4 SWAP3 POP POP POP JUMP JUMPDEST PUSH1 0x0 PUSH1 0x40 MLOAD SWAP1 POP DUP2 DUP2 ADD DUP2 DUP2 LT PUSH8 0xFFFFFFFFFFFFFFFF DUP3 GT OR ISZERO PUSH2 0x25F5 JUMPI PUSH2 0x25F4 PUSH2 0x27D7 JUMP JUMPDEST JUMPDEST DUP1 PUSH1 0x40 MSTORE POP SWAP2 SWAP1 POP JUMP JUMPDEST PUSH1 0x0 PUSH8 0xFFFFFFFFFFFFFFFF DUP3 GT ISZERO PUSH2 0x261A JUMPI PUSH2 0x2619 PUSH2 0x27D7 JUMP JUMPDEST JUMPDEST PUSH1 0x20 DUP3 MUL SWAP1 POP SWAP2 SWAP1 POP JUMP JUMPDEST PUSH1 0x0 PUSH8 0xFFFFFFFFFFFFFFFF DUP3 GT ISZERO PUSH2 0x2640 JUMPI PUSH2 0x263F PUSH2 0x27D7 JUMP JUMPDEST JUMPDEST PUSH1 0x20 DUP3 MUL SWAP1 POP SWAP2 SWAP1 POP JUMP JUMPDEST PUSH1 0x0 PUSH8 0xFFFFFFFFFFFFFFFF DUP3 GT ISZERO PUSH2 0x2666 JUMPI PUSH2 0x2665 PUSH2 0x27D7 JUMP JUMPDEST JUMPDEST PUSH1 0x20 DUP3 MUL SWAP1 POP SWAP2 SWAP1 POP JUMP JUMPDEST PUSH1 0x0 DUP2 SWAP1 POP SWAP2 SWAP1 POP JUMP JUMPDEST PUSH1 0x0 DUP2 SWAP1 POP SWAP2 SWAP1 POP JUMP JUMPDEST PUSH1 0x0 PUSH1 0x2 SWAP1 POP SWAP2 SWAP1 POP JUMP JUMPDEST PUSH1 0x0 PUSH1 0x8 SWAP1 POP SWAP2 SWAP1 POP JUMP JUMPDEST PUSH1 0x0 PUSH1 0x20 DUP3 ADD SWAP1 POP SWAP2 SWAP1 POP JUMP JUMPDEST PUSH1 0x0 PUSH1 0x20 DUP3 ADD SWAP1 POP SWAP2 SWAP1 POP JUMP JUMPDEST PUSH1 0x0 DUP2 SWAP1 POP SWAP3 SWAP2 POP POP JUMP JUMPDEST PUSH1 0x0 DUP2 SWAP1 POP SWAP3 SWAP2 POP POP JUMP JUMPDEST PUSH1 0x0 PUSH2 0x26D6 DUP3 PUSH2 0x2755 JUMP JUMPDEST SWAP2 POP PUSH2 0x26E1 DUP4 PUSH2 0x2755 JUMP JUMPDEST SWAP3 POP DUP3 PUSH32 0xFFFFFFFFFFFFFFFFFFFFFFFFFFFFFFFFFFFFFFFFFFFFFFFFFFFFFFFFFFFFFFFF SUB DUP3 GT ISZERO PUSH2 0x2716 JUMPI PUSH2 0x2715 PUSH2 0x27A8 JUMP JUMPDEST JUMPDEST DUP3 DUP3 ADD SWAP1 POP SWAP3 SWAP2 POP POP JUMP JUMPDEST PUSH1 0x0 PUSH2 0x272C DUP3 PUSH2 0x2755 JUMP JUMPDEST SWAP2 POP PUSH2 0x2737 DUP4 PUSH2 0x2755 JUMP JUMPDEST SWAP3 POP DUP3 DUP3 LT ISZERO PUSH2 0x274A JUMPI PUSH2 0x2749 PUSH2 0x27A8 JUMP JUMPDEST JUMPDEST DUP3 DUP3 SUB SWAP1 POP SWAP3 SWAP2 POP POP JUMP JUMPDEST PUSH1 0x0 DUP2 SWAP1 POP SWAP2 SWAP1 POP JUMP JUMPDEST PUSH1 0x0 PUSH2 0x276A DUP3 PUSH2 0x2755 JUMP JUMPDEST SWAP2 POP PUSH32 0xFFFFFFFFFFFFFFFFFFFFFFFFFFFFFFFFFFFFFFFFFFFFFFFFFFFFFFFFFFFFFFFF DUP3 EQ ISZERO PUSH2 0x279D JUMPI PUSH2 0x279C PUSH2 0x27A8 JUMP JUMPDEST JUMPDEST PUSH1 0x1 DUP3 ADD SWAP1 POP SWAP2 SWAP1 POP JUMP JUMPDEST PUSH32 0x4E487B7100000000000000000000000000000000000000000000000000000000 PUSH1 0x0 MSTORE PUSH1 0x11 PUSH1 0x4 MSTORE PUSH1 0x24 PUSH1 0x0 REVERT JUMPDEST PUSH32 0x4E487B7100000000000000000000000000000000000000000000000000000000 PUSH1 0x0 MSTORE PUSH1 0x41 PUSH1 0x4 MSTORE PUSH1 0x24 PUSH1 0x0 REVERT JUMPDEST PUSH2 0x280F DUP2 PUSH2 0x2755 JUMP JUMPDEST DUP2 EQ PUSH2 0x281A JUMPI PUSH1 0x0 DUP1 REVERT JUMPDEST POP JUMP INVALID LOG2 PUSH5 0x6970667358 0x22 SLT KECCAK256 PUSH31 0x554260920B7034DFA13DF1E87D0E8F30F0D4C78B28B24DDAADD54FAAC8A0AC PUSH5 0x736F6C6343 STOP ADDMOD STOP STOP CALLER "},"methodIdentifiers":{"arrayToLE(uint256[8])":"755d4add","ecAddVec(uint256[2],uint256[2])":"9b0fd8cd","initW(uint256,uint256,uint256,uint256[80])":"dcb90bb9","rotr(uint256,uint256)":"51b6c0a1","scalarMult(uint256[2],uint256)":"500d8107","sha512modl(uint256,uint256,uint256)":"01f74337","update(uint256[80])":"05e4fa19"}}}}}