{"contracts/DkimChecker.sol":{"DkimChecker":{"abi":[{"inputs":[{"internalType":"address","name":"_oracle","type":"address"}],"stateMutability":"nonpayable","type":"constructor"},{"anonymous":false,"inputs":[{"indexed":false,"internalType":"bytes32","name":"x","type":"bytes32"}],"name":"Debug","type":"event"},{"anonymous":false,"inputs":[{"indexed":true,"internalType":"address","name":"previousOwner","type":"address"},{"indexed":true,"internalType":"address","name":"newOwner","type":"address"}],"name":"OwnershipTransferred","type":"event"},{"anonymous":false,"inputs":[{"indexed":false,"internalType":"bool","name":"","type":"bool"}],"name":"ReturnVal","type":"event"},{"inputs":[{"internalType":"uint256[8]","name":"Ai","type":"uint256[8]"}],"name":"arrayToLE","outputs":[{"internalType":"uint256","name":"high","type":"uint256"},{"internalType":"uint256","name":"low","type":"uint256"}],"stateMutability":"pure","type":"function"},{"inputs":[{"internalType":"bytes","name":"body","type":"bytes"},{"internalType":"bytes20","name":"bodyHash","type":"bytes20"}],"name":"checkBodySHA1","outputs":[{"internalType":"bool","name":"","type":"bool"}],"stateMutability":"nonpayable","type":"function"},{"inputs":[{"internalType":"bytes","name":"body","type":"bytes"},{"internalType":"bytes32","name":"bodyHash","type":"bytes32"}],"name":"checkBodySHA256","outputs":[{"internalType":"bool","name":"","type":"bool"}],"stateMutability":"nonpayable","type":"function"},{"inputs":[{"internalType":"bytes32","name":"","type":"bytes32"},{"internalType":"bytes32","name":"","type":"bytes32"}],"name":"dkimKeysEd","outputs":[{"internalType":"uint256","name":"x","type":"uint256"},{"internalType":"uint256","name":"y","type":"uint256"},{"internalType":"uint256","name":"p","type":"uint256"}],"stateMutability":"view","type":"function"},{"inputs":[{"internalType":"bytes32","name":"","type":"bytes32"},{"internalType":"bytes32","name":"","type":"bytes32"}],"name":"dkimKeysRsa","outputs":[{"internalType":"bytes","name":"exponent","type":"bytes"},{"internalType":"bytes","name":"modulus","type":"bytes"}],"stateMutability":"view","type":"function"},{"inputs":[{"internalType":"uint256[2]","name":"_a","type":"uint256[2]"},{"internalType":"uint256[2]","name":"_b","type":"uint256[2]"}],"name":"ecAddVec","outputs":[{"internalType":"uint256[2]","name":"","type":"uint256[2]"}],"stateMutability":"view","type":"function"},{"inputs":[{"internalType":"string","name":"_selector","type":"string"},{"internalType":"string","name":"_domain","type":"string"}],"name":"getDkimKeyEd","outputs":[{"internalType":"uint256","name":"x","type":"uint256"},{"internalType":"uint256","name":"y","type":"uint256"}],"stateMutability":"view","type":"function"},{"inputs":[{"internalType":"string","name":"_selector","type":"string"},{"internalType":"string","name":"_domain","type":"string"}],"name":"getDkimKeyRsa","outputs":[{"internalType":"bytes","name":"","type":"bytes"},{"internalType":"bytes","name":"","type":"bytes"}],"stateMutability":"view","type":"function"},{"inputs":[{"internalType":"uint256","name":"_r","type":"uint256"},{"internalType":"uint256","name":"_p","type":"uint256"},{"internalType":"uint256","name":"_hx","type":"uint256"},{"internalType":"uint256[80]","name":"w","type":"uint256[80]"}],"name":"initW","outputs":[],"stateMutability":"pure","type":"function"},{"inputs":[],"name":"oracle","outputs":[{"internalType":"address","name":"","type":"address"}],"stateMutability":"view","type":"function"},{"inputs":[],"name":"owner","outputs":[{"internalType":"address","name":"","type":"address"}],"stateMutability":"view","type":"function"},{"inputs":[],"name":"renounceOwnership","outputs":[],"stateMutability":"nonpayable","type":"function"},{"inputs":[{"internalType":"uint256","name":"value","type":"uint256"},{"internalType":"uint256","name":"d","type":"uint256"}],"name":"rotr","outputs":[{"internalType":"uint256","name":"","type":"uint256"}],"stateMutability":"pure","type":"function"},{"inputs":[{"internalType":"uint256[2]","name":"point","type":"uint256[2]"},{"internalType":"uint256","name":"s","type":"uint256"}],"name":"scalarMult","outputs":[{"internalType":"uint256","name":"","type":"uint256"},{"internalType":"uint256","name":"","type":"uint256"}],"stateMutability":"view","type":"function"},{"inputs":[{"internalType":"string","name":"_selector","type":"string"},{"internalType":"string","name":"_domain","type":"string"},{"internalType":"uint256","name":"x","type":"uint256"},{"internalType":"uint256","name":"y","type":"uint256"},{"internalType":"uint256","name":"p","type":"uint256"}],"name":"setDkimKeyEd","outputs":[{"internalType":"bool","name":"","type":"bool"}],"stateMutability":"nonpayable","type":"function"},{"inputs":[{"internalType":"string","name":"_selector","type":"string"},{"internalType":"string","name":"_domain","type":"string"},{"internalType":"bytes","name":"_exponent","type":"bytes"},{"internalType":"bytes","name":"_modulus","type":"bytes"}],"name":"setDkimKeyRsa","outputs":[{"internalType":"bool","name":"","type":"bool"}],"stateMutability":"nonpayable","type":"function"},{"inputs":[{"internalType":"uint256","name":"_r","type":"uint256"},{"internalType":"uint256","name":"_p","type":"uint256"},{"internalType":"uint256","name":"_hx","type":"uint256"}],"name":"sha512modl","outputs":[{"internalType":"uint256","name":"hashmodl","type":"uint256"}],"stateMutability":"view","type":"function"},{"inputs":[{"internalType":"address","name":"newOwner","type":"address"}],"name":"transferOwnership","outputs":[],"stateMutability":"nonpayable","type":"function"},{"inputs":[{"internalType":"uint256[80]","name":"W","type":"uint256[80]"}],"name":"update","outputs":[{"internalType":"uint256[8]","name":"","type":"uint256[8]"}],"stateMutability":"view","type":"function"},{"inputs":[{"internalType":"string","name":"_selector","type":"string"},{"internalType":"string","name":"_domain","type":"string"},{"internalType":"uint256","name":"_r","type":"uint256"},{"internalType":"uint256[2]","name":"_R","type":"uint256[2]"},{"internalType":"uint256[2]","name":"_lhs","type":"uint256[2]"},{"internalType":"bytes","name":"_canonicalizedHeader","type":"bytes"}],"name":"verifyED25519","outputs":[{"internalType":"bool","name":"","type":"bool"}],"stateMutability":"nonpayable","type":"function"},{"inputs":[{"internalType":"string","name":"_selector","type":"string"},{"internalType":"string","name":"_domain","type":"string"},{"internalType":"bytes","name":"_sig","type":"bytes"},{"internalType":"bytes","name":"_canonicalizedHeader","type":"bytes"}],"name":"verifyRSASHA1","outputs":[{"internalType":"bool","name":"","type":"bool"}],"stateMutability":"nonpayable","type":"function"},{"inputs":[{"internalType":"string","name":"_selector","type":"string"},{"internalType":"string","name":"_domain","type":"string"},{"internalType":"bytes","name":"_sig","type":"bytes"},{"internalType":"bytes","name":"_canonicalizedHeader","type":"bytes"}],"name":"verifyRSASHA256","outputs":[{"internalType":"bool","name":"","type":"bool"}],"stateMutability":"nonpayable","type":"function"}],"evm":{"bytecode":{"linkReferences":{},"object":"608060405260405180610a00016040528067428a2f98d728ae228152602001677137449123ef65cd815260200167b5c0fbcfec4d3b2f815260200167e9b5dba58189dbbc8152602001673956c25bf348b53881526020016759f111f1b605d019815260200167923f82a4af194f9b815260200167ab1c5ed5da6d8118815260200167d807aa98a303024281526020016712835b0145706fbe815260200167243185be4ee4b28c815260200167550c7dc3d5ffb4e281526020016772be5d74f27b896f81526020016780deb1fe3b1696b18152602001679bdc06a725c71235815260200167c19bf174cf692694815260200167e49b69c19ef14ad2815260200167efbe4786384f25e38152602001670fc19dc68b8cd5b5815260200167240ca1cc77ac9c658152602001672de92c6f592b02758152602001674a7484aa6ea6e4838152602001675cb0a9dcbd41fbd481526020016776f988da831153b5815260200167983e5152ee66dfab815260200167a831c66d2db43210815260200167b00327c898fb213f815260200167bf597fc7beef0ee4815260200167c6e00bf33da88fc2815260200167d5a79147930aa72581526020016706ca6351e003826f815260200167142929670a0e6e7081526020016727b70a8546d22ffc8152602001672e1b21385c26c9268152602001674d2c6dfc5ac42aed81526020016753380d139d95b3df815260200167650a73548baf63de815260200167766a0abb3c77b2a881526020016781c2c92e47edaee681526020016792722c851482353b815260200167a2bfe8a14cf10364815260200167a81a664bbc423001815260200167c24b8b70d0f89791815260200167c76c51a30654be30815260200167d192e819d6ef5218815260200167d69906245565a910815260200167f40e35855771202a815260200167106aa07032bbd1b881526020016719a4c116b8d2d0c88152602001671e376c085141ab538152602001672748774cdf8eeb9981526020016734b0bcb5e19b48a8815260200167391c0cb3c5c95a638152602001674ed8aa4ae3418acb8152602001675b9cca4f7763e373815260200167682e6ff3d6b2b8a3815260200167748f82ee5defb2fc81526020016778a5636f43172f6081526020016784c87814a1f0ab728152602001678cc702081a6439ec81526020016790befffa23631e28815260200167a4506cebde82bde9815260200167bef9a3f7b2c67915815260200167c67178f2e372532b815260200167ca273eceea26619c815260200167d186b8c721c0c207815260200167eada7dd6cde0eb1e815260200167f57d4f7fee6ed17881526020016706f067aa72176fba8152602001670a637dc5a2c898a6815260200167113f9804bef90dae8152602001671b710b35131c471b81526020016728db77f523047d8481526020016732caab7b40c724938152602001673c9ebe0a15c9bebc815260200167431d67c49c100d4c8152602001674cc5d4becb3e42b6815260200167597f299cfc657e2a8152602001675fcb6fab3ad6faec8152602001676c44198c4a47581781525060019060506200048092919062000675565b50604051806101000160405280676a09e667f3bcc908815260200167bb67ae8584caa73b8152602001673c6ef372fe94f82b815260200167a54ff53a5f1d36f1815260200167510e527fade682d18152602001679b05688c2b3e6c1f8152602001671f83d9abfb41bd6b8152602001675be0cd19137e217981525060519060086200050d929190620006ba565b503480156200051b57600080fd5b5060405162005b8738038062005b87833981810160405281019062000541919062000735565b6200056162000555620005a960201b60201c565b620005b160201b60201c565b80605960006101000a81548173ffffffffffffffffffffffffffffffffffffffff021916908373ffffffffffffffffffffffffffffffffffffffff16021790555050620007af565b600033905090565b60008060009054906101000a900473ffffffffffffffffffffffffffffffffffffffff169050816000806101000a81548173ffffffffffffffffffffffffffffffffffffffff021916908373ffffffffffffffffffffffffffffffffffffffff1602179055508173ffffffffffffffffffffffffffffffffffffffff168173ffffffffffffffffffffffffffffffffffffffff167f8be0079c531659141344cd1fd0a4f28419497f9722a3daafe3b4186f6b6457e060405160405180910390a35050565b8260508101928215620006a7579160200282015b82811115620006a657825182559160200191906001019062000689565b5b509050620006b69190620006ff565b5090565b8260088101928215620006ec579160200282015b82811115620006eb578251825591602001919060010190620006ce565b5b509050620006fb9190620006ff565b5090565b5b808211156200071a57600081600090555060010162000700565b5090565b6000815190506200072f8162000795565b92915050565b6000602082840312156200074857600080fd5b600062000758848285016200071e565b91505092915050565b60006200076e8262000775565b9050919050565b600073ffffffffffffffffffffffffffffffffffffffff82169050919050565b620007a08162000761565b8114620007ac57600080fd5b50565b6153c880620007bf6000396000f3fe608060405234801561001057600080fd5b50600436106101425760003560e01c80639b0fd8cd116100b8578063cb7034d21161007c578063cb7034d214610401578063dbd1195c14610431578063dcb90bb914610463578063e36027ab1461047f578063f2fde38b146104af578063f3ae1b31146104cb57610142565b80639b0fd8cd14610310578063a2226ef614610340578063af0df02214610370578063b2178825146103a1578063c82f10f5146103d157610142565b806351b6c0a11161010a57806351b6c0a1146102385780635a6eb94e14610268578063715018a614610299578063755d4add146102a35780637dc0d1d0146102d45780638da5cb5b146102f257610142565b806301f743371461014757806305e4fa19146101775780632739c34f146101a75780633d69d2f7146101d7578063500d810714610207575b600080fd5b610161600480360381019061015c91906147e7565b6104fc565b60405161016e9190614c75565b60405180910390f35b610191600480360381019061018c91906143a2565b610804565b60405161019e9190614ba7565b60405180910390f35b6101c160048036038101906101bc9190614704565b610c40565b6040516101ce9190614bc3565b60405180910390f35b6101f160048036038101906101ec919061456f565b610d6f565b6040516101fe9190614bc3565b60405180910390f35b610221600480360381019061021c9190614366565b610ff6565b60405161022f929190614c90565b60405180910390f35b610252600480360381019061024d91906147ab565b6111f1565b60405161025f9190614c75565b60405180910390f35b610282600480360381019061027d9190614503565b61121a565b604051610290929190614bde565b60405180910390f35b6102a16113d6565b005b6102bd60048036038101906102b891906143cc565b6113ea565b6040516102cb929190614c90565b60405180910390f35b6102dc611686565b6040516102e99190614b71565b60405180910390f35b6102fa6116ac565b6040516103079190614b71565b60405180910390f35b61032a6004803603810190610325919061432a565b6116d5565b6040516103379190614b8c565b60405180910390f35b61035a6004803603810190610355919061456f565b611919565b6040516103679190614bc3565b60405180910390f35b61038a60048036038101906103859190614503565b611a5e565b604051610398929190614c90565b60405180910390f35b6103bb60048036038101906103b691906144af565b611b14565b6040516103c89190614bc3565b60405180910390f35b6103eb60048036038101906103e6919061456f565b611bad565b6040516103f89190614bc3565b60405180910390f35b61041b6004803603810190610416919061445b565b611e0b565b6040516104289190614bc3565b60405180910390f35b61044b6004803603810190610446919061441f565b611e7b565b60405161045a93929190614cb9565b60405180910390f35b61047d60048036038101906104789190614836565b611eb2565b005b61049960048036038101906104949190614632565b611fc1565b6040516104a69190614bc3565b60405180910390f35b6104c960048036038101906104c49190614301565b6122d9565b005b6104e560048036038101906104e0919061441f565b61235d565b6040516104f3929190614bde565b60405180910390f35b6000610506613e9f565b61051285858584611eb2565b600061051d82610804565b905060005b600881101561060e5767ffffffffffffffff6051826008811061056e577f4e487b7100000000000000000000000000000000000000000000000000000000600052603260045260246000fd5b01548383600881106105a9577f4e487b7100000000000000000000000000000000000000000000000000000000600052603260045260246000fd5b60200201516105b89190614e9b565b168282600881106105f2577f4e487b7100000000000000000000000000000000000000000000000000000000600052603260045260246000fd5b6020020181815250508080610606906151e2565b915050610522565b5060008061061b836113ea565b915091507f1000000000000000000000000000000014def9dea2f79cd65812631a5cf5d3ed80610674577f4e487b7100000000000000000000000000000000000000000000000000000000600052601260045260246000fd5b7f1000000000000000000000000000000014def9dea2f79cd65812631a5cf5d3ed806106c9577f4e487b7100000000000000000000000000000000000000000000000000000000600052601260045260246000fd5b600183097f1000000000000000000000000000000014def9dea2f79cd65812631a5cf5d3ed80610722577f4e487b7100000000000000000000000000000000000000000000000000000000600052601260045260246000fd5b7f1000000000000000000000000000000014def9dea2f79cd65812631a5cf5d3ed80610777577f4e487b7100000000000000000000000000000000000000000000000000000000600052601260045260246000fd5b6001700100000000000000000000000000000000097f1000000000000000000000000000000014def9dea2f79cd65812631a5cf5d3ed806107e1577f4e487b7100000000000000000000000000000000000000000000000000000000600052601260045260246000fd5b700100000000000000000000000000000000870909089450505050509392505050565b61080c613ec2565b60006051600060088110610849577f4e487b7100000000000000000000000000000000000000000000000000000000600052603260045260246000fd5b015490506000605160016008811061088a577f4e487b7100000000000000000000000000000000000000000000000000000000600052603260045260246000fd5b01549050600060516002600881106108cb577f4e487b7100000000000000000000000000000000000000000000000000000000600052603260045260246000fd5b015490506000605160036008811061090c577f4e487b7100000000000000000000000000000000000000000000000000000000600052603260045260246000fd5b015490506000605160046008811061094d577f4e487b7100000000000000000000000000000000000000000000000000000000600052603260045260246000fd5b015490506000605160056008811061098e577f4e487b7100000000000000000000000000000000000000000000000000000000600052603260045260246000fd5b01549050600060516006600881106109cf577f4e487b7100000000000000000000000000000000000000000000000000000000600052603260045260246000fd5b0154905060006051600760088110610a10577f4e487b7100000000000000000000000000000000000000000000000000000000600052603260045260246000fd5b0154905060005b6050811015610bf6576000610a2d8660296111f1565b610a388760126111f1565b610a4388600e6111f1565b18189050600084871916868816189050600060018460508110610a8f577f4e487b7100000000000000000000000000000000000000000000000000000000600052603260045260246000fd5b01548e8560508110610aca577f4e487b7100000000000000000000000000000000000000000000000000000000600052603260045260246000fd5b6020020151838588610adc9190614e9b565b610ae69190614e9b565b610af09190614e9b565b610afa9190614e9b565b90506000610b098d60276111f1565b610b148e60226111f1565b610b1f8f601c6111f1565b1818905060008b8e168d8f161890508b8d168118905060008183610b439190614e9b565b90508897508998508a99506801000000000000000080610b8c577f4e487b7100000000000000000000000000000000000000000000000000000000600052601260045260246000fd5b848d089a508c9b508d9c508e9d506801000000000000000080610bd8577f4e487b7100000000000000000000000000000000000000000000000000000000600052601260045260246000fd5b8185089e505050505050508080610bee906151e2565b915050610a17565b506040518061010001604052808981526020018881526020018781526020018681526020018581526020018481526020018381526020018281525098505050505050505050919050565b6000605960009054906101000a900473ffffffffffffffffffffffffffffffffffffffff1673ffffffffffffffffffffffffffffffffffffffff163373ffffffffffffffffffffffffffffffffffffffff1614610cd2576040517f08c379a0000000000000000000000000000000000000000000000000000000008152600401610cc990614c55565b60405180910390fd5b6000605b600088604051602001610ce99190614b5a565b604051602081830303815290604052805190602001208152602001908152602001600020600087604051602001610d209190614b5a565b6040516020818303038152906040528051906020012081526020019081526020016000209050848160000181905550838160010181905550828160020181905550600191505095945050505050565b600080605a600087604051602001610d879190614b5a565b604051602081830303815290604052805190602001208152602001908152602001600020600086604051602001610dbe9190614b5a565b604051602081830303815290604052805190602001208152602001908152602001600020604051806040016040529081600082018054610dfd906151b0565b80601f0160208091040260200160405190810160405280929190818152602001828054610e29906151b0565b8015610e765780601f10610e4b57610100808354040283529160200191610e76565b820191906000526020600020905b815481529060010190602001808311610e5957829003601f168201915b50505050508152602001600182018054610e8f906151b0565b80601f0160208091040260200160405190810160405280929190818152602001828054610ebb906151b0565b8015610f085780601f10610edd57610100808354040283529160200191610f08565b820191906000526020600020905b815481529060010190602001808311610eeb57829003601f168201915b505050505081525050905060006060610f2a868460000151856020015161249e565b80925081935050506000828015610fae5750610f5c60208351610f4d91906150bc565b836125fe90919063ffffffff16565b600287604051610f6c9190614b43565b602060405180830381855afa158015610f89573d6000803e3d6000fd5b5050506040513d601f19601f82011682018060405250810190610fac91906143f6565b145b90507fff3010ae5fe3144d9922cf3389b9bf30da6f991746f58a3177e3427ff9c7ef5481604051610fdf9190614bc3565b60405180910390a180945050505050949350505050565b600080611001613ee5565b611009613ee5565b85600060028110611043577f4e487b7100000000000000000000000000000000000000000000000000000000600052603260045260246000fd5b60200201518260000181815250508560016002811061108b577f4e487b7100000000000000000000000000000000000000000000000000000000600052603260045260246000fd5b602002015182602001818152505060018260400181815250506000816000018181525050600181602001818152505060018160400181815250505b60008511156110fe57600180861614156110e7576110e48183612629565b90505b600185901c94506110f782612e2a565b91506110c6565b600061110d82604001516134a8565b90507f7fffffffffffffffffffffffffffffffffffffffffffffffffffffffffffffed80611164577f4e487b7100000000000000000000000000000000000000000000000000000000600052601260045260246000fd5b818360000151098260000181815250507f7fffffffffffffffffffffffffffffffffffffffffffffffffffffffffffffed806111c9577f4e487b7100000000000000000000000000000000000000000000000000000000600052601260045260246000fd5b8183602001510982602001818152505081600001518260200151945094505050509250929050565b600067ffffffffffffffff82604061120991906150bc565b84901b8385901c1716905092915050565b6060806000605a6000866040516020016112349190614b5a565b60405160208183030381529060405280519060200120815260200190815260200160002060008560405160200161126b9190614b5a565b6040516020818303038152906040528051906020012081526020019081526020016000206040518060400160405290816000820180546112aa906151b0565b80601f01602080910402602001604051908101604052809291908181526020018280546112d6906151b0565b80156113235780601f106112f857610100808354040283529160200191611323565b820191906000526020600020905b81548152906001019060200180831161130657829003601f168201915b5050505050815260200160018201805461133c906151b0565b80601f0160208091040260200160405190810160405280929190818152602001828054611368906151b0565b80156113b55780601f1061138a576101008083540402835291602001916113b5565b820191906000526020600020905b81548152906001019060200180831161139857829003601f168201915b50505050508152505090508060000151816020015192509250509250929050565b6113de613546565b6113e860006135c4565b565b600080600083600360088110611429577f4e487b7100000000000000000000000000000000000000000000000000000000600052603260045260246000fd5b602002015160408560026008811061146a577f4e487b7100000000000000000000000000000000000000000000000000000000600052603260045260246000fd5b6020020151901b6080866001600881106114ad577f4e487b7100000000000000000000000000000000000000000000000000000000600052603260045260246000fd5b6020020151901b60c0876000600881106114f0577f4e487b7100000000000000000000000000000000000000000000000000000000600052603260045260246000fd5b6020020151901b1717179050600084600760088110611538577f4e487b7100000000000000000000000000000000000000000000000000000000600052603260045260246000fd5b6020020151604086600660088110611579577f4e487b7100000000000000000000000000000000000000000000000000000000600052603260045260246000fd5b6020020151901b6080876005600881106115bc577f4e487b7100000000000000000000000000000000000000000000000000000000600052603260045260246000fd5b6020020151901b60c0886004600881106115ff577f4e487b7100000000000000000000000000000000000000000000000000000000600052603260045260246000fd5b6020020151901b17171790506040518260208201528160408201526060810160405260018101805b6020820181101561164d5760ff8151166008838303021b86019550600181019050611627565b50602081019050805b6020820181101561167c5760ff8151166008838303021b87019650600181019050611656565b5050505050915091565b605960009054906101000a900473ffffffffffffffffffffffffffffffffffffffff1681565b60008060009054906101000a900473ffffffffffffffffffffffffffffffffffffffff16905090565b6116dd613f06565b6116e5613ee5565b6116ed613ee5565b84600060028110611727577f4e487b7100000000000000000000000000000000000000000000000000000000600052603260045260246000fd5b60200201518260000181815250508460016002811061176f577f4e487b7100000000000000000000000000000000000000000000000000000000600052603260045260246000fd5b60200201518260200181815250506001826040018181525050836000600281106117c2577f4e487b7100000000000000000000000000000000000000000000000000000000600052603260045260246000fd5b60200201518160000181815250508360016002811061180a577f4e487b7100000000000000000000000000000000000000000000000000000000600052603260045260246000fd5b60200201518160200181815250506001816040018181525050600061182f8383612629565b9050600061184082604001516134a8565b905060405180604001604052807f7fffffffffffffffffffffffffffffffffffffffffffffffffffffffffffffed806118a2577f4e487b7100000000000000000000000000000000000000000000000000000000600052601260045260246000fd5b8385600001510981526020017f7fffffffffffffffffffffffffffffffffffffffffffffffffffffffffffffed80611903577f4e487b7100000000000000000000000000000000000000000000000000000000600052601260045260246000fd5b8385602001510981525094505050505092915050565b6000605960009054906101000a900473ffffffffffffffffffffffffffffffffffffffff1673ffffffffffffffffffffffffffffffffffffffff163373ffffffffffffffffffffffffffffffffffffffff16146119ab576040517f08c379a00000000000000000000000000000000000000000000000000000000081526004016119a290614c55565b60405180910390fd5b6000605a6000876040516020016119c29190614b5a565b6040516020818303038152906040528051906020012081526020019081526020016000206000866040516020016119f99190614b5a565b604051602081830303815290604052805190602001208152602001908152602001600020905083816000019080519060200190611a37929190613f28565b5082816001019080519060200190611a50929190613f28565b506001915050949350505050565b6000806000605b600086604051602001611a789190614b5a565b604051602081830303815290604052805190602001208152602001908152602001600020600085604051602001611aaf9190614b5a565b604051602081830303815290604052805190602001208152602001908152602001600020604051806060016040529081600082015481526020016001820154815260200160028201548152505090508060000151816020015192509250509250929050565b600080600284604051611b279190614b43565b602060405180830381855afa158015611b44573d6000803e3d6000fd5b5050506040513d601f19601f82011682018060405250810190611b6791906143f6565b90507fff3010ae5fe3144d9922cf3389b9bf30da6f991746f58a3177e3427ff9c7ef54818414604051611b9a9190614bc3565b60405180910390a1600191505092915050565b600080605a600087604051602001611bc59190614b5a565b604051602081830303815290604052805190602001208152602001908152602001600020600086604051602001611bfc9190614b5a565b604051602081830303815290604052805190602001208152602001908152602001600020604051806040016040529081600082018054611c3b906151b0565b80601f0160208091040260200160405190810160405280929190818152602001828054611c67906151b0565b8015611cb45780601f10611c8957610100808354040283529160200191611cb4565b820191906000526020600020905b815481529060010190602001808311611c9757829003601f168201915b50505050508152602001600182018054611ccd906151b0565b80601f0160208091040260200160405190810160405280929190818152602001828054611cf9906151b0565b8015611d465780601f10611d1b57610100808354040283529160200191611d46565b820191906000526020600020905b815481529060010190602001808311611d2957829003601f168201915b505050505081525050905060006060611d68868460000151856020015161249e565b80925081935050506000828015611dc35750611d9a60148351611d8b91906150bc565b8361368890919063ffffffff16565b6bffffffffffffffffffffffff1916611db2876136d5565b6bffffffffffffffffffffffff1916145b90507fff3010ae5fe3144d9922cf3389b9bf30da6f991746f58a3177e3427ff9c7ef5481604051611df49190614bc3565b60405180910390a180945050505050949350505050565b600080611e17846136d5565b90507fff3010ae5fe3144d9922cf3389b9bf30da6f991746f58a3177e3427ff9c7ef54816bffffffffffffffffffffffff1916846bffffffffffffffffffffffff191614604051611e689190614bc3565b60405180910390a1600191505092915050565b605b602052816000526040600020602052806000526040600020600091509150508060000154908060010154908060020154905083565b604051604060020a856000830152846020830152836040830152607f60020a60801b6103001760608301526080820160405260005b6010811015611f165767ffffffffffffffff600882026018850301511681602002850152600181019050611ee7565b5060105b6050811015611fb8576020600f82030284015160206002830302850151602060108403028601516020600785030287015167ffffffffffffffff8460071c8560381b8660081c1786603f1b8760011c1718181667ffffffffffffffff8460061c8560031b86603d1c1786602d1b8760131c1718181667ffffffffffffffff8184018386010116602088028b0152505050505050600181019050611f1a565b50505050505050565b600080605b600089604051602001611fd99190614b5a565b6040516020818303038152906040528051906020012081526020019081526020016000206000886040516020016120109190614b5a565b60405160208183030381529060405280519060200120815260200190815260200160002060405180606001604052908160008201548152602001600182015481526020016002820154815250509050612067613f06565b60006120ca8884604001516002886040516120829190614b43565b602060405180830381855afa15801561209f573d6000803e3d6000fd5b5050506040513d601f19601f820116820180604052508101906120c291906143f6565b60001c6104fc565b90506120f2604051806040016040528085600001518152602001856020015181525082610ff6565b8360006002811061212c577f4e487b7100000000000000000000000000000000000000000000000000000000600052603260045260246000fd5b602002018460016002811061216a577f4e487b7100000000000000000000000000000000000000000000000000000000600052603260045260246000fd5b6020020182815250828152505050600061218488846116d5565b90506000816000600281106121c2577f4e487b7100000000000000000000000000000000000000000000000000000000600052603260045260246000fd5b602002015188600060028110612201577f4e487b7100000000000000000000000000000000000000000000000000000000600052603260045260246000fd5b602002015114801561228e575081600160028110612248577f4e487b7100000000000000000000000000000000000000000000000000000000600052603260045260246000fd5b602002015188600160028110612287577f4e487b7100000000000000000000000000000000000000000000000000000000600052603260045260246000fd5b6020020151145b90507fff3010ae5fe3144d9922cf3389b9bf30da6f991746f58a3177e3427ff9c7ef54816040516122bf9190614bc3565b60405180910390a180955050505050509695505050505050565b6122e1613546565b600073ffffffffffffffffffffffffffffffffffffffff168173ffffffffffffffffffffffffffffffffffffffff161415612351576040517f08c379a000000000000000000000000000000000000000000000000000000000815260040161234890614c15565b60405180910390fd5b61235a816135c4565b50565b605a6020528160005260406000206020528060005260406000206000915091505080600001805461238d906151b0565b80601f01602080910402602001604051908101604052809291908181526020018280546123b9906151b0565b80156124065780601f106123db57610100808354040283529160200191612406565b820191906000526020600020905b8154815290600101906020018083116123e957829003601f168201915b50505050509080600101805461241b906151b0565b80601f0160208091040260200160405190810160405280929190818152602001828054612447906151b0565b80156124945780601f1061246957610100808354040283529160200191612494565b820191906000526020600020905b81548152906001019060200180831161247757829003601f168201915b5050505050905082565b60006060600083518551875160606124b69190614e9b565b6124c09190614e9b565b6124ca9190614e9b565b90506124d4613fae565b6124e78282613bf390919063ffffffff16565b506124ff875160001b82613c5d90919063ffffffff16565b50612517865160001b82613c5d90919063ffffffff16565b5061252f855160001b82613c5d90919063ffffffff16565b506125438782613c7f90919063ffffffff16565b506125578682613c7f90919063ffffffff16565b5061256b8582613c7f90919063ffffffff16565b50845167ffffffffffffffff8111156125ad577f4e487b7100000000000000000000000000000000000000000000000000000000600052604160045260246000fd5b6040519080825280601f01601f1916602001820160405280156125df5781602001600182028036833780820191505090505b50925084516020840183602084510160055afa93505050935093915050565b6000825160208361260f9190614e9b565b111561261a57600080fd5b81602084010151905092915050565b612631613ee5565b612639613fc8565b7f7fffffffffffffffffffffffffffffffffffffffffffffffffffffffffffffed8061268e577f4e487b7100000000000000000000000000000000000000000000000000000000600052601260045260246000fd5b83604001518560400151098160000181815250507f7fffffffffffffffffffffffffffffffffffffffffffffffffffffffffffffed806126f7577f4e487b7100000000000000000000000000000000000000000000000000000000600052601260045260246000fd5b81600001518260000151098160200181815250507f7fffffffffffffffffffffffffffffffffffffffffffffffffffffffffffffed80612760577f4e487b7100000000000000000000000000000000000000000000000000000000600052601260045260246000fd5b83600001518560000151098160400181815250507f7fffffffffffffffffffffffffffffffffffffffffffffffffffffffffffffed806127c9577f4e487b7100000000000000000000000000000000000000000000000000000000600052601260045260246000fd5b83602001518560200151098160600181815250507f7fffffffffffffffffffffffffffffffffffffffffffffffffffffffffffffed80612832577f4e487b7100000000000000000000000000000000000000000000000000000000600052601260045260246000fd5b7f7fffffffffffffffffffffffffffffffffffffffffffffffffffffffffffffed80612887577f4e487b7100000000000000000000000000000000000000000000000000000000600052601260045260246000fd5b82606001518360400151097f52036cee2b6ffe738cc740797779e89800700a4d4141d8ab75eb4dca135978a3098160800181815250507f7fffffffffffffffffffffffffffffffffffffffffffffffffffffffffffffed80612912577f4e487b7100000000000000000000000000000000000000000000000000000000600052601260045260246000fd5b81608001517f7fffffffffffffffffffffffffffffffffffffffffffffffffffffffffffffed61294291906150bc565b8260200151088160a00181815250507f7fffffffffffffffffffffffffffffffffffffffffffffffffffffffffffffed806129a6577f4e487b7100000000000000000000000000000000000000000000000000000000600052601260045260246000fd5b81608001518260200151088160c00181815250507f7fffffffffffffffffffffffffffffffffffffffffffffffffffffffffffffed80612a0f577f4e487b7100000000000000000000000000000000000000000000000000000000600052601260045260246000fd5b7f7fffffffffffffffffffffffffffffffffffffffffffffffffffffffffffffed80612a64577f4e487b7100000000000000000000000000000000000000000000000000000000600052601260045260246000fd5b82606001517f7fffffffffffffffffffffffffffffffffffffffffffffffffffffffffffffed612a9491906150bc565b7f7fffffffffffffffffffffffffffffffffffffffffffffffffffffffffffffed80612ae9577f4e487b7100000000000000000000000000000000000000000000000000000000600052601260045260246000fd5b84604001517f7fffffffffffffffffffffffffffffffffffffffffffffffffffffffffffffed612b1991906150bc565b7f7fffffffffffffffffffffffffffffffffffffffffffffffffffffffffffffed80612b6e577f4e487b7100000000000000000000000000000000000000000000000000000000600052601260045260246000fd5b7f7fffffffffffffffffffffffffffffffffffffffffffffffffffffffffffffed80612bc3577f4e487b7100000000000000000000000000000000000000000000000000000000600052601260045260246000fd5b89602001518a60000151087f7fffffffffffffffffffffffffffffffffffffffffffffffffffffffffffffed80612c23577f4e487b7100000000000000000000000000000000000000000000000000000000600052601260045260246000fd5b8b602001518c60000151080908087f7fffffffffffffffffffffffffffffffffffffffffffffffffffffffffffffed80612c86577f4e487b7100000000000000000000000000000000000000000000000000000000600052601260045260246000fd5b8360a00151846000015109098260000181815250507f7fffffffffffffffffffffffffffffffffffffffffffffffffffffffffffffed80612cf0577f4e487b7100000000000000000000000000000000000000000000000000000000600052601260045260246000fd5b7f7fffffffffffffffffffffffffffffffffffffffffffffffffffffffffffffed80612d45577f4e487b7100000000000000000000000000000000000000000000000000000000600052601260045260246000fd5b82604001518360600151087f7fffffffffffffffffffffffffffffffffffffffffffffffffffffffffffffed80612da5577f4e487b7100000000000000000000000000000000000000000000000000000000600052601260045260246000fd5b8360c00151846000015109098260200181815250507f7fffffffffffffffffffffffffffffffffffffffffffffffffffffffffffffed80612e0f577f4e487b7100000000000000000000000000000000000000000000000000000000600052601260045260246000fd5b8160c001518260a00151098260400181815250505092915050565b612e32613ee5565b612e3a613fc8565b7f7fffffffffffffffffffffffffffffffffffffffffffffffffffffffffffffed80612e8f577f4e487b7100000000000000000000000000000000000000000000000000000000600052601260045260246000fd5b83602001518460000151088160000181815250507f7fffffffffffffffffffffffffffffffffffffffffffffffffffffffffffffed80612ef8577f4e487b7100000000000000000000000000000000000000000000000000000000600052601260045260246000fd5b81600001518260000151098160200181815250507f7fffffffffffffffffffffffffffffffffffffffffffffffffffffffffffffed80612f61577f4e487b7100000000000000000000000000000000000000000000000000000000600052601260045260246000fd5b83600001518460000151098160400181815250507f7fffffffffffffffffffffffffffffffffffffffffffffffffffffffffffffed80612fca577f4e487b7100000000000000000000000000000000000000000000000000000000600052601260045260246000fd5b836020015184602001510981606001818152505080604001517f7fffffffffffffffffffffffffffffffffffffffffffffffffffffffffffffed61300e91906150bc565b8160800181815250507f7fffffffffffffffffffffffffffffffffffffffffffffffffffffffffffffed8061306c577f4e487b7100000000000000000000000000000000000000000000000000000000600052601260045260246000fd5b81606001518260800151088160a00181815250507f7fffffffffffffffffffffffffffffffffffffffffffffffffffffffffffffed806130d5577f4e487b7100000000000000000000000000000000000000000000000000000000600052601260045260246000fd5b83604001518460400151098160e00181815250507f7fffffffffffffffffffffffffffffffffffffffffffffffffffffffffffffed8061313e577f4e487b7100000000000000000000000000000000000000000000000000000000600052601260045260246000fd5b7f7fffffffffffffffffffffffffffffffffffffffffffffffffffffffffffffed80613193577f4e487b7100000000000000000000000000000000000000000000000000000000600052601260045260246000fd5b8260e001516002097f7fffffffffffffffffffffffffffffffffffffffffffffffffffffffffffffed6131c691906150bc565b8260a00151088160c00181815250507f7fffffffffffffffffffffffffffffffffffffffffffffffffffffffffffffed8061322a577f4e487b7100000000000000000000000000000000000000000000000000000000600052601260045260246000fd5b8160c001517f7fffffffffffffffffffffffffffffffffffffffffffffffffffffffffffffed80613284577f4e487b7100000000000000000000000000000000000000000000000000000000600052601260045260246000fd5b83606001517f7fffffffffffffffffffffffffffffffffffffffffffffffffffffffffffffed6132b491906150bc565b7f7fffffffffffffffffffffffffffffffffffffffffffffffffffffffffffffed80613309577f4e487b7100000000000000000000000000000000000000000000000000000000600052601260045260246000fd5b85604001517f7fffffffffffffffffffffffffffffffffffffffffffffffffffffffffffffed61333991906150bc565b86602001510808098260000181815250507f7fffffffffffffffffffffffffffffffffffffffffffffffffffffffffffffed8061339f577f4e487b7100000000000000000000000000000000000000000000000000000000600052601260045260246000fd5b7f7fffffffffffffffffffffffffffffffffffffffffffffffffffffffffffffed806133f4577f4e487b7100000000000000000000000000000000000000000000000000000000600052601260045260246000fd5b82606001517f7fffffffffffffffffffffffffffffffffffffffffffffffffffffffffffffed61342491906150bc565b8360800151088260a00151098260200181815250507f7fffffffffffffffffffffffffffffffffffffffffffffffffffffffffffffed8061348e577f4e487b7100000000000000000000000000000000000000000000000000000000600052601260045260246000fd5b8160c001518260a001510982604001818152505050919050565b60008060027f7fffffffffffffffffffffffffffffffffffffffffffffffffffffffffffffed6134d891906150bc565b905060007f7fffffffffffffffffffffffffffffffffffffffffffffffffffffffffffffed905060405160208152602080820152602060408201528460608201528260808201528160a082015260208160c0836005600019fa61353a57600080fd5b80519350505050919050565b61354e613ca1565b73ffffffffffffffffffffffffffffffffffffffff1661356c6116ac565b73ffffffffffffffffffffffffffffffffffffffff16146135c2576040517f08c379a00000000000000000000000000000000000000000000000000000000081526004016135b990614c35565b60405180910390fd5b565b60008060009054906101000a900473ffffffffffffffffffffffffffffffffffffffff169050816000806101000a81548173ffffffffffffffffffffffffffffffffffffffff021916908373ffffffffffffffffffffffffffffffffffffffff1602179055508173ffffffffffffffffffffffffffffffffffffffff168173ffffffffffffffffffffffffffffffffffffffff167f8be0079c531659141344cd1fd0a4f28419497f9722a3daafe3b4186f6b6457e060405160405180910390a35050565b600082516014836136999190614e9b565b11156136a457600080fd5b7fffffffffffffffffffffffffffffffffffffffff0000000000000000000000008260208501015116905092915050565b60006040518251602084019350604067ffffffffffffffc0600183011601600982820310600181146137065761370d565b6040820191505b50776745230100efcdab890098badcfe001032547600c3d2e1f0613765565b60008383101561375e578282015190508284039350602084101561375d576001846020036101000a03198082169150505b5b9392505050565b60005b82811015613b735761377b84828961372c565b855261378b84602083018961372c565b6020860152604081850310600181146137a3576137ac565b60808286038701535b50604083038114600181146137c0576137d0565b6008850260208701511760208701525b5060405b608081101561385c5760408103860151603882038701511860208203870151600c830388015118187c010000000100000001000000010000000100000001000000010000000163800000008204167ffffffffefffffffefffffffefffffffefffffffefffffffefffffffefffffffe6002830216179050808288015250600c810190506137d4565b5060805b6101408110156138e957608081038601516070820387015118604082038701516018830388015118187c030000000300000003000000030000000300000003000000030000000363400000008204167ffffffffcfffffffcfffffffcfffffffcfffffffcfffffffcfffffffcfffffffc6004830216179050808288015250601881019050613860565b508160008060005b6050811015613b45576014810460008114613923576001811461396d57600281146139aa5760038114613a0d57613a46565b6501000000000085046a01000000000000000000008604189350836f01000000000000000000000000000000860416935083650100000000008604189350635a8279999250613a46565b6a010000000000000000000085046f01000000000000000000000000000000860418935083650100000000008604189350636ed9eba19250613a46565b6a010000000000000000000085046f01000000000000000000000000000000860417935083650100000000008604169350836a010000000000000000000086046f01000000000000000000000000000000870416179350638f1bbcdc9250613a46565b6a010000000000000000000085046f0100000000000000000000000000000086041893508365010000000000860418935063ca62c1d692505b50601f770800000000000000000000000000000000000000000000008504168063ffffffe073080000000000000000000000000000000000000087041617905080840190508063ffffffff86160190508083019050807c0100000000000000000000000000000000000000000000000000000000600484028c0151040190507401000000000000000000000000000000000000000081026501000000000086041794506a0100000000000000000000633fffffff6a040000000000000000000087041663c00000006604000000000000880416170277ffffffff00ffffffff000000000000ffffffff00ffffffff8616179450506001810190506138f1565b5077ffffffff00ffffffff00ffffffff00ffffffff00ffffffff838601169450505050604081019050613768565b506c0100000000000000000000000063ffffffff821667ffffffff000000006101008404166bffffffff0000000000000000620100008504166fffffffff000000000000000000000000630100000086041673ffffffff000000000000000000000000000000006401000000008704161717171702945050505050919050565b613bfb613fae565b6000602083613c0a919061522b565b14613c3657602082613c1c919061522b565b6020613c2891906150bc565b82613c339190614e9b565b91505b81836020018181525050604051808452600081528281016020016040525082905092915050565b613c65613fae565b613c7783846000015151846020613ca9565b905092915050565b613c87613fae565b613c9983846000015151848551613d55565b905092915050565b600033905090565b613cb1613fae565b84602001518483613cc29190614e9b565b1115613cea57613ce98560028685613cda9190614e9b565b613ce49190615062565b613e5f565b5b6000600183610100613cfc9190614f44565b613d0691906150bc565b9050826020613d1591906150bc565b6008613d219190615062565b84901c93508551838682010185831982511617815281518588011115613d475784870182525b505085915050949350505050565b613d5d613fae565b8251821115613d6b57600080fd5b84602001518285613d7c9190614e9b565b1115613db157613db0856002613da188602001518887613d9c9190614e9b565b613e83565b613dab9190615062565b613e5f565b5b600080865180518760208301019350808887011115613dd05787860182525b60208701925050505b60208410613e175780518252602082613df29190614e9b565b9150602081613e019190614e9b565b9050602084613e1091906150bc565b9350613dd9565b60006001856020613e2891906150bc565b610100613e359190614f44565b613e3f91906150bc565b905080198251168184511681811785525050879350505050949350505050565b600082600001519050613e728383613bf3565b50613e7d8382613c7f565b50505050565b600081831115613e9557829050613e99565b8190505b92915050565b60405180610a000160405280605090602082028036833780820191505090505090565b604051806101000160405280600890602082028036833780820191505090505090565b60405180606001604052806000815260200160008152602001600081525090565b6040518060400160405280600290602082028036833780820191505090505090565b828054613f34906151b0565b90600052602060002090601f016020900481019282613f565760008555613f9d565b82601f10613f6f57805160ff1916838001178555613f9d565b82800160010185558215613f9d579182015b82811115613f9c578251825591602001919060010190613f81565b5b509050613faa919061400d565b5090565b604051806040016040528060608152602001600081525090565b60405180610100016040528060008152602001600081526020016000815260200160008152602001600081526020016000815260200160008152602001600081525090565b5b8082111561402657600081600090555060010161400e565b5090565b600061403d61403884614d21565b614cf0565b9050808285602086028201111561405357600080fd5b60005b85811015614083578161406988826142ec565b845260208401935060208301925050600181019050614056565b5050509392505050565b60006140a061409b84614d47565b614cf0565b905080828560208602820111156140b657600080fd5b60005b858110156140e657816140cc88826142ec565b8452602084019350602083019250506001810190506140b9565b5050509392505050565b60006141036140fe84614d6d565b614cf0565b9050808285602086028201111561411957600080fd5b60005b85811015614149578161412f88826142ec565b84526020840193506020830192505060018101905061411c565b5050509392505050565b600061416661416184614d93565b614cf0565b90508281526020810184848401111561417e57600080fd5b61418984828561516e565b509392505050565b60006141a461419f84614dc3565b614cf0565b9050828152602081018484840111156141bc57600080fd5b6141c784828561516e565b509392505050565b6000813590506141de81615336565b92915050565b600082601f8301126141f557600080fd5b600261420284828561402a565b91505092915050565b600082601f83011261421c57600080fd5b605061422984828561408d565b91505092915050565b600082601f83011261424357600080fd5b60086142508482856140f0565b91505092915050565b6000813590506142688161534d565b92915050565b60008135905061427d81615364565b92915050565b60008151905061429281615364565b92915050565b600082601f8301126142a957600080fd5b81356142b9848260208601614153565b91505092915050565b600082601f8301126142d357600080fd5b81356142e3848260208601614191565b91505092915050565b6000813590506142fb8161537b565b92915050565b60006020828403121561431357600080fd5b6000614321848285016141cf565b91505092915050565b6000806080838503121561433d57600080fd5b600061434b858286016141e4565b925050604061435c858286016141e4565b9150509250929050565b6000806060838503121561437957600080fd5b6000614387858286016141e4565b9250506040614398858286016142ec565b9150509250929050565b6000610a0082840312156143b557600080fd5b60006143c38482850161420b565b91505092915050565b600061010082840312156143df57600080fd5b60006143ed84828501614232565b91505092915050565b60006020828403121561440857600080fd5b600061441684828501614283565b91505092915050565b6000806040838503121561443257600080fd5b60006144408582860161426e565b92505060206144518582860161426e565b9150509250929050565b6000806040838503121561446e57600080fd5b600083013567ffffffffffffffff81111561448857600080fd5b61449485828601614298565b92505060206144a585828601614259565b9150509250929050565b600080604083850312156144c257600080fd5b600083013567ffffffffffffffff8111156144dc57600080fd5b6144e885828601614298565b92505060206144f98582860161426e565b9150509250929050565b6000806040838503121561451657600080fd5b600083013567ffffffffffffffff81111561453057600080fd5b61453c858286016142c2565b925050602083013567ffffffffffffffff81111561455957600080fd5b614565858286016142c2565b9150509250929050565b6000806000806080858703121561458557600080fd5b600085013567ffffffffffffffff81111561459f57600080fd5b6145ab878288016142c2565b945050602085013567ffffffffffffffff8111156145c857600080fd5b6145d4878288016142c2565b935050604085013567ffffffffffffffff8111156145f157600080fd5b6145fd87828801614298565b925050606085013567ffffffffffffffff81111561461a57600080fd5b61462687828801614298565b91505092959194509250565b600080600080600080610100878903121561464c57600080fd5b600087013567ffffffffffffffff81111561466657600080fd5b61467289828a016142c2565b965050602087013567ffffffffffffffff81111561468f57600080fd5b61469b89828a016142c2565b95505060406146ac89828a016142ec565b94505060606146bd89828a016141e4565b93505060a06146ce89828a016141e4565b92505060e087013567ffffffffffffffff8111156146eb57600080fd5b6146f789828a01614298565b9150509295509295509295565b600080600080600060a0868803121561471c57600080fd5b600086013567ffffffffffffffff81111561473657600080fd5b614742888289016142c2565b955050602086013567ffffffffffffffff81111561475f57600080fd5b61476b888289016142c2565b945050604061477c888289016142ec565b935050606061478d888289016142ec565b925050608061479e888289016142ec565b9150509295509295909350565b600080604083850312156147be57600080fd5b60006147cc858286016142ec565b92505060206147dd858286016142ec565b9150509250929050565b6000806000606084860312156147fc57600080fd5b600061480a868287016142ec565b935050602061481b868287016142ec565b925050604061482c868287016142ec565b9150509250925092565b600080600080610a60858703121561484d57600080fd5b600061485b878288016142ec565b945050602061486c878288016142ec565b935050604061487d878288016142ec565b925050606061488e8782880161420b565b91505092959194509250565b60006148a68383614b25565b60208301905092915050565b6148bb816150f0565b82525050565b6148ca81614e07565b6148d48184614e4d565b92506148df82614df3565b8060005b838110156149105781516148f7878261489a565b965061490283614e33565b9250506001810190506148e3565b505050505050565b61492181614e12565b61492b8184614e58565b925061493682614dfd565b8060005b8381101561496757815161494e878261489a565b965061495983614e40565b92505060018101905061493a565b505050505050565b61497881615102565b82525050565b600061498982614e1d565b6149938185614e63565b93506149a381856020860161517d565b6149ac81615318565b840191505092915050565b60006149c282614e1d565b6149cc8185614e74565b93506149dc81856020860161517d565b80840191505092915050565b60006149f382614e28565b6149fd8185614e90565b9350614a0d81856020860161517d565b80840191505092915050565b6000614a26602683614e7f565b91507f4f776e61626c653a206e6577206f776e657220697320746865207a65726f206160008301527f64647265737300000000000000000000000000000000000000000000000000006020830152604082019050919050565b6000614a8c602083614e7f565b91507f4f776e61626c653a2063616c6c6572206973206e6f7420746865206f776e65726000830152602082019050919050565b6000614acc603383614e7f565b91507f546865206d73672e73656e64657220697320646966666572656e74207468616e60008301527f20746865206f7261636c652061646472657373000000000000000000000000006020830152604082019050919050565b614b2e81615164565b82525050565b614b3d81615164565b82525050565b6000614b4f82846149b7565b915081905092915050565b6000614b6682846149e8565b915081905092915050565b6000602082019050614b8660008301846148b2565b92915050565b6000604082019050614ba160008301846148c1565b92915050565b600061010082019050614bbd6000830184614918565b92915050565b6000602082019050614bd8600083018461496f565b92915050565b60006040820190508181036000830152614bf8818561497e565b90508181036020830152614c0c818461497e565b90509392505050565b60006020820190508181036000830152614c2e81614a19565b9050919050565b60006020820190508181036000830152614c4e81614a7f565b9050919050565b60006020820190508181036000830152614c6e81614abf565b9050919050565b6000602082019050614c8a6000830184614b34565b92915050565b6000604082019050614ca56000830185614b34565b614cb26020830184614b34565b9392505050565b6000606082019050614cce6000830186614b34565b614cdb6020830185614b34565b614ce86040830184614b34565b949350505050565b6000604051905081810181811067ffffffffffffffff82111715614d1757614d166152e9565b5b8060405250919050565b600067ffffffffffffffff821115614d3c57614d3b6152e9565b5b602082029050919050565b600067ffffffffffffffff821115614d6257614d616152e9565b5b602082029050919050565b600067ffffffffffffffff821115614d8857614d876152e9565b5b602082029050919050565b600067ffffffffffffffff821115614dae57614dad6152e9565b5b601f19601f8301169050602081019050919050565b600067ffffffffffffffff821115614dde57614ddd6152e9565b5b601f19601f8301169050602081019050919050565b6000819050919050565b6000819050919050565b600060029050919050565b600060089050919050565b600081519050919050565b600081519050919050565b6000602082019050919050565b6000602082019050919050565b600081905092915050565b600081905092915050565b600082825260208201905092915050565b600081905092915050565b600082825260208201905092915050565b600081905092915050565b6000614ea682615164565b9150614eb183615164565b9250827fffffffffffffffffffffffffffffffffffffffffffffffffffffffffffffffff03821115614ee657614ee561525c565b5b828201905092915050565b6000808291508390505b6001851115614f3b57808604811115614f1757614f1661525c565b5b6001851615614f265780820291505b8081029050614f3485615329565b9450614efb565b94509492505050565b6000614f4f82615164565b9150614f5a83615164565b9250614f877fffffffffffffffffffffffffffffffffffffffffffffffffffffffffffffffff8484614f8f565b905092915050565b600082614f9f576001905061505b565b81614fad576000905061505b565b8160018114614fc35760028114614fcd57614ffc565b600191505061505b565b60ff841115614fdf57614fde61525c565b5b8360020a915084821115614ff657614ff561525c565b5b5061505b565b5060208310610133831016604e8410600b84101617156150315782820a90508381111561502c5761502b61525c565b5b61505b565b61503e8484846001614ef1565b925090508184048111156150555761505461525c565b5b81810290505b9392505050565b600061506d82615164565b915061507883615164565b9250817fffffffffffffffffffffffffffffffffffffffffffffffffffffffffffffffff04831182151516156150b1576150b061525c565b5b828202905092915050565b60006150c782615164565b91506150d283615164565b9250828210156150e5576150e461525c565b5b828203905092915050565b60006150fb82615144565b9050919050565b60008115159050919050565b60007fffffffffffffffffffffffffffffffffffffffff00000000000000000000000082169050919050565b6000819050919050565b600073ffffffffffffffffffffffffffffffffffffffff82169050919050565b6000819050919050565b82818337600083830152505050565b60005b8381101561519b578082015181840152602081019050615180565b838111156151aa576000848401525b50505050565b600060028204905060018216806151c857607f821691505b602082108114156151dc576151db6152ba565b5b50919050565b60006151ed82615164565b91507fffffffffffffffffffffffffffffffffffffffffffffffffffffffffffffffff8214156152205761521f61525c565b5b600182019050919050565b600061523682615164565b915061524183615164565b9250826152515761525061528b565b5b828206905092915050565b7f4e487b7100000000000000000000000000000000000000000000000000000000600052601160045260246000fd5b7f4e487b7100000000000000000000000000000000000000000000000000000000600052601260045260246000fd5b7f4e487b7100000000000000000000000000000000000000000000000000000000600052602260045260246000fd5b7f4e487b7100000000000000000000000000000000000000000000000000000000600052604160045260246000fd5b6000601f19601f8301169050919050565b60008160011c9050919050565b61533f816150f0565b811461534a57600080fd5b50565b6153568161510e565b811461536157600080fd5b50565b61536d8161513a565b811461537857600080fd5b50565b61538481615164565b811461538f57600080fd5b5056fea2646970667358221220eede605b54c69751761824e0afe855ad87e5ca4a5928d29ba6c0fa70b47739b964736f6c63430008000033","opcodes":"PUSH1 0x80 PUSH1 0x40 MSTORE PUSH1 0x40 MLOAD DUP1 PUSH2 0xA00 ADD PUSH1 0x40 MSTORE DUP1 PUSH8 0x428A2F98D728AE22 DUP2 MSTORE PUSH1 0x20 ADD PUSH8 0x7137449123EF65CD DUP2 MSTORE PUSH1 0x20 ADD PUSH8 0xB5C0FBCFEC4D3B2F DUP2 MSTORE PUSH1 0x20 ADD PUSH8 0xE9B5DBA58189DBBC DUP2 MSTORE PUSH1 0x20 ADD PUSH8 0x3956C25BF348B538 DUP2 MSTORE PUSH1 0x20 ADD PUSH8 0x59F111F1B605D019 DUP2 MSTORE PUSH1 0x20 ADD PUSH8 0x923F82A4AF194F9B DUP2 MSTORE PUSH1 0x20 ADD PUSH8 0xAB1C5ED5DA6D8118 DUP2 MSTORE PUSH1 0x20 ADD PUSH8 0xD807AA98A3030242 DUP2 MSTORE PUSH1 0x20 ADD PUSH8 0x12835B0145706FBE DUP2 MSTORE PUSH1 0x20 ADD PUSH8 0x243185BE4EE4B28C DUP2 MSTORE PUSH1 0x20 ADD PUSH8 0x550C7DC3D5FFB4E2 DUP2 MSTORE PUSH1 0x20 ADD PUSH8 0x72BE5D74F27B896F DUP2 MSTORE PUSH1 0x20 ADD PUSH8 0x80DEB1FE3B1696B1 DUP2 MSTORE PUSH1 0x20 ADD PUSH8 0x9BDC06A725C71235 DUP2 MSTORE PUSH1 0x20 ADD PUSH8 0xC19BF174CF692694 DUP2 MSTORE PUSH1 0x20 ADD PUSH8 0xE49B69C19EF14AD2 DUP2 MSTORE PUSH1 0x20 ADD PUSH8 0xEFBE4786384F25E3 DUP2 MSTORE PUSH1 0x20 ADD PUSH8 0xFC19DC68B8CD5B5 DUP2 MSTORE PUSH1 0x20 ADD PUSH8 0x240CA1CC77AC9C65 DUP2 MSTORE PUSH1 0x20 ADD PUSH8 0x2DE92C6F592B0275 DUP2 MSTORE PUSH1 0x20 ADD PUSH8 0x4A7484AA6EA6E483 DUP2 MSTORE PUSH1 0x20 ADD PUSH8 0x5CB0A9DCBD41FBD4 DUP2 MSTORE PUSH1 0x20 ADD PUSH8 0x76F988DA831153B5 DUP2 MSTORE PUSH1 0x20 ADD PUSH8 0x983E5152EE66DFAB DUP2 MSTORE PUSH1 0x20 ADD PUSH8 0xA831C66D2DB43210 DUP2 MSTORE PUSH1 0x20 ADD PUSH8 0xB00327C898FB213F DUP2 MSTORE PUSH1 0x20 ADD PUSH8 0xBF597FC7BEEF0EE4 DUP2 MSTORE PUSH1 0x20 ADD PUSH8 0xC6E00BF33DA88FC2 DUP2 MSTORE PUSH1 0x20 ADD PUSH8 0xD5A79147930AA725 DUP2 MSTORE PUSH1 0x20 ADD PUSH8 0x6CA6351E003826F DUP2 MSTORE PUSH1 0x20 ADD PUSH8 0x142929670A0E6E70 DUP2 MSTORE PUSH1 0x20 ADD PUSH8 0x27B70A8546D22FFC DUP2 MSTORE PUSH1 0x20 ADD PUSH8 0x2E1B21385C26C926 DUP2 MSTORE PUSH1 0x20 ADD PUSH8 0x4D2C6DFC5AC42AED DUP2 MSTORE PUSH1 0x20 ADD PUSH8 0x53380D139D95B3DF DUP2 MSTORE PUSH1 0x20 ADD PUSH8 0x650A73548BAF63DE DUP2 MSTORE PUSH1 0x20 ADD PUSH8 0x766A0ABB3C77B2A8 DUP2 MSTORE PUSH1 0x20 ADD PUSH8 0x81C2C92E47EDAEE6 DUP2 MSTORE PUSH1 0x20 ADD PUSH8 0x92722C851482353B DUP2 MSTORE PUSH1 0x20 ADD PUSH8 0xA2BFE8A14CF10364 DUP2 MSTORE PUSH1 0x20 ADD PUSH8 0xA81A664BBC423001 DUP2 MSTORE PUSH1 0x20 ADD PUSH8 0xC24B8B70D0F89791 DUP2 MSTORE PUSH1 0x20 ADD PUSH8 0xC76C51A30654BE30 DUP2 MSTORE PUSH1 0x20 ADD PUSH8 0xD192E819D6EF5218 DUP2 MSTORE PUSH1 0x20 ADD PUSH8 0xD69906245565A910 DUP2 MSTORE PUSH1 0x20 ADD PUSH8 0xF40E35855771202A DUP2 MSTORE PUSH1 0x20 ADD PUSH8 0x106AA07032BBD1B8 DUP2 MSTORE PUSH1 0x20 ADD PUSH8 0x19A4C116B8D2D0C8 DUP2 MSTORE PUSH1 0x20 ADD PUSH8 0x1E376C085141AB53 DUP2 MSTORE PUSH1 0x20 ADD PUSH8 0x2748774CDF8EEB99 DUP2 MSTORE PUSH1 0x20 ADD PUSH8 0x34B0BCB5E19B48A8 DUP2 MSTORE PUSH1 0x20 ADD PUSH8 0x391C0CB3C5C95A63 DUP2 MSTORE PUSH1 0x20 ADD PUSH8 0x4ED8AA4AE3418ACB DUP2 MSTORE PUSH1 0x20 ADD PUSH8 0x5B9CCA4F7763E373 DUP2 MSTORE PUSH1 0x20 ADD PUSH8 0x682E6FF3D6B2B8A3 DUP2 MSTORE PUSH1 0x20 ADD PUSH8 0x748F82EE5DEFB2FC DUP2 MSTORE PUSH1 0x20 ADD PUSH8 0x78A5636F43172F60 DUP2 MSTORE PUSH1 0x20 ADD PUSH8 0x84C87814A1F0AB72 DUP2 MSTORE PUSH1 0x20 ADD PUSH8 0x8CC702081A6439EC DUP2 MSTORE PUSH1 0x20 ADD PUSH8 0x90BEFFFA23631E28 DUP2 MSTORE PUSH1 0x20 ADD PUSH8 0xA4506CEBDE82BDE9 DUP2 MSTORE PUSH1 0x20 ADD PUSH8 0xBEF9A3F7B2C67915 DUP2 MSTORE PUSH1 0x20 ADD PUSH8 0xC67178F2E372532B DUP2 MSTORE PUSH1 0x20 ADD PUSH8 0xCA273ECEEA26619C DUP2 MSTORE PUSH1 0x20 ADD PUSH8 0xD186B8C721C0C207 DUP2 MSTORE PUSH1 0x20 ADD PUSH8 0xEADA7DD6CDE0EB1E DUP2 MSTORE PUSH1 0x20 ADD PUSH8 0xF57D4F7FEE6ED178 DUP2 MSTORE PUSH1 0x20 ADD PUSH8 0x6F067AA72176FBA DUP2 MSTORE PUSH1 0x20 ADD PUSH8 0xA637DC5A2C898A6 DUP2 MSTORE PUSH1 0x20 ADD PUSH8 0x113F9804BEF90DAE DUP2 MSTORE PUSH1 0x20 ADD PUSH8 0x1B710B35131C471B DUP2 MSTORE PUSH1 0x20 ADD PUSH8 0x28DB77F523047D84 DUP2 MSTORE PUSH1 0x20 ADD PUSH8 0x32CAAB7B40C72493 DUP2 MSTORE PUSH1 0x20 ADD PUSH8 0x3C9EBE0A15C9BEBC DUP2 MSTORE PUSH1 0x20 ADD PUSH8 0x431D67C49C100D4C DUP2 MSTORE PUSH1 0x20 ADD PUSH8 0x4CC5D4BECB3E42B6 DUP2 MSTORE PUSH1 0x20 ADD PUSH8 0x597F299CFC657E2A DUP2 MSTORE PUSH1 0x20 ADD PUSH8 0x5FCB6FAB3AD6FAEC DUP2 MSTORE PUSH1 0x20 ADD PUSH8 0x6C44198C4A475817 DUP2 MSTORE POP PUSH1 0x1 SWAP1 PUSH1 0x50 PUSH3 0x480 SWAP3 SWAP2 SWAP1 PUSH3 0x675 JUMP JUMPDEST POP PUSH1 0x40 MLOAD DUP1 PUSH2 0x100 ADD PUSH1 0x40 MSTORE DUP1 PUSH8 0x6A09E667F3BCC908 DUP2 MSTORE PUSH1 0x20 ADD PUSH8 0xBB67AE8584CAA73B DUP2 MSTORE PUSH1 0x20 ADD PUSH8 0x3C6EF372FE94F82B DUP2 MSTORE PUSH1 0x20 ADD PUSH8 0xA54FF53A5F1D36F1 DUP2 MSTORE PUSH1 0x20 ADD PUSH8 0x510E527FADE682D1 DUP2 MSTORE PUSH1 0x20 ADD PUSH8 0x9B05688C2B3E6C1F DUP2 MSTORE PUSH1 0x20 ADD PUSH8 0x1F83D9ABFB41BD6B DUP2 MSTORE PUSH1 0x20 ADD PUSH8 0x5BE0CD19137E2179 DUP2 MSTORE POP PUSH1 0x51 SWAP1 PUSH1 0x8 PUSH3 0x50D SWAP3 SWAP2 SWAP1 PUSH3 0x6BA JUMP JUMPDEST POP CALLVALUE DUP1 ISZERO PUSH3 0x51B JUMPI PUSH1 0x0 DUP1 REVERT JUMPDEST POP PUSH1 0x40 MLOAD PUSH3 0x5B87 CODESIZE SUB DUP1 PUSH3 0x5B87 DUP4 CODECOPY DUP2 DUP2 ADD PUSH1 0x40 MSTORE DUP2 ADD SWAP1 PUSH3 0x541 SWAP2 SWAP1 PUSH3 0x735 JUMP JUMPDEST PUSH3 0x561 PUSH3 0x555 PUSH3 0x5A9 PUSH1 0x20 SHL PUSH1 0x20 SHR JUMP JUMPDEST PUSH3 0x5B1 PUSH1 0x20 SHL PUSH1 0x20 SHR JUMP JUMPDEST DUP1 PUSH1 0x59 PUSH1 0x0 PUSH2 0x100 EXP DUP2 SLOAD DUP2 PUSH20 0xFFFFFFFFFFFFFFFFFFFFFFFFFFFFFFFFFFFFFFFF MUL NOT AND SWAP1 DUP4 PUSH20 0xFFFFFFFFFFFFFFFFFFFFFFFFFFFFFFFFFFFFFFFF AND MUL OR SWAP1 SSTORE POP POP PUSH3 0x7AF JUMP JUMPDEST PUSH1 0x0 CALLER SWAP1 POP SWAP1 JUMP JUMPDEST PUSH1 0x0 DUP1 PUSH1 0x0 SWAP1 SLOAD SWAP1 PUSH2 0x100 EXP SWAP1 DIV PUSH20 0xFFFFFFFFFFFFFFFFFFFFFFFFFFFFFFFFFFFFFFFF AND SWAP1 POP DUP2 PUSH1 0x0 DUP1 PUSH2 0x100 EXP DUP2 SLOAD DUP2 PUSH20 0xFFFFFFFFFFFFFFFFFFFFFFFFFFFFFFFFFFFFFFFF MUL NOT AND SWAP1 DUP4 PUSH20 0xFFFFFFFFFFFFFFFFFFFFFFFFFFFFFFFFFFFFFFFF AND MUL OR SWAP1 SSTORE POP DUP2 PUSH20 0xFFFFFFFFFFFFFFFFFFFFFFFFFFFFFFFFFFFFFFFF AND DUP2 PUSH20 0xFFFFFFFFFFFFFFFFFFFFFFFFFFFFFFFFFFFFFFFF AND PUSH32 0x8BE0079C531659141344CD1FD0A4F28419497F9722A3DAAFE3B4186F6B6457E0 PUSH1 0x40 MLOAD PUSH1 0x40 MLOAD DUP1 SWAP2 SUB SWAP1 LOG3 POP POP JUMP JUMPDEST DUP3 PUSH1 0x50 DUP2 ADD SWAP3 DUP3 ISZERO PUSH3 0x6A7 JUMPI SWAP2 PUSH1 0x20 MUL DUP3 ADD JUMPDEST DUP3 DUP2 GT ISZERO PUSH3 0x6A6 JUMPI DUP3 MLOAD DUP3 SSTORE SWAP2 PUSH1 0x20 ADD SWAP2 SWAP1 PUSH1 0x1 ADD SWAP1 PUSH3 0x689 JUMP JUMPDEST JUMPDEST POP SWAP1 POP PUSH3 0x6B6 SWAP2 SWAP1 PUSH3 0x6FF JUMP JUMPDEST POP SWAP1 JUMP JUMPDEST DUP3 PUSH1 0x8 DUP2 ADD SWAP3 DUP3 ISZERO PUSH3 0x6EC JUMPI SWAP2 PUSH1 0x20 MUL DUP3 ADD JUMPDEST DUP3 DUP2 GT ISZERO PUSH3 0x6EB JUMPI DUP3 MLOAD DUP3 SSTORE SWAP2 PUSH1 0x20 ADD SWAP2 SWAP1 PUSH1 0x1 ADD SWAP1 PUSH3 0x6CE JUMP JUMPDEST JUMPDEST POP SWAP1 POP PUSH3 0x6FB SWAP2 SWAP1 PUSH3 0x6FF JUMP JUMPDEST POP SWAP1 JUMP JUMPDEST JUMPDEST DUP1 DUP3 GT ISZERO PUSH3 0x71A JUMPI PUSH1 0x0 DUP2 PUSH1 0x0 SWAP1 SSTORE POP PUSH1 0x1 ADD PUSH3 0x700 JUMP JUMPDEST POP SWAP1 JUMP JUMPDEST PUSH1 0x0 DUP2 MLOAD SWAP1 POP PUSH3 0x72F DUP2 PUSH3 0x795 JUMP JUMPDEST SWAP3 SWAP2 POP POP JUMP JUMPDEST PUSH1 0x0 PUSH1 0x20 DUP3 DUP5 SUB SLT ISZERO PUSH3 0x748 JUMPI PUSH1 0x0 DUP1 REVERT JUMPDEST PUSH1 0x0 PUSH3 0x758 DUP5 DUP3 DUP6 ADD PUSH3 0x71E JUMP JUMPDEST SWAP2 POP POP SWAP3 SWAP2 POP POP JUMP JUMPDEST PUSH1 0x0 PUSH3 0x76E DUP3 PUSH3 0x775 JUMP JUMPDEST SWAP1 POP SWAP2 SWAP1 POP JUMP JUMPDEST PUSH1 0x0 PUSH20 0xFFFFFFFFFFFFFFFFFFFFFFFFFFFFFFFFFFFFFFFF DUP3 AND SWAP1 POP SWAP2 SWAP1 POP JUMP JUMPDEST PUSH3 0x7A0 DUP2 PUSH3 0x761 JUMP JUMPDEST DUP2 EQ PUSH3 0x7AC JUMPI PUSH1 0x0 DUP1 REVERT JUMPDEST POP JUMP JUMPDEST PUSH2 0x53C8 DUP1 PUSH3 0x7BF PUSH1 0x0 CODECOPY PUSH1 0x0 RETURN INVALID PUSH1 0x80 PUSH1 0x40 MSTORE CALLVALUE DUP1 ISZERO PUSH2 0x10 JUMPI PUSH1 0x0 DUP1 REVERT JUMPDEST POP PUSH1 0x4 CALLDATASIZE LT PUSH2 0x142 JUMPI PUSH1 0x0 CALLDATALOAD PUSH1 0xE0 SHR DUP1 PUSH4 0x9B0FD8CD GT PUSH2 0xB8 JUMPI DUP1 PUSH4 0xCB7034D2 GT PUSH2 0x7C JUMPI DUP1 PUSH4 0xCB7034D2 EQ PUSH2 0x401 JUMPI DUP1 PUSH4 0xDBD1195C EQ PUSH2 0x431 JUMPI DUP1 PUSH4 0xDCB90BB9 EQ PUSH2 0x463 JUMPI DUP1 PUSH4 0xE36027AB EQ PUSH2 0x47F JUMPI DUP1 PUSH4 0xF2FDE38B EQ PUSH2 0x4AF JUMPI DUP1 PUSH4 0xF3AE1B31 EQ PUSH2 0x4CB JUMPI PUSH2 0x142 JUMP JUMPDEST DUP1 PUSH4 0x9B0FD8CD EQ PUSH2 0x310 JUMPI DUP1 PUSH4 0xA2226EF6 EQ PUSH2 0x340 JUMPI DUP1 PUSH4 0xAF0DF022 EQ PUSH2 0x370 JUMPI DUP1 PUSH4 0xB2178825 EQ PUSH2 0x3A1 JUMPI DUP1 PUSH4 0xC82F10F5 EQ PUSH2 0x3D1 JUMPI PUSH2 0x142 JUMP JUMPDEST DUP1 PUSH4 0x51B6C0A1 GT PUSH2 0x10A JUMPI DUP1 PUSH4 0x51B6C0A1 EQ PUSH2 0x238 JUMPI DUP1 PUSH4 0x5A6EB94E EQ PUSH2 0x268 JUMPI DUP1 PUSH4 0x715018A6 EQ PUSH2 0x299 JUMPI DUP1 PUSH4 0x755D4ADD EQ PUSH2 0x2A3 JUMPI DUP1 PUSH4 0x7DC0D1D0 EQ PUSH2 0x2D4 JUMPI DUP1 PUSH4 0x8DA5CB5B EQ PUSH2 0x2F2 JUMPI PUSH2 0x142 JUMP JUMPDEST DUP1 PUSH4 0x1F74337 EQ PUSH2 0x147 JUMPI DUP1 PUSH4 0x5E4FA19 EQ PUSH2 0x177 JUMPI DUP1 PUSH4 0x2739C34F EQ PUSH2 0x1A7 JUMPI DUP1 PUSH4 0x3D69D2F7 EQ PUSH2 0x1D7 JUMPI DUP1 PUSH4 0x500D8107 EQ PUSH2 0x207 JUMPI JUMPDEST PUSH1 0x0 DUP1 REVERT JUMPDEST PUSH2 0x161 PUSH1 0x4 DUP1 CALLDATASIZE SUB DUP2 ADD SWAP1 PUSH2 0x15C SWAP2 SWAP1 PUSH2 0x47E7 JUMP JUMPDEST PUSH2 0x4FC JUMP JUMPDEST PUSH1 0x40 MLOAD PUSH2 0x16E SWAP2 SWAP1 PUSH2 0x4C75 JUMP JUMPDEST PUSH1 0x40 MLOAD DUP1 SWAP2 SUB SWAP1 RETURN JUMPDEST PUSH2 0x191 PUSH1 0x4 DUP1 CALLDATASIZE SUB DUP2 ADD SWAP1 PUSH2 0x18C SWAP2 SWAP1 PUSH2 0x43A2 JUMP JUMPDEST PUSH2 0x804 JUMP JUMPDEST PUSH1 0x40 MLOAD PUSH2 0x19E SWAP2 SWAP1 PUSH2 0x4BA7 JUMP JUMPDEST PUSH1 0x40 MLOAD DUP1 SWAP2 SUB SWAP1 RETURN JUMPDEST PUSH2 0x1C1 PUSH1 0x4 DUP1 CALLDATASIZE SUB DUP2 ADD SWAP1 PUSH2 0x1BC SWAP2 SWAP1 PUSH2 0x4704 JUMP JUMPDEST PUSH2 0xC40 JUMP JUMPDEST PUSH1 0x40 MLOAD PUSH2 0x1CE SWAP2 SWAP1 PUSH2 0x4BC3 JUMP JUMPDEST PUSH1 0x40 MLOAD DUP1 SWAP2 SUB SWAP1 RETURN JUMPDEST PUSH2 0x1F1 PUSH1 0x4 DUP1 CALLDATASIZE SUB DUP2 ADD SWAP1 PUSH2 0x1EC SWAP2 SWAP1 PUSH2 0x456F JUMP JUMPDEST PUSH2 0xD6F JUMP JUMPDEST PUSH1 0x40 MLOAD PUSH2 0x1FE SWAP2 SWAP1 PUSH2 0x4BC3 JUMP JUMPDEST PUSH1 0x40 MLOAD DUP1 SWAP2 SUB SWAP1 RETURN JUMPDEST PUSH2 0x221 PUSH1 0x4 DUP1 CALLDATASIZE SUB DUP2 ADD SWAP1 PUSH2 0x21C SWAP2 SWAP1 PUSH2 0x4366 JUMP JUMPDEST PUSH2 0xFF6 JUMP JUMPDEST PUSH1 0x40 MLOAD PUSH2 0x22F SWAP3 SWAP2 SWAP1 PUSH2 0x4C90 JUMP JUMPDEST PUSH1 0x40 MLOAD DUP1 SWAP2 SUB SWAP1 RETURN JUMPDEST PUSH2 0x252 PUSH1 0x4 DUP1 CALLDATASIZE SUB DUP2 ADD SWAP1 PUSH2 0x24D SWAP2 SWAP1 PUSH2 0x47AB JUMP JUMPDEST PUSH2 0x11F1 JUMP JUMPDEST PUSH1 0x40 MLOAD PUSH2 0x25F SWAP2 SWAP1 PUSH2 0x4C75 JUMP JUMPDEST PUSH1 0x40 MLOAD DUP1 SWAP2 SUB SWAP1 RETURN JUMPDEST PUSH2 0x282 PUSH1 0x4 DUP1 CALLDATASIZE SUB DUP2 ADD SWAP1 PUSH2 0x27D SWAP2 SWAP1 PUSH2 0x4503 JUMP JUMPDEST PUSH2 0x121A JUMP JUMPDEST PUSH1 0x40 MLOAD PUSH2 0x290 SWAP3 SWAP2 SWAP1 PUSH2 0x4BDE JUMP JUMPDEST PUSH1 0x40 MLOAD DUP1 SWAP2 SUB SWAP1 RETURN JUMPDEST PUSH2 0x2A1 PUSH2 0x13D6 JUMP JUMPDEST STOP JUMPDEST PUSH2 0x2BD PUSH1 0x4 DUP1 CALLDATASIZE SUB DUP2 ADD SWAP1 PUSH2 0x2B8 SWAP2 SWAP1 PUSH2 0x43CC JUMP JUMPDEST PUSH2 0x13EA JUMP JUMPDEST PUSH1 0x40 MLOAD PUSH2 0x2CB SWAP3 SWAP2 SWAP1 PUSH2 0x4C90 JUMP JUMPDEST PUSH1 0x40 MLOAD DUP1 SWAP2 SUB SWAP1 RETURN JUMPDEST PUSH2 0x2DC PUSH2 0x1686 JUMP JUMPDEST PUSH1 0x40 MLOAD PUSH2 0x2E9 SWAP2 SWAP1 PUSH2 0x4B71 JUMP JUMPDEST PUSH1 0x40 MLOAD DUP1 SWAP2 SUB SWAP1 RETURN JUMPDEST PUSH2 0x2FA PUSH2 0x16AC JUMP JUMPDEST PUSH1 0x40 MLOAD PUSH2 0x307 SWAP2 SWAP1 PUSH2 0x4B71 JUMP JUMPDEST PUSH1 0x40 MLOAD DUP1 SWAP2 SUB SWAP1 RETURN JUMPDEST PUSH2 0x32A PUSH1 0x4 DUP1 CALLDATASIZE SUB DUP2 ADD SWAP1 PUSH2 0x325 SWAP2 SWAP1 PUSH2 0x432A JUMP JUMPDEST PUSH2 0x16D5 JUMP JUMPDEST PUSH1 0x40 MLOAD PUSH2 0x337 SWAP2 SWAP1 PUSH2 0x4B8C JUMP JUMPDEST PUSH1 0x40 MLOAD DUP1 SWAP2 SUB SWAP1 RETURN JUMPDEST PUSH2 0x35A PUSH1 0x4 DUP1 CALLDATASIZE SUB DUP2 ADD SWAP1 PUSH2 0x355 SWAP2 SWAP1 PUSH2 0x456F JUMP JUMPDEST PUSH2 0x1919 JUMP JUMPDEST PUSH1 0x40 MLOAD PUSH2 0x367 SWAP2 SWAP1 PUSH2 0x4BC3 JUMP JUMPDEST PUSH1 0x40 MLOAD DUP1 SWAP2 SUB SWAP1 RETURN JUMPDEST PUSH2 0x38A PUSH1 0x4 DUP1 CALLDATASIZE SUB DUP2 ADD SWAP1 PUSH2 0x385 SWAP2 SWAP1 PUSH2 0x4503 JUMP JUMPDEST PUSH2 0x1A5E JUMP JUMPDEST PUSH1 0x40 MLOAD PUSH2 0x398 SWAP3 SWAP2 SWAP1 PUSH2 0x4C90 JUMP JUMPDEST PUSH1 0x40 MLOAD DUP1 SWAP2 SUB SWAP1 RETURN JUMPDEST PUSH2 0x3BB PUSH1 0x4 DUP1 CALLDATASIZE SUB DUP2 ADD SWAP1 PUSH2 0x3B6 SWAP2 SWAP1 PUSH2 0x44AF JUMP JUMPDEST PUSH2 0x1B14 JUMP JUMPDEST PUSH1 0x40 MLOAD PUSH2 0x3C8 SWAP2 SWAP1 PUSH2 0x4BC3 JUMP JUMPDEST PUSH1 0x40 MLOAD DUP1 SWAP2 SUB SWAP1 RETURN JUMPDEST PUSH2 0x3EB PUSH1 0x4 DUP1 CALLDATASIZE SUB DUP2 ADD SWAP1 PUSH2 0x3E6 SWAP2 SWAP1 PUSH2 0x456F JUMP JUMPDEST PUSH2 0x1BAD JUMP JUMPDEST PUSH1 0x40 MLOAD PUSH2 0x3F8 SWAP2 SWAP1 PUSH2 0x4BC3 JUMP JUMPDEST PUSH1 0x40 MLOAD DUP1 SWAP2 SUB SWAP1 RETURN JUMPDEST PUSH2 0x41B PUSH1 0x4 DUP1 CALLDATASIZE SUB DUP2 ADD SWAP1 PUSH2 0x416 SWAP2 SWAP1 PUSH2 0x445B JUMP JUMPDEST PUSH2 0x1E0B JUMP JUMPDEST PUSH1 0x40 MLOAD PUSH2 0x428 SWAP2 SWAP1 PUSH2 0x4BC3 JUMP JUMPDEST PUSH1 0x40 MLOAD DUP1 SWAP2 SUB SWAP1 RETURN JUMPDEST PUSH2 0x44B PUSH1 0x4 DUP1 CALLDATASIZE SUB DUP2 ADD SWAP1 PUSH2 0x446 SWAP2 SWAP1 PUSH2 0x441F JUMP JUMPDEST PUSH2 0x1E7B JUMP JUMPDEST PUSH1 0x40 MLOAD PUSH2 0x45A SWAP4 SWAP3 SWAP2 SWAP1 PUSH2 0x4CB9 JUMP JUMPDEST PUSH1 0x40 MLOAD DUP1 SWAP2 SUB SWAP1 RETURN JUMPDEST PUSH2 0x47D PUSH1 0x4 DUP1 CALLDATASIZE SUB DUP2 ADD SWAP1 PUSH2 0x478 SWAP2 SWAP1 PUSH2 0x4836 JUMP JUMPDEST PUSH2 0x1EB2 JUMP JUMPDEST STOP JUMPDEST PUSH2 0x499 PUSH1 0x4 DUP1 CALLDATASIZE SUB DUP2 ADD SWAP1 PUSH2 0x494 SWAP2 SWAP1 PUSH2 0x4632 JUMP JUMPDEST PUSH2 0x1FC1 JUMP JUMPDEST PUSH1 0x40 MLOAD PUSH2 0x4A6 SWAP2 SWAP1 PUSH2 0x4BC3 JUMP JUMPDEST PUSH1 0x40 MLOAD DUP1 SWAP2 SUB SWAP1 RETURN JUMPDEST PUSH2 0x4C9 PUSH1 0x4 DUP1 CALLDATASIZE SUB DUP2 ADD SWAP1 PUSH2 0x4C4 SWAP2 SWAP1 PUSH2 0x4301 JUMP JUMPDEST PUSH2 0x22D9 JUMP JUMPDEST STOP JUMPDEST PUSH2 0x4E5 PUSH1 0x4 DUP1 CALLDATASIZE SUB DUP2 ADD SWAP1 PUSH2 0x4E0 SWAP2 SWAP1 PUSH2 0x441F JUMP JUMPDEST PUSH2 0x235D JUMP JUMPDEST PUSH1 0x40 MLOAD PUSH2 0x4F3 SWAP3 SWAP2 SWAP1 PUSH2 0x4BDE JUMP JUMPDEST PUSH1 0x40 MLOAD DUP1 SWAP2 SUB SWAP1 RETURN JUMPDEST PUSH1 0x0 PUSH2 0x506 PUSH2 0x3E9F JUMP JUMPDEST PUSH2 0x512 DUP6 DUP6 DUP6 DUP5 PUSH2 0x1EB2 JUMP JUMPDEST PUSH1 0x0 PUSH2 0x51D DUP3 PUSH2 0x804 JUMP JUMPDEST SWAP1 POP PUSH1 0x0 JUMPDEST PUSH1 0x8 DUP2 LT ISZERO PUSH2 0x60E JUMPI PUSH8 0xFFFFFFFFFFFFFFFF PUSH1 0x51 DUP3 PUSH1 0x8 DUP2 LT PUSH2 0x56E JUMPI PUSH32 0x4E487B7100000000000000000000000000000000000000000000000000000000 PUSH1 0x0 MSTORE PUSH1 0x32 PUSH1 0x4 MSTORE PUSH1 0x24 PUSH1 0x0 REVERT JUMPDEST ADD SLOAD DUP4 DUP4 PUSH1 0x8 DUP2 LT PUSH2 0x5A9 JUMPI PUSH32 0x4E487B7100000000000000000000000000000000000000000000000000000000 PUSH1 0x0 MSTORE PUSH1 0x32 PUSH1 0x4 MSTORE PUSH1 0x24 PUSH1 0x0 REVERT JUMPDEST PUSH1 0x20 MUL ADD MLOAD PUSH2 0x5B8 SWAP2 SWAP1 PUSH2 0x4E9B JUMP JUMPDEST AND DUP3 DUP3 PUSH1 0x8 DUP2 LT PUSH2 0x5F2 JUMPI PUSH32 0x4E487B7100000000000000000000000000000000000000000000000000000000 PUSH1 0x0 MSTORE PUSH1 0x32 PUSH1 0x4 MSTORE PUSH1 0x24 PUSH1 0x0 REVERT JUMPDEST PUSH1 0x20 MUL ADD DUP2 DUP2 MSTORE POP POP DUP1 DUP1 PUSH2 0x606 SWAP1 PUSH2 0x51E2 JUMP JUMPDEST SWAP2 POP POP PUSH2 0x522 JUMP JUMPDEST POP PUSH1 0x0 DUP1 PUSH2 0x61B DUP4 PUSH2 0x13EA JUMP JUMPDEST SWAP2 POP SWAP2 POP PUSH32 0x1000000000000000000000000000000014DEF9DEA2F79CD65812631A5CF5D3ED DUP1 PUSH2 0x674 JUMPI PUSH32 0x4E487B7100000000000000000000000000000000000000000000000000000000 PUSH1 0x0 MSTORE PUSH1 0x12 PUSH1 0x4 MSTORE PUSH1 0x24 PUSH1 0x0 REVERT JUMPDEST PUSH32 0x1000000000000000000000000000000014DEF9DEA2F79CD65812631A5CF5D3ED DUP1 PUSH2 0x6C9 JUMPI PUSH32 0x4E487B7100000000000000000000000000000000000000000000000000000000 PUSH1 0x0 MSTORE PUSH1 0x12 PUSH1 0x4 MSTORE PUSH1 0x24 PUSH1 0x0 REVERT JUMPDEST PUSH1 0x1 DUP4 MULMOD PUSH32 0x1000000000000000000000000000000014DEF9DEA2F79CD65812631A5CF5D3ED DUP1 PUSH2 0x722 JUMPI PUSH32 0x4E487B7100000000000000000000000000000000000000000000000000000000 PUSH1 0x0 MSTORE PUSH1 0x12 PUSH1 0x4 MSTORE PUSH1 0x24 PUSH1 0x0 REVERT JUMPDEST PUSH32 0x1000000000000000000000000000000014DEF9DEA2F79CD65812631A5CF5D3ED DUP1 PUSH2 0x777 JUMPI PUSH32 0x4E487B7100000000000000000000000000000000000000000000000000000000 PUSH1 0x0 MSTORE PUSH1 0x12 PUSH1 0x4 MSTORE PUSH1 0x24 PUSH1 0x0 REVERT JUMPDEST PUSH1 0x1 PUSH17 0x100000000000000000000000000000000 MULMOD PUSH32 0x1000000000000000000000000000000014DEF9DEA2F79CD65812631A5CF5D3ED DUP1 PUSH2 0x7E1 JUMPI PUSH32 0x4E487B7100000000000000000000000000000000000000000000000000000000 PUSH1 0x0 MSTORE PUSH1 0x12 PUSH1 0x4 MSTORE PUSH1 0x24 PUSH1 0x0 REVERT JUMPDEST PUSH17 0x100000000000000000000000000000000 DUP8 MULMOD MULMOD ADDMOD SWAP5 POP POP POP POP POP SWAP4 SWAP3 POP POP POP JUMP JUMPDEST PUSH2 0x80C PUSH2 0x3EC2 JUMP JUMPDEST PUSH1 0x0 PUSH1 0x51 PUSH1 0x0 PUSH1 0x8 DUP2 LT PUSH2 0x849 JUMPI PUSH32 0x4E487B7100000000000000000000000000000000000000000000000000000000 PUSH1 0x0 MSTORE PUSH1 0x32 PUSH1 0x4 MSTORE PUSH1 0x24 PUSH1 0x0 REVERT JUMPDEST ADD SLOAD SWAP1 POP PUSH1 0x0 PUSH1 0x51 PUSH1 0x1 PUSH1 0x8 DUP2 LT PUSH2 0x88A JUMPI PUSH32 0x4E487B7100000000000000000000000000000000000000000000000000000000 PUSH1 0x0 MSTORE PUSH1 0x32 PUSH1 0x4 MSTORE PUSH1 0x24 PUSH1 0x0 REVERT JUMPDEST ADD SLOAD SWAP1 POP PUSH1 0x0 PUSH1 0x51 PUSH1 0x2 PUSH1 0x8 DUP2 LT PUSH2 0x8CB JUMPI PUSH32 0x4E487B7100000000000000000000000000000000000000000000000000000000 PUSH1 0x0 MSTORE PUSH1 0x32 PUSH1 0x4 MSTORE PUSH1 0x24 PUSH1 0x0 REVERT JUMPDEST ADD SLOAD SWAP1 POP PUSH1 0x0 PUSH1 0x51 PUSH1 0x3 PUSH1 0x8 DUP2 LT PUSH2 0x90C JUMPI PUSH32 0x4E487B7100000000000000000000000000000000000000000000000000000000 PUSH1 0x0 MSTORE PUSH1 0x32 PUSH1 0x4 MSTORE PUSH1 0x24 PUSH1 0x0 REVERT JUMPDEST ADD SLOAD SWAP1 POP PUSH1 0x0 PUSH1 0x51 PUSH1 0x4 PUSH1 0x8 DUP2 LT PUSH2 0x94D JUMPI PUSH32 0x4E487B7100000000000000000000000000000000000000000000000000000000 PUSH1 0x0 MSTORE PUSH1 0x32 PUSH1 0x4 MSTORE PUSH1 0x24 PUSH1 0x0 REVERT JUMPDEST ADD SLOAD SWAP1 POP PUSH1 0x0 PUSH1 0x51 PUSH1 0x5 PUSH1 0x8 DUP2 LT PUSH2 0x98E JUMPI PUSH32 0x4E487B7100000000000000000000000000000000000000000000000000000000 PUSH1 0x0 MSTORE PUSH1 0x32 PUSH1 0x4 MSTORE PUSH1 0x24 PUSH1 0x0 REVERT JUMPDEST ADD SLOAD SWAP1 POP PUSH1 0x0 PUSH1 0x51 PUSH1 0x6 PUSH1 0x8 DUP2 LT PUSH2 0x9CF JUMPI PUSH32 0x4E487B7100000000000000000000000000000000000000000000000000000000 PUSH1 0x0 MSTORE PUSH1 0x32 PUSH1 0x4 MSTORE PUSH1 0x24 PUSH1 0x0 REVERT JUMPDEST ADD SLOAD SWAP1 POP PUSH1 0x0 PUSH1 0x51 PUSH1 0x7 PUSH1 0x8 DUP2 LT PUSH2 0xA10 JUMPI PUSH32 0x4E487B7100000000000000000000000000000000000000000000000000000000 PUSH1 0x0 MSTORE PUSH1 0x32 PUSH1 0x4 MSTORE PUSH1 0x24 PUSH1 0x0 REVERT JUMPDEST ADD SLOAD SWAP1 POP PUSH1 0x0 JUMPDEST PUSH1 0x50 DUP2 LT ISZERO PUSH2 0xBF6 JUMPI PUSH1 0x0 PUSH2 0xA2D DUP7 PUSH1 0x29 PUSH2 0x11F1 JUMP JUMPDEST PUSH2 0xA38 DUP8 PUSH1 0x12 PUSH2 0x11F1 JUMP JUMPDEST PUSH2 0xA43 DUP9 PUSH1 0xE PUSH2 0x11F1 JUMP JUMPDEST XOR XOR SWAP1 POP PUSH1 0x0 DUP5 DUP8 NOT AND DUP7 DUP9 AND XOR SWAP1 POP PUSH1 0x0 PUSH1 0x1 DUP5 PUSH1 0x50 DUP2 LT PUSH2 0xA8F JUMPI PUSH32 0x4E487B7100000000000000000000000000000000000000000000000000000000 PUSH1 0x0 MSTORE PUSH1 0x32 PUSH1 0x4 MSTORE PUSH1 0x24 PUSH1 0x0 REVERT JUMPDEST ADD SLOAD DUP15 DUP6 PUSH1 0x50 DUP2 LT PUSH2 0xACA JUMPI PUSH32 0x4E487B7100000000000000000000000000000000000000000000000000000000 PUSH1 0x0 MSTORE PUSH1 0x32 PUSH1 0x4 MSTORE PUSH1 0x24 PUSH1 0x0 REVERT JUMPDEST PUSH1 0x20 MUL ADD MLOAD DUP4 DUP6 DUP9 PUSH2 0xADC SWAP2 SWAP1 PUSH2 0x4E9B JUMP JUMPDEST PUSH2 0xAE6 SWAP2 SWAP1 PUSH2 0x4E9B JUMP JUMPDEST PUSH2 0xAF0 SWAP2 SWAP1 PUSH2 0x4E9B JUMP JUMPDEST PUSH2 0xAFA SWAP2 SWAP1 PUSH2 0x4E9B JUMP JUMPDEST SWAP1 POP PUSH1 0x0 PUSH2 0xB09 DUP14 PUSH1 0x27 PUSH2 0x11F1 JUMP JUMPDEST PUSH2 0xB14 DUP15 PUSH1 0x22 PUSH2 0x11F1 JUMP JUMPDEST PUSH2 0xB1F DUP16 PUSH1 0x1C PUSH2 0x11F1 JUMP JUMPDEST XOR XOR SWAP1 POP PUSH1 0x0 DUP12 DUP15 AND DUP14 DUP16 AND XOR SWAP1 POP DUP12 DUP14 AND DUP2 XOR SWAP1 POP PUSH1 0x0 DUP2 DUP4 PUSH2 0xB43 SWAP2 SWAP1 PUSH2 0x4E9B JUMP JUMPDEST SWAP1 POP DUP9 SWAP8 POP DUP10 SWAP9 POP DUP11 SWAP10 POP PUSH9 0x10000000000000000 DUP1 PUSH2 0xB8C JUMPI PUSH32 0x4E487B7100000000000000000000000000000000000000000000000000000000 PUSH1 0x0 MSTORE PUSH1 0x12 PUSH1 0x4 MSTORE PUSH1 0x24 PUSH1 0x0 REVERT JUMPDEST DUP5 DUP14 ADDMOD SWAP11 POP DUP13 SWAP12 POP DUP14 SWAP13 POP DUP15 SWAP14 POP PUSH9 0x10000000000000000 DUP1 PUSH2 0xBD8 JUMPI PUSH32 0x4E487B7100000000000000000000000000000000000000000000000000000000 PUSH1 0x0 MSTORE PUSH1 0x12 PUSH1 0x4 MSTORE PUSH1 0x24 PUSH1 0x0 REVERT JUMPDEST DUP2 DUP6 ADDMOD SWAP15 POP POP POP POP POP POP POP DUP1 DUP1 PUSH2 0xBEE SWAP1 PUSH2 0x51E2 JUMP JUMPDEST SWAP2 POP POP PUSH2 0xA17 JUMP JUMPDEST POP PUSH1 0x40 MLOAD DUP1 PUSH2 0x100 ADD PUSH1 0x40 MSTORE DUP1 DUP10 DUP2 MSTORE PUSH1 0x20 ADD DUP9 DUP2 MSTORE PUSH1 0x20 ADD DUP8 DUP2 MSTORE PUSH1 0x20 ADD DUP7 DUP2 MSTORE PUSH1 0x20 ADD DUP6 DUP2 MSTORE PUSH1 0x20 ADD DUP5 DUP2 MSTORE PUSH1 0x20 ADD DUP4 DUP2 MSTORE PUSH1 0x20 ADD DUP3 DUP2 MSTORE POP SWAP9 POP POP POP POP POP POP POP POP POP SWAP2 SWAP1 POP JUMP JUMPDEST PUSH1 0x0 PUSH1 0x59 PUSH1 0x0 SWAP1 SLOAD SWAP1 PUSH2 0x100 EXP SWAP1 DIV PUSH20 0xFFFFFFFFFFFFFFFFFFFFFFFFFFFFFFFFFFFFFFFF AND PUSH20 0xFFFFFFFFFFFFFFFFFFFFFFFFFFFFFFFFFFFFFFFF AND CALLER PUSH20 0xFFFFFFFFFFFFFFFFFFFFFFFFFFFFFFFFFFFFFFFF AND EQ PUSH2 0xCD2 JUMPI PUSH1 0x40 MLOAD PUSH32 0x8C379A000000000000000000000000000000000000000000000000000000000 DUP2 MSTORE PUSH1 0x4 ADD PUSH2 0xCC9 SWAP1 PUSH2 0x4C55 JUMP JUMPDEST PUSH1 0x40 MLOAD DUP1 SWAP2 SUB SWAP1 REVERT JUMPDEST PUSH1 0x0 PUSH1 0x5B PUSH1 0x0 DUP9 PUSH1 0x40 MLOAD PUSH1 0x20 ADD PUSH2 0xCE9 SWAP2 SWAP1 PUSH2 0x4B5A JUMP JUMPDEST PUSH1 0x40 MLOAD PUSH1 0x20 DUP2 DUP4 SUB SUB DUP2 MSTORE SWAP1 PUSH1 0x40 MSTORE DUP1 MLOAD SWAP1 PUSH1 0x20 ADD KECCAK256 DUP2 MSTORE PUSH1 0x20 ADD SWAP1 DUP2 MSTORE PUSH1 0x20 ADD PUSH1 0x0 KECCAK256 PUSH1 0x0 DUP8 PUSH1 0x40 MLOAD PUSH1 0x20 ADD PUSH2 0xD20 SWAP2 SWAP1 PUSH2 0x4B5A JUMP JUMPDEST PUSH1 0x40 MLOAD PUSH1 0x20 DUP2 DUP4 SUB SUB DUP2 MSTORE SWAP1 PUSH1 0x40 MSTORE DUP1 MLOAD SWAP1 PUSH1 0x20 ADD KECCAK256 DUP2 MSTORE PUSH1 0x20 ADD SWAP1 DUP2 MSTORE PUSH1 0x20 ADD PUSH1 0x0 KECCAK256 SWAP1 POP DUP5 DUP2 PUSH1 0x0 ADD DUP2 SWAP1 SSTORE POP DUP4 DUP2 PUSH1 0x1 ADD DUP2 SWAP1 SSTORE POP DUP3 DUP2 PUSH1 0x2 ADD DUP2 SWAP1 SSTORE POP PUSH1 0x1 SWAP2 POP POP SWAP6 SWAP5 POP POP POP POP POP JUMP JUMPDEST PUSH1 0x0 DUP1 PUSH1 0x5A PUSH1 0x0 DUP8 PUSH1 0x40 MLOAD PUSH1 0x20 ADD PUSH2 0xD87 SWAP2 SWAP1 PUSH2 0x4B5A JUMP JUMPDEST PUSH1 0x40 MLOAD PUSH1 0x20 DUP2 DUP4 SUB SUB DUP2 MSTORE SWAP1 PUSH1 0x40 MSTORE DUP1 MLOAD SWAP1 PUSH1 0x20 ADD KECCAK256 DUP2 MSTORE PUSH1 0x20 ADD SWAP1 DUP2 MSTORE PUSH1 0x20 ADD PUSH1 0x0 KECCAK256 PUSH1 0x0 DUP7 PUSH1 0x40 MLOAD PUSH1 0x20 ADD PUSH2 0xDBE SWAP2 SWAP1 PUSH2 0x4B5A JUMP JUMPDEST PUSH1 0x40 MLOAD PUSH1 0x20 DUP2 DUP4 SUB SUB DUP2 MSTORE SWAP1 PUSH1 0x40 MSTORE DUP1 MLOAD SWAP1 PUSH1 0x20 ADD KECCAK256 DUP2 MSTORE PUSH1 0x20 ADD SWAP1 DUP2 MSTORE PUSH1 0x20 ADD PUSH1 0x0 KECCAK256 PUSH1 0x40 MLOAD DUP1 PUSH1 0x40 ADD PUSH1 0x40 MSTORE SWAP1 DUP2 PUSH1 0x0 DUP3 ADD DUP1 SLOAD PUSH2 0xDFD SWAP1 PUSH2 0x51B0 JUMP JUMPDEST DUP1 PUSH1 0x1F ADD PUSH1 0x20 DUP1 SWAP2 DIV MUL PUSH1 0x20 ADD PUSH1 0x40 MLOAD SWAP1 DUP2 ADD PUSH1 0x40 MSTORE DUP1 SWAP3 SWAP2 SWAP1 DUP2 DUP2 MSTORE PUSH1 0x20 ADD DUP3 DUP1 SLOAD PUSH2 0xE29 SWAP1 PUSH2 0x51B0 JUMP JUMPDEST DUP1 ISZERO PUSH2 0xE76 JUMPI DUP1 PUSH1 0x1F LT PUSH2 0xE4B JUMPI PUSH2 0x100 DUP1 DUP4 SLOAD DIV MUL DUP4 MSTORE SWAP2 PUSH1 0x20 ADD SWAP2 PUSH2 0xE76 JUMP JUMPDEST DUP3 ADD SWAP2 SWAP1 PUSH1 0x0 MSTORE PUSH1 0x20 PUSH1 0x0 KECCAK256 SWAP1 JUMPDEST DUP2 SLOAD DUP2 MSTORE SWAP1 PUSH1 0x1 ADD SWAP1 PUSH1 0x20 ADD DUP1 DUP4 GT PUSH2 0xE59 JUMPI DUP3 SWAP1 SUB PUSH1 0x1F AND DUP3 ADD SWAP2 JUMPDEST POP POP POP POP POP DUP2 MSTORE PUSH1 0x20 ADD PUSH1 0x1 DUP3 ADD DUP1 SLOAD PUSH2 0xE8F SWAP1 PUSH2 0x51B0 JUMP JUMPDEST DUP1 PUSH1 0x1F ADD PUSH1 0x20 DUP1 SWAP2 DIV MUL PUSH1 0x20 ADD PUSH1 0x40 MLOAD SWAP1 DUP2 ADD PUSH1 0x40 MSTORE DUP1 SWAP3 SWAP2 SWAP1 DUP2 DUP2 MSTORE PUSH1 0x20 ADD DUP3 DUP1 SLOAD PUSH2 0xEBB SWAP1 PUSH2 0x51B0 JUMP JUMPDEST DUP1 ISZERO PUSH2 0xF08 JUMPI DUP1 PUSH1 0x1F LT PUSH2 0xEDD JUMPI PUSH2 0x100 DUP1 DUP4 SLOAD DIV MUL DUP4 MSTORE SWAP2 PUSH1 0x20 ADD SWAP2 PUSH2 0xF08 JUMP JUMPDEST DUP3 ADD SWAP2 SWAP1 PUSH1 0x0 MSTORE PUSH1 0x20 PUSH1 0x0 KECCAK256 SWAP1 JUMPDEST DUP2 SLOAD DUP2 MSTORE SWAP1 PUSH1 0x1 ADD SWAP1 PUSH1 0x20 ADD DUP1 DUP4 GT PUSH2 0xEEB JUMPI DUP3 SWAP1 SUB PUSH1 0x1F AND DUP3 ADD SWAP2 JUMPDEST POP POP POP POP POP DUP2 MSTORE POP POP SWAP1 POP PUSH1 0x0 PUSH1 0x60 PUSH2 0xF2A DUP7 DUP5 PUSH1 0x0 ADD MLOAD DUP6 PUSH1 0x20 ADD MLOAD PUSH2 0x249E JUMP JUMPDEST DUP1 SWAP3 POP DUP2 SWAP4 POP POP POP PUSH1 0x0 DUP3 DUP1 ISZERO PUSH2 0xFAE JUMPI POP PUSH2 0xF5C PUSH1 0x20 DUP4 MLOAD PUSH2 0xF4D SWAP2 SWAP1 PUSH2 0x50BC JUMP JUMPDEST DUP4 PUSH2 0x25FE SWAP1 SWAP2 SWAP1 PUSH4 0xFFFFFFFF AND JUMP JUMPDEST PUSH1 0x2 DUP8 PUSH1 0x40 MLOAD PUSH2 0xF6C SWAP2 SWAP1 PUSH2 0x4B43 JUMP JUMPDEST PUSH1 0x20 PUSH1 0x40 MLOAD DUP1 DUP4 SUB DUP2 DUP6 GAS STATICCALL ISZERO DUP1 ISZERO PUSH2 0xF89 JUMPI RETURNDATASIZE PUSH1 0x0 DUP1 RETURNDATACOPY RETURNDATASIZE PUSH1 0x0 REVERT JUMPDEST POP POP POP PUSH1 0x40 MLOAD RETURNDATASIZE PUSH1 0x1F NOT PUSH1 0x1F DUP3 ADD AND DUP3 ADD DUP1 PUSH1 0x40 MSTORE POP DUP2 ADD SWAP1 PUSH2 0xFAC SWAP2 SWAP1 PUSH2 0x43F6 JUMP JUMPDEST EQ JUMPDEST SWAP1 POP PUSH32 0xFF3010AE5FE3144D9922CF3389B9BF30DA6F991746F58A3177E3427FF9C7EF54 DUP2 PUSH1 0x40 MLOAD PUSH2 0xFDF SWAP2 SWAP1 PUSH2 0x4BC3 JUMP JUMPDEST PUSH1 0x40 MLOAD DUP1 SWAP2 SUB SWAP1 LOG1 DUP1 SWAP5 POP POP POP POP POP SWAP5 SWAP4 POP POP POP POP JUMP JUMPDEST PUSH1 0x0 DUP1 PUSH2 0x1001 PUSH2 0x3EE5 JUMP JUMPDEST PUSH2 0x1009 PUSH2 0x3EE5 JUMP JUMPDEST DUP6 PUSH1 0x0 PUSH1 0x2 DUP2 LT PUSH2 0x1043 JUMPI PUSH32 0x4E487B7100000000000000000000000000000000000000000000000000000000 PUSH1 0x0 MSTORE PUSH1 0x32 PUSH1 0x4 MSTORE PUSH1 0x24 PUSH1 0x0 REVERT JUMPDEST PUSH1 0x20 MUL ADD MLOAD DUP3 PUSH1 0x0 ADD DUP2 DUP2 MSTORE POP POP DUP6 PUSH1 0x1 PUSH1 0x2 DUP2 LT PUSH2 0x108B JUMPI PUSH32 0x4E487B7100000000000000000000000000000000000000000000000000000000 PUSH1 0x0 MSTORE PUSH1 0x32 PUSH1 0x4 MSTORE PUSH1 0x24 PUSH1 0x0 REVERT JUMPDEST PUSH1 0x20 MUL ADD MLOAD DUP3 PUSH1 0x20 ADD DUP2 DUP2 MSTORE POP POP PUSH1 0x1 DUP3 PUSH1 0x40 ADD DUP2 DUP2 MSTORE POP POP PUSH1 0x0 DUP2 PUSH1 0x0 ADD DUP2 DUP2 MSTORE POP POP PUSH1 0x1 DUP2 PUSH1 0x20 ADD DUP2 DUP2 MSTORE POP POP PUSH1 0x1 DUP2 PUSH1 0x40 ADD DUP2 DUP2 MSTORE POP POP JUMPDEST PUSH1 0x0 DUP6 GT ISZERO PUSH2 0x10FE JUMPI PUSH1 0x1 DUP1 DUP7 AND EQ ISZERO PUSH2 0x10E7 JUMPI PUSH2 0x10E4 DUP2 DUP4 PUSH2 0x2629 JUMP JUMPDEST SWAP1 POP JUMPDEST PUSH1 0x1 DUP6 SWAP1 SHR SWAP5 POP PUSH2 0x10F7 DUP3 PUSH2 0x2E2A JUMP JUMPDEST SWAP2 POP PUSH2 0x10C6 JUMP JUMPDEST PUSH1 0x0 PUSH2 0x110D DUP3 PUSH1 0x40 ADD MLOAD PUSH2 0x34A8 JUMP JUMPDEST SWAP1 POP PUSH32 0x7FFFFFFFFFFFFFFFFFFFFFFFFFFFFFFFFFFFFFFFFFFFFFFFFFFFFFFFFFFFFFED DUP1 PUSH2 0x1164 JUMPI PUSH32 0x4E487B7100000000000000000000000000000000000000000000000000000000 PUSH1 0x0 MSTORE PUSH1 0x12 PUSH1 0x4 MSTORE PUSH1 0x24 PUSH1 0x0 REVERT JUMPDEST DUP2 DUP4 PUSH1 0x0 ADD MLOAD MULMOD DUP3 PUSH1 0x0 ADD DUP2 DUP2 MSTORE POP POP PUSH32 0x7FFFFFFFFFFFFFFFFFFFFFFFFFFFFFFFFFFFFFFFFFFFFFFFFFFFFFFFFFFFFFED DUP1 PUSH2 0x11C9 JUMPI PUSH32 0x4E487B7100000000000000000000000000000000000000000000000000000000 PUSH1 0x0 MSTORE PUSH1 0x12 PUSH1 0x4 MSTORE PUSH1 0x24 PUSH1 0x0 REVERT JUMPDEST DUP2 DUP4 PUSH1 0x20 ADD MLOAD MULMOD DUP3 PUSH1 0x20 ADD DUP2 DUP2 MSTORE POP POP DUP2 PUSH1 0x0 ADD MLOAD DUP3 PUSH1 0x20 ADD MLOAD SWAP5 POP SWAP5 POP POP POP POP SWAP3 POP SWAP3 SWAP1 POP JUMP JUMPDEST PUSH1 0x0 PUSH8 0xFFFFFFFFFFFFFFFF DUP3 PUSH1 0x40 PUSH2 0x1209 SWAP2 SWAP1 PUSH2 0x50BC JUMP JUMPDEST DUP5 SWAP1 SHL DUP4 DUP6 SWAP1 SHR OR AND SWAP1 POP SWAP3 SWAP2 POP POP JUMP JUMPDEST PUSH1 0x60 DUP1 PUSH1 0x0 PUSH1 0x5A PUSH1 0x0 DUP7 PUSH1 0x40 MLOAD PUSH1 0x20 ADD PUSH2 0x1234 SWAP2 SWAP1 PUSH2 0x4B5A JUMP JUMPDEST PUSH1 0x40 MLOAD PUSH1 0x20 DUP2 DUP4 SUB SUB DUP2 MSTORE SWAP1 PUSH1 0x40 MSTORE DUP1 MLOAD SWAP1 PUSH1 0x20 ADD KECCAK256 DUP2 MSTORE PUSH1 0x20 ADD SWAP1 DUP2 MSTORE PUSH1 0x20 ADD PUSH1 0x0 KECCAK256 PUSH1 0x0 DUP6 PUSH1 0x40 MLOAD PUSH1 0x20 ADD PUSH2 0x126B SWAP2 SWAP1 PUSH2 0x4B5A JUMP JUMPDEST PUSH1 0x40 MLOAD PUSH1 0x20 DUP2 DUP4 SUB SUB DUP2 MSTORE SWAP1 PUSH1 0x40 MSTORE DUP1 MLOAD SWAP1 PUSH1 0x20 ADD KECCAK256 DUP2 MSTORE PUSH1 0x20 ADD SWAP1 DUP2 MSTORE PUSH1 0x20 ADD PUSH1 0x0 KECCAK256 PUSH1 0x40 MLOAD DUP1 PUSH1 0x40 ADD PUSH1 0x40 MSTORE SWAP1 DUP2 PUSH1 0x0 DUP3 ADD DUP1 SLOAD PUSH2 0x12AA SWAP1 PUSH2 0x51B0 JUMP JUMPDEST DUP1 PUSH1 0x1F ADD PUSH1 0x20 DUP1 SWAP2 DIV MUL PUSH1 0x20 ADD PUSH1 0x40 MLOAD SWAP1 DUP2 ADD PUSH1 0x40 MSTORE DUP1 SWAP3 SWAP2 SWAP1 DUP2 DUP2 MSTORE PUSH1 0x20 ADD DUP3 DUP1 SLOAD PUSH2 0x12D6 SWAP1 PUSH2 0x51B0 JUMP JUMPDEST DUP1 ISZERO PUSH2 0x1323 JUMPI DUP1 PUSH1 0x1F LT PUSH2 0x12F8 JUMPI PUSH2 0x100 DUP1 DUP4 SLOAD DIV MUL DUP4 MSTORE SWAP2 PUSH1 0x20 ADD SWAP2 PUSH2 0x1323 JUMP JUMPDEST DUP3 ADD SWAP2 SWAP1 PUSH1 0x0 MSTORE PUSH1 0x20 PUSH1 0x0 KECCAK256 SWAP1 JUMPDEST DUP2 SLOAD DUP2 MSTORE SWAP1 PUSH1 0x1 ADD SWAP1 PUSH1 0x20 ADD DUP1 DUP4 GT PUSH2 0x1306 JUMPI DUP3 SWAP1 SUB PUSH1 0x1F AND DUP3 ADD SWAP2 JUMPDEST POP POP POP POP POP DUP2 MSTORE PUSH1 0x20 ADD PUSH1 0x1 DUP3 ADD DUP1 SLOAD PUSH2 0x133C SWAP1 PUSH2 0x51B0 JUMP JUMPDEST DUP1 PUSH1 0x1F ADD PUSH1 0x20 DUP1 SWAP2 DIV MUL PUSH1 0x20 ADD PUSH1 0x40 MLOAD SWAP1 DUP2 ADD PUSH1 0x40 MSTORE DUP1 SWAP3 SWAP2 SWAP1 DUP2 DUP2 MSTORE PUSH1 0x20 ADD DUP3 DUP1 SLOAD PUSH2 0x1368 SWAP1 PUSH2 0x51B0 JUMP JUMPDEST DUP1 ISZERO PUSH2 0x13B5 JUMPI DUP1 PUSH1 0x1F LT PUSH2 0x138A JUMPI PUSH2 0x100 DUP1 DUP4 SLOAD DIV MUL DUP4 MSTORE SWAP2 PUSH1 0x20 ADD SWAP2 PUSH2 0x13B5 JUMP JUMPDEST DUP3 ADD SWAP2 SWAP1 PUSH1 0x0 MSTORE PUSH1 0x20 PUSH1 0x0 KECCAK256 SWAP1 JUMPDEST DUP2 SLOAD DUP2 MSTORE SWAP1 PUSH1 0x1 ADD SWAP1 PUSH1 0x20 ADD DUP1 DUP4 GT PUSH2 0x1398 JUMPI DUP3 SWAP1 SUB PUSH1 0x1F AND DUP3 ADD SWAP2 JUMPDEST POP POP POP POP POP DUP2 MSTORE POP POP SWAP1 POP DUP1 PUSH1 0x0 ADD MLOAD DUP2 PUSH1 0x20 ADD MLOAD SWAP3 POP SWAP3 POP POP SWAP3 POP SWAP3 SWAP1 POP JUMP JUMPDEST PUSH2 0x13DE PUSH2 0x3546 JUMP JUMPDEST PUSH2 0x13E8 PUSH1 0x0 PUSH2 0x35C4 JUMP JUMPDEST JUMP JUMPDEST PUSH1 0x0 DUP1 PUSH1 0x0 DUP4 PUSH1 0x3 PUSH1 0x8 DUP2 LT PUSH2 0x1429 JUMPI PUSH32 0x4E487B7100000000000000000000000000000000000000000000000000000000 PUSH1 0x0 MSTORE PUSH1 0x32 PUSH1 0x4 MSTORE PUSH1 0x24 PUSH1 0x0 REVERT JUMPDEST PUSH1 0x20 MUL ADD MLOAD PUSH1 0x40 DUP6 PUSH1 0x2 PUSH1 0x8 DUP2 LT PUSH2 0x146A JUMPI PUSH32 0x4E487B7100000000000000000000000000000000000000000000000000000000 PUSH1 0x0 MSTORE PUSH1 0x32 PUSH1 0x4 MSTORE PUSH1 0x24 PUSH1 0x0 REVERT JUMPDEST PUSH1 0x20 MUL ADD MLOAD SWAP1 SHL PUSH1 0x80 DUP7 PUSH1 0x1 PUSH1 0x8 DUP2 LT PUSH2 0x14AD JUMPI PUSH32 0x4E487B7100000000000000000000000000000000000000000000000000000000 PUSH1 0x0 MSTORE PUSH1 0x32 PUSH1 0x4 MSTORE PUSH1 0x24 PUSH1 0x0 REVERT JUMPDEST PUSH1 0x20 MUL ADD MLOAD SWAP1 SHL PUSH1 0xC0 DUP8 PUSH1 0x0 PUSH1 0x8 DUP2 LT PUSH2 0x14F0 JUMPI PUSH32 0x4E487B7100000000000000000000000000000000000000000000000000000000 PUSH1 0x0 MSTORE PUSH1 0x32 PUSH1 0x4 MSTORE PUSH1 0x24 PUSH1 0x0 REVERT JUMPDEST PUSH1 0x20 MUL ADD MLOAD SWAP1 SHL OR OR OR SWAP1 POP PUSH1 0x0 DUP5 PUSH1 0x7 PUSH1 0x8 DUP2 LT PUSH2 0x1538 JUMPI PUSH32 0x4E487B7100000000000000000000000000000000000000000000000000000000 PUSH1 0x0 MSTORE PUSH1 0x32 PUSH1 0x4 MSTORE PUSH1 0x24 PUSH1 0x0 REVERT JUMPDEST PUSH1 0x20 MUL ADD MLOAD PUSH1 0x40 DUP7 PUSH1 0x6 PUSH1 0x8 DUP2 LT PUSH2 0x1579 JUMPI PUSH32 0x4E487B7100000000000000000000000000000000000000000000000000000000 PUSH1 0x0 MSTORE PUSH1 0x32 PUSH1 0x4 MSTORE PUSH1 0x24 PUSH1 0x0 REVERT JUMPDEST PUSH1 0x20 MUL ADD MLOAD SWAP1 SHL PUSH1 0x80 DUP8 PUSH1 0x5 PUSH1 0x8 DUP2 LT PUSH2 0x15BC JUMPI PUSH32 0x4E487B7100000000000000000000000000000000000000000000000000000000 PUSH1 0x0 MSTORE PUSH1 0x32 PUSH1 0x4 MSTORE PUSH1 0x24 PUSH1 0x0 REVERT JUMPDEST PUSH1 0x20 MUL ADD MLOAD SWAP1 SHL PUSH1 0xC0 DUP9 PUSH1 0x4 PUSH1 0x8 DUP2 LT PUSH2 0x15FF JUMPI PUSH32 0x4E487B7100000000000000000000000000000000000000000000000000000000 PUSH1 0x0 MSTORE PUSH1 0x32 PUSH1 0x4 MSTORE PUSH1 0x24 PUSH1 0x0 REVERT JUMPDEST PUSH1 0x20 MUL ADD MLOAD SWAP1 SHL OR OR OR SWAP1 POP PUSH1 0x40 MLOAD DUP3 PUSH1 0x20 DUP3 ADD MSTORE DUP2 PUSH1 0x40 DUP3 ADD MSTORE PUSH1 0x60 DUP2 ADD PUSH1 0x40 MSTORE PUSH1 0x1 DUP2 ADD DUP1 JUMPDEST PUSH1 0x20 DUP3 ADD DUP2 LT ISZERO PUSH2 0x164D JUMPI PUSH1 0xFF DUP2 MLOAD AND PUSH1 0x8 DUP4 DUP4 SUB MUL SHL DUP7 ADD SWAP6 POP PUSH1 0x1 DUP2 ADD SWAP1 POP PUSH2 0x1627 JUMP JUMPDEST POP PUSH1 0x20 DUP2 ADD SWAP1 POP DUP1 JUMPDEST PUSH1 0x20 DUP3 ADD DUP2 LT ISZERO PUSH2 0x167C JUMPI PUSH1 0xFF DUP2 MLOAD AND PUSH1 0x8 DUP4 DUP4 SUB MUL SHL DUP8 ADD SWAP7 POP PUSH1 0x1 DUP2 ADD SWAP1 POP PUSH2 0x1656 JUMP JUMPDEST POP POP POP POP POP SWAP2 POP SWAP2 JUMP JUMPDEST PUSH1 0x59 PUSH1 0x0 SWAP1 SLOAD SWAP1 PUSH2 0x100 EXP SWAP1 DIV PUSH20 0xFFFFFFFFFFFFFFFFFFFFFFFFFFFFFFFFFFFFFFFF AND DUP2 JUMP JUMPDEST PUSH1 0x0 DUP1 PUSH1 0x0 SWAP1 SLOAD SWAP1 PUSH2 0x100 EXP SWAP1 DIV PUSH20 0xFFFFFFFFFFFFFFFFFFFFFFFFFFFFFFFFFFFFFFFF AND SWAP1 POP SWAP1 JUMP JUMPDEST PUSH2 0x16DD PUSH2 0x3F06 JUMP JUMPDEST PUSH2 0x16E5 PUSH2 0x3EE5 JUMP JUMPDEST PUSH2 0x16ED PUSH2 0x3EE5 JUMP JUMPDEST DUP5 PUSH1 0x0 PUSH1 0x2 DUP2 LT PUSH2 0x1727 JUMPI PUSH32 0x4E487B7100000000000000000000000000000000000000000000000000000000 PUSH1 0x0 MSTORE PUSH1 0x32 PUSH1 0x4 MSTORE PUSH1 0x24 PUSH1 0x0 REVERT JUMPDEST PUSH1 0x20 MUL ADD MLOAD DUP3 PUSH1 0x0 ADD DUP2 DUP2 MSTORE POP POP DUP5 PUSH1 0x1 PUSH1 0x2 DUP2 LT PUSH2 0x176F JUMPI PUSH32 0x4E487B7100000000000000000000000000000000000000000000000000000000 PUSH1 0x0 MSTORE PUSH1 0x32 PUSH1 0x4 MSTORE PUSH1 0x24 PUSH1 0x0 REVERT JUMPDEST PUSH1 0x20 MUL ADD MLOAD DUP3 PUSH1 0x20 ADD DUP2 DUP2 MSTORE POP POP PUSH1 0x1 DUP3 PUSH1 0x40 ADD DUP2 DUP2 MSTORE POP POP DUP4 PUSH1 0x0 PUSH1 0x2 DUP2 LT PUSH2 0x17C2 JUMPI PUSH32 0x4E487B7100000000000000000000000000000000000000000000000000000000 PUSH1 0x0 MSTORE PUSH1 0x32 PUSH1 0x4 MSTORE PUSH1 0x24 PUSH1 0x0 REVERT JUMPDEST PUSH1 0x20 MUL ADD MLOAD DUP2 PUSH1 0x0 ADD DUP2 DUP2 MSTORE POP POP DUP4 PUSH1 0x1 PUSH1 0x2 DUP2 LT PUSH2 0x180A JUMPI PUSH32 0x4E487B7100000000000000000000000000000000000000000000000000000000 PUSH1 0x0 MSTORE PUSH1 0x32 PUSH1 0x4 MSTORE PUSH1 0x24 PUSH1 0x0 REVERT JUMPDEST PUSH1 0x20 MUL ADD MLOAD DUP2 PUSH1 0x20 ADD DUP2 DUP2 MSTORE POP POP PUSH1 0x1 DUP2 PUSH1 0x40 ADD DUP2 DUP2 MSTORE POP POP PUSH1 0x0 PUSH2 0x182F DUP4 DUP4 PUSH2 0x2629 JUMP JUMPDEST SWAP1 POP PUSH1 0x0 PUSH2 0x1840 DUP3 PUSH1 0x40 ADD MLOAD PUSH2 0x34A8 JUMP JUMPDEST SWAP1 POP PUSH1 0x40 MLOAD DUP1 PUSH1 0x40 ADD PUSH1 0x40 MSTORE DUP1 PUSH32 0x7FFFFFFFFFFFFFFFFFFFFFFFFFFFFFFFFFFFFFFFFFFFFFFFFFFFFFFFFFFFFFED DUP1 PUSH2 0x18A2 JUMPI PUSH32 0x4E487B7100000000000000000000000000000000000000000000000000000000 PUSH1 0x0 MSTORE PUSH1 0x12 PUSH1 0x4 MSTORE PUSH1 0x24 PUSH1 0x0 REVERT JUMPDEST DUP4 DUP6 PUSH1 0x0 ADD MLOAD MULMOD DUP2 MSTORE PUSH1 0x20 ADD PUSH32 0x7FFFFFFFFFFFFFFFFFFFFFFFFFFFFFFFFFFFFFFFFFFFFFFFFFFFFFFFFFFFFFED DUP1 PUSH2 0x1903 JUMPI PUSH32 0x4E487B7100000000000000000000000000000000000000000000000000000000 PUSH1 0x0 MSTORE PUSH1 0x12 PUSH1 0x4 MSTORE PUSH1 0x24 PUSH1 0x0 REVERT JUMPDEST DUP4 DUP6 PUSH1 0x20 ADD MLOAD MULMOD DUP2 MSTORE POP SWAP5 POP POP POP POP POP SWAP3 SWAP2 POP POP JUMP JUMPDEST PUSH1 0x0 PUSH1 0x59 PUSH1 0x0 SWAP1 SLOAD SWAP1 PUSH2 0x100 EXP SWAP1 DIV PUSH20 0xFFFFFFFFFFFFFFFFFFFFFFFFFFFFFFFFFFFFFFFF AND PUSH20 0xFFFFFFFFFFFFFFFFFFFFFFFFFFFFFFFFFFFFFFFF AND CALLER PUSH20 0xFFFFFFFFFFFFFFFFFFFFFFFFFFFFFFFFFFFFFFFF AND EQ PUSH2 0x19AB JUMPI PUSH1 0x40 MLOAD PUSH32 0x8C379A000000000000000000000000000000000000000000000000000000000 DUP2 MSTORE PUSH1 0x4 ADD PUSH2 0x19A2 SWAP1 PUSH2 0x4C55 JUMP JUMPDEST PUSH1 0x40 MLOAD DUP1 SWAP2 SUB SWAP1 REVERT JUMPDEST PUSH1 0x0 PUSH1 0x5A PUSH1 0x0 DUP8 PUSH1 0x40 MLOAD PUSH1 0x20 ADD PUSH2 0x19C2 SWAP2 SWAP1 PUSH2 0x4B5A JUMP JUMPDEST PUSH1 0x40 MLOAD PUSH1 0x20 DUP2 DUP4 SUB SUB DUP2 MSTORE SWAP1 PUSH1 0x40 MSTORE DUP1 MLOAD SWAP1 PUSH1 0x20 ADD KECCAK256 DUP2 MSTORE PUSH1 0x20 ADD SWAP1 DUP2 MSTORE PUSH1 0x20 ADD PUSH1 0x0 KECCAK256 PUSH1 0x0 DUP7 PUSH1 0x40 MLOAD PUSH1 0x20 ADD PUSH2 0x19F9 SWAP2 SWAP1 PUSH2 0x4B5A JUMP JUMPDEST PUSH1 0x40 MLOAD PUSH1 0x20 DUP2 DUP4 SUB SUB DUP2 MSTORE SWAP1 PUSH1 0x40 MSTORE DUP1 MLOAD SWAP1 PUSH1 0x20 ADD KECCAK256 DUP2 MSTORE PUSH1 0x20 ADD SWAP1 DUP2 MSTORE PUSH1 0x20 ADD PUSH1 0x0 KECCAK256 SWAP1 POP DUP4 DUP2 PUSH1 0x0 ADD SWAP1 DUP1 MLOAD SWAP1 PUSH1 0x20 ADD SWAP1 PUSH2 0x1A37 SWAP3 SWAP2 SWAP1 PUSH2 0x3F28 JUMP JUMPDEST POP DUP3 DUP2 PUSH1 0x1 ADD SWAP1 DUP1 MLOAD SWAP1 PUSH1 0x20 ADD SWAP1 PUSH2 0x1A50 SWAP3 SWAP2 SWAP1 PUSH2 0x3F28 JUMP JUMPDEST POP PUSH1 0x1 SWAP2 POP POP SWAP5 SWAP4 POP POP POP POP JUMP JUMPDEST PUSH1 0x0 DUP1 PUSH1 0x0 PUSH1 0x5B PUSH1 0x0 DUP7 PUSH1 0x40 MLOAD PUSH1 0x20 ADD PUSH2 0x1A78 SWAP2 SWAP1 PUSH2 0x4B5A JUMP JUMPDEST PUSH1 0x40 MLOAD PUSH1 0x20 DUP2 DUP4 SUB SUB DUP2 MSTORE SWAP1 PUSH1 0x40 MSTORE DUP1 MLOAD SWAP1 PUSH1 0x20 ADD KECCAK256 DUP2 MSTORE PUSH1 0x20 ADD SWAP1 DUP2 MSTORE PUSH1 0x20 ADD PUSH1 0x0 KECCAK256 PUSH1 0x0 DUP6 PUSH1 0x40 MLOAD PUSH1 0x20 ADD PUSH2 0x1AAF SWAP2 SWAP1 PUSH2 0x4B5A JUMP JUMPDEST PUSH1 0x40 MLOAD PUSH1 0x20 DUP2 DUP4 SUB SUB DUP2 MSTORE SWAP1 PUSH1 0x40 MSTORE DUP1 MLOAD SWAP1 PUSH1 0x20 ADD KECCAK256 DUP2 MSTORE PUSH1 0x20 ADD SWAP1 DUP2 MSTORE PUSH1 0x20 ADD PUSH1 0x0 KECCAK256 PUSH1 0x40 MLOAD DUP1 PUSH1 0x60 ADD PUSH1 0x40 MSTORE SWAP1 DUP2 PUSH1 0x0 DUP3 ADD SLOAD DUP2 MSTORE PUSH1 0x20 ADD PUSH1 0x1 DUP3 ADD SLOAD DUP2 MSTORE PUSH1 0x20 ADD PUSH1 0x2 DUP3 ADD SLOAD DUP2 MSTORE POP POP SWAP1 POP DUP1 PUSH1 0x0 ADD MLOAD DUP2 PUSH1 0x20 ADD MLOAD SWAP3 POP SWAP3 POP POP SWAP3 POP SWAP3 SWAP1 POP JUMP JUMPDEST PUSH1 0x0 DUP1 PUSH1 0x2 DUP5 PUSH1 0x40 MLOAD PUSH2 0x1B27 SWAP2 SWAP1 PUSH2 0x4B43 JUMP JUMPDEST PUSH1 0x20 PUSH1 0x40 MLOAD DUP1 DUP4 SUB DUP2 DUP6 GAS STATICCALL ISZERO DUP1 ISZERO PUSH2 0x1B44 JUMPI RETURNDATASIZE PUSH1 0x0 DUP1 RETURNDATACOPY RETURNDATASIZE PUSH1 0x0 REVERT JUMPDEST POP POP POP PUSH1 0x40 MLOAD RETURNDATASIZE PUSH1 0x1F NOT PUSH1 0x1F DUP3 ADD AND DUP3 ADD DUP1 PUSH1 0x40 MSTORE POP DUP2 ADD SWAP1 PUSH2 0x1B67 SWAP2 SWAP1 PUSH2 0x43F6 JUMP JUMPDEST SWAP1 POP PUSH32 0xFF3010AE5FE3144D9922CF3389B9BF30DA6F991746F58A3177E3427FF9C7EF54 DUP2 DUP5 EQ PUSH1 0x40 MLOAD PUSH2 0x1B9A SWAP2 SWAP1 PUSH2 0x4BC3 JUMP JUMPDEST PUSH1 0x40 MLOAD DUP1 SWAP2 SUB SWAP1 LOG1 PUSH1 0x1 SWAP2 POP POP SWAP3 SWAP2 POP POP JUMP JUMPDEST PUSH1 0x0 DUP1 PUSH1 0x5A PUSH1 0x0 DUP8 PUSH1 0x40 MLOAD PUSH1 0x20 ADD PUSH2 0x1BC5 SWAP2 SWAP1 PUSH2 0x4B5A JUMP JUMPDEST PUSH1 0x40 MLOAD PUSH1 0x20 DUP2 DUP4 SUB SUB DUP2 MSTORE SWAP1 PUSH1 0x40 MSTORE DUP1 MLOAD SWAP1 PUSH1 0x20 ADD KECCAK256 DUP2 MSTORE PUSH1 0x20 ADD SWAP1 DUP2 MSTORE PUSH1 0x20 ADD PUSH1 0x0 KECCAK256 PUSH1 0x0 DUP7 PUSH1 0x40 MLOAD PUSH1 0x20 ADD PUSH2 0x1BFC SWAP2 SWAP1 PUSH2 0x4B5A JUMP JUMPDEST PUSH1 0x40 MLOAD PUSH1 0x20 DUP2 DUP4 SUB SUB DUP2 MSTORE SWAP1 PUSH1 0x40 MSTORE DUP1 MLOAD SWAP1 PUSH1 0x20 ADD KECCAK256 DUP2 MSTORE PUSH1 0x20 ADD SWAP1 DUP2 MSTORE PUSH1 0x20 ADD PUSH1 0x0 KECCAK256 PUSH1 0x40 MLOAD DUP1 PUSH1 0x40 ADD PUSH1 0x40 MSTORE SWAP1 DUP2 PUSH1 0x0 DUP3 ADD DUP1 SLOAD PUSH2 0x1C3B SWAP1 PUSH2 0x51B0 JUMP JUMPDEST DUP1 PUSH1 0x1F ADD PUSH1 0x20 DUP1 SWAP2 DIV MUL PUSH1 0x20 ADD PUSH1 0x40 MLOAD SWAP1 DUP2 ADD PUSH1 0x40 MSTORE DUP1 SWAP3 SWAP2 SWAP1 DUP2 DUP2 MSTORE PUSH1 0x20 ADD DUP3 DUP1 SLOAD PUSH2 0x1C67 SWAP1 PUSH2 0x51B0 JUMP JUMPDEST DUP1 ISZERO PUSH2 0x1CB4 JUMPI DUP1 PUSH1 0x1F LT PUSH2 0x1C89 JUMPI PUSH2 0x100 DUP1 DUP4 SLOAD DIV MUL DUP4 MSTORE SWAP2 PUSH1 0x20 ADD SWAP2 PUSH2 0x1CB4 JUMP JUMPDEST DUP3 ADD SWAP2 SWAP1 PUSH1 0x0 MSTORE PUSH1 0x20 PUSH1 0x0 KECCAK256 SWAP1 JUMPDEST DUP2 SLOAD DUP2 MSTORE SWAP1 PUSH1 0x1 ADD SWAP1 PUSH1 0x20 ADD DUP1 DUP4 GT PUSH2 0x1C97 JUMPI DUP3 SWAP1 SUB PUSH1 0x1F AND DUP3 ADD SWAP2 JUMPDEST POP POP POP POP POP DUP2 MSTORE PUSH1 0x20 ADD PUSH1 0x1 DUP3 ADD DUP1 SLOAD PUSH2 0x1CCD SWAP1 PUSH2 0x51B0 JUMP JUMPDEST DUP1 PUSH1 0x1F ADD PUSH1 0x20 DUP1 SWAP2 DIV MUL PUSH1 0x20 ADD PUSH1 0x40 MLOAD SWAP1 DUP2 ADD PUSH1 0x40 MSTORE DUP1 SWAP3 SWAP2 SWAP1 DUP2 DUP2 MSTORE PUSH1 0x20 ADD DUP3 DUP1 SLOAD PUSH2 0x1CF9 SWAP1 PUSH2 0x51B0 JUMP JUMPDEST DUP1 ISZERO PUSH2 0x1D46 JUMPI DUP1 PUSH1 0x1F LT PUSH2 0x1D1B JUMPI PUSH2 0x100 DUP1 DUP4 SLOAD DIV MUL DUP4 MSTORE SWAP2 PUSH1 0x20 ADD SWAP2 PUSH2 0x1D46 JUMP JUMPDEST DUP3 ADD SWAP2 SWAP1 PUSH1 0x0 MSTORE PUSH1 0x20 PUSH1 0x0 KECCAK256 SWAP1 JUMPDEST DUP2 SLOAD DUP2 MSTORE SWAP1 PUSH1 0x1 ADD SWAP1 PUSH1 0x20 ADD DUP1 DUP4 GT PUSH2 0x1D29 JUMPI DUP3 SWAP1 SUB PUSH1 0x1F AND DUP3 ADD SWAP2 JUMPDEST POP POP POP POP POP DUP2 MSTORE POP POP SWAP1 POP PUSH1 0x0 PUSH1 0x60 PUSH2 0x1D68 DUP7 DUP5 PUSH1 0x0 ADD MLOAD DUP6 PUSH1 0x20 ADD MLOAD PUSH2 0x249E JUMP JUMPDEST DUP1 SWAP3 POP DUP2 SWAP4 POP POP POP PUSH1 0x0 DUP3 DUP1 ISZERO PUSH2 0x1DC3 JUMPI POP PUSH2 0x1D9A PUSH1 0x14 DUP4 MLOAD PUSH2 0x1D8B SWAP2 SWAP1 PUSH2 0x50BC JUMP JUMPDEST DUP4 PUSH2 0x3688 SWAP1 SWAP2 SWAP1 PUSH4 0xFFFFFFFF AND JUMP JUMPDEST PUSH12 0xFFFFFFFFFFFFFFFFFFFFFFFF NOT AND PUSH2 0x1DB2 DUP8 PUSH2 0x36D5 JUMP JUMPDEST PUSH12 0xFFFFFFFFFFFFFFFFFFFFFFFF NOT AND EQ JUMPDEST SWAP1 POP PUSH32 0xFF3010AE5FE3144D9922CF3389B9BF30DA6F991746F58A3177E3427FF9C7EF54 DUP2 PUSH1 0x40 MLOAD PUSH2 0x1DF4 SWAP2 SWAP1 PUSH2 0x4BC3 JUMP JUMPDEST PUSH1 0x40 MLOAD DUP1 SWAP2 SUB SWAP1 LOG1 DUP1 SWAP5 POP POP POP POP POP SWAP5 SWAP4 POP POP POP POP JUMP JUMPDEST PUSH1 0x0 DUP1 PUSH2 0x1E17 DUP5 PUSH2 0x36D5 JUMP JUMPDEST SWAP1 POP PUSH32 0xFF3010AE5FE3144D9922CF3389B9BF30DA6F991746F58A3177E3427FF9C7EF54 DUP2 PUSH12 0xFFFFFFFFFFFFFFFFFFFFFFFF NOT AND DUP5 PUSH12 0xFFFFFFFFFFFFFFFFFFFFFFFF NOT AND EQ PUSH1 0x40 MLOAD PUSH2 0x1E68 SWAP2 SWAP1 PUSH2 0x4BC3 JUMP JUMPDEST PUSH1 0x40 MLOAD DUP1 SWAP2 SUB SWAP1 LOG1 PUSH1 0x1 SWAP2 POP POP SWAP3 SWAP2 POP POP JUMP JUMPDEST PUSH1 0x5B PUSH1 0x20 MSTORE DUP2 PUSH1 0x0 MSTORE PUSH1 0x40 PUSH1 0x0 KECCAK256 PUSH1 0x20 MSTORE DUP1 PUSH1 0x0 MSTORE PUSH1 0x40 PUSH1 0x0 KECCAK256 PUSH1 0x0 SWAP2 POP SWAP2 POP POP DUP1 PUSH1 0x0 ADD SLOAD SWAP1 DUP1 PUSH1 0x1 ADD SLOAD SWAP1 DUP1 PUSH1 0x2 ADD SLOAD SWAP1 POP DUP4 JUMP JUMPDEST PUSH1 0x40 MLOAD PUSH1 0x40 PUSH1 0x2 EXP DUP6 PUSH1 0x0 DUP4 ADD MSTORE DUP5 PUSH1 0x20 DUP4 ADD MSTORE DUP4 PUSH1 0x40 DUP4 ADD MSTORE PUSH1 0x7F PUSH1 0x2 EXP PUSH1 0x80 SHL PUSH2 0x300 OR PUSH1 0x60 DUP4 ADD MSTORE PUSH1 0x80 DUP3 ADD PUSH1 0x40 MSTORE PUSH1 0x0 JUMPDEST PUSH1 0x10 DUP2 LT ISZERO PUSH2 0x1F16 JUMPI PUSH8 0xFFFFFFFFFFFFFFFF PUSH1 0x8 DUP3 MUL PUSH1 0x18 DUP6 SUB ADD MLOAD AND DUP2 PUSH1 0x20 MUL DUP6 ADD MSTORE PUSH1 0x1 DUP2 ADD SWAP1 POP PUSH2 0x1EE7 JUMP JUMPDEST POP PUSH1 0x10 JUMPDEST PUSH1 0x50 DUP2 LT ISZERO PUSH2 0x1FB8 JUMPI PUSH1 0x20 PUSH1 0xF DUP3 SUB MUL DUP5 ADD MLOAD PUSH1 0x20 PUSH1 0x2 DUP4 SUB MUL DUP6 ADD MLOAD PUSH1 0x20 PUSH1 0x10 DUP5 SUB MUL DUP7 ADD MLOAD PUSH1 0x20 PUSH1 0x7 DUP6 SUB MUL DUP8 ADD MLOAD PUSH8 0xFFFFFFFFFFFFFFFF DUP5 PUSH1 0x7 SHR DUP6 PUSH1 0x38 SHL DUP7 PUSH1 0x8 SHR OR DUP7 PUSH1 0x3F SHL DUP8 PUSH1 0x1 SHR OR XOR XOR AND PUSH8 0xFFFFFFFFFFFFFFFF DUP5 PUSH1 0x6 SHR DUP6 PUSH1 0x3 SHL DUP7 PUSH1 0x3D SHR OR DUP7 PUSH1 0x2D SHL DUP8 PUSH1 0x13 SHR OR XOR XOR AND PUSH8 0xFFFFFFFFFFFFFFFF DUP2 DUP5 ADD DUP4 DUP7 ADD ADD AND PUSH1 0x20 DUP9 MUL DUP12 ADD MSTORE POP POP POP POP POP POP PUSH1 0x1 DUP2 ADD SWAP1 POP PUSH2 0x1F1A JUMP JUMPDEST POP POP POP POP POP POP POP JUMP JUMPDEST PUSH1 0x0 DUP1 PUSH1 0x5B PUSH1 0x0 DUP10 PUSH1 0x40 MLOAD PUSH1 0x20 ADD PUSH2 0x1FD9 SWAP2 SWAP1 PUSH2 0x4B5A JUMP JUMPDEST PUSH1 0x40 MLOAD PUSH1 0x20 DUP2 DUP4 SUB SUB DUP2 MSTORE SWAP1 PUSH1 0x40 MSTORE DUP1 MLOAD SWAP1 PUSH1 0x20 ADD KECCAK256 DUP2 MSTORE PUSH1 0x20 ADD SWAP1 DUP2 MSTORE PUSH1 0x20 ADD PUSH1 0x0 KECCAK256 PUSH1 0x0 DUP9 PUSH1 0x40 MLOAD PUSH1 0x20 ADD PUSH2 0x2010 SWAP2 SWAP1 PUSH2 0x4B5A JUMP JUMPDEST PUSH1 0x40 MLOAD PUSH1 0x20 DUP2 DUP4 SUB SUB DUP2 MSTORE SWAP1 PUSH1 0x40 MSTORE DUP1 MLOAD SWAP1 PUSH1 0x20 ADD KECCAK256 DUP2 MSTORE PUSH1 0x20 ADD SWAP1 DUP2 MSTORE PUSH1 0x20 ADD PUSH1 0x0 KECCAK256 PUSH1 0x40 MLOAD DUP1 PUSH1 0x60 ADD PUSH1 0x40 MSTORE SWAP1 DUP2 PUSH1 0x0 DUP3 ADD SLOAD DUP2 MSTORE PUSH1 0x20 ADD PUSH1 0x1 DUP3 ADD SLOAD DUP2 MSTORE PUSH1 0x20 ADD PUSH1 0x2 DUP3 ADD SLOAD DUP2 MSTORE POP POP SWAP1 POP PUSH2 0x2067 PUSH2 0x3F06 JUMP JUMPDEST PUSH1 0x0 PUSH2 0x20CA DUP9 DUP5 PUSH1 0x40 ADD MLOAD PUSH1 0x2 DUP9 PUSH1 0x40 MLOAD PUSH2 0x2082 SWAP2 SWAP1 PUSH2 0x4B43 JUMP JUMPDEST PUSH1 0x20 PUSH1 0x40 MLOAD DUP1 DUP4 SUB DUP2 DUP6 GAS STATICCALL ISZERO DUP1 ISZERO PUSH2 0x209F JUMPI RETURNDATASIZE PUSH1 0x0 DUP1 RETURNDATACOPY RETURNDATASIZE PUSH1 0x0 REVERT JUMPDEST POP POP POP PUSH1 0x40 MLOAD RETURNDATASIZE PUSH1 0x1F NOT PUSH1 0x1F DUP3 ADD AND DUP3 ADD DUP1 PUSH1 0x40 MSTORE POP DUP2 ADD SWAP1 PUSH2 0x20C2 SWAP2 SWAP1 PUSH2 0x43F6 JUMP JUMPDEST PUSH1 0x0 SHR PUSH2 0x4FC JUMP JUMPDEST SWAP1 POP PUSH2 0x20F2 PUSH1 0x40 MLOAD DUP1 PUSH1 0x40 ADD PUSH1 0x40 MSTORE DUP1 DUP6 PUSH1 0x0 ADD MLOAD DUP2 MSTORE PUSH1 0x20 ADD DUP6 PUSH1 0x20 ADD MLOAD DUP2 MSTORE POP DUP3 PUSH2 0xFF6 JUMP JUMPDEST DUP4 PUSH1 0x0 PUSH1 0x2 DUP2 LT PUSH2 0x212C JUMPI PUSH32 0x4E487B7100000000000000000000000000000000000000000000000000000000 PUSH1 0x0 MSTORE PUSH1 0x32 PUSH1 0x4 MSTORE PUSH1 0x24 PUSH1 0x0 REVERT JUMPDEST PUSH1 0x20 MUL ADD DUP5 PUSH1 0x1 PUSH1 0x2 DUP2 LT PUSH2 0x216A JUMPI PUSH32 0x4E487B7100000000000000000000000000000000000000000000000000000000 PUSH1 0x0 MSTORE PUSH1 0x32 PUSH1 0x4 MSTORE PUSH1 0x24 PUSH1 0x0 REVERT JUMPDEST PUSH1 0x20 MUL ADD DUP3 DUP2 MSTORE POP DUP3 DUP2 MSTORE POP POP POP PUSH1 0x0 PUSH2 0x2184 DUP9 DUP5 PUSH2 0x16D5 JUMP JUMPDEST SWAP1 POP PUSH1 0x0 DUP2 PUSH1 0x0 PUSH1 0x2 DUP2 LT PUSH2 0x21C2 JUMPI PUSH32 0x4E487B7100000000000000000000000000000000000000000000000000000000 PUSH1 0x0 MSTORE PUSH1 0x32 PUSH1 0x4 MSTORE PUSH1 0x24 PUSH1 0x0 REVERT JUMPDEST PUSH1 0x20 MUL ADD MLOAD DUP9 PUSH1 0x0 PUSH1 0x2 DUP2 LT PUSH2 0x2201 JUMPI PUSH32 0x4E487B7100000000000000000000000000000000000000000000000000000000 PUSH1 0x0 MSTORE PUSH1 0x32 PUSH1 0x4 MSTORE PUSH1 0x24 PUSH1 0x0 REVERT JUMPDEST PUSH1 0x20 MUL ADD MLOAD EQ DUP1 ISZERO PUSH2 0x228E JUMPI POP DUP2 PUSH1 0x1 PUSH1 0x2 DUP2 LT PUSH2 0x2248 JUMPI PUSH32 0x4E487B7100000000000000000000000000000000000000000000000000000000 PUSH1 0x0 MSTORE PUSH1 0x32 PUSH1 0x4 MSTORE PUSH1 0x24 PUSH1 0x0 REVERT JUMPDEST PUSH1 0x20 MUL ADD MLOAD DUP9 PUSH1 0x1 PUSH1 0x2 DUP2 LT PUSH2 0x2287 JUMPI PUSH32 0x4E487B7100000000000000000000000000000000000000000000000000000000 PUSH1 0x0 MSTORE PUSH1 0x32 PUSH1 0x4 MSTORE PUSH1 0x24 PUSH1 0x0 REVERT JUMPDEST PUSH1 0x20 MUL ADD MLOAD EQ JUMPDEST SWAP1 POP PUSH32 0xFF3010AE5FE3144D9922CF3389B9BF30DA6F991746F58A3177E3427FF9C7EF54 DUP2 PUSH1 0x40 MLOAD PUSH2 0x22BF SWAP2 SWAP1 PUSH2 0x4BC3 JUMP JUMPDEST PUSH1 0x40 MLOAD DUP1 SWAP2 SUB SWAP1 LOG1 DUP1 SWAP6 POP POP POP POP POP POP SWAP7 SWAP6 POP POP POP POP POP POP JUMP JUMPDEST PUSH2 0x22E1 PUSH2 0x3546 JUMP JUMPDEST PUSH1 0x0 PUSH20 0xFFFFFFFFFFFFFFFFFFFFFFFFFFFFFFFFFFFFFFFF AND DUP2 PUSH20 0xFFFFFFFFFFFFFFFFFFFFFFFFFFFFFFFFFFFFFFFF AND EQ ISZERO PUSH2 0x2351 JUMPI PUSH1 0x40 MLOAD PUSH32 0x8C379A000000000000000000000000000000000000000000000000000000000 DUP2 MSTORE PUSH1 0x4 ADD PUSH2 0x2348 SWAP1 PUSH2 0x4C15 JUMP JUMPDEST PUSH1 0x40 MLOAD DUP1 SWAP2 SUB SWAP1 REVERT JUMPDEST PUSH2 0x235A DUP2 PUSH2 0x35C4 JUMP JUMPDEST POP JUMP JUMPDEST PUSH1 0x5A PUSH1 0x20 MSTORE DUP2 PUSH1 0x0 MSTORE PUSH1 0x40 PUSH1 0x0 KECCAK256 PUSH1 0x20 MSTORE DUP1 PUSH1 0x0 MSTORE PUSH1 0x40 PUSH1 0x0 KECCAK256 PUSH1 0x0 SWAP2 POP SWAP2 POP POP DUP1 PUSH1 0x0 ADD DUP1 SLOAD PUSH2 0x238D SWAP1 PUSH2 0x51B0 JUMP JUMPDEST DUP1 PUSH1 0x1F ADD PUSH1 0x20 DUP1 SWAP2 DIV MUL PUSH1 0x20 ADD PUSH1 0x40 MLOAD SWAP1 DUP2 ADD PUSH1 0x40 MSTORE DUP1 SWAP3 SWAP2 SWAP1 DUP2 DUP2 MSTORE PUSH1 0x20 ADD DUP3 DUP1 SLOAD PUSH2 0x23B9 SWAP1 PUSH2 0x51B0 JUMP JUMPDEST DUP1 ISZERO PUSH2 0x2406 JUMPI DUP1 PUSH1 0x1F LT PUSH2 0x23DB JUMPI PUSH2 0x100 DUP1 DUP4 SLOAD DIV MUL DUP4 MSTORE SWAP2 PUSH1 0x20 ADD SWAP2 PUSH2 0x2406 JUMP JUMPDEST DUP3 ADD SWAP2 SWAP1 PUSH1 0x0 MSTORE PUSH1 0x20 PUSH1 0x0 KECCAK256 SWAP1 JUMPDEST DUP2 SLOAD DUP2 MSTORE SWAP1 PUSH1 0x1 ADD SWAP1 PUSH1 0x20 ADD DUP1 DUP4 GT PUSH2 0x23E9 JUMPI DUP3 SWAP1 SUB PUSH1 0x1F AND DUP3 ADD SWAP2 JUMPDEST POP POP POP POP POP SWAP1 DUP1 PUSH1 0x1 ADD DUP1 SLOAD PUSH2 0x241B SWAP1 PUSH2 0x51B0 JUMP JUMPDEST DUP1 PUSH1 0x1F ADD PUSH1 0x20 DUP1 SWAP2 DIV MUL PUSH1 0x20 ADD PUSH1 0x40 MLOAD SWAP1 DUP2 ADD PUSH1 0x40 MSTORE DUP1 SWAP3 SWAP2 SWAP1 DUP2 DUP2 MSTORE PUSH1 0x20 ADD DUP3 DUP1 SLOAD PUSH2 0x2447 SWAP1 PUSH2 0x51B0 JUMP JUMPDEST DUP1 ISZERO PUSH2 0x2494 JUMPI DUP1 PUSH1 0x1F LT PUSH2 0x2469 JUMPI PUSH2 0x100 DUP1 DUP4 SLOAD DIV MUL DUP4 MSTORE SWAP2 PUSH1 0x20 ADD SWAP2 PUSH2 0x2494 JUMP JUMPDEST DUP3 ADD SWAP2 SWAP1 PUSH1 0x0 MSTORE PUSH1 0x20 PUSH1 0x0 KECCAK256 SWAP1 JUMPDEST DUP2 SLOAD DUP2 MSTORE SWAP1 PUSH1 0x1 ADD SWAP1 PUSH1 0x20 ADD DUP1 DUP4 GT PUSH2 0x2477 JUMPI DUP3 SWAP1 SUB PUSH1 0x1F AND DUP3 ADD SWAP2 JUMPDEST POP POP POP POP POP SWAP1 POP DUP3 JUMP JUMPDEST PUSH1 0x0 PUSH1 0x60 PUSH1 0x0 DUP4 MLOAD DUP6 MLOAD DUP8 MLOAD PUSH1 0x60 PUSH2 0x24B6 SWAP2 SWAP1 PUSH2 0x4E9B JUMP JUMPDEST PUSH2 0x24C0 SWAP2 SWAP1 PUSH2 0x4E9B JUMP JUMPDEST PUSH2 0x24CA SWAP2 SWAP1 PUSH2 0x4E9B JUMP JUMPDEST SWAP1 POP PUSH2 0x24D4 PUSH2 0x3FAE JUMP JUMPDEST PUSH2 0x24E7 DUP3 DUP3 PUSH2 0x3BF3 SWAP1 SWAP2 SWAP1 PUSH4 0xFFFFFFFF AND JUMP JUMPDEST POP PUSH2 0x24FF DUP8 MLOAD PUSH1 0x0 SHL DUP3 PUSH2 0x3C5D SWAP1 SWAP2 SWAP1 PUSH4 0xFFFFFFFF AND JUMP JUMPDEST POP PUSH2 0x2517 DUP7 MLOAD PUSH1 0x0 SHL DUP3 PUSH2 0x3C5D SWAP1 SWAP2 SWAP1 PUSH4 0xFFFFFFFF AND JUMP JUMPDEST POP PUSH2 0x252F DUP6 MLOAD PUSH1 0x0 SHL DUP3 PUSH2 0x3C5D SWAP1 SWAP2 SWAP1 PUSH4 0xFFFFFFFF AND JUMP JUMPDEST POP PUSH2 0x2543 DUP8 DUP3 PUSH2 0x3C7F SWAP1 SWAP2 SWAP1 PUSH4 0xFFFFFFFF AND JUMP JUMPDEST POP PUSH2 0x2557 DUP7 DUP3 PUSH2 0x3C7F SWAP1 SWAP2 SWAP1 PUSH4 0xFFFFFFFF AND JUMP JUMPDEST POP PUSH2 0x256B DUP6 DUP3 PUSH2 0x3C7F SWAP1 SWAP2 SWAP1 PUSH4 0xFFFFFFFF AND JUMP JUMPDEST POP DUP5 MLOAD PUSH8 0xFFFFFFFFFFFFFFFF DUP2 GT ISZERO PUSH2 0x25AD JUMPI PUSH32 0x4E487B7100000000000000000000000000000000000000000000000000000000 PUSH1 0x0 MSTORE PUSH1 0x41 PUSH1 0x4 MSTORE PUSH1 0x24 PUSH1 0x0 REVERT JUMPDEST PUSH1 0x40 MLOAD SWAP1 DUP1 DUP3 MSTORE DUP1 PUSH1 0x1F ADD PUSH1 0x1F NOT AND PUSH1 0x20 ADD DUP3 ADD PUSH1 0x40 MSTORE DUP1 ISZERO PUSH2 0x25DF JUMPI DUP2 PUSH1 0x20 ADD PUSH1 0x1 DUP3 MUL DUP1 CALLDATASIZE DUP4 CALLDATACOPY DUP1 DUP3 ADD SWAP2 POP POP SWAP1 POP JUMPDEST POP SWAP3 POP DUP5 MLOAD PUSH1 0x20 DUP5 ADD DUP4 PUSH1 0x20 DUP5 MLOAD ADD PUSH1 0x5 GAS STATICCALL SWAP4 POP POP POP SWAP4 POP SWAP4 SWAP2 POP POP JUMP JUMPDEST PUSH1 0x0 DUP3 MLOAD PUSH1 0x20 DUP4 PUSH2 0x260F SWAP2 SWAP1 PUSH2 0x4E9B JUMP JUMPDEST GT ISZERO PUSH2 0x261A JUMPI PUSH1 0x0 DUP1 REVERT JUMPDEST DUP2 PUSH1 0x20 DUP5 ADD ADD MLOAD SWAP1 POP SWAP3 SWAP2 POP POP JUMP JUMPDEST PUSH2 0x2631 PUSH2 0x3EE5 JUMP JUMPDEST PUSH2 0x2639 PUSH2 0x3FC8 JUMP JUMPDEST PUSH32 0x7FFFFFFFFFFFFFFFFFFFFFFFFFFFFFFFFFFFFFFFFFFFFFFFFFFFFFFFFFFFFFED DUP1 PUSH2 0x268E JUMPI PUSH32 0x4E487B7100000000000000000000000000000000000000000000000000000000 PUSH1 0x0 MSTORE PUSH1 0x12 PUSH1 0x4 MSTORE PUSH1 0x24 PUSH1 0x0 REVERT JUMPDEST DUP4 PUSH1 0x40 ADD MLOAD DUP6 PUSH1 0x40 ADD MLOAD MULMOD DUP2 PUSH1 0x0 ADD DUP2 DUP2 MSTORE POP POP PUSH32 0x7FFFFFFFFFFFFFFFFFFFFFFFFFFFFFFFFFFFFFFFFFFFFFFFFFFFFFFFFFFFFFED DUP1 PUSH2 0x26F7 JUMPI PUSH32 0x4E487B7100000000000000000000000000000000000000000000000000000000 PUSH1 0x0 MSTORE PUSH1 0x12 PUSH1 0x4 MSTORE PUSH1 0x24 PUSH1 0x0 REVERT JUMPDEST DUP2 PUSH1 0x0 ADD MLOAD DUP3 PUSH1 0x0 ADD MLOAD MULMOD DUP2 PUSH1 0x20 ADD DUP2 DUP2 MSTORE POP POP PUSH32 0x7FFFFFFFFFFFFFFFFFFFFFFFFFFFFFFFFFFFFFFFFFFFFFFFFFFFFFFFFFFFFFED DUP1 PUSH2 0x2760 JUMPI PUSH32 0x4E487B7100000000000000000000000000000000000000000000000000000000 PUSH1 0x0 MSTORE PUSH1 0x12 PUSH1 0x4 MSTORE PUSH1 0x24 PUSH1 0x0 REVERT JUMPDEST DUP4 PUSH1 0x0 ADD MLOAD DUP6 PUSH1 0x0 ADD MLOAD MULMOD DUP2 PUSH1 0x40 ADD DUP2 DUP2 MSTORE POP POP PUSH32 0x7FFFFFFFFFFFFFFFFFFFFFFFFFFFFFFFFFFFFFFFFFFFFFFFFFFFFFFFFFFFFFED DUP1 PUSH2 0x27C9 JUMPI PUSH32 0x4E487B7100000000000000000000000000000000000000000000000000000000 PUSH1 0x0 MSTORE PUSH1 0x12 PUSH1 0x4 MSTORE PUSH1 0x24 PUSH1 0x0 REVERT JUMPDEST DUP4 PUSH1 0x20 ADD MLOAD DUP6 PUSH1 0x20 ADD MLOAD MULMOD DUP2 PUSH1 0x60 ADD DUP2 DUP2 MSTORE POP POP PUSH32 0x7FFFFFFFFFFFFFFFFFFFFFFFFFFFFFFFFFFFFFFFFFFFFFFFFFFFFFFFFFFFFFED DUP1 PUSH2 0x2832 JUMPI PUSH32 0x4E487B7100000000000000000000000000000000000000000000000000000000 PUSH1 0x0 MSTORE PUSH1 0x12 PUSH1 0x4 MSTORE PUSH1 0x24 PUSH1 0x0 REVERT JUMPDEST PUSH32 0x7FFFFFFFFFFFFFFFFFFFFFFFFFFFFFFFFFFFFFFFFFFFFFFFFFFFFFFFFFFFFFED DUP1 PUSH2 0x2887 JUMPI PUSH32 0x4E487B7100000000000000000000000000000000000000000000000000000000 PUSH1 0x0 MSTORE PUSH1 0x12 PUSH1 0x4 MSTORE PUSH1 0x24 PUSH1 0x0 REVERT JUMPDEST DUP3 PUSH1 0x60 ADD MLOAD DUP4 PUSH1 0x40 ADD MLOAD MULMOD PUSH32 0x52036CEE2B6FFE738CC740797779E89800700A4D4141D8AB75EB4DCA135978A3 MULMOD DUP2 PUSH1 0x80 ADD DUP2 DUP2 MSTORE POP POP PUSH32 0x7FFFFFFFFFFFFFFFFFFFFFFFFFFFFFFFFFFFFFFFFFFFFFFFFFFFFFFFFFFFFFED DUP1 PUSH2 0x2912 JUMPI PUSH32 0x4E487B7100000000000000000000000000000000000000000000000000000000 PUSH1 0x0 MSTORE PUSH1 0x12 PUSH1 0x4 MSTORE PUSH1 0x24 PUSH1 0x0 REVERT JUMPDEST DUP2 PUSH1 0x80 ADD MLOAD PUSH32 0x7FFFFFFFFFFFFFFFFFFFFFFFFFFFFFFFFFFFFFFFFFFFFFFFFFFFFFFFFFFFFFED PUSH2 0x2942 SWAP2 SWAP1 PUSH2 0x50BC JUMP JUMPDEST DUP3 PUSH1 0x20 ADD MLOAD ADDMOD DUP2 PUSH1 0xA0 ADD DUP2 DUP2 MSTORE POP POP PUSH32 0x7FFFFFFFFFFFFFFFFFFFFFFFFFFFFFFFFFFFFFFFFFFFFFFFFFFFFFFFFFFFFFED DUP1 PUSH2 0x29A6 JUMPI PUSH32 0x4E487B7100000000000000000000000000000000000000000000000000000000 PUSH1 0x0 MSTORE PUSH1 0x12 PUSH1 0x4 MSTORE PUSH1 0x24 PUSH1 0x0 REVERT JUMPDEST DUP2 PUSH1 0x80 ADD MLOAD DUP3 PUSH1 0x20 ADD MLOAD ADDMOD DUP2 PUSH1 0xC0 ADD DUP2 DUP2 MSTORE POP POP PUSH32 0x7FFFFFFFFFFFFFFFFFFFFFFFFFFFFFFFFFFFFFFFFFFFFFFFFFFFFFFFFFFFFFED DUP1 PUSH2 0x2A0F JUMPI PUSH32 0x4E487B7100000000000000000000000000000000000000000000000000000000 PUSH1 0x0 MSTORE PUSH1 0x12 PUSH1 0x4 MSTORE PUSH1 0x24 PUSH1 0x0 REVERT JUMPDEST PUSH32 0x7FFFFFFFFFFFFFFFFFFFFFFFFFFFFFFFFFFFFFFFFFFFFFFFFFFFFFFFFFFFFFED DUP1 PUSH2 0x2A64 JUMPI PUSH32 0x4E487B7100000000000000000000000000000000000000000000000000000000 PUSH1 0x0 MSTORE PUSH1 0x12 PUSH1 0x4 MSTORE PUSH1 0x24 PUSH1 0x0 REVERT JUMPDEST DUP3 PUSH1 0x60 ADD MLOAD PUSH32 0x7FFFFFFFFFFFFFFFFFFFFFFFFFFFFFFFFFFFFFFFFFFFFFFFFFFFFFFFFFFFFFED PUSH2 0x2A94 SWAP2 SWAP1 PUSH2 0x50BC JUMP JUMPDEST PUSH32 0x7FFFFFFFFFFFFFFFFFFFFFFFFFFFFFFFFFFFFFFFFFFFFFFFFFFFFFFFFFFFFFED DUP1 PUSH2 0x2AE9 JUMPI PUSH32 0x4E487B7100000000000000000000000000000000000000000000000000000000 PUSH1 0x0 MSTORE PUSH1 0x12 PUSH1 0x4 MSTORE PUSH1 0x24 PUSH1 0x0 REVERT JUMPDEST DUP5 PUSH1 0x40 ADD MLOAD PUSH32 0x7FFFFFFFFFFFFFFFFFFFFFFFFFFFFFFFFFFFFFFFFFFFFFFFFFFFFFFFFFFFFFED PUSH2 0x2B19 SWAP2 SWAP1 PUSH2 0x50BC JUMP JUMPDEST PUSH32 0x7FFFFFFFFFFFFFFFFFFFFFFFFFFFFFFFFFFFFFFFFFFFFFFFFFFFFFFFFFFFFFED DUP1 PUSH2 0x2B6E JUMPI PUSH32 0x4E487B7100000000000000000000000000000000000000000000000000000000 PUSH1 0x0 MSTORE PUSH1 0x12 PUSH1 0x4 MSTORE PUSH1 0x24 PUSH1 0x0 REVERT JUMPDEST PUSH32 0x7FFFFFFFFFFFFFFFFFFFFFFFFFFFFFFFFFFFFFFFFFFFFFFFFFFFFFFFFFFFFFED DUP1 PUSH2 0x2BC3 JUMPI PUSH32 0x4E487B7100000000000000000000000000000000000000000000000000000000 PUSH1 0x0 MSTORE PUSH1 0x12 PUSH1 0x4 MSTORE PUSH1 0x24 PUSH1 0x0 REVERT JUMPDEST DUP10 PUSH1 0x20 ADD MLOAD DUP11 PUSH1 0x0 ADD MLOAD ADDMOD PUSH32 0x7FFFFFFFFFFFFFFFFFFFFFFFFFFFFFFFFFFFFFFFFFFFFFFFFFFFFFFFFFFFFFED DUP1 PUSH2 0x2C23 JUMPI PUSH32 0x4E487B7100000000000000000000000000000000000000000000000000000000 PUSH1 0x0 MSTORE PUSH1 0x12 PUSH1 0x4 MSTORE PUSH1 0x24 PUSH1 0x0 REVERT JUMPDEST DUP12 PUSH1 0x20 ADD MLOAD DUP13 PUSH1 0x0 ADD MLOAD ADDMOD MULMOD ADDMOD ADDMOD PUSH32 0x7FFFFFFFFFFFFFFFFFFFFFFFFFFFFFFFFFFFFFFFFFFFFFFFFFFFFFFFFFFFFFED DUP1 PUSH2 0x2C86 JUMPI PUSH32 0x4E487B7100000000000000000000000000000000000000000000000000000000 PUSH1 0x0 MSTORE PUSH1 0x12 PUSH1 0x4 MSTORE PUSH1 0x24 PUSH1 0x0 REVERT JUMPDEST DUP4 PUSH1 0xA0 ADD MLOAD DUP5 PUSH1 0x0 ADD MLOAD MULMOD MULMOD DUP3 PUSH1 0x0 ADD DUP2 DUP2 MSTORE POP POP PUSH32 0x7FFFFFFFFFFFFFFFFFFFFFFFFFFFFFFFFFFFFFFFFFFFFFFFFFFFFFFFFFFFFFED DUP1 PUSH2 0x2CF0 JUMPI PUSH32 0x4E487B7100000000000000000000000000000000000000000000000000000000 PUSH1 0x0 MSTORE PUSH1 0x12 PUSH1 0x4 MSTORE PUSH1 0x24 PUSH1 0x0 REVERT JUMPDEST PUSH32 0x7FFFFFFFFFFFFFFFFFFFFFFFFFFFFFFFFFFFFFFFFFFFFFFFFFFFFFFFFFFFFFED DUP1 PUSH2 0x2D45 JUMPI PUSH32 0x4E487B7100000000000000000000000000000000000000000000000000000000 PUSH1 0x0 MSTORE PUSH1 0x12 PUSH1 0x4 MSTORE PUSH1 0x24 PUSH1 0x0 REVERT JUMPDEST DUP3 PUSH1 0x40 ADD MLOAD DUP4 PUSH1 0x60 ADD MLOAD ADDMOD PUSH32 0x7FFFFFFFFFFFFFFFFFFFFFFFFFFFFFFFFFFFFFFFFFFFFFFFFFFFFFFFFFFFFFED DUP1 PUSH2 0x2DA5 JUMPI PUSH32 0x4E487B7100000000000000000000000000000000000000000000000000000000 PUSH1 0x0 MSTORE PUSH1 0x12 PUSH1 0x4 MSTORE PUSH1 0x24 PUSH1 0x0 REVERT JUMPDEST DUP4 PUSH1 0xC0 ADD MLOAD DUP5 PUSH1 0x0 ADD MLOAD MULMOD MULMOD DUP3 PUSH1 0x20 ADD DUP2 DUP2 MSTORE POP POP PUSH32 0x7FFFFFFFFFFFFFFFFFFFFFFFFFFFFFFFFFFFFFFFFFFFFFFFFFFFFFFFFFFFFFED DUP1 PUSH2 0x2E0F JUMPI PUSH32 0x4E487B7100000000000000000000000000000000000000000000000000000000 PUSH1 0x0 MSTORE PUSH1 0x12 PUSH1 0x4 MSTORE PUSH1 0x24 PUSH1 0x0 REVERT JUMPDEST DUP2 PUSH1 0xC0 ADD MLOAD DUP3 PUSH1 0xA0 ADD MLOAD MULMOD DUP3 PUSH1 0x40 ADD DUP2 DUP2 MSTORE POP POP POP SWAP3 SWAP2 POP POP JUMP JUMPDEST PUSH2 0x2E32 PUSH2 0x3EE5 JUMP JUMPDEST PUSH2 0x2E3A PUSH2 0x3FC8 JUMP JUMPDEST PUSH32 0x7FFFFFFFFFFFFFFFFFFFFFFFFFFFFFFFFFFFFFFFFFFFFFFFFFFFFFFFFFFFFFED DUP1 PUSH2 0x2E8F JUMPI PUSH32 0x4E487B7100000000000000000000000000000000000000000000000000000000 PUSH1 0x0 MSTORE PUSH1 0x12 PUSH1 0x4 MSTORE PUSH1 0x24 PUSH1 0x0 REVERT JUMPDEST DUP4 PUSH1 0x20 ADD MLOAD DUP5 PUSH1 0x0 ADD MLOAD ADDMOD DUP2 PUSH1 0x0 ADD DUP2 DUP2 MSTORE POP POP PUSH32 0x7FFFFFFFFFFFFFFFFFFFFFFFFFFFFFFFFFFFFFFFFFFFFFFFFFFFFFFFFFFFFFED DUP1 PUSH2 0x2EF8 JUMPI PUSH32 0x4E487B7100000000000000000000000000000000000000000000000000000000 PUSH1 0x0 MSTORE PUSH1 0x12 PUSH1 0x4 MSTORE PUSH1 0x24 PUSH1 0x0 REVERT JUMPDEST DUP2 PUSH1 0x0 ADD MLOAD DUP3 PUSH1 0x0 ADD MLOAD MULMOD DUP2 PUSH1 0x20 ADD DUP2 DUP2 MSTORE POP POP PUSH32 0x7FFFFFFFFFFFFFFFFFFFFFFFFFFFFFFFFFFFFFFFFFFFFFFFFFFFFFFFFFFFFFED DUP1 PUSH2 0x2F61 JUMPI PUSH32 0x4E487B7100000000000000000000000000000000000000000000000000000000 PUSH1 0x0 MSTORE PUSH1 0x12 PUSH1 0x4 MSTORE PUSH1 0x24 PUSH1 0x0 REVERT JUMPDEST DUP4 PUSH1 0x0 ADD MLOAD DUP5 PUSH1 0x0 ADD MLOAD MULMOD DUP2 PUSH1 0x40 ADD DUP2 DUP2 MSTORE POP POP PUSH32 0x7FFFFFFFFFFFFFFFFFFFFFFFFFFFFFFFFFFFFFFFFFFFFFFFFFFFFFFFFFFFFFED DUP1 PUSH2 0x2FCA JUMPI PUSH32 0x4E487B7100000000000000000000000000000000000000000000000000000000 PUSH1 0x0 MSTORE PUSH1 0x12 PUSH1 0x4 MSTORE PUSH1 0x24 PUSH1 0x0 REVERT JUMPDEST DUP4 PUSH1 0x20 ADD MLOAD DUP5 PUSH1 0x20 ADD MLOAD MULMOD DUP2 PUSH1 0x60 ADD DUP2 DUP2 MSTORE POP POP DUP1 PUSH1 0x40 ADD MLOAD PUSH32 0x7FFFFFFFFFFFFFFFFFFFFFFFFFFFFFFFFFFFFFFFFFFFFFFFFFFFFFFFFFFFFFED PUSH2 0x300E SWAP2 SWAP1 PUSH2 0x50BC JUMP JUMPDEST DUP2 PUSH1 0x80 ADD DUP2 DUP2 MSTORE POP POP PUSH32 0x7FFFFFFFFFFFFFFFFFFFFFFFFFFFFFFFFFFFFFFFFFFFFFFFFFFFFFFFFFFFFFED DUP1 PUSH2 0x306C JUMPI PUSH32 0x4E487B7100000000000000000000000000000000000000000000000000000000 PUSH1 0x0 MSTORE PUSH1 0x12 PUSH1 0x4 MSTORE PUSH1 0x24 PUSH1 0x0 REVERT JUMPDEST DUP2 PUSH1 0x60 ADD MLOAD DUP3 PUSH1 0x80 ADD MLOAD ADDMOD DUP2 PUSH1 0xA0 ADD DUP2 DUP2 MSTORE POP POP PUSH32 0x7FFFFFFFFFFFFFFFFFFFFFFFFFFFFFFFFFFFFFFFFFFFFFFFFFFFFFFFFFFFFFED DUP1 PUSH2 0x30D5 JUMPI PUSH32 0x4E487B7100000000000000000000000000000000000000000000000000000000 PUSH1 0x0 MSTORE PUSH1 0x12 PUSH1 0x4 MSTORE PUSH1 0x24 PUSH1 0x0 REVERT JUMPDEST DUP4 PUSH1 0x40 ADD MLOAD DUP5 PUSH1 0x40 ADD MLOAD MULMOD DUP2 PUSH1 0xE0 ADD DUP2 DUP2 MSTORE POP POP PUSH32 0x7FFFFFFFFFFFFFFFFFFFFFFFFFFFFFFFFFFFFFFFFFFFFFFFFFFFFFFFFFFFFFED DUP1 PUSH2 0x313E JUMPI PUSH32 0x4E487B7100000000000000000000000000000000000000000000000000000000 PUSH1 0x0 MSTORE PUSH1 0x12 PUSH1 0x4 MSTORE PUSH1 0x24 PUSH1 0x0 REVERT JUMPDEST PUSH32 0x7FFFFFFFFFFFFFFFFFFFFFFFFFFFFFFFFFFFFFFFFFFFFFFFFFFFFFFFFFFFFFED DUP1 PUSH2 0x3193 JUMPI PUSH32 0x4E487B7100000000000000000000000000000000000000000000000000000000 PUSH1 0x0 MSTORE PUSH1 0x12 PUSH1 0x4 MSTORE PUSH1 0x24 PUSH1 0x0 REVERT JUMPDEST DUP3 PUSH1 0xE0 ADD MLOAD PUSH1 0x2 MULMOD PUSH32 0x7FFFFFFFFFFFFFFFFFFFFFFFFFFFFFFFFFFFFFFFFFFFFFFFFFFFFFFFFFFFFFED PUSH2 0x31C6 SWAP2 SWAP1 PUSH2 0x50BC JUMP JUMPDEST DUP3 PUSH1 0xA0 ADD MLOAD ADDMOD DUP2 PUSH1 0xC0 ADD DUP2 DUP2 MSTORE POP POP PUSH32 0x7FFFFFFFFFFFFFFFFFFFFFFFFFFFFFFFFFFFFFFFFFFFFFFFFFFFFFFFFFFFFFED DUP1 PUSH2 0x322A JUMPI PUSH32 0x4E487B7100000000000000000000000000000000000000000000000000000000 PUSH1 0x0 MSTORE PUSH1 0x12 PUSH1 0x4 MSTORE PUSH1 0x24 PUSH1 0x0 REVERT JUMPDEST DUP2 PUSH1 0xC0 ADD MLOAD PUSH32 0x7FFFFFFFFFFFFFFFFFFFFFFFFFFFFFFFFFFFFFFFFFFFFFFFFFFFFFFFFFFFFFED DUP1 PUSH2 0x3284 JUMPI PUSH32 0x4E487B7100000000000000000000000000000000000000000000000000000000 PUSH1 0x0 MSTORE PUSH1 0x12 PUSH1 0x4 MSTORE PUSH1 0x24 PUSH1 0x0 REVERT JUMPDEST DUP4 PUSH1 0x60 ADD MLOAD PUSH32 0x7FFFFFFFFFFFFFFFFFFFFFFFFFFFFFFFFFFFFFFFFFFFFFFFFFFFFFFFFFFFFFED PUSH2 0x32B4 SWAP2 SWAP1 PUSH2 0x50BC JUMP JUMPDEST PUSH32 0x7FFFFFFFFFFFFFFFFFFFFFFFFFFFFFFFFFFFFFFFFFFFFFFFFFFFFFFFFFFFFFED DUP1 PUSH2 0x3309 JUMPI PUSH32 0x4E487B7100000000000000000000000000000000000000000000000000000000 PUSH1 0x0 MSTORE PUSH1 0x12 PUSH1 0x4 MSTORE PUSH1 0x24 PUSH1 0x0 REVERT JUMPDEST DUP6 PUSH1 0x40 ADD MLOAD PUSH32 0x7FFFFFFFFFFFFFFFFFFFFFFFFFFFFFFFFFFFFFFFFFFFFFFFFFFFFFFFFFFFFFED PUSH2 0x3339 SWAP2 SWAP1 PUSH2 0x50BC JUMP JUMPDEST DUP7 PUSH1 0x20 ADD MLOAD ADDMOD ADDMOD MULMOD DUP3 PUSH1 0x0 ADD DUP2 DUP2 MSTORE POP POP PUSH32 0x7FFFFFFFFFFFFFFFFFFFFFFFFFFFFFFFFFFFFFFFFFFFFFFFFFFFFFFFFFFFFFED DUP1 PUSH2 0x339F JUMPI PUSH32 0x4E487B7100000000000000000000000000000000000000000000000000000000 PUSH1 0x0 MSTORE PUSH1 0x12 PUSH1 0x4 MSTORE PUSH1 0x24 PUSH1 0x0 REVERT JUMPDEST PUSH32 0x7FFFFFFFFFFFFFFFFFFFFFFFFFFFFFFFFFFFFFFFFFFFFFFFFFFFFFFFFFFFFFED DUP1 PUSH2 0x33F4 JUMPI PUSH32 0x4E487B7100000000000000000000000000000000000000000000000000000000 PUSH1 0x0 MSTORE PUSH1 0x12 PUSH1 0x4 MSTORE PUSH1 0x24 PUSH1 0x0 REVERT JUMPDEST DUP3 PUSH1 0x60 ADD MLOAD PUSH32 0x7FFFFFFFFFFFFFFFFFFFFFFFFFFFFFFFFFFFFFFFFFFFFFFFFFFFFFFFFFFFFFED PUSH2 0x3424 SWAP2 SWAP1 PUSH2 0x50BC JUMP JUMPDEST DUP4 PUSH1 0x80 ADD MLOAD ADDMOD DUP3 PUSH1 0xA0 ADD MLOAD MULMOD DUP3 PUSH1 0x20 ADD DUP2 DUP2 MSTORE POP POP PUSH32 0x7FFFFFFFFFFFFFFFFFFFFFFFFFFFFFFFFFFFFFFFFFFFFFFFFFFFFFFFFFFFFFED DUP1 PUSH2 0x348E JUMPI PUSH32 0x4E487B7100000000000000000000000000000000000000000000000000000000 PUSH1 0x0 MSTORE PUSH1 0x12 PUSH1 0x4 MSTORE PUSH1 0x24 PUSH1 0x0 REVERT JUMPDEST DUP2 PUSH1 0xC0 ADD MLOAD DUP3 PUSH1 0xA0 ADD MLOAD MULMOD DUP3 PUSH1 0x40 ADD DUP2 DUP2 MSTORE POP POP POP SWAP2 SWAP1 POP JUMP JUMPDEST PUSH1 0x0 DUP1 PUSH1 0x2 PUSH32 0x7FFFFFFFFFFFFFFFFFFFFFFFFFFFFFFFFFFFFFFFFFFFFFFFFFFFFFFFFFFFFFED PUSH2 0x34D8 SWAP2 SWAP1 PUSH2 0x50BC JUMP JUMPDEST SWAP1 POP PUSH1 0x0 PUSH32 0x7FFFFFFFFFFFFFFFFFFFFFFFFFFFFFFFFFFFFFFFFFFFFFFFFFFFFFFFFFFFFFED SWAP1 POP PUSH1 0x40 MLOAD PUSH1 0x20 DUP2 MSTORE PUSH1 0x20 DUP1 DUP3 ADD MSTORE PUSH1 0x20 PUSH1 0x40 DUP3 ADD MSTORE DUP5 PUSH1 0x60 DUP3 ADD MSTORE DUP3 PUSH1 0x80 DUP3 ADD MSTORE DUP2 PUSH1 0xA0 DUP3 ADD MSTORE PUSH1 0x20 DUP2 PUSH1 0xC0 DUP4 PUSH1 0x5 PUSH1 0x0 NOT STATICCALL PUSH2 0x353A JUMPI PUSH1 0x0 DUP1 REVERT JUMPDEST DUP1 MLOAD SWAP4 POP POP POP POP SWAP2 SWAP1 POP JUMP JUMPDEST PUSH2 0x354E PUSH2 0x3CA1 JUMP JUMPDEST PUSH20 0xFFFFFFFFFFFFFFFFFFFFFFFFFFFFFFFFFFFFFFFF AND PUSH2 0x356C PUSH2 0x16AC JUMP JUMPDEST PUSH20 0xFFFFFFFFFFFFFFFFFFFFFFFFFFFFFFFFFFFFFFFF AND EQ PUSH2 0x35C2 JUMPI PUSH1 0x40 MLOAD PUSH32 0x8C379A000000000000000000000000000000000000000000000000000000000 DUP2 MSTORE PUSH1 0x4 ADD PUSH2 0x35B9 SWAP1 PUSH2 0x4C35 JUMP JUMPDEST PUSH1 0x40 MLOAD DUP1 SWAP2 SUB SWAP1 REVERT JUMPDEST JUMP JUMPDEST PUSH1 0x0 DUP1 PUSH1 0x0 SWAP1 SLOAD SWAP1 PUSH2 0x100 EXP SWAP1 DIV PUSH20 0xFFFFFFFFFFFFFFFFFFFFFFFFFFFFFFFFFFFFFFFF AND SWAP1 POP DUP2 PUSH1 0x0 DUP1 PUSH2 0x100 EXP DUP2 SLOAD DUP2 PUSH20 0xFFFFFFFFFFFFFFFFFFFFFFFFFFFFFFFFFFFFFFFF MUL NOT AND SWAP1 DUP4 PUSH20 0xFFFFFFFFFFFFFFFFFFFFFFFFFFFFFFFFFFFFFFFF AND MUL OR SWAP1 SSTORE POP DUP2 PUSH20 0xFFFFFFFFFFFFFFFFFFFFFFFFFFFFFFFFFFFFFFFF AND DUP2 PUSH20 0xFFFFFFFFFFFFFFFFFFFFFFFFFFFFFFFFFFFFFFFF AND PUSH32 0x8BE0079C531659141344CD1FD0A4F28419497F9722A3DAAFE3B4186F6B6457E0 PUSH1 0x40 MLOAD PUSH1 0x40 MLOAD DUP1 SWAP2 SUB SWAP1 LOG3 POP POP JUMP JUMPDEST PUSH1 0x0 DUP3 MLOAD PUSH1 0x14 DUP4 PUSH2 0x3699 SWAP2 SWAP1 PUSH2 0x4E9B JUMP JUMPDEST GT ISZERO PUSH2 0x36A4 JUMPI PUSH1 0x0 DUP1 REVERT JUMPDEST PUSH32 0xFFFFFFFFFFFFFFFFFFFFFFFFFFFFFFFFFFFFFFFF000000000000000000000000 DUP3 PUSH1 0x20 DUP6 ADD ADD MLOAD AND SWAP1 POP SWAP3 SWAP2 POP POP JUMP JUMPDEST PUSH1 0x0 PUSH1 0x40 MLOAD DUP3 MLOAD PUSH1 0x20 DUP5 ADD SWAP4 POP PUSH1 0x40 PUSH8 0xFFFFFFFFFFFFFFC0 PUSH1 0x1 DUP4 ADD AND ADD PUSH1 0x9 DUP3 DUP3 SUB LT PUSH1 0x1 DUP2 EQ PUSH2 0x3706 JUMPI PUSH2 0x370D JUMP JUMPDEST PUSH1 0x40 DUP3 ADD SWAP2 POP JUMPDEST POP PUSH24 0x6745230100EFCDAB890098BADCFE001032547600C3D2E1F0 PUSH2 0x3765 JUMP JUMPDEST PUSH1 0x0 DUP4 DUP4 LT ISZERO PUSH2 0x375E JUMPI DUP3 DUP3 ADD MLOAD SWAP1 POP DUP3 DUP5 SUB SWAP4 POP PUSH1 0x20 DUP5 LT ISZERO PUSH2 0x375D JUMPI PUSH1 0x1 DUP5 PUSH1 0x20 SUB PUSH2 0x100 EXP SUB NOT DUP1 DUP3 AND SWAP2 POP POP JUMPDEST JUMPDEST SWAP4 SWAP3 POP POP POP JUMP JUMPDEST PUSH1 0x0 JUMPDEST DUP3 DUP2 LT ISZERO PUSH2 0x3B73 JUMPI PUSH2 0x377B DUP5 DUP3 DUP10 PUSH2 0x372C JUMP JUMPDEST DUP6 MSTORE PUSH2 0x378B DUP5 PUSH1 0x20 DUP4 ADD DUP10 PUSH2 0x372C JUMP JUMPDEST PUSH1 0x20 DUP7 ADD MSTORE PUSH1 0x40 DUP2 DUP6 SUB LT PUSH1 0x1 DUP2 EQ PUSH2 0x37A3 JUMPI PUSH2 0x37AC JUMP JUMPDEST PUSH1 0x80 DUP3 DUP7 SUB DUP8 ADD MSTORE8 JUMPDEST POP PUSH1 0x40 DUP4 SUB DUP2 EQ PUSH1 0x1 DUP2 EQ PUSH2 0x37C0 JUMPI PUSH2 0x37D0 JUMP JUMPDEST PUSH1 0x8 DUP6 MUL PUSH1 0x20 DUP8 ADD MLOAD OR PUSH1 0x20 DUP8 ADD MSTORE JUMPDEST POP PUSH1 0x40 JUMPDEST PUSH1 0x80 DUP2 LT ISZERO PUSH2 0x385C JUMPI PUSH1 0x40 DUP2 SUB DUP7 ADD MLOAD PUSH1 0x38 DUP3 SUB DUP8 ADD MLOAD XOR PUSH1 0x20 DUP3 SUB DUP8 ADD MLOAD PUSH1 0xC DUP4 SUB DUP9 ADD MLOAD XOR XOR PUSH29 0x100000001000000010000000100000001000000010000000100000001 PUSH4 0x80000000 DUP3 DIV AND PUSH32 0xFFFFFFFEFFFFFFFEFFFFFFFEFFFFFFFEFFFFFFFEFFFFFFFEFFFFFFFEFFFFFFFE PUSH1 0x2 DUP4 MUL AND OR SWAP1 POP DUP1 DUP3 DUP9 ADD MSTORE POP PUSH1 0xC DUP2 ADD SWAP1 POP PUSH2 0x37D4 JUMP JUMPDEST POP PUSH1 0x80 JUMPDEST PUSH2 0x140 DUP2 LT ISZERO PUSH2 0x38E9 JUMPI PUSH1 0x80 DUP2 SUB DUP7 ADD MLOAD PUSH1 0x70 DUP3 SUB DUP8 ADD MLOAD XOR PUSH1 0x40 DUP3 SUB DUP8 ADD MLOAD PUSH1 0x18 DUP4 SUB DUP9 ADD MLOAD XOR XOR PUSH29 0x300000003000000030000000300000003000000030000000300000003 PUSH4 0x40000000 DUP3 DIV AND PUSH32 0xFFFFFFFCFFFFFFFCFFFFFFFCFFFFFFFCFFFFFFFCFFFFFFFCFFFFFFFCFFFFFFFC PUSH1 0x4 DUP4 MUL AND OR SWAP1 POP DUP1 DUP3 DUP9 ADD MSTORE POP PUSH1 0x18 DUP2 ADD SWAP1 POP PUSH2 0x3860 JUMP JUMPDEST POP DUP2 PUSH1 0x0 DUP1 PUSH1 0x0 JUMPDEST PUSH1 0x50 DUP2 LT ISZERO PUSH2 0x3B45 JUMPI PUSH1 0x14 DUP2 DIV PUSH1 0x0 DUP2 EQ PUSH2 0x3923 JUMPI PUSH1 0x1 DUP2 EQ PUSH2 0x396D JUMPI PUSH1 0x2 DUP2 EQ PUSH2 0x39AA JUMPI PUSH1 0x3 DUP2 EQ PUSH2 0x3A0D JUMPI PUSH2 0x3A46 JUMP JUMPDEST PUSH6 0x10000000000 DUP6 DIV PUSH11 0x100000000000000000000 DUP7 DIV XOR SWAP4 POP DUP4 PUSH16 0x1000000000000000000000000000000 DUP7 DIV AND SWAP4 POP DUP4 PUSH6 0x10000000000 DUP7 DIV XOR SWAP4 POP PUSH4 0x5A827999 SWAP3 POP PUSH2 0x3A46 JUMP JUMPDEST PUSH11 0x100000000000000000000 DUP6 DIV PUSH16 0x1000000000000000000000000000000 DUP7 DIV XOR SWAP4 POP DUP4 PUSH6 0x10000000000 DUP7 DIV XOR SWAP4 POP PUSH4 0x6ED9EBA1 SWAP3 POP PUSH2 0x3A46 JUMP JUMPDEST PUSH11 0x100000000000000000000 DUP6 DIV PUSH16 0x1000000000000000000000000000000 DUP7 DIV OR SWAP4 POP DUP4 PUSH6 0x10000000000 DUP7 DIV AND SWAP4 POP DUP4 PUSH11 0x100000000000000000000 DUP7 DIV PUSH16 0x1000000000000000000000000000000 DUP8 DIV AND OR SWAP4 POP PUSH4 0x8F1BBCDC SWAP3 POP PUSH2 0x3A46 JUMP JUMPDEST PUSH11 0x100000000000000000000 DUP6 DIV PUSH16 0x1000000000000000000000000000000 DUP7 DIV XOR SWAP4 POP DUP4 PUSH6 0x10000000000 DUP7 DIV XOR SWAP4 POP PUSH4 0xCA62C1D6 SWAP3 POP JUMPDEST POP PUSH1 0x1F PUSH24 0x80000000000000000000000000000000000000000000000 DUP6 DIV AND DUP1 PUSH4 0xFFFFFFE0 PUSH20 0x800000000000000000000000000000000000000 DUP8 DIV AND OR SWAP1 POP DUP1 DUP5 ADD SWAP1 POP DUP1 PUSH4 0xFFFFFFFF DUP7 AND ADD SWAP1 POP DUP1 DUP4 ADD SWAP1 POP DUP1 PUSH29 0x100000000000000000000000000000000000000000000000000000000 PUSH1 0x4 DUP5 MUL DUP13 ADD MLOAD DIV ADD SWAP1 POP PUSH21 0x10000000000000000000000000000000000000000 DUP2 MUL PUSH6 0x10000000000 DUP7 DIV OR SWAP5 POP PUSH11 0x100000000000000000000 PUSH4 0x3FFFFFFF PUSH11 0x400000000000000000000 DUP8 DIV AND PUSH4 0xC0000000 PUSH7 0x4000000000000 DUP9 DIV AND OR MUL PUSH24 0xFFFFFFFF00FFFFFFFF000000000000FFFFFFFF00FFFFFFFF DUP7 AND OR SWAP5 POP POP PUSH1 0x1 DUP2 ADD SWAP1 POP PUSH2 0x38F1 JUMP JUMPDEST POP PUSH24 0xFFFFFFFF00FFFFFFFF00FFFFFFFF00FFFFFFFF00FFFFFFFF DUP4 DUP7 ADD AND SWAP5 POP POP POP POP PUSH1 0x40 DUP2 ADD SWAP1 POP PUSH2 0x3768 JUMP JUMPDEST POP PUSH13 0x1000000000000000000000000 PUSH4 0xFFFFFFFF DUP3 AND PUSH8 0xFFFFFFFF00000000 PUSH2 0x100 DUP5 DIV AND PUSH12 0xFFFFFFFF0000000000000000 PUSH3 0x10000 DUP6 DIV AND PUSH16 0xFFFFFFFF000000000000000000000000 PUSH4 0x1000000 DUP7 DIV AND PUSH20 0xFFFFFFFF00000000000000000000000000000000 PUSH5 0x100000000 DUP8 DIV AND OR OR OR OR MUL SWAP5 POP POP POP POP POP SWAP2 SWAP1 POP JUMP JUMPDEST PUSH2 0x3BFB PUSH2 0x3FAE JUMP JUMPDEST PUSH1 0x0 PUSH1 0x20 DUP4 PUSH2 0x3C0A SWAP2 SWAP1 PUSH2 0x522B JUMP JUMPDEST EQ PUSH2 0x3C36 JUMPI PUSH1 0x20 DUP3 PUSH2 0x3C1C SWAP2 SWAP1 PUSH2 0x522B JUMP JUMPDEST PUSH1 0x20 PUSH2 0x3C28 SWAP2 SWAP1 PUSH2 0x50BC JUMP JUMPDEST DUP3 PUSH2 0x3C33 SWAP2 SWAP1 PUSH2 0x4E9B JUMP JUMPDEST SWAP2 POP JUMPDEST DUP2 DUP4 PUSH1 0x20 ADD DUP2 DUP2 MSTORE POP POP PUSH1 0x40 MLOAD DUP1 DUP5 MSTORE PUSH1 0x0 DUP2 MSTORE DUP3 DUP2 ADD PUSH1 0x20 ADD PUSH1 0x40 MSTORE POP DUP3 SWAP1 POP SWAP3 SWAP2 POP POP JUMP JUMPDEST PUSH2 0x3C65 PUSH2 0x3FAE JUMP JUMPDEST PUSH2 0x3C77 DUP4 DUP5 PUSH1 0x0 ADD MLOAD MLOAD DUP5 PUSH1 0x20 PUSH2 0x3CA9 JUMP JUMPDEST SWAP1 POP SWAP3 SWAP2 POP POP JUMP JUMPDEST PUSH2 0x3C87 PUSH2 0x3FAE JUMP JUMPDEST PUSH2 0x3C99 DUP4 DUP5 PUSH1 0x0 ADD MLOAD MLOAD DUP5 DUP6 MLOAD PUSH2 0x3D55 JUMP JUMPDEST SWAP1 POP SWAP3 SWAP2 POP POP JUMP JUMPDEST PUSH1 0x0 CALLER SWAP1 POP SWAP1 JUMP JUMPDEST PUSH2 0x3CB1 PUSH2 0x3FAE JUMP JUMPDEST DUP5 PUSH1 0x20 ADD MLOAD DUP5 DUP4 PUSH2 0x3CC2 SWAP2 SWAP1 PUSH2 0x4E9B JUMP JUMPDEST GT ISZERO PUSH2 0x3CEA JUMPI PUSH2 0x3CE9 DUP6 PUSH1 0x2 DUP7 DUP6 PUSH2 0x3CDA SWAP2 SWAP1 PUSH2 0x4E9B JUMP JUMPDEST PUSH2 0x3CE4 SWAP2 SWAP1 PUSH2 0x5062 JUMP JUMPDEST PUSH2 0x3E5F JUMP JUMPDEST JUMPDEST PUSH1 0x0 PUSH1 0x1 DUP4 PUSH2 0x100 PUSH2 0x3CFC SWAP2 SWAP1 PUSH2 0x4F44 JUMP JUMPDEST PUSH2 0x3D06 SWAP2 SWAP1 PUSH2 0x50BC JUMP JUMPDEST SWAP1 POP DUP3 PUSH1 0x20 PUSH2 0x3D15 SWAP2 SWAP1 PUSH2 0x50BC JUMP JUMPDEST PUSH1 0x8 PUSH2 0x3D21 SWAP2 SWAP1 PUSH2 0x5062 JUMP JUMPDEST DUP5 SWAP1 SHR SWAP4 POP DUP6 MLOAD DUP4 DUP7 DUP3 ADD ADD DUP6 DUP4 NOT DUP3 MLOAD AND OR DUP2 MSTORE DUP2 MLOAD DUP6 DUP9 ADD GT ISZERO PUSH2 0x3D47 JUMPI DUP5 DUP8 ADD DUP3 MSTORE JUMPDEST POP POP DUP6 SWAP2 POP POP SWAP5 SWAP4 POP POP POP POP JUMP JUMPDEST PUSH2 0x3D5D PUSH2 0x3FAE JUMP JUMPDEST DUP3 MLOAD DUP3 GT ISZERO PUSH2 0x3D6B JUMPI PUSH1 0x0 DUP1 REVERT JUMPDEST DUP5 PUSH1 0x20 ADD MLOAD DUP3 DUP6 PUSH2 0x3D7C SWAP2 SWAP1 PUSH2 0x4E9B JUMP JUMPDEST GT ISZERO PUSH2 0x3DB1 JUMPI PUSH2 0x3DB0 DUP6 PUSH1 0x2 PUSH2 0x3DA1 DUP9 PUSH1 0x20 ADD MLOAD DUP9 DUP8 PUSH2 0x3D9C SWAP2 SWAP1 PUSH2 0x4E9B JUMP JUMPDEST PUSH2 0x3E83 JUMP JUMPDEST PUSH2 0x3DAB SWAP2 SWAP1 PUSH2 0x5062 JUMP JUMPDEST PUSH2 0x3E5F JUMP JUMPDEST JUMPDEST PUSH1 0x0 DUP1 DUP7 MLOAD DUP1 MLOAD DUP8 PUSH1 0x20 DUP4 ADD ADD SWAP4 POP DUP1 DUP9 DUP8 ADD GT ISZERO PUSH2 0x3DD0 JUMPI DUP8 DUP7 ADD DUP3 MSTORE JUMPDEST PUSH1 0x20 DUP8 ADD SWAP3 POP POP POP JUMPDEST PUSH1 0x20 DUP5 LT PUSH2 0x3E17 JUMPI DUP1 MLOAD DUP3 MSTORE PUSH1 0x20 DUP3 PUSH2 0x3DF2 SWAP2 SWAP1 PUSH2 0x4E9B JUMP JUMPDEST SWAP2 POP PUSH1 0x20 DUP2 PUSH2 0x3E01 SWAP2 SWAP1 PUSH2 0x4E9B JUMP JUMPDEST SWAP1 POP PUSH1 0x20 DUP5 PUSH2 0x3E10 SWAP2 SWAP1 PUSH2 0x50BC JUMP JUMPDEST SWAP4 POP PUSH2 0x3DD9 JUMP JUMPDEST PUSH1 0x0 PUSH1 0x1 DUP6 PUSH1 0x20 PUSH2 0x3E28 SWAP2 SWAP1 PUSH2 0x50BC JUMP JUMPDEST PUSH2 0x100 PUSH2 0x3E35 SWAP2 SWAP1 PUSH2 0x4F44 JUMP JUMPDEST PUSH2 0x3E3F SWAP2 SWAP1 PUSH2 0x50BC JUMP JUMPDEST SWAP1 POP DUP1 NOT DUP3 MLOAD AND DUP2 DUP5 MLOAD AND DUP2 DUP2 OR DUP6 MSTORE POP POP DUP8 SWAP4 POP POP POP POP SWAP5 SWAP4 POP POP POP POP JUMP JUMPDEST PUSH1 0x0 DUP3 PUSH1 0x0 ADD MLOAD SWAP1 POP PUSH2 0x3E72 DUP4 DUP4 PUSH2 0x3BF3 JUMP JUMPDEST POP PUSH2 0x3E7D DUP4 DUP3 PUSH2 0x3C7F JUMP JUMPDEST POP POP POP POP JUMP JUMPDEST PUSH1 0x0 DUP2 DUP4 GT ISZERO PUSH2 0x3E95 JUMPI DUP3 SWAP1 POP PUSH2 0x3E99 JUMP JUMPDEST DUP2 SWAP1 POP JUMPDEST SWAP3 SWAP2 POP POP JUMP JUMPDEST PUSH1 0x40 MLOAD DUP1 PUSH2 0xA00 ADD PUSH1 0x40 MSTORE DUP1 PUSH1 0x50 SWAP1 PUSH1 0x20 DUP3 MUL DUP1 CALLDATASIZE DUP4 CALLDATACOPY DUP1 DUP3 ADD SWAP2 POP POP SWAP1 POP POP SWAP1 JUMP JUMPDEST PUSH1 0x40 MLOAD DUP1 PUSH2 0x100 ADD PUSH1 0x40 MSTORE DUP1 PUSH1 0x8 SWAP1 PUSH1 0x20 DUP3 MUL DUP1 CALLDATASIZE DUP4 CALLDATACOPY DUP1 DUP3 ADD SWAP2 POP POP SWAP1 POP POP SWAP1 JUMP JUMPDEST PUSH1 0x40 MLOAD DUP1 PUSH1 0x60 ADD PUSH1 0x40 MSTORE DUP1 PUSH1 0x0 DUP2 MSTORE PUSH1 0x20 ADD PUSH1 0x0 DUP2 MSTORE PUSH1 0x20 ADD PUSH1 0x0 DUP2 MSTORE POP SWAP1 JUMP JUMPDEST PUSH1 0x40 MLOAD DUP1 PUSH1 0x40 ADD PUSH1 0x40 MSTORE DUP1 PUSH1 0x2 SWAP1 PUSH1 0x20 DUP3 MUL DUP1 CALLDATASIZE DUP4 CALLDATACOPY DUP1 DUP3 ADD SWAP2 POP POP SWAP1 POP POP SWAP1 JUMP JUMPDEST DUP3 DUP1 SLOAD PUSH2 0x3F34 SWAP1 PUSH2 0x51B0 JUMP JUMPDEST SWAP1 PUSH1 0x0 MSTORE PUSH1 0x20 PUSH1 0x0 KECCAK256 SWAP1 PUSH1 0x1F ADD PUSH1 0x20 SWAP1 DIV DUP2 ADD SWAP3 DUP3 PUSH2 0x3F56 JUMPI PUSH1 0x0 DUP6 SSTORE PUSH2 0x3F9D JUMP JUMPDEST DUP3 PUSH1 0x1F LT PUSH2 0x3F6F JUMPI DUP1 MLOAD PUSH1 0xFF NOT AND DUP4 DUP1 ADD OR DUP6 SSTORE PUSH2 0x3F9D JUMP JUMPDEST DUP3 DUP1 ADD PUSH1 0x1 ADD DUP6 SSTORE DUP3 ISZERO PUSH2 0x3F9D JUMPI SWAP2 DUP3 ADD JUMPDEST DUP3 DUP2 GT ISZERO PUSH2 0x3F9C JUMPI DUP3 MLOAD DUP3 SSTORE SWAP2 PUSH1 0x20 ADD SWAP2 SWAP1 PUSH1 0x1 ADD SWAP1 PUSH2 0x3F81 JUMP JUMPDEST JUMPDEST POP SWAP1 POP PUSH2 0x3FAA SWAP2 SWAP1 PUSH2 0x400D JUMP JUMPDEST POP SWAP1 JUMP JUMPDEST PUSH1 0x40 MLOAD DUP1 PUSH1 0x40 ADD PUSH1 0x40 MSTORE DUP1 PUSH1 0x60 DUP2 MSTORE PUSH1 0x20 ADD PUSH1 0x0 DUP2 MSTORE POP SWAP1 JUMP JUMPDEST PUSH1 0x40 MLOAD DUP1 PUSH2 0x100 ADD PUSH1 0x40 MSTORE DUP1 PUSH1 0x0 DUP2 MSTORE PUSH1 0x20 ADD PUSH1 0x0 DUP2 MSTORE PUSH1 0x20 ADD PUSH1 0x0 DUP2 MSTORE PUSH1 0x20 ADD PUSH1 0x0 DUP2 MSTORE PUSH1 0x20 ADD PUSH1 0x0 DUP2 MSTORE PUSH1 0x20 ADD PUSH1 0x0 DUP2 MSTORE PUSH1 0x20 ADD PUSH1 0x0 DUP2 MSTORE PUSH1 0x20 ADD PUSH1 0x0 DUP2 MSTORE POP SWAP1 JUMP JUMPDEST JUMPDEST DUP1 DUP3 GT ISZERO PUSH2 0x4026 JUMPI PUSH1 0x0 DUP2 PUSH1 0x0 SWAP1 SSTORE POP PUSH1 0x1 ADD PUSH2 0x400E JUMP JUMPDEST POP SWAP1 JUMP JUMPDEST PUSH1 0x0 PUSH2 0x403D PUSH2 0x4038 DUP5 PUSH2 0x4D21 JUMP JUMPDEST PUSH2 0x4CF0 JUMP JUMPDEST SWAP1 POP DUP1 DUP3 DUP6 PUSH1 0x20 DUP7 MUL DUP3 ADD GT ISZERO PUSH2 0x4053 JUMPI PUSH1 0x0 DUP1 REVERT JUMPDEST PUSH1 0x0 JUMPDEST DUP6 DUP2 LT ISZERO PUSH2 0x4083 JUMPI DUP2 PUSH2 0x4069 DUP9 DUP3 PUSH2 0x42EC JUMP JUMPDEST DUP5 MSTORE PUSH1 0x20 DUP5 ADD SWAP4 POP PUSH1 0x20 DUP4 ADD SWAP3 POP POP PUSH1 0x1 DUP2 ADD SWAP1 POP PUSH2 0x4056 JUMP JUMPDEST POP POP POP SWAP4 SWAP3 POP POP POP JUMP JUMPDEST PUSH1 0x0 PUSH2 0x40A0 PUSH2 0x409B DUP5 PUSH2 0x4D47 JUMP JUMPDEST PUSH2 0x4CF0 JUMP JUMPDEST SWAP1 POP DUP1 DUP3 DUP6 PUSH1 0x20 DUP7 MUL DUP3 ADD GT ISZERO PUSH2 0x40B6 JUMPI PUSH1 0x0 DUP1 REVERT JUMPDEST PUSH1 0x0 JUMPDEST DUP6 DUP2 LT ISZERO PUSH2 0x40E6 JUMPI DUP2 PUSH2 0x40CC DUP9 DUP3 PUSH2 0x42EC JUMP JUMPDEST DUP5 MSTORE PUSH1 0x20 DUP5 ADD SWAP4 POP PUSH1 0x20 DUP4 ADD SWAP3 POP POP PUSH1 0x1 DUP2 ADD SWAP1 POP PUSH2 0x40B9 JUMP JUMPDEST POP POP POP SWAP4 SWAP3 POP POP POP JUMP JUMPDEST PUSH1 0x0 PUSH2 0x4103 PUSH2 0x40FE DUP5 PUSH2 0x4D6D JUMP JUMPDEST PUSH2 0x4CF0 JUMP JUMPDEST SWAP1 POP DUP1 DUP3 DUP6 PUSH1 0x20 DUP7 MUL DUP3 ADD GT ISZERO PUSH2 0x4119 JUMPI PUSH1 0x0 DUP1 REVERT JUMPDEST PUSH1 0x0 JUMPDEST DUP6 DUP2 LT ISZERO PUSH2 0x4149 JUMPI DUP2 PUSH2 0x412F DUP9 DUP3 PUSH2 0x42EC JUMP JUMPDEST DUP5 MSTORE PUSH1 0x20 DUP5 ADD SWAP4 POP PUSH1 0x20 DUP4 ADD SWAP3 POP POP PUSH1 0x1 DUP2 ADD SWAP1 POP PUSH2 0x411C JUMP JUMPDEST POP POP POP SWAP4 SWAP3 POP POP POP JUMP JUMPDEST PUSH1 0x0 PUSH2 0x4166 PUSH2 0x4161 DUP5 PUSH2 0x4D93 JUMP JUMPDEST PUSH2 0x4CF0 JUMP JUMPDEST SWAP1 POP DUP3 DUP2 MSTORE PUSH1 0x20 DUP2 ADD DUP5 DUP5 DUP5 ADD GT ISZERO PUSH2 0x417E JUMPI PUSH1 0x0 DUP1 REVERT JUMPDEST PUSH2 0x4189 DUP5 DUP3 DUP6 PUSH2 0x516E JUMP JUMPDEST POP SWAP4 SWAP3 POP POP POP JUMP JUMPDEST PUSH1 0x0 PUSH2 0x41A4 PUSH2 0x419F DUP5 PUSH2 0x4DC3 JUMP JUMPDEST PUSH2 0x4CF0 JUMP JUMPDEST SWAP1 POP DUP3 DUP2 MSTORE PUSH1 0x20 DUP2 ADD DUP5 DUP5 DUP5 ADD GT ISZERO PUSH2 0x41BC JUMPI PUSH1 0x0 DUP1 REVERT JUMPDEST PUSH2 0x41C7 DUP5 DUP3 DUP6 PUSH2 0x516E JUMP JUMPDEST POP SWAP4 SWAP3 POP POP POP JUMP JUMPDEST PUSH1 0x0 DUP2 CALLDATALOAD SWAP1 POP PUSH2 0x41DE DUP2 PUSH2 0x5336 JUMP JUMPDEST SWAP3 SWAP2 POP POP JUMP JUMPDEST PUSH1 0x0 DUP3 PUSH1 0x1F DUP4 ADD SLT PUSH2 0x41F5 JUMPI PUSH1 0x0 DUP1 REVERT JUMPDEST PUSH1 0x2 PUSH2 0x4202 DUP5 DUP3 DUP6 PUSH2 0x402A JUMP JUMPDEST SWAP2 POP POP SWAP3 SWAP2 POP POP JUMP JUMPDEST PUSH1 0x0 DUP3 PUSH1 0x1F DUP4 ADD SLT PUSH2 0x421C JUMPI PUSH1 0x0 DUP1 REVERT JUMPDEST PUSH1 0x50 PUSH2 0x4229 DUP5 DUP3 DUP6 PUSH2 0x408D JUMP JUMPDEST SWAP2 POP POP SWAP3 SWAP2 POP POP JUMP JUMPDEST PUSH1 0x0 DUP3 PUSH1 0x1F DUP4 ADD SLT PUSH2 0x4243 JUMPI PUSH1 0x0 DUP1 REVERT JUMPDEST PUSH1 0x8 PUSH2 0x4250 DUP5 DUP3 DUP6 PUSH2 0x40F0 JUMP JUMPDEST SWAP2 POP POP SWAP3 SWAP2 POP POP JUMP JUMPDEST PUSH1 0x0 DUP2 CALLDATALOAD SWAP1 POP PUSH2 0x4268 DUP2 PUSH2 0x534D JUMP JUMPDEST SWAP3 SWAP2 POP POP JUMP JUMPDEST PUSH1 0x0 DUP2 CALLDATALOAD SWAP1 POP PUSH2 0x427D DUP2 PUSH2 0x5364 JUMP JUMPDEST SWAP3 SWAP2 POP POP JUMP JUMPDEST PUSH1 0x0 DUP2 MLOAD SWAP1 POP PUSH2 0x4292 DUP2 PUSH2 0x5364 JUMP JUMPDEST SWAP3 SWAP2 POP POP JUMP JUMPDEST PUSH1 0x0 DUP3 PUSH1 0x1F DUP4 ADD SLT PUSH2 0x42A9 JUMPI PUSH1 0x0 DUP1 REVERT JUMPDEST DUP2 CALLDATALOAD PUSH2 0x42B9 DUP5 DUP3 PUSH1 0x20 DUP7 ADD PUSH2 0x4153 JUMP JUMPDEST SWAP2 POP POP SWAP3 SWAP2 POP POP JUMP JUMPDEST PUSH1 0x0 DUP3 PUSH1 0x1F DUP4 ADD SLT PUSH2 0x42D3 JUMPI PUSH1 0x0 DUP1 REVERT JUMPDEST DUP2 CALLDATALOAD PUSH2 0x42E3 DUP5 DUP3 PUSH1 0x20 DUP7 ADD PUSH2 0x4191 JUMP JUMPDEST SWAP2 POP POP SWAP3 SWAP2 POP POP JUMP JUMPDEST PUSH1 0x0 DUP2 CALLDATALOAD SWAP1 POP PUSH2 0x42FB DUP2 PUSH2 0x537B JUMP JUMPDEST SWAP3 SWAP2 POP POP JUMP JUMPDEST PUSH1 0x0 PUSH1 0x20 DUP3 DUP5 SUB SLT ISZERO PUSH2 0x4313 JUMPI PUSH1 0x0 DUP1 REVERT JUMPDEST PUSH1 0x0 PUSH2 0x4321 DUP5 DUP3 DUP6 ADD PUSH2 0x41CF JUMP JUMPDEST SWAP2 POP POP SWAP3 SWAP2 POP POP JUMP JUMPDEST PUSH1 0x0 DUP1 PUSH1 0x80 DUP4 DUP6 SUB SLT ISZERO PUSH2 0x433D JUMPI PUSH1 0x0 DUP1 REVERT JUMPDEST PUSH1 0x0 PUSH2 0x434B DUP6 DUP3 DUP7 ADD PUSH2 0x41E4 JUMP JUMPDEST SWAP3 POP POP PUSH1 0x40 PUSH2 0x435C DUP6 DUP3 DUP7 ADD PUSH2 0x41E4 JUMP JUMPDEST SWAP2 POP POP SWAP3 POP SWAP3 SWAP1 POP JUMP JUMPDEST PUSH1 0x0 DUP1 PUSH1 0x60 DUP4 DUP6 SUB SLT ISZERO PUSH2 0x4379 JUMPI PUSH1 0x0 DUP1 REVERT JUMPDEST PUSH1 0x0 PUSH2 0x4387 DUP6 DUP3 DUP7 ADD PUSH2 0x41E4 JUMP JUMPDEST SWAP3 POP POP PUSH1 0x40 PUSH2 0x4398 DUP6 DUP3 DUP7 ADD PUSH2 0x42EC JUMP JUMPDEST SWAP2 POP POP SWAP3 POP SWAP3 SWAP1 POP JUMP JUMPDEST PUSH1 0x0 PUSH2 0xA00 DUP3 DUP5 SUB SLT ISZERO PUSH2 0x43B5 JUMPI PUSH1 0x0 DUP1 REVERT JUMPDEST PUSH1 0x0 PUSH2 0x43C3 DUP5 DUP3 DUP6 ADD PUSH2 0x420B JUMP JUMPDEST SWAP2 POP POP SWAP3 SWAP2 POP POP JUMP JUMPDEST PUSH1 0x0 PUSH2 0x100 DUP3 DUP5 SUB SLT ISZERO PUSH2 0x43DF JUMPI PUSH1 0x0 DUP1 REVERT JUMPDEST PUSH1 0x0 PUSH2 0x43ED DUP5 DUP3 DUP6 ADD PUSH2 0x4232 JUMP JUMPDEST SWAP2 POP POP SWAP3 SWAP2 POP POP JUMP JUMPDEST PUSH1 0x0 PUSH1 0x20 DUP3 DUP5 SUB SLT ISZERO PUSH2 0x4408 JUMPI PUSH1 0x0 DUP1 REVERT JUMPDEST PUSH1 0x0 PUSH2 0x4416 DUP5 DUP3 DUP6 ADD PUSH2 0x4283 JUMP JUMPDEST SWAP2 POP POP SWAP3 SWAP2 POP POP JUMP JUMPDEST PUSH1 0x0 DUP1 PUSH1 0x40 DUP4 DUP6 SUB SLT ISZERO PUSH2 0x4432 JUMPI PUSH1 0x0 DUP1 REVERT JUMPDEST PUSH1 0x0 PUSH2 0x4440 DUP6 DUP3 DUP7 ADD PUSH2 0x426E JUMP JUMPDEST SWAP3 POP POP PUSH1 0x20 PUSH2 0x4451 DUP6 DUP3 DUP7 ADD PUSH2 0x426E JUMP JUMPDEST SWAP2 POP POP SWAP3 POP SWAP3 SWAP1 POP JUMP JUMPDEST PUSH1 0x0 DUP1 PUSH1 0x40 DUP4 DUP6 SUB SLT ISZERO PUSH2 0x446E JUMPI PUSH1 0x0 DUP1 REVERT JUMPDEST PUSH1 0x0 DUP4 ADD CALLDATALOAD PUSH8 0xFFFFFFFFFFFFFFFF DUP2 GT ISZERO PUSH2 0x4488 JUMPI PUSH1 0x0 DUP1 REVERT JUMPDEST PUSH2 0x4494 DUP6 DUP3 DUP7 ADD PUSH2 0x4298 JUMP JUMPDEST SWAP3 POP POP PUSH1 0x20 PUSH2 0x44A5 DUP6 DUP3 DUP7 ADD PUSH2 0x4259 JUMP JUMPDEST SWAP2 POP POP SWAP3 POP SWAP3 SWAP1 POP JUMP JUMPDEST PUSH1 0x0 DUP1 PUSH1 0x40 DUP4 DUP6 SUB SLT ISZERO PUSH2 0x44C2 JUMPI PUSH1 0x0 DUP1 REVERT JUMPDEST PUSH1 0x0 DUP4 ADD CALLDATALOAD PUSH8 0xFFFFFFFFFFFFFFFF DUP2 GT ISZERO PUSH2 0x44DC JUMPI PUSH1 0x0 DUP1 REVERT JUMPDEST PUSH2 0x44E8 DUP6 DUP3 DUP7 ADD PUSH2 0x4298 JUMP JUMPDEST SWAP3 POP POP PUSH1 0x20 PUSH2 0x44F9 DUP6 DUP3 DUP7 ADD PUSH2 0x426E JUMP JUMPDEST SWAP2 POP POP SWAP3 POP SWAP3 SWAP1 POP JUMP JUMPDEST PUSH1 0x0 DUP1 PUSH1 0x40 DUP4 DUP6 SUB SLT ISZERO PUSH2 0x4516 JUMPI PUSH1 0x0 DUP1 REVERT JUMPDEST PUSH1 0x0 DUP4 ADD CALLDATALOAD PUSH8 0xFFFFFFFFFFFFFFFF DUP2 GT ISZERO PUSH2 0x4530 JUMPI PUSH1 0x0 DUP1 REVERT JUMPDEST PUSH2 0x453C DUP6 DUP3 DUP7 ADD PUSH2 0x42C2 JUMP JUMPDEST SWAP3 POP POP PUSH1 0x20 DUP4 ADD CALLDATALOAD PUSH8 0xFFFFFFFFFFFFFFFF DUP2 GT ISZERO PUSH2 0x4559 JUMPI PUSH1 0x0 DUP1 REVERT JUMPDEST PUSH2 0x4565 DUP6 DUP3 DUP7 ADD PUSH2 0x42C2 JUMP JUMPDEST SWAP2 POP POP SWAP3 POP SWAP3 SWAP1 POP JUMP JUMPDEST PUSH1 0x0 DUP1 PUSH1 0x0 DUP1 PUSH1 0x80 DUP6 DUP8 SUB SLT ISZERO PUSH2 0x4585 JUMPI PUSH1 0x0 DUP1 REVERT JUMPDEST PUSH1 0x0 DUP6 ADD CALLDATALOAD PUSH8 0xFFFFFFFFFFFFFFFF DUP2 GT ISZERO PUSH2 0x459F JUMPI PUSH1 0x0 DUP1 REVERT JUMPDEST PUSH2 0x45AB DUP8 DUP3 DUP9 ADD PUSH2 0x42C2 JUMP JUMPDEST SWAP5 POP POP PUSH1 0x20 DUP6 ADD CALLDATALOAD PUSH8 0xFFFFFFFFFFFFFFFF DUP2 GT ISZERO PUSH2 0x45C8 JUMPI PUSH1 0x0 DUP1 REVERT JUMPDEST PUSH2 0x45D4 DUP8 DUP3 DUP9 ADD PUSH2 0x42C2 JUMP JUMPDEST SWAP4 POP POP PUSH1 0x40 DUP6 ADD CALLDATALOAD PUSH8 0xFFFFFFFFFFFFFFFF DUP2 GT ISZERO PUSH2 0x45F1 JUMPI PUSH1 0x0 DUP1 REVERT JUMPDEST PUSH2 0x45FD DUP8 DUP3 DUP9 ADD PUSH2 0x4298 JUMP JUMPDEST SWAP3 POP POP PUSH1 0x60 DUP6 ADD CALLDATALOAD PUSH8 0xFFFFFFFFFFFFFFFF DUP2 GT ISZERO PUSH2 0x461A JUMPI PUSH1 0x0 DUP1 REVERT JUMPDEST PUSH2 0x4626 DUP8 DUP3 DUP9 ADD PUSH2 0x4298 JUMP JUMPDEST SWAP2 POP POP SWAP3 SWAP6 SWAP2 SWAP5 POP SWAP3 POP JUMP JUMPDEST PUSH1 0x0 DUP1 PUSH1 0x0 DUP1 PUSH1 0x0 DUP1 PUSH2 0x100 DUP8 DUP10 SUB SLT ISZERO PUSH2 0x464C JUMPI PUSH1 0x0 DUP1 REVERT JUMPDEST PUSH1 0x0 DUP8 ADD CALLDATALOAD PUSH8 0xFFFFFFFFFFFFFFFF DUP2 GT ISZERO PUSH2 0x4666 JUMPI PUSH1 0x0 DUP1 REVERT JUMPDEST PUSH2 0x4672 DUP10 DUP3 DUP11 ADD PUSH2 0x42C2 JUMP JUMPDEST SWAP7 POP POP PUSH1 0x20 DUP8 ADD CALLDATALOAD PUSH8 0xFFFFFFFFFFFFFFFF DUP2 GT ISZERO PUSH2 0x468F JUMPI PUSH1 0x0 DUP1 REVERT JUMPDEST PUSH2 0x469B DUP10 DUP3 DUP11 ADD PUSH2 0x42C2 JUMP JUMPDEST SWAP6 POP POP PUSH1 0x40 PUSH2 0x46AC DUP10 DUP3 DUP11 ADD PUSH2 0x42EC JUMP JUMPDEST SWAP5 POP POP PUSH1 0x60 PUSH2 0x46BD DUP10 DUP3 DUP11 ADD PUSH2 0x41E4 JUMP JUMPDEST SWAP4 POP POP PUSH1 0xA0 PUSH2 0x46CE DUP10 DUP3 DUP11 ADD PUSH2 0x41E4 JUMP JUMPDEST SWAP3 POP POP PUSH1 0xE0 DUP8 ADD CALLDATALOAD PUSH8 0xFFFFFFFFFFFFFFFF DUP2 GT ISZERO PUSH2 0x46EB JUMPI PUSH1 0x0 DUP1 REVERT JUMPDEST PUSH2 0x46F7 DUP10 DUP3 DUP11 ADD PUSH2 0x4298 JUMP JUMPDEST SWAP2 POP POP SWAP3 SWAP6 POP SWAP3 SWAP6 POP SWAP3 SWAP6 JUMP JUMPDEST PUSH1 0x0 DUP1 PUSH1 0x0 DUP1 PUSH1 0x0 PUSH1 0xA0 DUP7 DUP9 SUB SLT ISZERO PUSH2 0x471C JUMPI PUSH1 0x0 DUP1 REVERT JUMPDEST PUSH1 0x0 DUP7 ADD CALLDATALOAD PUSH8 0xFFFFFFFFFFFFFFFF DUP2 GT ISZERO PUSH2 0x4736 JUMPI PUSH1 0x0 DUP1 REVERT JUMPDEST PUSH2 0x4742 DUP9 DUP3 DUP10 ADD PUSH2 0x42C2 JUMP JUMPDEST SWAP6 POP POP PUSH1 0x20 DUP7 ADD CALLDATALOAD PUSH8 0xFFFFFFFFFFFFFFFF DUP2 GT ISZERO PUSH2 0x475F JUMPI PUSH1 0x0 DUP1 REVERT JUMPDEST PUSH2 0x476B DUP9 DUP3 DUP10 ADD PUSH2 0x42C2 JUMP JUMPDEST SWAP5 POP POP PUSH1 0x40 PUSH2 0x477C DUP9 DUP3 DUP10 ADD PUSH2 0x42EC JUMP JUMPDEST SWAP4 POP POP PUSH1 0x60 PUSH2 0x478D DUP9 DUP3 DUP10 ADD PUSH2 0x42EC JUMP JUMPDEST SWAP3 POP POP PUSH1 0x80 PUSH2 0x479E DUP9 DUP3 DUP10 ADD PUSH2 0x42EC JUMP JUMPDEST SWAP2 POP POP SWAP3 SWAP6 POP SWAP3 SWAP6 SWAP1 SWAP4 POP JUMP JUMPDEST PUSH1 0x0 DUP1 PUSH1 0x40 DUP4 DUP6 SUB SLT ISZERO PUSH2 0x47BE JUMPI PUSH1 0x0 DUP1 REVERT JUMPDEST PUSH1 0x0 PUSH2 0x47CC DUP6 DUP3 DUP7 ADD PUSH2 0x42EC JUMP JUMPDEST SWAP3 POP POP PUSH1 0x20 PUSH2 0x47DD DUP6 DUP3 DUP7 ADD PUSH2 0x42EC JUMP JUMPDEST SWAP2 POP POP SWAP3 POP SWAP3 SWAP1 POP JUMP JUMPDEST PUSH1 0x0 DUP1 PUSH1 0x0 PUSH1 0x60 DUP5 DUP7 SUB SLT ISZERO PUSH2 0x47FC JUMPI PUSH1 0x0 DUP1 REVERT JUMPDEST PUSH1 0x0 PUSH2 0x480A DUP7 DUP3 DUP8 ADD PUSH2 0x42EC JUMP JUMPDEST SWAP4 POP POP PUSH1 0x20 PUSH2 0x481B DUP7 DUP3 DUP8 ADD PUSH2 0x42EC JUMP JUMPDEST SWAP3 POP POP PUSH1 0x40 PUSH2 0x482C DUP7 DUP3 DUP8 ADD PUSH2 0x42EC JUMP JUMPDEST SWAP2 POP POP SWAP3 POP SWAP3 POP SWAP3 JUMP JUMPDEST PUSH1 0x0 DUP1 PUSH1 0x0 DUP1 PUSH2 0xA60 DUP6 DUP8 SUB SLT ISZERO PUSH2 0x484D JUMPI PUSH1 0x0 DUP1 REVERT JUMPDEST PUSH1 0x0 PUSH2 0x485B DUP8 DUP3 DUP9 ADD PUSH2 0x42EC JUMP JUMPDEST SWAP5 POP POP PUSH1 0x20 PUSH2 0x486C DUP8 DUP3 DUP9 ADD PUSH2 0x42EC JUMP JUMPDEST SWAP4 POP POP PUSH1 0x40 PUSH2 0x487D DUP8 DUP3 DUP9 ADD PUSH2 0x42EC JUMP JUMPDEST SWAP3 POP POP PUSH1 0x60 PUSH2 0x488E DUP8 DUP3 DUP9 ADD PUSH2 0x420B JUMP JUMPDEST SWAP2 POP POP SWAP3 SWAP6 SWAP2 SWAP5 POP SWAP3 POP JUMP JUMPDEST PUSH1 0x0 PUSH2 0x48A6 DUP4 DUP4 PUSH2 0x4B25 JUMP JUMPDEST PUSH1 0x20 DUP4 ADD SWAP1 POP SWAP3 SWAP2 POP POP JUMP JUMPDEST PUSH2 0x48BB DUP2 PUSH2 0x50F0 JUMP JUMPDEST DUP3 MSTORE POP POP JUMP JUMPDEST PUSH2 0x48CA DUP2 PUSH2 0x4E07 JUMP JUMPDEST PUSH2 0x48D4 DUP2 DUP5 PUSH2 0x4E4D JUMP JUMPDEST SWAP3 POP PUSH2 0x48DF DUP3 PUSH2 0x4DF3 JUMP JUMPDEST DUP1 PUSH1 0x0 JUMPDEST DUP4 DUP2 LT ISZERO PUSH2 0x4910 JUMPI DUP2 MLOAD PUSH2 0x48F7 DUP8 DUP3 PUSH2 0x489A JUMP JUMPDEST SWAP7 POP PUSH2 0x4902 DUP4 PUSH2 0x4E33 JUMP JUMPDEST SWAP3 POP POP PUSH1 0x1 DUP2 ADD SWAP1 POP PUSH2 0x48E3 JUMP JUMPDEST POP POP POP POP POP POP JUMP JUMPDEST PUSH2 0x4921 DUP2 PUSH2 0x4E12 JUMP JUMPDEST PUSH2 0x492B DUP2 DUP5 PUSH2 0x4E58 JUMP JUMPDEST SWAP3 POP PUSH2 0x4936 DUP3 PUSH2 0x4DFD JUMP JUMPDEST DUP1 PUSH1 0x0 JUMPDEST DUP4 DUP2 LT ISZERO PUSH2 0x4967 JUMPI DUP2 MLOAD PUSH2 0x494E DUP8 DUP3 PUSH2 0x489A JUMP JUMPDEST SWAP7 POP PUSH2 0x4959 DUP4 PUSH2 0x4E40 JUMP JUMPDEST SWAP3 POP POP PUSH1 0x1 DUP2 ADD SWAP1 POP PUSH2 0x493A JUMP JUMPDEST POP POP POP POP POP POP JUMP JUMPDEST PUSH2 0x4978 DUP2 PUSH2 0x5102 JUMP JUMPDEST DUP3 MSTORE POP POP JUMP JUMPDEST PUSH1 0x0 PUSH2 0x4989 DUP3 PUSH2 0x4E1D JUMP JUMPDEST PUSH2 0x4993 DUP2 DUP6 PUSH2 0x4E63 JUMP JUMPDEST SWAP4 POP PUSH2 0x49A3 DUP2 DUP6 PUSH1 0x20 DUP7 ADD PUSH2 0x517D JUMP JUMPDEST PUSH2 0x49AC DUP2 PUSH2 0x5318 JUMP JUMPDEST DUP5 ADD SWAP2 POP POP SWAP3 SWAP2 POP POP JUMP JUMPDEST PUSH1 0x0 PUSH2 0x49C2 DUP3 PUSH2 0x4E1D JUMP JUMPDEST PUSH2 0x49CC DUP2 DUP6 PUSH2 0x4E74 JUMP JUMPDEST SWAP4 POP PUSH2 0x49DC DUP2 DUP6 PUSH1 0x20 DUP7 ADD PUSH2 0x517D JUMP JUMPDEST DUP1 DUP5 ADD SWAP2 POP POP SWAP3 SWAP2 POP POP JUMP JUMPDEST PUSH1 0x0 PUSH2 0x49F3 DUP3 PUSH2 0x4E28 JUMP JUMPDEST PUSH2 0x49FD DUP2 DUP6 PUSH2 0x4E90 JUMP JUMPDEST SWAP4 POP PUSH2 0x4A0D DUP2 DUP6 PUSH1 0x20 DUP7 ADD PUSH2 0x517D JUMP JUMPDEST DUP1 DUP5 ADD SWAP2 POP POP SWAP3 SWAP2 POP POP JUMP JUMPDEST PUSH1 0x0 PUSH2 0x4A26 PUSH1 0x26 DUP4 PUSH2 0x4E7F JUMP JUMPDEST SWAP2 POP PUSH32 0x4F776E61626C653A206E6577206F776E657220697320746865207A65726F2061 PUSH1 0x0 DUP4 ADD MSTORE PUSH32 0x6464726573730000000000000000000000000000000000000000000000000000 PUSH1 0x20 DUP4 ADD MSTORE PUSH1 0x40 DUP3 ADD SWAP1 POP SWAP2 SWAP1 POP JUMP JUMPDEST PUSH1 0x0 PUSH2 0x4A8C PUSH1 0x20 DUP4 PUSH2 0x4E7F JUMP JUMPDEST SWAP2 POP PUSH32 0x4F776E61626C653A2063616C6C6572206973206E6F7420746865206F776E6572 PUSH1 0x0 DUP4 ADD MSTORE PUSH1 0x20 DUP3 ADD SWAP1 POP SWAP2 SWAP1 POP JUMP JUMPDEST PUSH1 0x0 PUSH2 0x4ACC PUSH1 0x33 DUP4 PUSH2 0x4E7F JUMP JUMPDEST SWAP2 POP PUSH32 0x546865206D73672E73656E64657220697320646966666572656E74207468616E PUSH1 0x0 DUP4 ADD MSTORE PUSH32 0x20746865206F7261636C65206164647265737300000000000000000000000000 PUSH1 0x20 DUP4 ADD MSTORE PUSH1 0x40 DUP3 ADD SWAP1 POP SWAP2 SWAP1 POP JUMP JUMPDEST PUSH2 0x4B2E DUP2 PUSH2 0x5164 JUMP JUMPDEST DUP3 MSTORE POP POP JUMP JUMPDEST PUSH2 0x4B3D DUP2 PUSH2 0x5164 JUMP JUMPDEST DUP3 MSTORE POP POP JUMP JUMPDEST PUSH1 0x0 PUSH2 0x4B4F DUP3 DUP5 PUSH2 0x49B7 JUMP JUMPDEST SWAP2 POP DUP2 SWAP1 POP SWAP3 SWAP2 POP POP JUMP JUMPDEST PUSH1 0x0 PUSH2 0x4B66 DUP3 DUP5 PUSH2 0x49E8 JUMP JUMPDEST SWAP2 POP DUP2 SWAP1 POP SWAP3 SWAP2 POP POP JUMP JUMPDEST PUSH1 0x0 PUSH1 0x20 DUP3 ADD SWAP1 POP PUSH2 0x4B86 PUSH1 0x0 DUP4 ADD DUP5 PUSH2 0x48B2 JUMP JUMPDEST SWAP3 SWAP2 POP POP JUMP JUMPDEST PUSH1 0x0 PUSH1 0x40 DUP3 ADD SWAP1 POP PUSH2 0x4BA1 PUSH1 0x0 DUP4 ADD DUP5 PUSH2 0x48C1 JUMP JUMPDEST SWAP3 SWAP2 POP POP JUMP JUMPDEST PUSH1 0x0 PUSH2 0x100 DUP3 ADD SWAP1 POP PUSH2 0x4BBD PUSH1 0x0 DUP4 ADD DUP5 PUSH2 0x4918 JUMP JUMPDEST SWAP3 SWAP2 POP POP JUMP JUMPDEST PUSH1 0x0 PUSH1 0x20 DUP3 ADD SWAP1 POP PUSH2 0x4BD8 PUSH1 0x0 DUP4 ADD DUP5 PUSH2 0x496F JUMP JUMPDEST SWAP3 SWAP2 POP POP JUMP JUMPDEST PUSH1 0x0 PUSH1 0x40 DUP3 ADD SWAP1 POP DUP2 DUP2 SUB PUSH1 0x0 DUP4 ADD MSTORE PUSH2 0x4BF8 DUP2 DUP6 PUSH2 0x497E JUMP JUMPDEST SWAP1 POP DUP2 DUP2 SUB PUSH1 0x20 DUP4 ADD MSTORE PUSH2 0x4C0C DUP2 DUP5 PUSH2 0x497E JUMP JUMPDEST SWAP1 POP SWAP4 SWAP3 POP POP POP JUMP JUMPDEST PUSH1 0x0 PUSH1 0x20 DUP3 ADD SWAP1 POP DUP2 DUP2 SUB PUSH1 0x0 DUP4 ADD MSTORE PUSH2 0x4C2E DUP2 PUSH2 0x4A19 JUMP JUMPDEST SWAP1 POP SWAP2 SWAP1 POP JUMP JUMPDEST PUSH1 0x0 PUSH1 0x20 DUP3 ADD SWAP1 POP DUP2 DUP2 SUB PUSH1 0x0 DUP4 ADD MSTORE PUSH2 0x4C4E DUP2 PUSH2 0x4A7F JUMP JUMPDEST SWAP1 POP SWAP2 SWAP1 POP JUMP JUMPDEST PUSH1 0x0 PUSH1 0x20 DUP3 ADD SWAP1 POP DUP2 DUP2 SUB PUSH1 0x0 DUP4 ADD MSTORE PUSH2 0x4C6E DUP2 PUSH2 0x4ABF JUMP JUMPDEST SWAP1 POP SWAP2 SWAP1 POP JUMP JUMPDEST PUSH1 0x0 PUSH1 0x20 DUP3 ADD SWAP1 POP PUSH2 0x4C8A PUSH1 0x0 DUP4 ADD DUP5 PUSH2 0x4B34 JUMP JUMPDEST SWAP3 SWAP2 POP POP JUMP JUMPDEST PUSH1 0x0 PUSH1 0x40 DUP3 ADD SWAP1 POP PUSH2 0x4CA5 PUSH1 0x0 DUP4 ADD DUP6 PUSH2 0x4B34 JUMP JUMPDEST PUSH2 0x4CB2 PUSH1 0x20 DUP4 ADD DUP5 PUSH2 0x4B34 JUMP JUMPDEST SWAP4 SWAP3 POP POP POP JUMP JUMPDEST PUSH1 0x0 PUSH1 0x60 DUP3 ADD SWAP1 POP PUSH2 0x4CCE PUSH1 0x0 DUP4 ADD DUP7 PUSH2 0x4B34 JUMP JUMPDEST PUSH2 0x4CDB PUSH1 0x20 DUP4 ADD DUP6 PUSH2 0x4B34 JUMP JUMPDEST PUSH2 0x4CE8 PUSH1 0x40 DUP4 ADD DUP5 PUSH2 0x4B34 JUMP JUMPDEST SWAP5 SWAP4 POP POP POP POP JUMP JUMPDEST PUSH1 0x0 PUSH1 0x40 MLOAD SWAP1 POP DUP2 DUP2 ADD DUP2 DUP2 LT PUSH8 0xFFFFFFFFFFFFFFFF DUP3 GT OR ISZERO PUSH2 0x4D17 JUMPI PUSH2 0x4D16 PUSH2 0x52E9 JUMP JUMPDEST JUMPDEST DUP1 PUSH1 0x40 MSTORE POP SWAP2 SWAP1 POP JUMP JUMPDEST PUSH1 0x0 PUSH8 0xFFFFFFFFFFFFFFFF DUP3 GT ISZERO PUSH2 0x4D3C JUMPI PUSH2 0x4D3B PUSH2 0x52E9 JUMP JUMPDEST JUMPDEST PUSH1 0x20 DUP3 MUL SWAP1 POP SWAP2 SWAP1 POP JUMP JUMPDEST PUSH1 0x0 PUSH8 0xFFFFFFFFFFFFFFFF DUP3 GT ISZERO PUSH2 0x4D62 JUMPI PUSH2 0x4D61 PUSH2 0x52E9 JUMP JUMPDEST JUMPDEST PUSH1 0x20 DUP3 MUL SWAP1 POP SWAP2 SWAP1 POP JUMP JUMPDEST PUSH1 0x0 PUSH8 0xFFFFFFFFFFFFFFFF DUP3 GT ISZERO PUSH2 0x4D88 JUMPI PUSH2 0x4D87 PUSH2 0x52E9 JUMP JUMPDEST JUMPDEST PUSH1 0x20 DUP3 MUL SWAP1 POP SWAP2 SWAP1 POP JUMP JUMPDEST PUSH1 0x0 PUSH8 0xFFFFFFFFFFFFFFFF DUP3 GT ISZERO PUSH2 0x4DAE JUMPI PUSH2 0x4DAD PUSH2 0x52E9 JUMP JUMPDEST JUMPDEST PUSH1 0x1F NOT PUSH1 0x1F DUP4 ADD AND SWAP1 POP PUSH1 0x20 DUP2 ADD SWAP1 POP SWAP2 SWAP1 POP JUMP JUMPDEST PUSH1 0x0 PUSH8 0xFFFFFFFFFFFFFFFF DUP3 GT ISZERO PUSH2 0x4DDE JUMPI PUSH2 0x4DDD PUSH2 0x52E9 JUMP JUMPDEST JUMPDEST PUSH1 0x1F NOT PUSH1 0x1F DUP4 ADD AND SWAP1 POP PUSH1 0x20 DUP2 ADD SWAP1 POP SWAP2 SWAP1 POP JUMP JUMPDEST PUSH1 0x0 DUP2 SWAP1 POP SWAP2 SWAP1 POP JUMP JUMPDEST PUSH1 0x0 DUP2 SWAP1 POP SWAP2 SWAP1 POP JUMP JUMPDEST PUSH1 0x0 PUSH1 0x2 SWAP1 POP SWAP2 SWAP1 POP JUMP JUMPDEST PUSH1 0x0 PUSH1 0x8 SWAP1 POP SWAP2 SWAP1 POP JUMP JUMPDEST PUSH1 0x0 DUP2 MLOAD SWAP1 POP SWAP2 SWAP1 POP JUMP JUMPDEST PUSH1 0x0 DUP2 MLOAD SWAP1 POP SWAP2 SWAP1 POP JUMP JUMPDEST PUSH1 0x0 PUSH1 0x20 DUP3 ADD SWAP1 POP SWAP2 SWAP1 POP JUMP JUMPDEST PUSH1 0x0 PUSH1 0x20 DUP3 ADD SWAP1 POP SWAP2 SWAP1 POP JUMP JUMPDEST PUSH1 0x0 DUP2 SWAP1 POP SWAP3 SWAP2 POP POP JUMP JUMPDEST PUSH1 0x0 DUP2 SWAP1 POP SWAP3 SWAP2 POP POP JUMP JUMPDEST PUSH1 0x0 DUP3 DUP3 MSTORE PUSH1 0x20 DUP3 ADD SWAP1 POP SWAP3 SWAP2 POP POP JUMP JUMPDEST PUSH1 0x0 DUP2 SWAP1 POP SWAP3 SWAP2 POP POP JUMP JUMPDEST PUSH1 0x0 DUP3 DUP3 MSTORE PUSH1 0x20 DUP3 ADD SWAP1 POP SWAP3 SWAP2 POP POP JUMP JUMPDEST PUSH1 0x0 DUP2 SWAP1 POP SWAP3 SWAP2 POP POP JUMP JUMPDEST PUSH1 0x0 PUSH2 0x4EA6 DUP3 PUSH2 0x5164 JUMP JUMPDEST SWAP2 POP PUSH2 0x4EB1 DUP4 PUSH2 0x5164 JUMP JUMPDEST SWAP3 POP DUP3 PUSH32 0xFFFFFFFFFFFFFFFFFFFFFFFFFFFFFFFFFFFFFFFFFFFFFFFFFFFFFFFFFFFFFFFF SUB DUP3 GT ISZERO PUSH2 0x4EE6 JUMPI PUSH2 0x4EE5 PUSH2 0x525C JUMP JUMPDEST JUMPDEST DUP3 DUP3 ADD SWAP1 POP SWAP3 SWAP2 POP POP JUMP JUMPDEST PUSH1 0x0 DUP1 DUP3 SWAP2 POP DUP4 SWAP1 POP JUMPDEST PUSH1 0x1 DUP6 GT ISZERO PUSH2 0x4F3B JUMPI DUP1 DUP7 DIV DUP2 GT ISZERO PUSH2 0x4F17 JUMPI PUSH2 0x4F16 PUSH2 0x525C JUMP JUMPDEST JUMPDEST PUSH1 0x1 DUP6 AND ISZERO PUSH2 0x4F26 JUMPI DUP1 DUP3 MUL SWAP2 POP JUMPDEST DUP1 DUP2 MUL SWAP1 POP PUSH2 0x4F34 DUP6 PUSH2 0x5329 JUMP JUMPDEST SWAP5 POP PUSH2 0x4EFB JUMP JUMPDEST SWAP5 POP SWAP5 SWAP3 POP POP POP JUMP JUMPDEST PUSH1 0x0 PUSH2 0x4F4F DUP3 PUSH2 0x5164 JUMP JUMPDEST SWAP2 POP PUSH2 0x4F5A DUP4 PUSH2 0x5164 JUMP JUMPDEST SWAP3 POP PUSH2 0x4F87 PUSH32 0xFFFFFFFFFFFFFFFFFFFFFFFFFFFFFFFFFFFFFFFFFFFFFFFFFFFFFFFFFFFFFFFF DUP5 DUP5 PUSH2 0x4F8F JUMP JUMPDEST SWAP1 POP SWAP3 SWAP2 POP POP JUMP JUMPDEST PUSH1 0x0 DUP3 PUSH2 0x4F9F JUMPI PUSH1 0x1 SWAP1 POP PUSH2 0x505B JUMP JUMPDEST DUP2 PUSH2 0x4FAD JUMPI PUSH1 0x0 SWAP1 POP PUSH2 0x505B JUMP JUMPDEST DUP2 PUSH1 0x1 DUP2 EQ PUSH2 0x4FC3 JUMPI PUSH1 0x2 DUP2 EQ PUSH2 0x4FCD JUMPI PUSH2 0x4FFC JUMP JUMPDEST PUSH1 0x1 SWAP2 POP POP PUSH2 0x505B JUMP JUMPDEST PUSH1 0xFF DUP5 GT ISZERO PUSH2 0x4FDF JUMPI PUSH2 0x4FDE PUSH2 0x525C JUMP JUMPDEST JUMPDEST DUP4 PUSH1 0x2 EXP SWAP2 POP DUP5 DUP3 GT ISZERO PUSH2 0x4FF6 JUMPI PUSH2 0x4FF5 PUSH2 0x525C JUMP JUMPDEST JUMPDEST POP PUSH2 0x505B JUMP JUMPDEST POP PUSH1 0x20 DUP4 LT PUSH2 0x133 DUP4 LT AND PUSH1 0x4E DUP5 LT PUSH1 0xB DUP5 LT AND OR ISZERO PUSH2 0x5031 JUMPI DUP3 DUP3 EXP SWAP1 POP DUP4 DUP2 GT ISZERO PUSH2 0x502C JUMPI PUSH2 0x502B PUSH2 0x525C JUMP JUMPDEST JUMPDEST PUSH2 0x505B JUMP JUMPDEST PUSH2 0x503E DUP5 DUP5 DUP5 PUSH1 0x1 PUSH2 0x4EF1 JUMP JUMPDEST SWAP3 POP SWAP1 POP DUP2 DUP5 DIV DUP2 GT ISZERO PUSH2 0x5055 JUMPI PUSH2 0x5054 PUSH2 0x525C JUMP JUMPDEST JUMPDEST DUP2 DUP2 MUL SWAP1 POP JUMPDEST SWAP4 SWAP3 POP POP POP JUMP JUMPDEST PUSH1 0x0 PUSH2 0x506D DUP3 PUSH2 0x5164 JUMP JUMPDEST SWAP2 POP PUSH2 0x5078 DUP4 PUSH2 0x5164 JUMP JUMPDEST SWAP3 POP DUP2 PUSH32 0xFFFFFFFFFFFFFFFFFFFFFFFFFFFFFFFFFFFFFFFFFFFFFFFFFFFFFFFFFFFFFFFF DIV DUP4 GT DUP3 ISZERO ISZERO AND ISZERO PUSH2 0x50B1 JUMPI PUSH2 0x50B0 PUSH2 0x525C JUMP JUMPDEST JUMPDEST DUP3 DUP3 MUL SWAP1 POP SWAP3 SWAP2 POP POP JUMP JUMPDEST PUSH1 0x0 PUSH2 0x50C7 DUP3 PUSH2 0x5164 JUMP JUMPDEST SWAP2 POP PUSH2 0x50D2 DUP4 PUSH2 0x5164 JUMP JUMPDEST SWAP3 POP DUP3 DUP3 LT ISZERO PUSH2 0x50E5 JUMPI PUSH2 0x50E4 PUSH2 0x525C JUMP JUMPDEST JUMPDEST DUP3 DUP3 SUB SWAP1 POP SWAP3 SWAP2 POP POP JUMP JUMPDEST PUSH1 0x0 PUSH2 0x50FB DUP3 PUSH2 0x5144 JUMP JUMPDEST SWAP1 POP SWAP2 SWAP1 POP JUMP JUMPDEST PUSH1 0x0 DUP2 ISZERO ISZERO SWAP1 POP SWAP2 SWAP1 POP JUMP JUMPDEST PUSH1 0x0 PUSH32 0xFFFFFFFFFFFFFFFFFFFFFFFFFFFFFFFFFFFFFFFF000000000000000000000000 DUP3 AND SWAP1 POP SWAP2 SWAP1 POP JUMP JUMPDEST PUSH1 0x0 DUP2 SWAP1 POP SWAP2 SWAP1 POP JUMP JUMPDEST PUSH1 0x0 PUSH20 0xFFFFFFFFFFFFFFFFFFFFFFFFFFFFFFFFFFFFFFFF DUP3 AND SWAP1 POP SWAP2 SWAP1 POP JUMP JUMPDEST PUSH1 0x0 DUP2 SWAP1 POP SWAP2 SWAP1 POP JUMP JUMPDEST DUP3 DUP2 DUP4 CALLDATACOPY PUSH1 0x0 DUP4 DUP4 ADD MSTORE POP POP POP JUMP JUMPDEST PUSH1 0x0 JUMPDEST DUP4 DUP2 LT ISZERO PUSH2 0x519B JUMPI DUP1 DUP3 ADD MLOAD DUP2 DUP5 ADD MSTORE PUSH1 0x20 DUP2 ADD SWAP1 POP PUSH2 0x5180 JUMP JUMPDEST DUP4 DUP2 GT ISZERO PUSH2 0x51AA JUMPI PUSH1 0x0 DUP5 DUP5 ADD MSTORE JUMPDEST POP POP POP POP JUMP JUMPDEST PUSH1 0x0 PUSH1 0x2 DUP3 DIV SWAP1 POP PUSH1 0x1 DUP3 AND DUP1 PUSH2 0x51C8 JUMPI PUSH1 0x7F DUP3 AND SWAP2 POP JUMPDEST PUSH1 0x20 DUP3 LT DUP2 EQ ISZERO PUSH2 0x51DC JUMPI PUSH2 0x51DB PUSH2 0x52BA JUMP JUMPDEST JUMPDEST POP SWAP2 SWAP1 POP JUMP JUMPDEST PUSH1 0x0 PUSH2 0x51ED DUP3 PUSH2 0x5164 JUMP JUMPDEST SWAP2 POP PUSH32 0xFFFFFFFFFFFFFFFFFFFFFFFFFFFFFFFFFFFFFFFFFFFFFFFFFFFFFFFFFFFFFFFF DUP3 EQ ISZERO PUSH2 0x5220 JUMPI PUSH2 0x521F PUSH2 0x525C JUMP JUMPDEST JUMPDEST PUSH1 0x1 DUP3 ADD SWAP1 POP SWAP2 SWAP1 POP JUMP JUMPDEST PUSH1 0x0 PUSH2 0x5236 DUP3 PUSH2 0x5164 JUMP JUMPDEST SWAP2 POP PUSH2 0x5241 DUP4 PUSH2 0x5164 JUMP JUMPDEST SWAP3 POP DUP3 PUSH2 0x5251 JUMPI PUSH2 0x5250 PUSH2 0x528B JUMP JUMPDEST JUMPDEST DUP3 DUP3 MOD SWAP1 POP SWAP3 SWAP2 POP POP JUMP JUMPDEST PUSH32 0x4E487B7100000000000000000000000000000000000000000000000000000000 PUSH1 0x0 MSTORE PUSH1 0x11 PUSH1 0x4 MSTORE PUSH1 0x24 PUSH1 0x0 REVERT JUMPDEST PUSH32 0x4E487B7100000000000000000000000000000000000000000000000000000000 PUSH1 0x0 MSTORE PUSH1 0x12 PUSH1 0x4 MSTORE PUSH1 0x24 PUSH1 0x0 REVERT JUMPDEST PUSH32 0x4E487B7100000000000000000000000000000000000000000000000000000000 PUSH1 0x0 MSTORE PUSH1 0x22 PUSH1 0x4 MSTORE PUSH1 0x24 PUSH1 0x0 REVERT JUMPDEST PUSH32 0x4E487B7100000000000000000000000000000000000000000000000000000000 PUSH1 0x0 MSTORE PUSH1 0x41 PUSH1 0x4 MSTORE PUSH1 0x24 PUSH1 0x0 REVERT JUMPDEST PUSH1 0x0 PUSH1 0x1F NOT PUSH1 0x1F DUP4 ADD AND SWAP1 POP SWAP2 SWAP1 POP JUMP JUMPDEST PUSH1 0x0 DUP2 PUSH1 0x1 SHR SWAP1 POP SWAP2 SWAP1 POP JUMP JUMPDEST PUSH2 0x533F DUP2 PUSH2 0x50F0 JUMP JUMPDEST DUP2 EQ PUSH2 0x534A JUMPI PUSH1 0x0 DUP1 REVERT JUMPDEST POP JUMP JUMPDEST PUSH2 0x5356 DUP2 PUSH2 0x510E JUMP JUMPDEST DUP2 EQ PUSH2 0x5361 JUMPI PUSH1 0x0 DUP1 REVERT JUMPDEST POP JUMP JUMPDEST PUSH2 0x536D DUP2 PUSH2 0x513A JUMP JUMPDEST DUP2 EQ PUSH2 0x5378 JUMPI PUSH1 0x0 DUP1 REVERT JUMPDEST POP JUMP JUMPDEST PUSH2 0x5384 DUP2 PUSH2 0x5164 JUMP JUMPDEST DUP2 EQ PUSH2 0x538F JUMPI PUSH1 0x0 DUP1 REVERT JUMPDEST POP JUMP INVALID LOG2 PUSH5 0x6970667358 0x22 SLT KECCAK256 0xEE 0xDE PUSH1 0x5B SLOAD 0xC6 SWAP8 MLOAD PUSH23 0x1824E0AFE855AD87E5CA4A5928D29BA6C0FA70B47739B9 PUSH5 0x736F6C6343 STOP ADDMOD STOP STOP CALLER "},"methodIdentifiers":{"arrayToLE(uint256[8])":"755d4add","checkBodySHA1(bytes,bytes20)":"cb7034d2","checkBodySHA256(bytes,bytes32)":"b2178825","dkimKeysEd(bytes32,bytes32)":"dbd1195c","dkimKeysRsa(bytes32,bytes32)":"f3ae1b31","ecAddVec(uint256[2],uint256[2])":"9b0fd8cd","getDkimKeyEd(string,string)":"af0df022","getDkimKeyRsa(string,string)":"5a6eb94e","initW(uint256,uint256,uint256,uint256[80])":"dcb90bb9","oracle()":"7dc0d1d0","owner()":"8da5cb5b","renounceOwnership()":"715018a6","rotr(uint256,uint256)":"51b6c0a1","scalarMult(uint256[2],uint256)":"500d8107","setDkimKeyEd(string,string,uint256,uint256,uint256)":"2739c34f","setDkimKeyRsa(string,string,bytes,bytes)":"a2226ef6","sha512modl(uint256,uint256,uint256)":"01f74337","transferOwnership(address)":"f2fde38b","update(uint256[80])":"05e4fa19","verifyED25519(string,string,uint256,uint256[2],uint256[2],bytes)":"e36027ab","verifyRSASHA1(string,string,bytes,bytes)":"c82f10f5","verifyRSASHA256(string,string,bytes,bytes)":"3d69d2f7"}}}}}