{
  "_format": "hh-sol-artifact-1",
  "contractName": "DkimChecker",
  "sourceName": "contracts/DkimChecker.sol",
  "abi": [
    {
      "inputs": [
        {
          "internalType": "address",
          "name": "_oracle",
          "type": "address"
        }
      ],
      "stateMutability": "nonpayable",
      "type": "constructor"
    },
    {
      "anonymous": false,
      "inputs": [
        {
          "indexed": false,
          "internalType": "bytes32",
          "name": "x",
          "type": "bytes32"
        }
      ],
      "name": "Debug",
      "type": "event"
    },
    {
      "anonymous": false,
      "inputs": [
        {
          "indexed": true,
          "internalType": "address",
          "name": "previousOwner",
          "type": "address"
        },
        {
          "indexed": true,
          "internalType": "address",
          "name": "newOwner",
          "type": "address"
        }
      ],
      "name": "OwnershipTransferred",
      "type": "event"
    },
    {
      "anonymous": false,
      "inputs": [
        {
          "indexed": false,
          "internalType": "bool",
          "name": "",
          "type": "bool"
        }
      ],
      "name": "ReturnVal",
      "type": "event"
    },
    {
      "inputs": [
        {
          "internalType": "uint256[8]",
          "name": "Ai",
          "type": "uint256[8]"
        }
      ],
      "name": "arrayToLE",
      "outputs": [
        {
          "internalType": "uint256",
          "name": "high",
          "type": "uint256"
        },
        {
          "internalType": "uint256",
          "name": "low",
          "type": "uint256"
        }
      ],
      "stateMutability": "pure",
      "type": "function"
    },
    {
      "inputs": [
        {
          "internalType": "bytes",
          "name": "body",
          "type": "bytes"
        },
        {
          "internalType": "bytes20",
          "name": "bodyHash",
          "type": "bytes20"
        }
      ],
      "name": "checkBodySHA1",
      "outputs": [
        {
          "internalType": "bool",
          "name": "",
          "type": "bool"
        }
      ],
      "stateMutability": "nonpayable",
      "type": "function"
    },
    {
      "inputs": [
        {
          "internalType": "bytes",
          "name": "body",
          "type": "bytes"
        },
        {
          "internalType": "bytes32",
          "name": "bodyHash",
          "type": "bytes32"
        }
      ],
      "name": "checkBodySHA256",
      "outputs": [
        {
          "internalType": "bool",
          "name": "",
          "type": "bool"
        }
      ],
      "stateMutability": "nonpayable",
      "type": "function"
    },
    {
      "inputs": [
        {
          "internalType": "bytes32",
          "name": "",
          "type": "bytes32"
        },
        {
          "internalType": "bytes32",
          "name": "",
          "type": "bytes32"
        }
      ],
      "name": "dkimKeysEd",
      "outputs": [
        {
          "internalType": "uint256",
          "name": "x",
          "type": "uint256"
        },
        {
          "internalType": "uint256",
          "name": "y",
          "type": "uint256"
        },
        {
          "internalType": "uint256",
          "name": "p",
          "type": "uint256"
        }
      ],
      "stateMutability": "view",
      "type": "function"
    },
    {
      "inputs": [
        {
          "internalType": "bytes32",
          "name": "",
          "type": "bytes32"
        },
        {
          "internalType": "bytes32",
          "name": "",
          "type": "bytes32"
        }
      ],
      "name": "dkimKeysRsa",
      "outputs": [
        {
          "internalType": "bytes",
          "name": "exponent",
          "type": "bytes"
        },
        {
          "internalType": "bytes",
          "name": "modulus",
          "type": "bytes"
        }
      ],
      "stateMutability": "view",
      "type": "function"
    },
    {
      "inputs": [
        {
          "internalType": "uint256[2]",
          "name": "_a",
          "type": "uint256[2]"
        },
        {
          "internalType": "uint256[2]",
          "name": "_b",
          "type": "uint256[2]"
        }
      ],
      "name": "ecAddVec",
      "outputs": [
        {
          "internalType": "uint256[2]",
          "name": "",
          "type": "uint256[2]"
        }
      ],
      "stateMutability": "view",
      "type": "function"
    },
    {
      "inputs": [
        {
          "internalType": "string",
          "name": "_selector",
          "type": "string"
        },
        {
          "internalType": "string",
          "name": "_domain",
          "type": "string"
        }
      ],
      "name": "getDkimKeyEd",
      "outputs": [
        {
          "internalType": "uint256",
          "name": "x",
          "type": "uint256"
        },
        {
          "internalType": "uint256",
          "name": "y",
          "type": "uint256"
        }
      ],
      "stateMutability": "view",
      "type": "function"
    },
    {
      "inputs": [
        {
          "internalType": "string",
          "name": "_selector",
          "type": "string"
        },
        {
          "internalType": "string",
          "name": "_domain",
          "type": "string"
        }
      ],
      "name": "getDkimKeyRsa",
      "outputs": [
        {
          "internalType": "bytes",
          "name": "",
          "type": "bytes"
        },
        {
          "internalType": "bytes",
          "name": "",
          "type": "bytes"
        }
      ],
      "stateMutability": "view",
      "type": "function"
    },
    {
      "inputs": [
        {
          "internalType": "uint256",
          "name": "_r",
          "type": "uint256"
        },
        {
          "internalType": "uint256",
          "name": "_p",
          "type": "uint256"
        },
        {
          "internalType": "uint256",
          "name": "_hx",
          "type": "uint256"
        },
        {
          "internalType": "uint256[80]",
          "name": "w",
          "type": "uint256[80]"
        }
      ],
      "name": "initW",
      "outputs": [],
      "stateMutability": "pure",
      "type": "function"
    },
    {
      "inputs": [],
      "name": "oracle",
      "outputs": [
        {
          "internalType": "address",
          "name": "",
          "type": "address"
        }
      ],
      "stateMutability": "view",
      "type": "function"
    },
    {
      "inputs": [],
      "name": "owner",
      "outputs": [
        {
          "internalType": "address",
          "name": "",
          "type": "address"
        }
      ],
      "stateMutability": "view",
      "type": "function"
    },
    {
      "inputs": [],
      "name": "renounceOwnership",
      "outputs": [],
      "stateMutability": "nonpayable",
      "type": "function"
    },
    {
      "inputs": [
        {
          "internalType": "uint256",
          "name": "value",
          "type": "uint256"
        },
        {
          "internalType": "uint256",
          "name": "d",
          "type": "uint256"
        }
      ],
      "name": "rotr",
      "outputs": [
        {
          "internalType": "uint256",
          "name": "",
          "type": "uint256"
        }
      ],
      "stateMutability": "pure",
      "type": "function"
    },
    {
      "inputs": [
        {
          "internalType": "uint256[2]",
          "name": "point",
          "type": "uint256[2]"
        },
        {
          "internalType": "uint256",
          "name": "s",
          "type": "uint256"
        }
      ],
      "name": "scalarMult",
      "outputs": [
        {
          "internalType": "uint256",
          "name": "",
          "type": "uint256"
        },
        {
          "internalType": "uint256",
          "name": "",
          "type": "uint256"
        }
      ],
      "stateMutability": "view",
      "type": "function"
    },
    {
      "inputs": [
        {
          "internalType": "string",
          "name": "_selector",
          "type": "string"
        },
        {
          "internalType": "string",
          "name": "_domain",
          "type": "string"
        },
        {
          "internalType": "uint256",
          "name": "x",
          "type": "uint256"
        },
        {
          "internalType": "uint256",
          "name": "y",
          "type": "uint256"
        },
        {
          "internalType": "uint256",
          "name": "p",
          "type": "uint256"
        }
      ],
      "name": "setDkimKeyEd",
      "outputs": [
        {
          "internalType": "bool",
          "name": "",
          "type": "bool"
        }
      ],
      "stateMutability": "nonpayable",
      "type": "function"
    },
    {
      "inputs": [
        {
          "internalType": "string",
          "name": "_selector",
          "type": "string"
        },
        {
          "internalType": "string",
          "name": "_domain",
          "type": "string"
        },
        {
          "internalType": "bytes",
          "name": "_exponent",
          "type": "bytes"
        },
        {
          "internalType": "bytes",
          "name": "_modulus",
          "type": "bytes"
        }
      ],
      "name": "setDkimKeyRsa",
      "outputs": [
        {
          "internalType": "bool",
          "name": "",
          "type": "bool"
        }
      ],
      "stateMutability": "nonpayable",
      "type": "function"
    },
    {
      "inputs": [
        {
          "internalType": "uint256",
          "name": "_r",
          "type": "uint256"
        },
        {
          "internalType": "uint256",
          "name": "_p",
          "type": "uint256"
        },
        {
          "internalType": "uint256",
          "name": "_hx",
          "type": "uint256"
        }
      ],
      "name": "sha512modl",
      "outputs": [
        {
          "internalType": "uint256",
          "name": "hashmodl",
          "type": "uint256"
        }
      ],
      "stateMutability": "view",
      "type": "function"
    },
    {
      "inputs": [
        {
          "internalType": "address",
          "name": "newOwner",
          "type": "address"
        }
      ],
      "name": "transferOwnership",
      "outputs": [],
      "stateMutability": "nonpayable",
      "type": "function"
    },
    {
      "inputs": [
        {
          "internalType": "uint256[80]",
          "name": "W",
          "type": "uint256[80]"
        }
      ],
      "name": "update",
      "outputs": [
        {
          "internalType": "uint256[8]",
          "name": "",
          "type": "uint256[8]"
        }
      ],
      "stateMutability": "view",
      "type": "function"
    },
    {
      "inputs": [
        {
          "internalType": "string",
          "name": "_selector",
          "type": "string"
        },
        {
          "internalType": "string",
          "name": "_domain",
          "type": "string"
        },
        {
          "internalType": "uint256",
          "name": "_r",
          "type": "uint256"
        },
        {
          "internalType": "uint256[2]",
          "name": "_R",
          "type": "uint256[2]"
        },
        {
          "internalType": "uint256[2]",
          "name": "_lhs",
          "type": "uint256[2]"
        },
        {
          "internalType": "bytes",
          "name": "_canonicalizedHeader",
          "type": "bytes"
        }
      ],
      "name": "verifyED25519",
      "outputs": [
        {
          "internalType": "bool",
          "name": "",
          "type": "bool"
        }
      ],
      "stateMutability": "nonpayable",
      "type": "function"
    },
    {
      "inputs": [
        {
          "internalType": "string",
          "name": "_selector",
          "type": "string"
        },
        {
          "internalType": "string",
          "name": "_domain",
          "type": "string"
        },
        {
          "internalType": "bytes",
          "name": "_sig",
          "type": "bytes"
        },
        {
          "internalType": "bytes",
          "name": "_canonicalizedHeader",
          "type": "bytes"
        }
      ],
      "name": "verifyRSASHA1",
      "outputs": [
        {
          "internalType": "bool",
          "name": "",
          "type": "bool"
        }
      ],
      "stateMutability": "nonpayable",
      "type": "function"
    },
    {
      "inputs": [
        {
          "internalType": "string",
          "name": "_selector",
          "type": "string"
        },
        {
          "internalType": "string",
          "name": "_domain",
          "type": "string"
        },
        {
          "internalType": "bytes",
          "name": "_sig",
          "type": "bytes"
        },
        {
          "internalType": "bytes",
          "name": "_canonicalizedHeader",
          "type": "bytes"
        }
      ],
      "name": "verifyRSASHA256",
      "outputs": [
        {
          "internalType": "bool",
          "name": "",
          "type": "bool"
        }
      ],
      "stateMutability": "nonpayable",
      "type": "function"
    }
  ],
  "bytecode": "0x608060405260405180610a00016040528067428a2f98d728ae228152602001677137449123ef65cd815260200167b5c0fbcfec4d3b2f815260200167e9b5dba58189dbbc8152602001673956c25bf348b53881526020016759f111f1b605d019815260200167923f82a4af194f9b815260200167ab1c5ed5da6d8118815260200167d807aa98a303024281526020016712835b0145706fbe815260200167243185be4ee4b28c815260200167550c7dc3d5ffb4e281526020016772be5d74f27b896f81526020016780deb1fe3b1696b18152602001679bdc06a725c71235815260200167c19bf174cf692694815260200167e49b69c19ef14ad2815260200167efbe4786384f25e38152602001670fc19dc68b8cd5b5815260200167240ca1cc77ac9c658152602001672de92c6f592b02758152602001674a7484aa6ea6e4838152602001675cb0a9dcbd41fbd481526020016776f988da831153b5815260200167983e5152ee66dfab815260200167a831c66d2db43210815260200167b00327c898fb213f815260200167bf597fc7beef0ee4815260200167c6e00bf33da88fc2815260200167d5a79147930aa72581526020016706ca6351e003826f815260200167142929670a0e6e7081526020016727b70a8546d22ffc8152602001672e1b21385c26c9268152602001674d2c6dfc5ac42aed81526020016753380d139d95b3df815260200167650a73548baf63de815260200167766a0abb3c77b2a881526020016781c2c92e47edaee681526020016792722c851482353b815260200167a2bfe8a14cf10364815260200167a81a664bbc423001815260200167c24b8b70d0f89791815260200167c76c51a30654be30815260200167d192e819d6ef5218815260200167d69906245565a910815260200167f40e35855771202a815260200167106aa07032bbd1b881526020016719a4c116b8d2d0c88152602001671e376c085141ab538152602001672748774cdf8eeb9981526020016734b0bcb5e19b48a8815260200167391c0cb3c5c95a638152602001674ed8aa4ae3418acb8152602001675b9cca4f7763e373815260200167682e6ff3d6b2b8a3815260200167748f82ee5defb2fc81526020016778a5636f43172f6081526020016784c87814a1f0ab728152602001678cc702081a6439ec81526020016790befffa23631e28815260200167a4506cebde82bde9815260200167bef9a3f7b2c67915815260200167c67178f2e372532b815260200167ca273eceea26619c815260200167d186b8c721c0c207815260200167eada7dd6cde0eb1e815260200167f57d4f7fee6ed17881526020016706f067aa72176fba8152602001670a637dc5a2c898a6815260200167113f9804bef90dae8152602001671b710b35131c471b81526020016728db77f523047d8481526020016732caab7b40c724938152602001673c9ebe0a15c9bebc815260200167431d67c49c100d4c8152602001674cc5d4becb3e42b6815260200167597f299cfc657e2a8152602001675fcb6fab3ad6faec8152602001676c44198c4a47581781525060019060506200048092919062000675565b50604051806101000160405280676a09e667f3bcc908815260200167bb67ae8584caa73b8152602001673c6ef372fe94f82b815260200167a54ff53a5f1d36f1815260200167510e527fade682d18152602001679b05688c2b3e6c1f8152602001671f83d9abfb41bd6b8152602001675be0cd19137e217981525060519060086200050d929190620006ba565b503480156200051b57600080fd5b5060405162005b8738038062005b87833981810160405281019062000541919062000735565b6200056162000555620005a960201b60201c565b620005b160201b60201c565b80605960006101000a81548173ffffffffffffffffffffffffffffffffffffffff021916908373ffffffffffffffffffffffffffffffffffffffff16021790555050620007af565b600033905090565b60008060009054906101000a900473ffffffffffffffffffffffffffffffffffffffff169050816000806101000a81548173ffffffffffffffffffffffffffffffffffffffff021916908373ffffffffffffffffffffffffffffffffffffffff1602179055508173ffffffffffffffffffffffffffffffffffffffff168173ffffffffffffffffffffffffffffffffffffffff167f8be0079c531659141344cd1fd0a4f28419497f9722a3daafe3b4186f6b6457e060405160405180910390a35050565b8260508101928215620006a7579160200282015b82811115620006a657825182559160200191906001019062000689565b5b509050620006b69190620006ff565b5090565b8260088101928215620006ec579160200282015b82811115620006eb578251825591602001919060010190620006ce565b5b509050620006fb9190620006ff565b5090565b5b808211156200071a57600081600090555060010162000700565b5090565b6000815190506200072f8162000795565b92915050565b6000602082840312156200074857600080fd5b600062000758848285016200071e565b91505092915050565b60006200076e8262000775565b9050919050565b600073ffffffffffffffffffffffffffffffffffffffff82169050919050565b620007a08162000761565b8114620007ac57600080fd5b50565b6153c880620007bf6000396000f3fe608060405234801561001057600080fd5b50600436106101425760003560e01c80639b0fd8cd116100b8578063cb7034d21161007c578063cb7034d214610401578063dbd1195c14610431578063dcb90bb914610463578063e36027ab1461047f578063f2fde38b146104af578063f3ae1b31146104cb57610142565b80639b0fd8cd14610310578063a2226ef614610340578063af0df02214610370578063b2178825146103a1578063c82f10f5146103d157610142565b806351b6c0a11161010a57806351b6c0a1146102385780635a6eb94e14610268578063715018a614610299578063755d4add146102a35780637dc0d1d0146102d45780638da5cb5b146102f257610142565b806301f743371461014757806305e4fa19146101775780632739c34f146101a75780633d69d2f7146101d7578063500d810714610207575b600080fd5b610161600480360381019061015c91906147e7565b6104fc565b60405161016e9190614c75565b60405180910390f35b610191600480360381019061018c91906143a2565b610804565b60405161019e9190614ba7565b60405180910390f35b6101c160048036038101906101bc9190614704565b610c40565b6040516101ce9190614bc3565b60405180910390f35b6101f160048036038101906101ec919061456f565b610d6f565b6040516101fe9190614bc3565b60405180910390f35b610221600480360381019061021c9190614366565b610ff6565b60405161022f929190614c90565b60405180910390f35b610252600480360381019061024d91906147ab565b6111f1565b60405161025f9190614c75565b60405180910390f35b610282600480360381019061027d9190614503565b61121a565b604051610290929190614bde565b60405180910390f35b6102a16113d6565b005b6102bd60048036038101906102b891906143cc565b6113ea565b6040516102cb929190614c90565b60405180910390f35b6102dc611686565b6040516102e99190614b71565b60405180910390f35b6102fa6116ac565b6040516103079190614b71565b60405180910390f35b61032a6004803603810190610325919061432a565b6116d5565b6040516103379190614b8c565b60405180910390f35b61035a6004803603810190610355919061456f565b611919565b6040516103679190614bc3565b60405180910390f35b61038a60048036038101906103859190614503565b611a5e565b604051610398929190614c90565b60405180910390f35b6103bb60048036038101906103b691906144af565b611b14565b6040516103c89190614bc3565b60405180910390f35b6103eb60048036038101906103e6919061456f565b611bad565b6040516103f89190614bc3565b60405180910390f35b61041b6004803603810190610416919061445b565b611e0b565b6040516104289190614bc3565b60405180910390f35b61044b6004803603810190610446919061441f565b611e7b565b60405161045a93929190614cb9565b60405180910390f35b61047d60048036038101906104789190614836565b611eb2565b005b61049960048036038101906104949190614632565b611fc1565b6040516104a69190614bc3565b60405180910390f35b6104c960048036038101906104c49190614301565b6122d9565b005b6104e560048036038101906104e0919061441f565b61235d565b6040516104f3929190614bde565b60405180910390f35b6000610506613e9f565b61051285858584611eb2565b600061051d82610804565b905060005b600881101561060e5767ffffffffffffffff6051826008811061056e577f4e487b7100000000000000000000000000000000000000000000000000000000600052603260045260246000fd5b01548383600881106105a9577f4e487b7100000000000000000000000000000000000000000000000000000000600052603260045260246000fd5b60200201516105b89190614e9b565b168282600881106105f2577f4e487b7100000000000000000000000000000000000000000000000000000000600052603260045260246000fd5b6020020181815250508080610606906151e2565b915050610522565b5060008061061b836113ea565b915091507f1000000000000000000000000000000014def9dea2f79cd65812631a5cf5d3ed80610674577f4e487b7100000000000000000000000000000000000000000000000000000000600052601260045260246000fd5b7f1000000000000000000000000000000014def9dea2f79cd65812631a5cf5d3ed806106c9577f4e487b7100000000000000000000000000000000000000000000000000000000600052601260045260246000fd5b600183097f1000000000000000000000000000000014def9dea2f79cd65812631a5cf5d3ed80610722577f4e487b7100000000000000000000000000000000000000000000000000000000600052601260045260246000fd5b7f1000000000000000000000000000000014def9dea2f79cd65812631a5cf5d3ed80610777577f4e487b7100000000000000000000000000000000000000000000000000000000600052601260045260246000fd5b6001700100000000000000000000000000000000097f1000000000000000000000000000000014def9dea2f79cd65812631a5cf5d3ed806107e1577f4e487b7100000000000000000000000000000000000000000000000000000000600052601260045260246000fd5b700100000000000000000000000000000000870909089450505050509392505050565b61080c613ec2565b60006051600060088110610849577f4e487b7100000000000000000000000000000000000000000000000000000000600052603260045260246000fd5b015490506000605160016008811061088a577f4e487b7100000000000000000000000000000000000000000000000000000000600052603260045260246000fd5b01549050600060516002600881106108cb577f4e487b7100000000000000000000000000000000000000000000000000000000600052603260045260246000fd5b015490506000605160036008811061090c577f4e487b7100000000000000000000000000000000000000000000000000000000600052603260045260246000fd5b015490506000605160046008811061094d577f4e487b7100000000000000000000000000000000000000000000000000000000600052603260045260246000fd5b015490506000605160056008811061098e577f4e487b7100000000000000000000000000000000000000000000000000000000600052603260045260246000fd5b01549050600060516006600881106109cf577f4e487b7100000000000000000000000000000000000000000000000000000000600052603260045260246000fd5b0154905060006051600760088110610a10577f4e487b7100000000000000000000000000000000000000000000000000000000600052603260045260246000fd5b0154905060005b6050811015610bf6576000610a2d8660296111f1565b610a388760126111f1565b610a4388600e6111f1565b18189050600084871916868816189050600060018460508110610a8f577f4e487b7100000000000000000000000000000000000000000000000000000000600052603260045260246000fd5b01548e8560508110610aca577f4e487b7100000000000000000000000000000000000000000000000000000000600052603260045260246000fd5b6020020151838588610adc9190614e9b565b610ae69190614e9b565b610af09190614e9b565b610afa9190614e9b565b90506000610b098d60276111f1565b610b148e60226111f1565b610b1f8f601c6111f1565b1818905060008b8e168d8f161890508b8d168118905060008183610b439190614e9b565b90508897508998508a99506801000000000000000080610b8c577f4e487b7100000000000000000000000000000000000000000000000000000000600052601260045260246000fd5b848d089a508c9b508d9c508e9d506801000000000000000080610bd8577f4e487b7100000000000000000000000000000000000000000000000000000000600052601260045260246000fd5b8185089e505050505050508080610bee906151e2565b915050610a17565b506040518061010001604052808981526020018881526020018781526020018681526020018581526020018481526020018381526020018281525098505050505050505050919050565b6000605960009054906101000a900473ffffffffffffffffffffffffffffffffffffffff1673ffffffffffffffffffffffffffffffffffffffff163373ffffffffffffffffffffffffffffffffffffffff1614610cd2576040517f08c379a0000000000000000000000000000000000000000000000000000000008152600401610cc990614c55565b60405180910390fd5b6000605b600088604051602001610ce99190614b5a565b604051602081830303815290604052805190602001208152602001908152602001600020600087604051602001610d209190614b5a565b6040516020818303038152906040528051906020012081526020019081526020016000209050848160000181905550838160010181905550828160020181905550600191505095945050505050565b600080605a600087604051602001610d879190614b5a565b604051602081830303815290604052805190602001208152602001908152602001600020600086604051602001610dbe9190614b5a565b604051602081830303815290604052805190602001208152602001908152602001600020604051806040016040529081600082018054610dfd906151b0565b80601f0160208091040260200160405190810160405280929190818152602001828054610e29906151b0565b8015610e765780601f10610e4b57610100808354040283529160200191610e76565b820191906000526020600020905b815481529060010190602001808311610e5957829003601f168201915b50505050508152602001600182018054610e8f906151b0565b80601f0160208091040260200160405190810160405280929190818152602001828054610ebb906151b0565b8015610f085780601f10610edd57610100808354040283529160200191610f08565b820191906000526020600020905b815481529060010190602001808311610eeb57829003601f168201915b505050505081525050905060006060610f2a868460000151856020015161249e565b80925081935050506000828015610fae5750610f5c60208351610f4d91906150bc565b836125fe90919063ffffffff16565b600287604051610f6c9190614b43565b602060405180830381855afa158015610f89573d6000803e3d6000fd5b5050506040513d601f19601f82011682018060405250810190610fac91906143f6565b145b90507fff3010ae5fe3144d9922cf3389b9bf30da6f991746f58a3177e3427ff9c7ef5481604051610fdf9190614bc3565b60405180910390a180945050505050949350505050565b600080611001613ee5565b611009613ee5565b85600060028110611043577f4e487b7100000000000000000000000000000000000000000000000000000000600052603260045260246000fd5b60200201518260000181815250508560016002811061108b577f4e487b7100000000000000000000000000000000000000000000000000000000600052603260045260246000fd5b602002015182602001818152505060018260400181815250506000816000018181525050600181602001818152505060018160400181815250505b60008511156110fe57600180861614156110e7576110e48183612629565b90505b600185901c94506110f782612e2a565b91506110c6565b600061110d82604001516134a8565b90507f7fffffffffffffffffffffffffffffffffffffffffffffffffffffffffffffed80611164577f4e487b7100000000000000000000000000000000000000000000000000000000600052601260045260246000fd5b818360000151098260000181815250507f7fffffffffffffffffffffffffffffffffffffffffffffffffffffffffffffed806111c9577f4e487b7100000000000000000000000000000000000000000000000000000000600052601260045260246000fd5b8183602001510982602001818152505081600001518260200151945094505050509250929050565b600067ffffffffffffffff82604061120991906150bc565b84901b8385901c1716905092915050565b6060806000605a6000866040516020016112349190614b5a565b60405160208183030381529060405280519060200120815260200190815260200160002060008560405160200161126b9190614b5a565b6040516020818303038152906040528051906020012081526020019081526020016000206040518060400160405290816000820180546112aa906151b0565b80601f01602080910402602001604051908101604052809291908181526020018280546112d6906151b0565b80156113235780601f106112f857610100808354040283529160200191611323565b820191906000526020600020905b81548152906001019060200180831161130657829003601f168201915b5050505050815260200160018201805461133c906151b0565b80601f0160208091040260200160405190810160405280929190818152602001828054611368906151b0565b80156113b55780601f1061138a576101008083540402835291602001916113b5565b820191906000526020600020905b81548152906001019060200180831161139857829003601f168201915b50505050508152505090508060000151816020015192509250509250929050565b6113de613546565b6113e860006135c4565b565b600080600083600360088110611429577f4e487b7100000000000000000000000000000000000000000000000000000000600052603260045260246000fd5b602002015160408560026008811061146a577f4e487b7100000000000000000000000000000000000000000000000000000000600052603260045260246000fd5b6020020151901b6080866001600881106114ad577f4e487b7100000000000000000000000000000000000000000000000000000000600052603260045260246000fd5b6020020151901b60c0876000600881106114f0577f4e487b7100000000000000000000000000000000000000000000000000000000600052603260045260246000fd5b6020020151901b1717179050600084600760088110611538577f4e487b7100000000000000000000000000000000000000000000000000000000600052603260045260246000fd5b6020020151604086600660088110611579577f4e487b7100000000000000000000000000000000000000000000000000000000600052603260045260246000fd5b6020020151901b6080876005600881106115bc577f4e487b7100000000000000000000000000000000000000000000000000000000600052603260045260246000fd5b6020020151901b60c0886004600881106115ff577f4e487b7100000000000000000000000000000000000000000000000000000000600052603260045260246000fd5b6020020151901b17171790506040518260208201528160408201526060810160405260018101805b6020820181101561164d5760ff8151166008838303021b86019550600181019050611627565b50602081019050805b6020820181101561167c5760ff8151166008838303021b87019650600181019050611656565b5050505050915091565b605960009054906101000a900473ffffffffffffffffffffffffffffffffffffffff1681565b60008060009054906101000a900473ffffffffffffffffffffffffffffffffffffffff16905090565b6116dd613f06565b6116e5613ee5565b6116ed613ee5565b84600060028110611727577f4e487b7100000000000000000000000000000000000000000000000000000000600052603260045260246000fd5b60200201518260000181815250508460016002811061176f577f4e487b7100000000000000000000000000000000000000000000000000000000600052603260045260246000fd5b60200201518260200181815250506001826040018181525050836000600281106117c2577f4e487b7100000000000000000000000000000000000000000000000000000000600052603260045260246000fd5b60200201518160000181815250508360016002811061180a577f4e487b7100000000000000000000000000000000000000000000000000000000600052603260045260246000fd5b60200201518160200181815250506001816040018181525050600061182f8383612629565b9050600061184082604001516134a8565b905060405180604001604052807f7fffffffffffffffffffffffffffffffffffffffffffffffffffffffffffffed806118a2577f4e487b7100000000000000000000000000000000000000000000000000000000600052601260045260246000fd5b8385600001510981526020017f7fffffffffffffffffffffffffffffffffffffffffffffffffffffffffffffed80611903577f4e487b7100000000000000000000000000000000000000000000000000000000600052601260045260246000fd5b8385602001510981525094505050505092915050565b6000605960009054906101000a900473ffffffffffffffffffffffffffffffffffffffff1673ffffffffffffffffffffffffffffffffffffffff163373ffffffffffffffffffffffffffffffffffffffff16146119ab576040517f08c379a00000000000000000000000000000000000000000000000000000000081526004016119a290614c55565b60405180910390fd5b6000605a6000876040516020016119c29190614b5a565b6040516020818303038152906040528051906020012081526020019081526020016000206000866040516020016119f99190614b5a565b604051602081830303815290604052805190602001208152602001908152602001600020905083816000019080519060200190611a37929190613f28565b5082816001019080519060200190611a50929190613f28565b506001915050949350505050565b6000806000605b600086604051602001611a789190614b5a565b604051602081830303815290604052805190602001208152602001908152602001600020600085604051602001611aaf9190614b5a565b604051602081830303815290604052805190602001208152602001908152602001600020604051806060016040529081600082015481526020016001820154815260200160028201548152505090508060000151816020015192509250509250929050565b600080600284604051611b279190614b43565b602060405180830381855afa158015611b44573d6000803e3d6000fd5b5050506040513d601f19601f82011682018060405250810190611b6791906143f6565b90507fff3010ae5fe3144d9922cf3389b9bf30da6f991746f58a3177e3427ff9c7ef54818414604051611b9a9190614bc3565b60405180910390a1600191505092915050565b600080605a600087604051602001611bc59190614b5a565b604051602081830303815290604052805190602001208152602001908152602001600020600086604051602001611bfc9190614b5a565b604051602081830303815290604052805190602001208152602001908152602001600020604051806040016040529081600082018054611c3b906151b0565b80601f0160208091040260200160405190810160405280929190818152602001828054611c67906151b0565b8015611cb45780601f10611c8957610100808354040283529160200191611cb4565b820191906000526020600020905b815481529060010190602001808311611c9757829003601f168201915b50505050508152602001600182018054611ccd906151b0565b80601f0160208091040260200160405190810160405280929190818152602001828054611cf9906151b0565b8015611d465780601f10611d1b57610100808354040283529160200191611d46565b820191906000526020600020905b815481529060010190602001808311611d2957829003601f168201915b505050505081525050905060006060611d68868460000151856020015161249e565b80925081935050506000828015611dc35750611d9a60148351611d8b91906150bc565b8361368890919063ffffffff16565b6bffffffffffffffffffffffff1916611db2876136d5565b6bffffffffffffffffffffffff1916145b90507fff3010ae5fe3144d9922cf3389b9bf30da6f991746f58a3177e3427ff9c7ef5481604051611df49190614bc3565b60405180910390a180945050505050949350505050565b600080611e17846136d5565b90507fff3010ae5fe3144d9922cf3389b9bf30da6f991746f58a3177e3427ff9c7ef54816bffffffffffffffffffffffff1916846bffffffffffffffffffffffff191614604051611e689190614bc3565b60405180910390a1600191505092915050565b605b602052816000526040600020602052806000526040600020600091509150508060000154908060010154908060020154905083565b604051604060020a856000830152846020830152836040830152607f60020a60801b6103001760608301526080820160405260005b6010811015611f165767ffffffffffffffff600882026018850301511681602002850152600181019050611ee7565b5060105b6050811015611fb8576020600f82030284015160206002830302850151602060108403028601516020600785030287015167ffffffffffffffff8460071c8560381b8660081c1786603f1b8760011c1718181667ffffffffffffffff8460061c8560031b86603d1c1786602d1b8760131c1718181667ffffffffffffffff8184018386010116602088028b0152505050505050600181019050611f1a565b50505050505050565b600080605b600089604051602001611fd99190614b5a565b6040516020818303038152906040528051906020012081526020019081526020016000206000886040516020016120109190614b5a565b60405160208183030381529060405280519060200120815260200190815260200160002060405180606001604052908160008201548152602001600182015481526020016002820154815250509050612067613f06565b60006120ca8884604001516002886040516120829190614b43565b602060405180830381855afa15801561209f573d6000803e3d6000fd5b5050506040513d601f19601f820116820180604052508101906120c291906143f6565b60001c6104fc565b90506120f2604051806040016040528085600001518152602001856020015181525082610ff6565b8360006002811061212c577f4e487b7100000000000000000000000000000000000000000000000000000000600052603260045260246000fd5b602002018460016002811061216a577f4e487b7100000000000000000000000000000000000000000000000000000000600052603260045260246000fd5b6020020182815250828152505050600061218488846116d5565b90506000816000600281106121c2577f4e487b7100000000000000000000000000000000000000000000000000000000600052603260045260246000fd5b602002015188600060028110612201577f4e487b7100000000000000000000000000000000000000000000000000000000600052603260045260246000fd5b602002015114801561228e575081600160028110612248577f4e487b7100000000000000000000000000000000000000000000000000000000600052603260045260246000fd5b602002015188600160028110612287577f4e487b7100000000000000000000000000000000000000000000000000000000600052603260045260246000fd5b6020020151145b90507fff3010ae5fe3144d9922cf3389b9bf30da6f991746f58a3177e3427ff9c7ef54816040516122bf9190614bc3565b60405180910390a180955050505050509695505050505050565b6122e1613546565b600073ffffffffffffffffffffffffffffffffffffffff168173ffffffffffffffffffffffffffffffffffffffff161415612351576040517f08c379a000000000000000000000000000000000000000000000000000000000815260040161234890614c15565b60405180910390fd5b61235a816135c4565b50565b605a6020528160005260406000206020528060005260406000206000915091505080600001805461238d906151b0565b80601f01602080910402602001604051908101604052809291908181526020018280546123b9906151b0565b80156124065780601f106123db57610100808354040283529160200191612406565b820191906000526020600020905b8154815290600101906020018083116123e957829003601f168201915b50505050509080600101805461241b906151b0565b80601f0160208091040260200160405190810160405280929190818152602001828054612447906151b0565b80156124945780601f1061246957610100808354040283529160200191612494565b820191906000526020600020905b81548152906001019060200180831161247757829003601f168201915b5050505050905082565b60006060600083518551875160606124b69190614e9b565b6124c09190614e9b565b6124ca9190614e9b565b90506124d4613fae565b6124e78282613bf390919063ffffffff16565b506124ff875160001b82613c5d90919063ffffffff16565b50612517865160001b82613c5d90919063ffffffff16565b5061252f855160001b82613c5d90919063ffffffff16565b506125438782613c7f90919063ffffffff16565b506125578682613c7f90919063ffffffff16565b5061256b8582613c7f90919063ffffffff16565b50845167ffffffffffffffff8111156125ad577f4e487b7100000000000000000000000000000000000000000000000000000000600052604160045260246000fd5b6040519080825280601f01601f1916602001820160405280156125df5781602001600182028036833780820191505090505b50925084516020840183602084510160055afa93505050935093915050565b6000825160208361260f9190614e9b565b111561261a57600080fd5b81602084010151905092915050565b612631613ee5565b612639613fc8565b7f7fffffffffffffffffffffffffffffffffffffffffffffffffffffffffffffed8061268e577f4e487b7100000000000000000000000000000000000000000000000000000000600052601260045260246000fd5b83604001518560400151098160000181815250507f7fffffffffffffffffffffffffffffffffffffffffffffffffffffffffffffed806126f7577f4e487b7100000000000000000000000000000000000000000000000000000000600052601260045260246000fd5b81600001518260000151098160200181815250507f7fffffffffffffffffffffffffffffffffffffffffffffffffffffffffffffed80612760577f4e487b7100000000000000000000000000000000000000000000000000000000600052601260045260246000fd5b83600001518560000151098160400181815250507f7fffffffffffffffffffffffffffffffffffffffffffffffffffffffffffffed806127c9577f4e487b7100000000000000000000000000000000000000000000000000000000600052601260045260246000fd5b83602001518560200151098160600181815250507f7fffffffffffffffffffffffffffffffffffffffffffffffffffffffffffffed80612832577f4e487b7100000000000000000000000000000000000000000000000000000000600052601260045260246000fd5b7f7fffffffffffffffffffffffffffffffffffffffffffffffffffffffffffffed80612887577f4e487b7100000000000000000000000000000000000000000000000000000000600052601260045260246000fd5b82606001518360400151097f52036cee2b6ffe738cc740797779e89800700a4d4141d8ab75eb4dca135978a3098160800181815250507f7fffffffffffffffffffffffffffffffffffffffffffffffffffffffffffffed80612912577f4e487b7100000000000000000000000000000000000000000000000000000000600052601260045260246000fd5b81608001517f7fffffffffffffffffffffffffffffffffffffffffffffffffffffffffffffed61294291906150bc565b8260200151088160a00181815250507f7fffffffffffffffffffffffffffffffffffffffffffffffffffffffffffffed806129a6577f4e487b7100000000000000000000000000000000000000000000000000000000600052601260045260246000fd5b81608001518260200151088160c00181815250507f7fffffffffffffffffffffffffffffffffffffffffffffffffffffffffffffed80612a0f577f4e487b7100000000000000000000000000000000000000000000000000000000600052601260045260246000fd5b7f7fffffffffffffffffffffffffffffffffffffffffffffffffffffffffffffed80612a64577f4e487b7100000000000000000000000000000000000000000000000000000000600052601260045260246000fd5b82606001517f7fffffffffffffffffffffffffffffffffffffffffffffffffffffffffffffed612a9491906150bc565b7f7fffffffffffffffffffffffffffffffffffffffffffffffffffffffffffffed80612ae9577f4e487b7100000000000000000000000000000000000000000000000000000000600052601260045260246000fd5b84604001517f7fffffffffffffffffffffffffffffffffffffffffffffffffffffffffffffed612b1991906150bc565b7f7fffffffffffffffffffffffffffffffffffffffffffffffffffffffffffffed80612b6e577f4e487b7100000000000000000000000000000000000000000000000000000000600052601260045260246000fd5b7f7fffffffffffffffffffffffffffffffffffffffffffffffffffffffffffffed80612bc3577f4e487b7100000000000000000000000000000000000000000000000000000000600052601260045260246000fd5b89602001518a60000151087f7fffffffffffffffffffffffffffffffffffffffffffffffffffffffffffffed80612c23577f4e487b7100000000000000000000000000000000000000000000000000000000600052601260045260246000fd5b8b602001518c60000151080908087f7fffffffffffffffffffffffffffffffffffffffffffffffffffffffffffffed80612c86577f4e487b7100000000000000000000000000000000000000000000000000000000600052601260045260246000fd5b8360a00151846000015109098260000181815250507f7fffffffffffffffffffffffffffffffffffffffffffffffffffffffffffffed80612cf0577f4e487b7100000000000000000000000000000000000000000000000000000000600052601260045260246000fd5b7f7fffffffffffffffffffffffffffffffffffffffffffffffffffffffffffffed80612d45577f4e487b7100000000000000000000000000000000000000000000000000000000600052601260045260246000fd5b82604001518360600151087f7fffffffffffffffffffffffffffffffffffffffffffffffffffffffffffffed80612da5577f4e487b7100000000000000000000000000000000000000000000000000000000600052601260045260246000fd5b8360c00151846000015109098260200181815250507f7fffffffffffffffffffffffffffffffffffffffffffffffffffffffffffffed80612e0f577f4e487b7100000000000000000000000000000000000000000000000000000000600052601260045260246000fd5b8160c001518260a00151098260400181815250505092915050565b612e32613ee5565b612e3a613fc8565b7f7fffffffffffffffffffffffffffffffffffffffffffffffffffffffffffffed80612e8f577f4e487b7100000000000000000000000000000000000000000000000000000000600052601260045260246000fd5b83602001518460000151088160000181815250507f7fffffffffffffffffffffffffffffffffffffffffffffffffffffffffffffed80612ef8577f4e487b7100000000000000000000000000000000000000000000000000000000600052601260045260246000fd5b81600001518260000151098160200181815250507f7fffffffffffffffffffffffffffffffffffffffffffffffffffffffffffffed80612f61577f4e487b7100000000000000000000000000000000000000000000000000000000600052601260045260246000fd5b83600001518460000151098160400181815250507f7fffffffffffffffffffffffffffffffffffffffffffffffffffffffffffffed80612fca577f4e487b7100000000000000000000000000000000000000000000000000000000600052601260045260246000fd5b836020015184602001510981606001818152505080604001517f7fffffffffffffffffffffffffffffffffffffffffffffffffffffffffffffed61300e91906150bc565b8160800181815250507f7fffffffffffffffffffffffffffffffffffffffffffffffffffffffffffffed8061306c577f4e487b7100000000000000000000000000000000000000000000000000000000600052601260045260246000fd5b81606001518260800151088160a00181815250507f7fffffffffffffffffffffffffffffffffffffffffffffffffffffffffffffed806130d5577f4e487b7100000000000000000000000000000000000000000000000000000000600052601260045260246000fd5b83604001518460400151098160e00181815250507f7fffffffffffffffffffffffffffffffffffffffffffffffffffffffffffffed8061313e577f4e487b7100000000000000000000000000000000000000000000000000000000600052601260045260246000fd5b7f7fffffffffffffffffffffffffffffffffffffffffffffffffffffffffffffed80613193577f4e487b7100000000000000000000000000000000000000000000000000000000600052601260045260246000fd5b8260e001516002097f7fffffffffffffffffffffffffffffffffffffffffffffffffffffffffffffed6131c691906150bc565b8260a00151088160c00181815250507f7fffffffffffffffffffffffffffffffffffffffffffffffffffffffffffffed8061322a577f4e487b7100000000000000000000000000000000000000000000000000000000600052601260045260246000fd5b8160c001517f7fffffffffffffffffffffffffffffffffffffffffffffffffffffffffffffed80613284577f4e487b7100000000000000000000000000000000000000000000000000000000600052601260045260246000fd5b83606001517f7fffffffffffffffffffffffffffffffffffffffffffffffffffffffffffffed6132b491906150bc565b7f7fffffffffffffffffffffffffffffffffffffffffffffffffffffffffffffed80613309577f4e487b7100000000000000000000000000000000000000000000000000000000600052601260045260246000fd5b85604001517f7fffffffffffffffffffffffffffffffffffffffffffffffffffffffffffffed61333991906150bc565b86602001510808098260000181815250507f7fffffffffffffffffffffffffffffffffffffffffffffffffffffffffffffed8061339f577f4e487b7100000000000000000000000000000000000000000000000000000000600052601260045260246000fd5b7f7fffffffffffffffffffffffffffffffffffffffffffffffffffffffffffffed806133f4577f4e487b7100000000000000000000000000000000000000000000000000000000600052601260045260246000fd5b82606001517f7fffffffffffffffffffffffffffffffffffffffffffffffffffffffffffffed61342491906150bc565b8360800151088260a00151098260200181815250507f7fffffffffffffffffffffffffffffffffffffffffffffffffffffffffffffed8061348e577f4e487b7100000000000000000000000000000000000000000000000000000000600052601260045260246000fd5b8160c001518260a001510982604001818152505050919050565b60008060027f7fffffffffffffffffffffffffffffffffffffffffffffffffffffffffffffed6134d891906150bc565b905060007f7fffffffffffffffffffffffffffffffffffffffffffffffffffffffffffffed905060405160208152602080820152602060408201528460608201528260808201528160a082015260208160c0836005600019fa61353a57600080fd5b80519350505050919050565b61354e613ca1565b73ffffffffffffffffffffffffffffffffffffffff1661356c6116ac565b73ffffffffffffffffffffffffffffffffffffffff16146135c2576040517f08c379a00000000000000000000000000000000000000000000000000000000081526004016135b990614c35565b60405180910390fd5b565b60008060009054906101000a900473ffffffffffffffffffffffffffffffffffffffff169050816000806101000a81548173ffffffffffffffffffffffffffffffffffffffff021916908373ffffffffffffffffffffffffffffffffffffffff1602179055508173ffffffffffffffffffffffffffffffffffffffff168173ffffffffffffffffffffffffffffffffffffffff167f8be0079c531659141344cd1fd0a4f28419497f9722a3daafe3b4186f6b6457e060405160405180910390a35050565b600082516014836136999190614e9b565b11156136a457600080fd5b7fffffffffffffffffffffffffffffffffffffffff0000000000000000000000008260208501015116905092915050565b60006040518251602084019350604067ffffffffffffffc0600183011601600982820310600181146137065761370d565b6040820191505b50776745230100efcdab890098badcfe001032547600c3d2e1f0613765565b60008383101561375e578282015190508284039350602084101561375d576001846020036101000a03198082169150505b5b9392505050565b60005b82811015613b735761377b84828961372c565b855261378b84602083018961372c565b6020860152604081850310600181146137a3576137ac565b60808286038701535b50604083038114600181146137c0576137d0565b6008850260208701511760208701525b5060405b608081101561385c5760408103860151603882038701511860208203870151600c830388015118187c010000000100000001000000010000000100000001000000010000000163800000008204167ffffffffefffffffefffffffefffffffefffffffefffffffefffffffefffffffe6002830216179050808288015250600c810190506137d4565b5060805b6101408110156138e957608081038601516070820387015118604082038701516018830388015118187c030000000300000003000000030000000300000003000000030000000363400000008204167ffffffffcfffffffcfffffffcfffffffcfffffffcfffffffcfffffffcfffffffc6004830216179050808288015250601881019050613860565b508160008060005b6050811015613b45576014810460008114613923576001811461396d57600281146139aa5760038114613a0d57613a46565b6501000000000085046a01000000000000000000008604189350836f01000000000000000000000000000000860416935083650100000000008604189350635a8279999250613a46565b6a010000000000000000000085046f01000000000000000000000000000000860418935083650100000000008604189350636ed9eba19250613a46565b6a010000000000000000000085046f01000000000000000000000000000000860417935083650100000000008604169350836a010000000000000000000086046f01000000000000000000000000000000870416179350638f1bbcdc9250613a46565b6a010000000000000000000085046f0100000000000000000000000000000086041893508365010000000000860418935063ca62c1d692505b50601f770800000000000000000000000000000000000000000000008504168063ffffffe073080000000000000000000000000000000000000087041617905080840190508063ffffffff86160190508083019050807c0100000000000000000000000000000000000000000000000000000000600484028c0151040190507401000000000000000000000000000000000000000081026501000000000086041794506a0100000000000000000000633fffffff6a040000000000000000000087041663c00000006604000000000000880416170277ffffffff00ffffffff000000000000ffffffff00ffffffff8616179450506001810190506138f1565b5077ffffffff00ffffffff00ffffffff00ffffffff00ffffffff838601169450505050604081019050613768565b506c0100000000000000000000000063ffffffff821667ffffffff000000006101008404166bffffffff0000000000000000620100008504166fffffffff000000000000000000000000630100000086041673ffffffff000000000000000000000000000000006401000000008704161717171702945050505050919050565b613bfb613fae565b6000602083613c0a919061522b565b14613c3657602082613c1c919061522b565b6020613c2891906150bc565b82613c339190614e9b565b91505b81836020018181525050604051808452600081528281016020016040525082905092915050565b613c65613fae565b613c7783846000015151846020613ca9565b905092915050565b613c87613fae565b613c9983846000015151848551613d55565b905092915050565b600033905090565b613cb1613fae565b84602001518483613cc29190614e9b565b1115613cea57613ce98560028685613cda9190614e9b565b613ce49190615062565b613e5f565b5b6000600183610100613cfc9190614f44565b613d0691906150bc565b9050826020613d1591906150bc565b6008613d219190615062565b84901c93508551838682010185831982511617815281518588011115613d475784870182525b505085915050949350505050565b613d5d613fae565b8251821115613d6b57600080fd5b84602001518285613d7c9190614e9b565b1115613db157613db0856002613da188602001518887613d9c9190614e9b565b613e83565b613dab9190615062565b613e5f565b5b600080865180518760208301019350808887011115613dd05787860182525b60208701925050505b60208410613e175780518252602082613df29190614e9b565b9150602081613e019190614e9b565b9050602084613e1091906150bc565b9350613dd9565b60006001856020613e2891906150bc565b610100613e359190614f44565b613e3f91906150bc565b905080198251168184511681811785525050879350505050949350505050565b600082600001519050613e728383613bf3565b50613e7d8382613c7f565b50505050565b600081831115613e9557829050613e99565b8190505b92915050565b60405180610a000160405280605090602082028036833780820191505090505090565b604051806101000160405280600890602082028036833780820191505090505090565b60405180606001604052806000815260200160008152602001600081525090565b6040518060400160405280600290602082028036833780820191505090505090565b828054613f34906151b0565b90600052602060002090601f016020900481019282613f565760008555613f9d565b82601f10613f6f57805160ff1916838001178555613f9d565b82800160010185558215613f9d579182015b82811115613f9c578251825591602001919060010190613f81565b5b509050613faa919061400d565b5090565b604051806040016040528060608152602001600081525090565b60405180610100016040528060008152602001600081526020016000815260200160008152602001600081526020016000815260200160008152602001600081525090565b5b8082111561402657600081600090555060010161400e565b5090565b600061403d61403884614d21565b614cf0565b9050808285602086028201111561405357600080fd5b60005b85811015614083578161406988826142ec565b845260208401935060208301925050600181019050614056565b5050509392505050565b60006140a061409b84614d47565b614cf0565b905080828560208602820111156140b657600080fd5b60005b858110156140e657816140cc88826142ec565b8452602084019350602083019250506001810190506140b9565b5050509392505050565b60006141036140fe84614d6d565b614cf0565b9050808285602086028201111561411957600080fd5b60005b85811015614149578161412f88826142ec565b84526020840193506020830192505060018101905061411c565b5050509392505050565b600061416661416184614d93565b614cf0565b90508281526020810184848401111561417e57600080fd5b61418984828561516e565b509392505050565b60006141a461419f84614dc3565b614cf0565b9050828152602081018484840111156141bc57600080fd5b6141c784828561516e565b509392505050565b6000813590506141de81615336565b92915050565b600082601f8301126141f557600080fd5b600261420284828561402a565b91505092915050565b600082601f83011261421c57600080fd5b605061422984828561408d565b91505092915050565b600082601f83011261424357600080fd5b60086142508482856140f0565b91505092915050565b6000813590506142688161534d565b92915050565b60008135905061427d81615364565b92915050565b60008151905061429281615364565b92915050565b600082601f8301126142a957600080fd5b81356142b9848260208601614153565b91505092915050565b600082601f8301126142d357600080fd5b81356142e3848260208601614191565b91505092915050565b6000813590506142fb8161537b565b92915050565b60006020828403121561431357600080fd5b6000614321848285016141cf565b91505092915050565b6000806080838503121561433d57600080fd5b600061434b858286016141e4565b925050604061435c858286016141e4565b9150509250929050565b6000806060838503121561437957600080fd5b6000614387858286016141e4565b9250506040614398858286016142ec565b9150509250929050565b6000610a0082840312156143b557600080fd5b60006143c38482850161420b565b91505092915050565b600061010082840312156143df57600080fd5b60006143ed84828501614232565b91505092915050565b60006020828403121561440857600080fd5b600061441684828501614283565b91505092915050565b6000806040838503121561443257600080fd5b60006144408582860161426e565b92505060206144518582860161426e565b9150509250929050565b6000806040838503121561446e57600080fd5b600083013567ffffffffffffffff81111561448857600080fd5b61449485828601614298565b92505060206144a585828601614259565b9150509250929050565b600080604083850312156144c257600080fd5b600083013567ffffffffffffffff8111156144dc57600080fd5b6144e885828601614298565b92505060206144f98582860161426e565b9150509250929050565b6000806040838503121561451657600080fd5b600083013567ffffffffffffffff81111561453057600080fd5b61453c858286016142c2565b925050602083013567ffffffffffffffff81111561455957600080fd5b614565858286016142c2565b9150509250929050565b6000806000806080858703121561458557600080fd5b600085013567ffffffffffffffff81111561459f57600080fd5b6145ab878288016142c2565b945050602085013567ffffffffffffffff8111156145c857600080fd5b6145d4878288016142c2565b935050604085013567ffffffffffffffff8111156145f157600080fd5b6145fd87828801614298565b925050606085013567ffffffffffffffff81111561461a57600080fd5b61462687828801614298565b91505092959194509250565b600080600080600080610100878903121561464c57600080fd5b600087013567ffffffffffffffff81111561466657600080fd5b61467289828a016142c2565b965050602087013567ffffffffffffffff81111561468f57600080fd5b61469b89828a016142c2565b95505060406146ac89828a016142ec565b94505060606146bd89828a016141e4565b93505060a06146ce89828a016141e4565b92505060e087013567ffffffffffffffff8111156146eb57600080fd5b6146f789828a01614298565b9150509295509295509295565b600080600080600060a0868803121561471c57600080fd5b600086013567ffffffffffffffff81111561473657600080fd5b614742888289016142c2565b955050602086013567ffffffffffffffff81111561475f57600080fd5b61476b888289016142c2565b945050604061477c888289016142ec565b935050606061478d888289016142ec565b925050608061479e888289016142ec565b9150509295509295909350565b600080604083850312156147be57600080fd5b60006147cc858286016142ec565b92505060206147dd858286016142ec565b9150509250929050565b6000806000606084860312156147fc57600080fd5b600061480a868287016142ec565b935050602061481b868287016142ec565b925050604061482c868287016142ec565b9150509250925092565b600080600080610a60858703121561484d57600080fd5b600061485b878288016142ec565b945050602061486c878288016142ec565b935050604061487d878288016142ec565b925050606061488e8782880161420b565b91505092959194509250565b60006148a68383614b25565b60208301905092915050565b6148bb816150f0565b82525050565b6148ca81614e07565b6148d48184614e4d565b92506148df82614df3565b8060005b838110156149105781516148f7878261489a565b965061490283614e33565b9250506001810190506148e3565b505050505050565b61492181614e12565b61492b8184614e58565b925061493682614dfd565b8060005b8381101561496757815161494e878261489a565b965061495983614e40565b92505060018101905061493a565b505050505050565b61497881615102565b82525050565b600061498982614e1d565b6149938185614e63565b93506149a381856020860161517d565b6149ac81615318565b840191505092915050565b60006149c282614e1d565b6149cc8185614e74565b93506149dc81856020860161517d565b80840191505092915050565b60006149f382614e28565b6149fd8185614e90565b9350614a0d81856020860161517d565b80840191505092915050565b6000614a26602683614e7f565b91507f4f776e61626c653a206e6577206f776e657220697320746865207a65726f206160008301527f64647265737300000000000000000000000000000000000000000000000000006020830152604082019050919050565b6000614a8c602083614e7f565b91507f4f776e61626c653a2063616c6c6572206973206e6f7420746865206f776e65726000830152602082019050919050565b6000614acc603383614e7f565b91507f546865206d73672e73656e64657220697320646966666572656e74207468616e60008301527f20746865206f7261636c652061646472657373000000000000000000000000006020830152604082019050919050565b614b2e81615164565b82525050565b614b3d81615164565b82525050565b6000614b4f82846149b7565b915081905092915050565b6000614b6682846149e8565b915081905092915050565b6000602082019050614b8660008301846148b2565b92915050565b6000604082019050614ba160008301846148c1565b92915050565b600061010082019050614bbd6000830184614918565b92915050565b6000602082019050614bd8600083018461496f565b92915050565b60006040820190508181036000830152614bf8818561497e565b90508181036020830152614c0c818461497e565b90509392505050565b60006020820190508181036000830152614c2e81614a19565b9050919050565b60006020820190508181036000830152614c4e81614a7f565b9050919050565b60006020820190508181036000830152614c6e81614abf565b9050919050565b6000602082019050614c8a6000830184614b34565b92915050565b6000604082019050614ca56000830185614b34565b614cb26020830184614b34565b9392505050565b6000606082019050614cce6000830186614b34565b614cdb6020830185614b34565b614ce86040830184614b34565b949350505050565b6000604051905081810181811067ffffffffffffffff82111715614d1757614d166152e9565b5b8060405250919050565b600067ffffffffffffffff821115614d3c57614d3b6152e9565b5b602082029050919050565b600067ffffffffffffffff821115614d6257614d616152e9565b5b602082029050919050565b600067ffffffffffffffff821115614d8857614d876152e9565b5b602082029050919050565b600067ffffffffffffffff821115614dae57614dad6152e9565b5b601f19601f8301169050602081019050919050565b600067ffffffffffffffff821115614dde57614ddd6152e9565b5b601f19601f8301169050602081019050919050565b6000819050919050565b6000819050919050565b600060029050919050565b600060089050919050565b600081519050919050565b600081519050919050565b6000602082019050919050565b6000602082019050919050565b600081905092915050565b600081905092915050565b600082825260208201905092915050565b600081905092915050565b600082825260208201905092915050565b600081905092915050565b6000614ea682615164565b9150614eb183615164565b9250827fffffffffffffffffffffffffffffffffffffffffffffffffffffffffffffffff03821115614ee657614ee561525c565b5b828201905092915050565b6000808291508390505b6001851115614f3b57808604811115614f1757614f1661525c565b5b6001851615614f265780820291505b8081029050614f3485615329565b9450614efb565b94509492505050565b6000614f4f82615164565b9150614f5a83615164565b9250614f877fffffffffffffffffffffffffffffffffffffffffffffffffffffffffffffffff8484614f8f565b905092915050565b600082614f9f576001905061505b565b81614fad576000905061505b565b8160018114614fc35760028114614fcd57614ffc565b600191505061505b565b60ff841115614fdf57614fde61525c565b5b8360020a915084821115614ff657614ff561525c565b5b5061505b565b5060208310610133831016604e8410600b84101617156150315782820a90508381111561502c5761502b61525c565b5b61505b565b61503e8484846001614ef1565b925090508184048111156150555761505461525c565b5b81810290505b9392505050565b600061506d82615164565b915061507883615164565b9250817fffffffffffffffffffffffffffffffffffffffffffffffffffffffffffffffff04831182151516156150b1576150b061525c565b5b828202905092915050565b60006150c782615164565b91506150d283615164565b9250828210156150e5576150e461525c565b5b828203905092915050565b60006150fb82615144565b9050919050565b60008115159050919050565b60007fffffffffffffffffffffffffffffffffffffffff00000000000000000000000082169050919050565b6000819050919050565b600073ffffffffffffffffffffffffffffffffffffffff82169050919050565b6000819050919050565b82818337600083830152505050565b60005b8381101561519b578082015181840152602081019050615180565b838111156151aa576000848401525b50505050565b600060028204905060018216806151c857607f821691505b602082108114156151dc576151db6152ba565b5b50919050565b60006151ed82615164565b91507fffffffffffffffffffffffffffffffffffffffffffffffffffffffffffffffff8214156152205761521f61525c565b5b600182019050919050565b600061523682615164565b915061524183615164565b9250826152515761525061528b565b5b828206905092915050565b7f4e487b7100000000000000000000000000000000000000000000000000000000600052601160045260246000fd5b7f4e487b7100000000000000000000000000000000000000000000000000000000600052601260045260246000fd5b7f4e487b7100000000000000000000000000000000000000000000000000000000600052602260045260246000fd5b7f4e487b7100000000000000000000000000000000000000000000000000000000600052604160045260246000fd5b6000601f19601f8301169050919050565b60008160011c9050919050565b61533f816150f0565b811461534a57600080fd5b50565b6153568161510e565b811461536157600080fd5b50565b61536d8161513a565b811461537857600080fd5b50565b61538481615164565b811461538f57600080fd5b5056fea2646970667358221220eede605b54c69751761824e0afe855ad87e5ca4a5928d29ba6c0fa70b47739b964736f6c63430008000033",
  "linkReferences": {},
  "deployedLinkReferences": {}
}