{
  "contractName": "DkimChecker",
  "abi": [
    {
      "inputs": [
        {
          "internalType": "address",
          "name": "_oracle",
          "type": "address"
        }
      ],
      "payable": false,
      "stateMutability": "nonpayable",
      "type": "constructor"
    },
    {
      "anonymous": false,
      "inputs": [
        {
          "indexed": false,
          "internalType": "bytes32",
          "name": "x",
          "type": "bytes32"
        }
      ],
      "name": "Debug",
      "type": "event"
    },
    {
      "anonymous": false,
      "inputs": [
        {
          "indexed": false,
          "internalType": "bool",
          "name": "",
          "type": "bool"
        }
      ],
      "name": "ReturnVal",
      "type": "event"
    },
    {
      "constant": true,
      "inputs": [
        {
          "internalType": "uint256[8]",
          "name": "Ai",
          "type": "uint256[8]"
        }
      ],
      "name": "arrayToLE",
      "outputs": [
        {
          "internalType": "uint256",
          "name": "high",
          "type": "uint256"
        },
        {
          "internalType": "uint256",
          "name": "low",
          "type": "uint256"
        }
      ],
      "payable": false,
      "stateMutability": "pure",
      "type": "function"
    },
    {
      "constant": true,
      "inputs": [
        {
          "internalType": "bytes32",
          "name": "",
          "type": "bytes32"
        },
        {
          "internalType": "bytes32",
          "name": "",
          "type": "bytes32"
        }
      ],
      "name": "dkimKeysEd",
      "outputs": [
        {
          "internalType": "uint256",
          "name": "x",
          "type": "uint256"
        },
        {
          "internalType": "uint256",
          "name": "y",
          "type": "uint256"
        },
        {
          "internalType": "uint256",
          "name": "p",
          "type": "uint256"
        }
      ],
      "payable": false,
      "stateMutability": "view",
      "type": "function"
    },
    {
      "constant": true,
      "inputs": [
        {
          "internalType": "bytes32",
          "name": "",
          "type": "bytes32"
        },
        {
          "internalType": "bytes32",
          "name": "",
          "type": "bytes32"
        }
      ],
      "name": "dkimKeysRsa",
      "outputs": [
        {
          "internalType": "bytes",
          "name": "exponent",
          "type": "bytes"
        },
        {
          "internalType": "bytes",
          "name": "modulus",
          "type": "bytes"
        }
      ],
      "payable": false,
      "stateMutability": "view",
      "type": "function"
    },
    {
      "constant": true,
      "inputs": [
        {
          "internalType": "uint256[2]",
          "name": "_a",
          "type": "uint256[2]"
        },
        {
          "internalType": "uint256[2]",
          "name": "_b",
          "type": "uint256[2]"
        }
      ],
      "name": "ecAddVec",
      "outputs": [
        {
          "internalType": "uint256[2]",
          "name": "",
          "type": "uint256[2]"
        }
      ],
      "payable": false,
      "stateMutability": "view",
      "type": "function"
    },
    {
      "constant": true,
      "inputs": [
        {
          "internalType": "uint256",
          "name": "_r",
          "type": "uint256"
        },
        {
          "internalType": "uint256",
          "name": "_p",
          "type": "uint256"
        },
        {
          "internalType": "uint256",
          "name": "_hx",
          "type": "uint256"
        },
        {
          "internalType": "uint256[80]",
          "name": "w",
          "type": "uint256[80]"
        }
      ],
      "name": "initW",
      "outputs": [],
      "payable": false,
      "stateMutability": "pure",
      "type": "function"
    },
    {
      "constant": true,
      "inputs": [],
      "name": "oracle",
      "outputs": [
        {
          "internalType": "address",
          "name": "",
          "type": "address"
        }
      ],
      "payable": false,
      "stateMutability": "view",
      "type": "function"
    },
    {
      "constant": true,
      "inputs": [
        {
          "internalType": "uint256",
          "name": "value",
          "type": "uint256"
        },
        {
          "internalType": "uint256",
          "name": "d",
          "type": "uint256"
        }
      ],
      "name": "rotr",
      "outputs": [
        {
          "internalType": "uint256",
          "name": "",
          "type": "uint256"
        }
      ],
      "payable": false,
      "stateMutability": "pure",
      "type": "function"
    },
    {
      "constant": true,
      "inputs": [
        {
          "internalType": "uint256[2]",
          "name": "point",
          "type": "uint256[2]"
        },
        {
          "internalType": "uint256",
          "name": "s",
          "type": "uint256"
        }
      ],
      "name": "scalarMult",
      "outputs": [
        {
          "internalType": "uint256",
          "name": "",
          "type": "uint256"
        },
        {
          "internalType": "uint256",
          "name": "",
          "type": "uint256"
        }
      ],
      "payable": false,
      "stateMutability": "view",
      "type": "function"
    },
    {
      "constant": true,
      "inputs": [
        {
          "internalType": "uint256",
          "name": "_r",
          "type": "uint256"
        },
        {
          "internalType": "uint256",
          "name": "_p",
          "type": "uint256"
        },
        {
          "internalType": "uint256",
          "name": "_hx",
          "type": "uint256"
        }
      ],
      "name": "sha512modl",
      "outputs": [
        {
          "internalType": "uint256",
          "name": "hashmodl",
          "type": "uint256"
        }
      ],
      "payable": false,
      "stateMutability": "view",
      "type": "function"
    },
    {
      "constant": true,
      "inputs": [
        {
          "internalType": "uint256[80]",
          "name": "W",
          "type": "uint256[80]"
        }
      ],
      "name": "update",
      "outputs": [
        {
          "internalType": "uint256[8]",
          "name": "",
          "type": "uint256[8]"
        }
      ],
      "payable": false,
      "stateMutability": "view",
      "type": "function"
    },
    {
      "constant": false,
      "inputs": [
        {
          "internalType": "string",
          "name": "_selector",
          "type": "string"
        },
        {
          "internalType": "string",
          "name": "_domain",
          "type": "string"
        },
        {
          "internalType": "bytes",
          "name": "_exponent",
          "type": "bytes"
        },
        {
          "internalType": "bytes",
          "name": "_modulus",
          "type": "bytes"
        }
      ],
      "name": "setDkimKeyRsa",
      "outputs": [
        {
          "internalType": "bool",
          "name": "",
          "type": "bool"
        }
      ],
      "payable": false,
      "stateMutability": "nonpayable",
      "type": "function"
    },
    {
      "constant": false,
      "inputs": [
        {
          "internalType": "string",
          "name": "_selector",
          "type": "string"
        },
        {
          "internalType": "string",
          "name": "_domain",
          "type": "string"
        },
        {
          "internalType": "uint256",
          "name": "x",
          "type": "uint256"
        },
        {
          "internalType": "uint256",
          "name": "y",
          "type": "uint256"
        },
        {
          "internalType": "uint256",
          "name": "p",
          "type": "uint256"
        }
      ],
      "name": "setDkimKeyEd",
      "outputs": [
        {
          "internalType": "bool",
          "name": "",
          "type": "bool"
        }
      ],
      "payable": false,
      "stateMutability": "nonpayable",
      "type": "function"
    },
    {
      "constant": true,
      "inputs": [
        {
          "internalType": "string",
          "name": "_selector",
          "type": "string"
        },
        {
          "internalType": "string",
          "name": "_domain",
          "type": "string"
        }
      ],
      "name": "getDkimKeyRsa",
      "outputs": [
        {
          "internalType": "bytes",
          "name": "",
          "type": "bytes"
        },
        {
          "internalType": "bytes",
          "name": "",
          "type": "bytes"
        }
      ],
      "payable": false,
      "stateMutability": "view",
      "type": "function"
    },
    {
      "constant": true,
      "inputs": [
        {
          "internalType": "string",
          "name": "_selector",
          "type": "string"
        },
        {
          "internalType": "string",
          "name": "_domain",
          "type": "string"
        }
      ],
      "name": "getDkimKeyEd",
      "outputs": [
        {
          "internalType": "uint256",
          "name": "x",
          "type": "uint256"
        },
        {
          "internalType": "uint256",
          "name": "y",
          "type": "uint256"
        }
      ],
      "payable": false,
      "stateMutability": "view",
      "type": "function"
    },
    {
      "constant": false,
      "inputs": [
        {
          "internalType": "bytes",
          "name": "body",
          "type": "bytes"
        },
        {
          "internalType": "bytes20",
          "name": "bodyHash",
          "type": "bytes20"
        }
      ],
      "name": "checkBodySHA1",
      "outputs": [
        {
          "internalType": "bool",
          "name": "",
          "type": "bool"
        }
      ],
      "payable": false,
      "stateMutability": "nonpayable",
      "type": "function"
    },
    {
      "constant": false,
      "inputs": [
        {
          "internalType": "bytes",
          "name": "body",
          "type": "bytes"
        },
        {
          "internalType": "bytes32",
          "name": "bodyHash",
          "type": "bytes32"
        }
      ],
      "name": "checkBodySHA256",
      "outputs": [
        {
          "internalType": "bool",
          "name": "",
          "type": "bool"
        }
      ],
      "payable": false,
      "stateMutability": "nonpayable",
      "type": "function"
    },
    {
      "constant": false,
      "inputs": [
        {
          "internalType": "string",
          "name": "_selector",
          "type": "string"
        },
        {
          "internalType": "string",
          "name": "_domain",
          "type": "string"
        },
        {
          "internalType": "bytes",
          "name": "_sig",
          "type": "bytes"
        },
        {
          "internalType": "bytes",
          "name": "_canonicalizedHeader",
          "type": "bytes"
        }
      ],
      "name": "verifyRSASHA256",
      "outputs": [
        {
          "internalType": "bool",
          "name": "",
          "type": "bool"
        }
      ],
      "payable": false,
      "stateMutability": "nonpayable",
      "type": "function"
    },
    {
      "constant": false,
      "inputs": [
        {
          "internalType": "string",
          "name": "_selector",
          "type": "string"
        },
        {
          "internalType": "string",
          "name": "_domain",
          "type": "string"
        },
        {
          "internalType": "bytes",
          "name": "_sig",
          "type": "bytes"
        },
        {
          "internalType": "bytes",
          "name": "_canonicalizedHeader",
          "type": "bytes"
        }
      ],
      "name": "verifyRSASHA1",
      "outputs": [
        {
          "internalType": "bool",
          "name": "",
          "type": "bool"
        }
      ],
      "payable": false,
      "stateMutability": "nonpayable",
      "type": "function"
    },
    {
      "constant": false,
      "inputs": [
        {
          "internalType": "string",
          "name": "_selector",
          "type": "string"
        },
        {
          "internalType": "string",
          "name": "_domain",
          "type": "string"
        },
        {
          "internalType": "uint256",
          "name": "_r",
          "type": "uint256"
        },
        {
          "internalType": "uint256[2]",
          "name": "_R",
          "type": "uint256[2]"
        },
        {
          "internalType": "uint256[2]",
          "name": "_lhs",
          "type": "uint256[2]"
        },
        {
          "internalType": "bytes",
          "name": "_canonicalizedHeader",
          "type": "bytes"
        }
      ],
      "name": "verifyED25519",
      "outputs": [
        {
          "internalType": "bool",
          "name": "",
          "type": "bool"
        }
      ],
      "payable": false,
      "stateMutability": "nonpayable",
      "type": "function"
    }
  ],
  "bytecode": "0x610a8060405267428a2f98d728ae226080908152677137449123ef65cd60a05267b5c0fbcfec4d3b2f60c05267e9b5dba58189dbbc60e052673956c25bf348b538610100526759f111f1b605d0196101205267923f82a4af194f9b6101405267ab1c5ed5da6d81186101605267d807aa98a3030242610180526712835b0145706fbe6101a05267243185be4ee4b28c6101c05267550c7dc3d5ffb4e26101e0526772be5d74f27b896f610200526780deb1fe3b1696b161022052679bdc06a725c712356102405267c19bf174cf6926946102605267e49b69c19ef14ad26102805267efbe4786384f25e36102a052670fc19dc68b8cd5b56102c05267240ca1cc77ac9c656102e052672de92c6f592b027561030052674a7484aa6ea6e48361032052675cb0a9dcbd41fbd4610340526776f988da831153b56103605267983e5152ee66dfab6103805267a831c66d2db432106103a05267b00327c898fb213f6103c05267bf597fc7beef0ee46103e05267c6e00bf33da88fc26104005267d5a79147930aa725610420526706ca6351e003826f6104405267142929670a0e6e70610460526727b70a8546d22ffc61048052672e1b21385c26c9266104a052674d2c6dfc5ac42aed6104c0526753380d139d95b3df6104e05267650a73548baf63de6105005267766a0abb3c77b2a8610520526781c2c92e47edaee6610540526792722c851482353b6105605267a2bfe8a14cf103646105805267a81a664bbc4230016105a05267c24b8b70d0f897916105c05267c76c51a30654be306105e05267d192e819d6ef52186106005267d69906245565a9106106205267f40e35855771202a6106405267106aa07032bbd1b8610660526719a4c116b8d2d0c861068052671e376c085141ab536106a052672748774cdf8eeb996106c0526734b0bcb5e19b48a86106e05267391c0cb3c5c95a6361070052674ed8aa4ae3418acb61072052675b9cca4f7763e3736107405267682e6ff3d6b2b8a36107605267748f82ee5defb2fc610780526778a5636f43172f606107a0526784c87814a1f0ab726107c052678cc702081a6439ec6107e0526790befffa23631e286108005267a4506cebde82bde96108205267bef9a3f7b2c679156108405267c67178f2e372532b6108605267ca273eceea26619c6108805267d186b8c721c0c2076108a05267eada7dd6cde0eb1e6108c05267f57d4f7fee6ed1786108e0526706f067aa72176fba61090052670a637dc5a2c898a66109205267113f9804bef90dae61094052671b710b35131c471b610960526728db77f523047d84610980526732caab7b40c724936109a052673c9ebe0a15c9bebc6109c05267431d67c49c100d4c6109e052674cc5d4becb3e42b6610a005267597f299cfc657e2a610a2052675fcb6fab3ad6faec610a4052676c44198c4a475817610a6052620004239060009060506200050b565b50604051806101000160405280676a09e667f3bcc908815260200167bb67ae8584caa73b8152602001673c6ef372fe94f82b815260200167a54ff53a5f1d36f1815260200167510e527fade682d18152602001679b05688c2b3e6c1f8152602001671f83d9abfb41bd6b8152602001675be0cd19137e21798152506050906008620004b09291906200054e565b50348015620004be57600080fd5b5060405162003ed638038062003ed683398181016040526020811015620004e457600080fd5b5051605880546001600160a01b0319166001600160a01b039092169190911790556200059e565b82605081019282156200053c579160200282015b828111156200053c5782518255916020019190600101906200051f565b506200054a9291506200057e565b5090565b82600881019282156200053c57916020028201828111156200053c5782518255916020019190600101906200051f565b6200059b91905b808211156200054a576000815560010162000585565b90565b61392880620005ae6000396000f3fe608060405234801561001057600080fd5b50600436106101515760003560e01c80639b0fd8cd116100cd578063cb7034d211610081578063dcb90bb911610066578063dcb90bb91461108c578063e36027ab146110f1578063f3ae1b311461130157610151565b8063cb7034d214610f94578063dbd1195c1461104b57610151565b8063af0df022116100b2578063af0df02214610b84578063b217882514610cb1578063c82f10f514610d5957610151565b80639b0fd8cd146108be578063a2226ef61461094957610151565b8063500d8107116101245780635a6eb94e116101095780635a6eb94e1461062e578063755d4add146108395780637dc0d1d01461088d57610151565b8063500d8107146105a557806351b6c0a11461060b57610151565b806301f743371461015657806305e4fa19146101915780632739c34f1461021e5780633d69d2f71461036a575b600080fd5b61017f6004803603606081101561016c57600080fd5b5080359060208101359060400135611324565b60408051918252519081900360200190f35b6101e56004803603610a008110156101a857600080fd5b8101908080610a00019060508060200260405190810160405280929190826050602002808284376000920191909152509194506114759350505050565b604051808261010080838360005b8381101561020b5781810151838201526020016101f3565b5050505090500191505060405180910390f35b610356600480360360a081101561023457600080fd5b81019060208101813564010000000081111561024f57600080fd5b82018360208201111561026157600080fd5b8035906020019184600183028401116401000000008311171561028357600080fd5b91908080601f01602080910402602001604051908101604052809392919081815260200183838082843760009201919091525092959493602081019350359150506401000000008111156102d657600080fd5b8201836020820111156102e857600080fd5b8035906020019184600183028401116401000000008311171561030a57600080fd5b91908080601f01602080910402602001604051908101604052809392919081815260200183838082843760009201919091525092955050823593505050602081013590604001356115a9565b604080519115158252519081900360200190f35b6103566004803603608081101561038057600080fd5b81019060208101813564010000000081111561039b57600080fd5b8201836020820111156103ad57600080fd5b803590602001918460018302840111640100000000831117156103cf57600080fd5b91908080601f016020809104026020016040519081016040528093929190818152602001838380828437600092019190915250929594936020810193503591505064010000000081111561042257600080fd5b82018360208201111561043457600080fd5b8035906020019184600183028401116401000000008311171561045657600080fd5b91908080601f01602080910402602001604051908101604052809392919081815260200183838082843760009201919091525092959493602081019350359150506401000000008111156104a957600080fd5b8201836020820111156104bb57600080fd5b803590602001918460018302840111640100000000831117156104dd57600080fd5b91908080601f016020809104026020016040519081016040528093929190818152602001838380828437600092019190915250929594936020810193503591505064010000000081111561053057600080fd5b82018360208201111561054257600080fd5b8035906020019184600183028401116401000000008311171561056457600080fd5b91908080601f016020809104026020016040519081016040528093929190818152602001838380828437600092019190915250929550611738945050505050565b6105f2600480360360608110156105bb57600080fd5b604080518082018252918301929181830191839060029083908390808284376000920191909152509194505090359150611a9d9050565b6040805192835260208301919091528051918290030190f35b61017f6004803603604081101561062157600080fd5b5080359060200135611b52565b61075b6004803603604081101561064457600080fd5b81019060208101813564010000000081111561065f57600080fd5b82018360208201111561067157600080fd5b8035906020019184600183028401116401000000008311171561069357600080fd5b91908080601f01602080910402602001604051908101604052809392919081815260200183838082843760009201919091525092959493602081019350359150506401000000008111156106e657600080fd5b8201836020820111156106f857600080fd5b8035906020019184600183028401116401000000008311171561071a57600080fd5b91908080601f016020809104026020016040519081016040528093929190818152602001838380828437600092019190915250929550611b6f945050505050565b604051808060200180602001838103835285818151815260200191508051906020019080838360005b8381101561079c578181015183820152602001610784565b50505050905090810190601f1680156107c95780820380516001836020036101000a031916815260200191505b50838103825284518152845160209182019186019080838360005b838110156107fc5781810151838201526020016107e4565b50505050905090810190601f1680156108295780820380516001836020036101000a031916815260200191505b5094505050505060405180910390f35b6105f2600480360361010081101561085057600080fd5b810190808061010001906008806020026040519081016040528092919082600860200280828437600092019190915250919450611ddd9350505050565b610895611eb9565b6040805173ffffffffffffffffffffffffffffffffffffffff9092168252519081900360200190f35b610932600480360360808110156108d457600080fd5b604080518082018252918301929181830191839060029083908390808284376000920191909152505060408051808201825292959493818101939250906002908390839080828437600092019190915250919450611ed59350505050565b6040805182518152908190839080838360206101f3565b6103566004803603608081101561095f57600080fd5b81019060208101813564010000000081111561097a57600080fd5b82018360208201111561098c57600080fd5b803590602001918460018302840111640100000000831117156109ae57600080fd5b91908080601f0160208091040260200160405190810160405280939291908181526020018383808284376000920191909152509295949360208101935035915050640100000000811115610a0157600080fd5b820183602082011115610a1357600080fd5b80359060200191846001830284011164010000000083111715610a3557600080fd5b91908080601f0160208091040260200160405190810160405280939291908181526020018383808284376000920191909152509295949360208101935035915050640100000000811115610a8857600080fd5b820183602082011115610a9a57600080fd5b80359060200191846001830284011164010000000083111715610abc57600080fd5b91908080601f0160208091040260200160405190810160405280939291908181526020018383808284376000920191909152509295949360208101935035915050640100000000811115610b0f57600080fd5b820183602082011115610b2157600080fd5b80359060200191846001830284011164010000000083111715610b4357600080fd5b91908080601f016020809104026020016040519081016040528093929190818152602001838380828437600092019190915250929550611f7d945050505050565b6105f260048036036040811015610b9a57600080fd5b810190602081018135640100000000811115610bb557600080fd5b820183602082011115610bc757600080fd5b80359060200191846001830284011164010000000083111715610be957600080fd5b91908080601f0160208091040260200160405190810160405280939291908181526020018383808284376000920191909152509295949360208101935035915050640100000000811115610c3c57600080fd5b820183602082011115610c4e57600080fd5b80359060200191846001830284011164010000000083111715610c7057600080fd5b91908080601f01602080910402602001604051908101604052809392919081815260200183838082843760009201919091525092955061212d945050505050565b61035660048036036040811015610cc757600080fd5b810190602081018135640100000000811115610ce257600080fd5b820183602082011115610cf457600080fd5b80359060200191846001830284011164010000000083111715610d1657600080fd5b91908080601f0160208091040260200160405190810160405280939291908181526020018383808284376000920191909152509295505091359250612266915050565b61035660048036036080811015610d6f57600080fd5b810190602081018135640100000000811115610d8a57600080fd5b820183602082011115610d9c57600080fd5b80359060200191846001830284011164010000000083111715610dbe57600080fd5b91908080601f0160208091040260200160405190810160405280939291908181526020018383808284376000920191909152509295949360208101935035915050640100000000811115610e1157600080fd5b820183602082011115610e2357600080fd5b80359060200191846001830284011164010000000083111715610e4557600080fd5b91908080601f0160208091040260200160405190810160405280939291908181526020018383808284376000920191909152509295949360208101935035915050640100000000811115610e9857600080fd5b820183602082011115610eaa57600080fd5b80359060200191846001830284011164010000000083111715610ecc57600080fd5b91908080601f0160208091040260200160405190810160405280939291908181526020018383808284376000920191909152509295949360208101935035915050640100000000811115610f1f57600080fd5b820183602082011115610f3157600080fd5b80359060200191846001830284011164010000000083111715610f5357600080fd5b91908080601f016020809104026020016040519081016040528093929190818152602001838380828437600092019190915250929550612334945050505050565b61035660048036036040811015610faa57600080fd5b810190602081018135640100000000811115610fc557600080fd5b820183602082011115610fd757600080fd5b80359060200191846001830284011164010000000083111715610ff957600080fd5b91908080601f016020809104026020016040519081016040528093929190818152602001838380828437600092019190915250929550505090356bffffffffffffffffffffffff191691506126559050565b61106e6004803603604081101561106157600080fd5b50803590602001356126b6565b60408051938452602084019290925282820152519081900360600190f35b6110ef6004803603610a608110156110a357600080fd5b60408051610a00818101835284359460208101359493810135938101929091610a6083019190606084019060509083908390808284376000920191909152509194506126e29350505050565b005b610356600480360361010081101561110857600080fd5b81019060208101813564010000000081111561112357600080fd5b82018360208201111561113557600080fd5b8035906020019184600183028401116401000000008311171561115757600080fd5b91908080601f01602080910402602001604051908101604052809392919081815260200183838082843760009201919091525092959493602081019350359150506401000000008111156111aa57600080fd5b8201836020820111156111bc57600080fd5b803590602001918460018302840111640100000000831117156111de57600080fd5b91908080601f01602080910402602001604051908101604052809392919081815260200183838082843760009201919091525050604080518082018252939685359690959094606082019450925060200190600290839083908082843760009201919091525050604080518082018252929594938181019392509060029083908390808284376000920191909152509194939260208101925035905064010000000081111561128c57600080fd5b82018360208201111561129e57600080fd5b803590602001918460018302840111640100000000831117156112c057600080fd5b91908080601f016020809104026020016040519081016040528093929190818152602001838380828437600092019190915250929550612808945050505050565b61075b6004803603604081101561131757600080fd5b5080359060200135612a82565b600061132e61372f565b61133a858585846126e2565b61134261374e565b61134b82611475565b905060005b600881101561139d576050816008811061136657fe5b015482826008811061137457fe5b60200201510167ffffffffffffffff1682826008811061139057fe5b6020020152600101611350565b506000806113aa83611ddd565b915091507f1000000000000000000000000000000014def9dea2f79cd65812631a5cf5d3ed806113d657fe5b7f1000000000000000000000000000000014def9dea2f79cd65812631a5cf5d3ed600183097f1000000000000000000000000000000014def9dea2f79cd65812631a5cf5d3ed806001700100000000000000000000000000000000097f1000000000000000000000000000000014def9dea2f79cd65812631a5cf5d3ed7001000000000000000000000000000000008709090898975050505050505050565b61147d61374e565b60505460515460525460535460545460555460565460575460005b60508110156115695760006114ae866029611b52565b6114b9876012611b52565b6114c488600e611b52565b18189050848616861985161860008084605081106114de57fe5b01548e85605081106114ec57fe5b602002015183858801010101905060006115078d6027611b52565b6115128e6022611b52565b61151d8f601c611b52565b8b9a999850181890508b8b168c8e168e8d16181880820168010000000000000000848d088f9e9d9c509a50680100000000000000008185089e5050600190950194506114989350505050565b5060408051610100810182529889526020890197909752958701949094526060860192909252608085015260a084015260c083015260e082015292915050565b60585460009073ffffffffffffffffffffffffffffffffffffffff16331461161c576040517f08c379a00000000000000000000000000000000000000000000000000000000081526004018080602001828103825260338152602001806138c16033913960400191505060405180910390fd5b6000605a6000886040516020018082805190602001908083835b602083106116555780518252601f199092019160209182019101611636565b6001836020036101000a0380198251168184511680821785525050505050509050019150506040516020818303038152906040528051906020012081526020019081526020016000206000876040516020018082805190602001908083835b602083106116d35780518252601f1990920191602091820191016116b4565b51815160209384036101000a60001901801990921691161790526040805192909401828103601f190183528452815191810191909120865285019590955292909201600020978855505050506001808501939093555060029092019190915592915050565b600061174261376d565b60596000876040516020018082805190602001908083835b602083106117795780518252601f19909201916020918201910161175a565b6001836020036101000a0380198251168184511680821785525050505050509050019150506040516020818303038152906040528051906020012081526020019081526020016000206000866040516020018082805190602001908083835b602083106117f75780518252601f1990920191602091820191016117d8565b6001836020036101000a038019825116818451168082178552505050505050905001915050604051602081830303815290604052805190602001208152602001908152602001600020604051806040016040529081600082018054600181600116156101000203166002900480601f0160208091040260200160405190810160405280929190818152602001828054600181600116156101000203166002900480156118e45780601f106118b9576101008083540402835291602001916118e4565b820191906000526020600020905b8154815290600101906020018083116118c757829003601f168201915b50505050508152602001600182018054600181600116156101000203166002900480601f0160208091040260200160405190810160405280929190818152602001828054600181600116156101000203166002900480156119865780601f1061195b57610100808354040283529160200191611986565b820191906000526020600020905b81548152906001019060200180831161196957829003601f168201915b5050505050815250509050600060606119a88684600001518560200151612bc8565b90925090506000828015611a58575081516119ce908390601f190163ffffffff612cae16565b6002876040518082805190602001908083835b60208310611a005780518252601f1990920191602091820191016119e1565b51815160209384036101000a60001901801990921691161790526040519190930194509192505080830381855afa158015611a3f573d6000803e3d6000fd5b5050506040513d6020811015611a5457600080fd5b5051145b60408051821515815290519192507fff3010ae5fe3144d9922cf3389b9bf30da6f991746f58a3177e3427ff9c7ef54919081900360200190a198975050505050505050565b600080611aa8613787565b611ab0613787565b85518252602080870151838201526001604080850182905260008452918301819052908201525b8415611b0d578460011660011415611af657611af38183612cca565b90505b600185901c9450611b0682612e60565b9150611ad7565b6000611b1c8260400151612fa3565b90506013600160ff1b03825182900982526013600160ff1b03818360200151096020830181905291519791965090945050505050565b67ffffffffffffffff82821c604083900384901b17165b92915050565b606080611b7a61376d565b60596000866040516020018082805190602001908083835b60208310611bb15780518252601f199092019160209182019101611b92565b6001836020036101000a0380198251168184511680821785525050505050509050019150506040516020818303038152906040528051906020012081526020019081526020016000206000856040516020018082805190602001908083835b60208310611c2f5780518252601f199092019160209182019101611c10565b6001836020036101000a038019825116818451168082178552505050505050905001915050604051602081830303815290604052805190602001208152602001908152602001600020604051806040016040529081600082018054600181600116156101000203166002900480601f016020809104026020016040519081016040528092919081815260200182805460018160011615610100020316600290048015611d1c5780601f10611cf157610100808354040283529160200191611d1c565b820191906000526020600020905b815481529060010190602001808311611cff57829003601f168201915b50505050508152602001600182018054600181600116156101000203166002900480601f016020809104026020016040519081016040528092919081815260200182805460018160011615610100020316600290048015611dbe5780601f10611d9357610100808354040283529160200191611dbe565b820191906000526020600020905b815481529060010190602001808311611da157829003601f168201915b5050509190925250508151602090920151919791965090945050505050565b60008080836003602002015160408560026020020151901b60808660016020020151901b60c08760006020020151901b17171790506000846007602002015160408660066020020151901b60808760056020020151901b60c08860046020020151901b17171790506040518260208201528160408201526060810160405260018101805b60208201811015611e8557805160ff168282036008021b9590950194600101611e61565b50602001805b60208201811015611eaf57805160ff168282036008021b9690960195600101611e8b565b5050505050915091565b60585473ffffffffffffffffffffffffffffffffffffffff1681565b611edd6137a8565b611ee5613787565b611eed613787565b84518252602080860151838201526001604080850182905286518452868301519284019290925290820152611f20613787565b611f2a8383612cca565b90506000611f3b8260400151612fa3565b905060405180604001604052806013600160ff1b0380611f5757fe5b845184900981526020016013600160ff1b03838560200151099052979650505050505050565b60585460009073ffffffffffffffffffffffffffffffffffffffff163314611ff0576040517f08c379a00000000000000000000000000000000000000000000000000000000081526004018080602001828103825260338152602001806138c16033913960400191505060405180910390fd5b600060596000876040516020018082805190602001908083835b602083106120295780518252601f19909201916020918201910161200a565b6001836020036101000a0380198251168184511680821785525050505050509050019150506040516020818303038152906040528051906020012081526020019081526020016000206000866040516020018082805190602001908083835b602083106120a75780518252601f199092019160209182019101612088565b6001836020036101000a03801982511681845116808217855250505050505090500191505060405160208183030381529060405280519060200120815260200190815260200160002090508381600001908051906020019061210a9291906137c6565b50825161212090600183019060208601906137c6565b5060019695505050505050565b600080612138613787565b605a6000866040516020018082805190602001908083835b6020831061216f5780518252601f199092019160209182019101612150565b6001836020036101000a0380198251168184511680821785525050505050509050019150506040516020818303038152906040528051906020012081526020019081526020016000206000856040516020018082805190602001908083835b602083106121ed5780518252601f1990920191602091820191016121ce565b51815160209384036101000a60001901801990921691161790526040805192909401828103601f1901835284528151918101919091208652858101969096525092830160002083516060810185528154808252600183015496820187905260029092015494019390935250909791965090945050505050565b6000806002846040518082805190602001908083835b6020831061229b5780518252601f19909201916020918201910161227c565b51815160209384036101000a60001901801990921691161790526040519190930194509192505080830381855afa1580156122da573d6000803e3d6000fd5b5050506040513d60208110156122ef57600080fd5b505160408051858314815290519192507fff3010ae5fe3144d9922cf3389b9bf30da6f991746f58a3177e3427ff9c7ef54919081900360200190a15060019392505050565b600061233e61376d565b60596000876040516020018082805190602001908083835b602083106123755780518252601f199092019160209182019101612356565b6001836020036101000a0380198251168184511680821785525050505050509050019150506040516020818303038152906040528051906020012081526020019081526020016000206000866040516020018082805190602001908083835b602083106123f35780518252601f1990920191602091820191016123d4565b6001836020036101000a038019825116818451168082178552505050505050905001915050604051602081830303815290604052805190602001208152602001908152602001600020604051806040016040529081600082018054600181600116156101000203166002900480601f0160208091040260200160405190810160405280929190818152602001828054600181600116156101000203166002900480156124e05780601f106124b5576101008083540402835291602001916124e0565b820191906000526020600020905b8154815290600101906020018083116124c357829003601f168201915b50505050508152602001600182018054600181600116156101000203166002900480601f0160208091040260200160405190810160405280929190818152602001828054600181600116156101000203166002900480156125825780601f1061255757610100808354040283529160200191612582565b820191906000526020600020905b81548152906001019060200180831161256557829003601f168201915b5050505050815250509050600060606125a48684600001518560200151612bc8565b90925090506000828015611a58575081516125e89083907fffffffffffffffffffffffffffffffffffffffffffffffffffffffffffffffec0163ffffffff61300316565b6bffffffffffffffffffffffff19166126008761302e565b6bffffffffffffffffffffffff19161460408051821515815290519192507fff3010ae5fe3144d9922cf3389b9bf30da6f991746f58a3177e3427ff9c7ef54919081900360200190a198975050505050505050565b6000806126618461302e565b604080516bffffffffffffffffffffffff1986811690841614815290519192507fff3010ae5fe3144d9922cf3389b9bf30da6f991746f58a3177e3427ff9c7ef54919081900360200190a15060019392505050565b605a60209081526000928352604080842090915290825290208054600182015460029092015490919083565b60408051858152602081018590528082018490527f80000000000000000000000000000000000000000000000000000000000003006060820152608081019091526801000000000000000060005b601081101561275d57600881028301601719015167ffffffffffffffff1660208202850152600101612730565b5060105b60508110156127ff576020600f82030284015160206002830302850151602060108403028601516020600785030287015167ffffffffffffffff8460071c8560381b8660081c1786603f1b8760011c1718181667ffffffffffffffff8460061c8560031b86603d1c1786602d1b8760131c1718181667ffffffffffffffff8184018386010116602088028b0152505050505050600181019050612761565b50505050505050565b6000612812613787565b605a6000896040516020018082805190602001908083835b602083106128495780518252601f19909201916020918201910161282a565b6001836020036101000a0380198251168184511680821785525050505050509050019150506040516020818303038152906040528051906020012081526020019081526020016000206000886040516020018082805190602001908083835b602083106128c75780518252601f1990920191602091820191016128a8565b6001836020036101000a038019825116818451168082178552505050505050905001915050604051602081830303815290604052805190602001208152602001908152602001600020604051806060016040529081600082015481526020016001820154815260200160028201548152505090506129436137a8565b60006129db8884604001516002886040518082805190602001908083835b602083106129805780518252601f199092019160209182019101612961565b51815160209384036101000a60001901801990921691161790526040519190930194509192505080830381855afa1580156129bf573d6000803e3d6000fd5b5050506040513d60208110156129d457600080fd5b5051611324565b9050612a03604051806040016040528085600001518152602001856020015181525082611a9d565b60208401528252612a126137a8565b612a1c8884611ed5565b80518851919250600091148015612a3a575060208083015190890151145b60408051821515815290519192507fff3010ae5fe3144d9922cf3389b9bf30da6f991746f58a3177e3427ff9c7ef54919081900360200190a19b9a5050505050505050505050565b605960209081526000928352604080842082529183529181902080548251601f600260001961010060018616150201909316929092049182018590048502810185019093528083529092839190830182828015612b205780601f10612af557610100808354040283529160200191612b20565b820191906000526020600020905b815481529060010190602001808311612b0357829003601f168201915b505050505090806001018054600181600116156101000203166002900480601f016020809104026020016040519081016040528092919081815260200182805460018160011615610100020316600290048015612bbe5780601f10612b9357610100808354040283529160200191612bbe565b820191906000526020600020905b815481529060010190602001808311612ba157829003601f168201915b5050505050905082565b60006060600083518551875160600101019050612be3613844565b612bf3818363ffffffff61357716565b508651612c0790829063ffffffff6135b116565b508551612c1b90829063ffffffff6135b116565b508451612c2f90829063ffffffff6135b116565b50612c40818863ffffffff6135cb16565b50612c51818763ffffffff6135cb16565b50612c62818663ffffffff6135cb16565b5084516040519080825280601f01601f191660200182016040528015612c8f576020820181803883390190505b50925084516020840183602084510160055afa93505050935093915050565b60008251826020011115612cc157600080fd5b50016020015190565b612cd2613787565b612cda61385e565b6013600160ff1b03836040015185604001510981526013600160ff1b038151800960208201526013600160ff1b03835185510960408201526013600160ff1b03836020015185602001510960608201526013600160ff1b038082606001518360400151097f52036cee2b6ffe738cc740797779e89800700a4d4141d8ab75eb4dca135978a30960808201526013600160ff1b0381608001516013600160ff1b030382602001510860a08201526013600160ff1b03816080015182602001510860c08201526013600160ff1b038082606001516013600160ff1b03036013600160ff1b0380612dc457fe5b84604001516013600160ff1b03036013600160ff1b0380612de157fe5b6013600160ff1b0360208a01518a51086013600160ff1b0360208c01518c51080908086013600160ff1b0360a08401518451090982526013600160ff1b038082604001518360600151086013600160ff1b0360c08401518451090960208301526013600160ff1b038160c001518260a001510960408301525092915050565b612e68613787565b612e7061385e565b6013600160ff1b03602084015184510881526013600160ff1b038151800960208201526013600160ff1b038351800960408201526013600160ff1b03602084015180096060820181905260408201516013600160ff1b03908103608084018190529091900860a08201526013600160ff1b036040840151800960e08201526013600160ff1b03808260e001516002096013600160ff1b03038260a001510860c08201526013600160ff1b0360c08201516013600160ff1b0383606001516013600160ff1b03036013600160ff1b0380612f4557fe5b85604001516013600160ff1b0303866020015108080982526013600160ff1b038082606001516013600160ff1b03038360800151088260a001510960208301526013600160ff1b038160c001518260a0015109604083015250919050565b60008060026013600160ff1b0303905060006013600160ff1b03905060405160208152602080820152602060408201528460608201528260808201528160a082015260208160c0836005600019fa612ffa57600080fd5b51949350505050565b6000825182601401111561301657600080fd5b5001602001516bffffffffffffffffffffffff191690565b60006040518251602084019350604067ffffffffffffffc06001830116016009828203106001811461305f57613066565b6040820191505b50776745230100efcdab890098badcfe001032547600c3d2e1f06130b9565b6000838310156130b2575080820151928290039260208410156130b25760001960208590036101000a0119165b9392505050565b60005b828110156134f7576130cf848289613085565b85526130df846020830189613085565b6020860152604081850310600181146130f757613100565b60808286038701535b506040830381146001811461311457613122565b602086018051600887021790525b5060405b60808110156131e657858101603f198101517fffffffffffffffffffffffffffffffffffffffffffffffffffffffffffffffc8820151601f198301517ffffffffffffffffffffffffffffffffffffffffffffffffffffffffffffffff48401516002911891909218189081027ffffffffefffffffefffffffefffffffefffffffefffffffefffffffefffffffe1663800000009091047c010000000100000001000000010000000100000001000000010000000116179052600c01613126565b5060805b6101408110156132ab578581017fffffffffffffffffffffffffffffffffffffffffffffffffffffffffffffff808101517fffffffffffffffffffffffffffffffffffffffffffffffffffffffffffffff90820151603f198301516017198401516004911891909218189081027ffffffffcfffffffcfffffffcfffffffcfffffffcfffffffcfffffffcfffffffc1663400000009091047c0300000003000000030000000300000003000000030000000300000003161790526018016131ea565b508160008060005b60508110156134cd576014810480156132e3576001811461331f57600281146133595760038114613398576133ce565b6501000000000085046a0100000000000000000000860481186f01000000000000000000000000000000870416189350635a82799992506133ce565b6501000000000085046f0100000000000000000000000000000086046a0100000000000000000000870418189350636ed9eba192506133ce565b6a010000000000000000000085046f010000000000000000000000000000008604818117650100000000008804169116179350638f1bbcdc92506133ce565b6501000000000085046f0100000000000000000000000000000086046a010000000000000000000087041818935063ca62c1d692505b50601f770800000000000000000000000000000000000000000000008504168063ffffffe073080000000000000000000000000000000000000087041617905080840190508063ffffffff86160190508083019050807c0100000000000000000000000000000000000000000000000000000000600484028c0151040190507401000000000000000000000000000000000000000081026501000000000086041794506a0100000000000000000000633fffffff6a040000000000000000000087041663c00000006604000000000000880416170277ffffffff00ffffffff000000000000ffffffff00ffffffff8616179450506001810190506132b3565b5050509190910177ffffffff00ffffffff00ffffffff00ffffffff00ffffffff16906040016130bc565b506c0100000000000000000000000063ffffffff821667ffffffff000000006101008404166bffffffff0000000000000000620100008504166fffffffff000000000000000000000000630100000086041673ffffffff000000000000000000000000000000006401000000008704161717171702945050505050919050565b61357f613844565b60208206156135945760208206602003820191505b506020828101829052604080518085526000815290920101905290565b6135b9613844565b6130b2838460000151518460206135e5565b6135d3613844565b6130b28384600001515184855161364f565b6135ed613844565b8460200151848301111561360a5761360a858584016002026136fb565b60006001836101000a0390508260200360080284901c935085518386820101858319825116178152815185880111156136435784870182525b50959695505050505050565b613657613844565b825182111561366557600080fd5b8460200151828501111561368f5761368f856136878760200151878601613718565b6002026136fb565b6000808651805187602083010193508088870111156136ae5787860182525b505050602084015b602084106136d55780518252601f1990930192602091820191016136b6565b51815160001960208690036101000a019081169019919091161790525083949350505050565b81516137078383613577565b5061371283826135cb565b50505050565b600081831115613729575081611b69565b50919050565b60405180610a0001604052806050906020820280388339509192915050565b6040518061010001604052806008906020820280388339509192915050565b604051806040016040528060608152602001606081525090565b60405180606001604052806000815260200160008152602001600081525090565b60405180604001604052806002906020820280388339509192915050565b828054600181600116156101000203166002900490600052602060002090601f016020900481019282601f1061380757805160ff1916838001178555613834565b82800160010185558215613834579182015b82811115613834578251825591602001919060010190613819565b506138409291506138a3565b5090565b604051806040016040528060608152602001600081525090565b60405180610100016040528060008152602001600081526020016000815260200160008152602001600081526020016000815260200160008152602001600081525090565b6138bd91905b8082111561384057600081556001016138a9565b9056fe546865206d73672e73656e64657220697320646966666572656e74207468616e20746865206f7261636c652061646472657373a265627a7a723158200edda15438759141c5594b1b5299a1b2aafbc5db1343cc5edd28297d918af21e64736f6c63430005100032",
  "source": "pragma solidity >=0.4.21 <0.6.0;\n\nimport \"./algorithms/BytesUtils.sol\";\nimport \"./algorithms/RSA.sol\";\nimport \"./algorithms/ED25519.sol\";\nimport \"./algorithms/SHA1.sol\";\nimport \"./algorithms/SHA512.sol\";\n\n// import \"openzeppelin-solidity/contracts/ownership/Ownable.sol\";\n\ncontract DkimChecker is RSA, ED25519, SHA1, SHA512 {\n    using BytesUtils for *;\n\n    // ----------------------------------------------------------------------------------------------------//\n    // ----------------------------------------------------------------------------------------------------//\n\n    struct KeyRsa {\n        bytes exponent;\n        bytes modulus;\n    }\n\n    struct KeyEd {\n        uint x;\n        uint y;\n        uint p;\n    }\n\n    address public oracle; // to be set to the oracle contract address for access restrictions\n    mapping(bytes32 => mapping(bytes32 => KeyRsa)) public dkimKeysRsa; // domain name => selector => key\n    mapping(bytes32 => mapping(bytes32 => KeyEd)) public dkimKeysEd; // domain name => selector => bytes(key)\n\n    // ----------------------------------------------------------------------------------------------------//\n    // ----------------------------------------------------------------------------------------------------//\n\n    constructor(address _oracle) public {\n        oracle = _oracle;\n    }\n\n    // Should be used with all function involving the oracle interaction, for access restrictions\n    modifier onlyOracle() {\n        if (msg.sender != oracle)\n            revert(\"The msg.sender is different than the oracle address\");\n        _;\n    }\n\n    // ----------------------------------------------------------------------------------------------------//\n    // ----------------------------------------------------------------------------------------------------//\n\n    // Dkim key setter function to be used by the oracle to save the public key components on-chain\n    //_selector and _domain should be used to access the key saved onchain since they are necessary to resolve\n    // TXT record they dns\n    function setDkimKeyRsa(\n        string memory _selector,\n        string memory _domain,\n        bytes memory _exponent,\n        bytes memory _modulus\n    ) public onlyOracle returns (bool) {\n        // Extra requirements can be added here to avoid issue with domainkey dns record update\n        KeyRsa storage key = dkimKeysRsa[\n            keccak256(abi.encodePacked(_selector))\n        ][keccak256(abi.encodePacked(_domain))];\n        key.exponent = _exponent;\n        key.modulus = _modulus;\n        return true;\n    }\n\n    function setDkimKeyEd(\n        string memory _selector,\n        string memory _domain,\n        uint x,\n        uint y,\n        uint p\n    ) public onlyOracle returns (bool) {\n        // Extra requirements can be added here to avoid issue with domainkey dns record update\n        KeyEd storage key = dkimKeysEd[keccak256(abi.encodePacked(_selector))][\n            keccak256(abi.encodePacked(_domain))\n        ];\n        key.x = x;\n        key.y = y;\n        key.p = p;\n        return true;\n    }\n\n    function getDkimKeyRsa(\n        string memory _selector,\n        string memory _domain\n    ) public view returns (bytes memory, bytes memory) {\n        KeyRsa memory key = dkimKeysRsa[keccak256(abi.encodePacked(_selector))][\n            keccak256(abi.encodePacked(_domain))\n        ];\n        return (key.exponent, key.modulus);\n    }\n\n    function getDkimKeyEd(\n        string memory _selector,\n        string memory _domain\n    ) public view returns (uint x, uint y) {\n        KeyEd memory key = dkimKeysEd[keccak256(abi.encodePacked(_selector))][\n            keccak256(abi.encodePacked(_domain))\n        ];\n        return (key.x, key.y);\n    }\n\n    // ----------------------------------------------------------------------------------------------------//\n    // ----------------------------------------------------------------------------------------------------//\n\n    event ReturnVal(bool);\n\n    // If any valuable information contained inside the body of the emain needs to be used checkBody function\n    // should be added to the verification step to avoid any exploit\n\n    function checkBodySHA1(\n        bytes memory body,\n        bytes20 bodyHash\n    ) public returns (bool) {\n        bytes20 computed = sha1(body);\n\n        emit ReturnVal(bodyHash == computed); // just added to simulate a non-view function\n        return true;\n    }\n\n    function checkBodySHA256(\n        bytes memory body,\n        bytes32 bodyHash\n    ) public returns (bool) {\n        bytes32 computed = sha256(body);\n        emit ReturnVal(bodyHash == computed); // just added to simulate a non-view function\n        return true;\n    }\n\n    // ----------------------------------------------------------------------------------------------------//\n    // ----------------------------------------------------------------------------------------------------//\n\n    // _canonicalizedHeader is the header preprocessed and canonicalized all information can be extracted on-chain from from it\n\n    function verifyRSASHA256(\n        string memory _selector,\n        string memory _domain,\n        bytes memory _sig,\n        bytes memory _canonicalizedHeader\n    ) public returns (bool) {\n        // Recover the message from the signature\n        KeyRsa memory key = dkimKeysRsa[keccak256(abi.encodePacked(_selector))][\n            keccak256(abi.encodePacked(_domain))\n        ];\n\n        bool ok;\n        bytes memory result;\n        (ok, result) = modexp(_sig, key.exponent, key.modulus);\n        bool bl = (ok &&\n            sha256(_canonicalizedHeader) ==\n            result.readBytes32(result.length - 32));\n\n        emit ReturnVal(bl); // just added to simulate a non-view function\n        return bl;\n    }\n\n    // _canonicalizedHeader is the header preprocessed and canonicalized all information can be extracted on-chain from from it\n\n    function verifyRSASHA1(\n        string memory _selector,\n        string memory _domain,\n        bytes memory _sig,\n        bytes memory _canonicalizedHeader\n    ) public returns (bool) {\n        KeyRsa memory key = dkimKeysRsa[keccak256(abi.encodePacked(_selector))][\n            keccak256(abi.encodePacked(_domain))\n        ];\n\n        bool ok;\n        bytes memory result;\n        (ok, result) = modexp(_sig, key.exponent, key.modulus);\n        bool bl = (ok &&\n            sha1(_canonicalizedHeader) ==\n            result.readBytes20(result.length - 20));\n\n        emit ReturnVal(bl); // just added to simulate a non-view function\n        return bl;\n    }\n\n    // For more details abt ed25519 verification function check https://tools.ietf.org/html/rfc8032#section-5.1\n    // _r,_R and \"_s\" are the signature component.\n    // _canonicalizedHeader is the header preprocessed and canonicalized all information can be extracted on-chain from from it\n\n    function verifyED25519(\n        string memory _selector,\n        string memory _domain,\n        uint _r,\n        uint[2] memory _R,\n        uint[2] memory _lhs,\n        bytes memory _canonicalizedHeader\n    ) public returns (bool) {\n        KeyEd memory key = dkimKeysEd[keccak256(abi.encodePacked(_selector))][\n            keccak256(abi.encodePacked(_domain))\n        ];\n        uint[2] memory rhs;\n\n        uint hash_512_mod_l = sha512modl(\n            _r,\n            key.p,\n            uint256(sha256(_canonicalizedHeader))\n        );\n\n        (rhs[0], rhs[1]) = scalarMult([key.x, key.y], hash_512_mod_l);\n        uint[2] memory Rs = ecAddVec(_R, rhs);\n\n        bool bl = (_lhs[0] == Rs[0] && _lhs[1] == Rs[1]);\n\n        emit ReturnVal(bl); // just added to simulate a non-view function\n        return bl;\n    }\n}\n",
  "sourcePath": "/Users/rjborba/git/wallet-dkim-api/contracts/contracts/DkimChecker.sol",
  "compiler": {
    "name": "solc",
    "version": "0.5.16+commit.9c3226ce.Emscripten.clang"
  },
  "schemaVersion": "3.4.3",
  "updatedAt": "2023-03-27T16:44:40.721Z",
  "networkType": "ethereum",
  "devdoc": {
    "methods": {}
  },
  "userdoc": {
    "methods": {}
  }
}