{
  "contractName": "SCW",
  "abi": [
    {
      "inputs": [
        {
          "internalType": "address",
          "name": "_ownerAddress",
          "type": "address"
        },
        {
          "internalType": "string",
          "name": "_ownerEmail",
          "type": "string"
        },
        {
          "internalType": "address",
          "name": "_SCWDeployerAddress",
          "type": "address"
        }
      ],
      "payable": false,
      "stateMutability": "nonpayable",
      "type": "constructor"
    },
    {
      "payable": true,
      "stateMutability": "payable",
      "type": "fallback"
    },
    {
      "constant": true,
      "inputs": [],
      "name": "ownerAddress",
      "outputs": [
        {
          "internalType": "address",
          "name": "",
          "type": "address"
        }
      ],
      "payable": false,
      "stateMutability": "view",
      "type": "function"
    },
    {
      "constant": true,
      "inputs": [],
      "name": "ownerEmail",
      "outputs": [
        {
          "internalType": "string",
          "name": "",
          "type": "string"
        }
      ],
      "payable": false,
      "stateMutability": "view",
      "type": "function"
    },
    {
      "constant": true,
      "inputs": [],
      "name": "scwDeployerAddress",
      "outputs": [
        {
          "internalType": "address",
          "name": "",
          "type": "address"
        }
      ],
      "payable": false,
      "stateMutability": "view",
      "type": "function"
    },
    {
      "constant": false,
      "inputs": [
        {
          "internalType": "address",
          "name": "newOwnerAddress",
          "type": "address"
        }
      ],
      "name": "setNewOwner",
      "outputs": [
        {
          "internalType": "bool",
          "name": "",
          "type": "bool"
        }
      ],
      "payable": false,
      "stateMutability": "nonpayable",
      "type": "function"
    },
    {
      "constant": true,
      "inputs": [],
      "name": "getBalance",
      "outputs": [
        {
          "internalType": "uint256",
          "name": "",
          "type": "uint256"
        }
      ],
      "payable": false,
      "stateMutability": "view",
      "type": "function"
    },
    {
      "constant": false,
      "inputs": [
        {
          "internalType": "uint256",
          "name": "_amount",
          "type": "uint256"
        },
        {
          "internalType": "address payable",
          "name": "destination",
          "type": "address"
        }
      ],
      "name": "transferNative",
      "outputs": [],
      "payable": false,
      "stateMutability": "nonpayable",
      "type": "function"
    }
  ],
  "bytecode": "0x608060405234801561001057600080fd5b5060405161064d38038061064d8339818101604052606081101561003357600080fd5b81516020830180516040519294929383019291908464010000000082111561005a57600080fd5b90830190602082018581111561006f57600080fd5b825164010000000081118282018810171561008957600080fd5b82525081516020918201929091019080838360005b838110156100b657818101518382015260200161009e565b50505050905090810190601f1680156100e35780820380516001836020036101000a031916815260200191505b50604052602090810151600080546001600160a01b0319166001600160a01b038816179055845190935061011d9250600191850190610146565b50600280546001600160a01b0319166001600160a01b0392909216919091179055506101e19050565b828054600181600116156101000203166002900490600052602060002090601f016020900481019282601f1061018757805160ff19168380011785556101b4565b828001600101855582156101b4579182015b828111156101b4578251825591602001919060010190610199565b506101c09291506101c4565b5090565b6101de91905b808211156101c057600081556001016101ca565b90565b61045d806101f06000396000f3fe6080604052600436106100655760003560e01c80638f84aa09116100435780638f84aa0914610156578063f32a67b41461016b578063f5a1f5b4146101b157610065565b806312065fe01461006757806328ef87051461008e57806364dc567d14610118575b005b34801561007357600080fd5b5061007c610205565b60408051918252519081900360200190f35b34801561009a57600080fd5b506100a3610209565b6040805160208082528351818301528351919283929083019185019080838360005b838110156100dd5781810151838201526020016100c5565b50505050905090810190601f16801561010a5780820380516001836020036101000a031916815260200191505b509250505060405180910390f35b34801561012457600080fd5b5061012d6102b4565b6040805173ffffffffffffffffffffffffffffffffffffffff9092168252519081900360200190f35b34801561016257600080fd5b5061012d6102d0565b34801561017757600080fd5b506100656004803603604081101561018e57600080fd5b508035906020013573ffffffffffffffffffffffffffffffffffffffff166102ec565b3480156101bd57600080fd5b506101f1600480360360208110156101d457600080fd5b503573ffffffffffffffffffffffffffffffffffffffff16610334565b604080519115158252519081900360200190f35b4790565b60018054604080516020600284861615610100027fffffffffffffffffffffffffffffffffffffffffffffffffffffffffffffffff0190941693909304601f810184900484028201840190925281815292918301828280156102ac5780601f10610281576101008083540402835291602001916102ac565b820191906000526020600020905b81548152906001019060200180831161028f57829003601f168201915b505050505081565b60025473ffffffffffffffffffffffffffffffffffffffff1681565b60005473ffffffffffffffffffffffffffffffffffffffff1681565b60405173ffffffffffffffffffffffffffffffffffffffff82169083156108fc029084906000818181858888f1935050505015801561032f573d6000803e3d6000fd5b505050565b60025460009073ffffffffffffffffffffffffffffffffffffffff1633146103a7576040517f08c379a00000000000000000000000000000000000000000000000000000000081526004018080602001828103825260388152602001806103f16038913960400191505060405180910390fd5b600080547fffffffffffffffffffffffff00000000000000000000000000000000000000001673ffffffffffffffffffffffffffffffffffffffff93909316929092179091559056fe546865206d73672e73656e64657220697320646966666572656e74207468616e20746865205343574465706c6f7965722061646472657373a265627a7a7231582082e74fc097b1136fb3e17b491c1b2a037dcd50d4b51bdb6ad3a9c5d5a932011c64736f6c63430005100032",
  "source": "pragma solidity >=0.4.21 <0.6.0;\n\nimport \"./utils/Strings.sol\";\nimport \"./DkimChecker.sol\";\n\ncontract SCW {\n    address public ownerAddress;\n    string public ownerEmail;\n    address public scwDeployerAddress;\n\n    modifier onlyOwner() {\n        if (msg.sender != ownerAddress)\n            revert(\"The msg.sender is different than the owner address\");\n        _;\n    }\n\n    modifier onlySCWDeployer() {\n        if (msg.sender != scwDeployerAddress)\n            revert(\"The msg.sender is different than the SCWDeployer address\");\n        _;\n    }\n\n    constructor(\n        address _ownerAddress,\n        string memory _ownerEmail, // address dkimCheckerAddress\n        address _SCWDeployerAddress // address SCWDeployer\n    ) public {\n        ownerAddress = _ownerAddress;\n        // TODO: Verify if it is from a trustable email provider (google, hotmail, etc)\n        ownerEmail = _ownerEmail;\n        scwDeployerAddress = _SCWDeployerAddress;\n    }\n\n    function setNewOwner(\n        address newOwnerAddress\n    ) public onlySCWDeployer returns (bool) {\n        ownerAddress = newOwnerAddress;\n    }\n\n    function() external payable {}\n\n    function getBalance() public view returns (uint256) {\n        return address(this).balance;\n    }\n\n    function transferNative(\n        uint _amount,\n        address payable destination\n    ) external {\n        destination.transfer(_amount);\n    }\n}\n\ncontract SCWDeployer {\n    using strings for *;\n\n    mapping(string => address payable) userEmailToSCW;\n\n    // Associating with email\n    mapping(string => address) authProcessStartedBy;\n    mapping(string => uint) authProcessStartTime;\n    mapping(string => string) authProccessNonce;\n    mapping(string => bool) authEmailVerified;\n\n    DkimChecker dkimChecker;\n\n    constructor(address dkimCheckerAddress) public {\n        dkimChecker = DkimChecker(dkimCheckerAddress);\n    }\n\n    function startAuth(\n        string memory email,\n        string memory nonce\n    ) public returns (bool) {\n        authProcessStartedBy[email] = msg.sender;\n        authProcessStartTime[email] = now;\n        authProccessNonce[email] = nonce;\n        authEmailVerified[email] = false;\n\n        return true;\n    }\n\n    function verifyEmail(\n        string memory _selector,\n        string memory _domain,\n        bytes memory _sig,\n        string memory _canonicalizedHeader\n    ) public returns (bool) {\n        string memory headerFromField = getHeaderFromField(\n            _canonicalizedHeader\n        );\n\n        string memory nonce = getHeaderNonce(_canonicalizedHeader);\n\n        require(!authEmailVerified[headerFromField], \"Email already verified\");\n\n        require(\n            authProcessStartedBy[headerFromField] != address(0),\n            \"Auth proccess not started\"\n        );\n\n        require(\n            authProcessStartedBy[headerFromField] == msg.sender,\n            \"Every steps of Auth process must be done by the same sender\"\n        );\n\n        if (isAuthProcessExpired(authProcessStartTime[headerFromField])) {\n            clearUpAuthProccess(headerFromField);\n            revert(\"Auth proccess expired\");\n        }\n\n        require(\n            nonce.toSlice().compare(\n                authProccessNonce[headerFromField].toSlice()\n            ) == 0,\n            \"Invalid nonce\"\n        );\n\n        bytes memory _canonicalizedHeaderHex = bytes(_canonicalizedHeader);\n\n        // Checks email's header\n        bool headerVerified = dkimChecker.verifyRSASHA256(\n            _selector,\n            _domain,\n            _sig,\n            _canonicalizedHeaderHex\n        );\n\n        require(headerVerified, \"DKIM header check failed for this email\");\n\n        authEmailVerified[headerFromField] = true;\n\n        return true;\n    }\n\n    function completeAuth(\n        string memory ownerEmail,\n        address ownerAddress\n    ) public returns (address) {\n        require(authEmailVerified[ownerEmail], \"Email is not verified\");\n\n        require(\n            authProcessStartedBy[ownerEmail] == msg.sender,\n            \"Every steps of Auth process must be done by the same sender\"\n        );\n\n        if (isAuthProcessExpired(authProcessStartTime[ownerEmail])) {\n            clearUpAuthProccess(ownerEmail);\n            revert(\"Auth proccess expired\");\n        }\n\n        SCW scw;\n        address payable scwAddress = userEmailToSCW[ownerEmail];\n\n        // This is a new account. Lets deploy\n        if (scwAddress == address(0)) {\n            scw = new SCW(ownerAddress, ownerEmail, address(this));\n        }\n        // Account already exsits. Lets update the owner\n        else {\n            scw = SCW(scwAddress);\n            scw.setNewOwner(ownerAddress);\n        }\n\n        userEmailToSCW[ownerEmail] = address(scw);\n        clearUpAuthProccess(ownerEmail);\n\n        return userEmailToSCW[ownerEmail];\n    }\n\n    function getSCWAddressByEmail(\n        string memory userAddress\n    ) public view returns (address) {\n        return userEmailToSCW[userAddress];\n    }\n\n    function compareStrings(\n        string memory a,\n        string memory b\n    ) public pure returns (bool) {\n        return keccak256(bytes(a)) == keccak256(bytes(b));\n    }\n\n    function isAuthProcessExpired(uint startTime) internal view returns (bool) {\n        return (now >= (startTime + 5 minutes));\n    }\n\n    function clearUpAuthProccess(string memory ownerEmail) internal {\n        authProcessStartedBy[ownerEmail] = address(0);\n        authProcessStartTime[ownerEmail] = 0;\n        authProccessNonce[ownerEmail] = \"\";\n        authEmailVerified[ownerEmail] = false;\n    }\n\n    function getHeaderFromField(\n        string memory emlAsString\n    ) public pure returns (string memory) {\n        strings.slice memory from = \"from:\".toSlice();\n        strings.slice memory emailPrefix = \"<\".toSlice();\n        strings.slice memory emailSufix = \">\".toSlice();\n        strings.slice memory crlf = \"\\r\\n\".toSlice();\n\n        string memory fromEmail;\n\n        strings.slice memory fromAndOnwards = emlAsString\n            .toSlice()\n            .find(from)\n            .beyond(from);\n\n        if (fromAndOnwards.contains(emailPrefix)) {\n            strings.slice memory fromEmailAndOnwards = fromAndOnwards\n                .copy()\n                .find(emailPrefix)\n                .beyond(emailPrefix);\n\n            fromEmail = fromEmailAndOnwards\n                .until(fromEmailAndOnwards.copy().find(emailSufix))\n                .toString();\n        } else {\n            fromEmail = fromAndOnwards\n                .until(fromAndOnwards.copy().find(crlf))\n                .toString();\n        }\n\n        require(\n            fromEmail.toSlice().len() != 0,\n            \"Could not find FROM on email.\"\n        );\n\n        return fromEmail;\n    }\n\n    function getHeaderNonce(\n        string memory emlAsString\n    ) public pure returns (string memory) {\n        strings.slice memory subject = \"subject:\".toSlice();\n        strings.slice memory nonce = \"nonce::\".toSlice();\n        strings.slice memory crlf = \"\\r\\n\".toSlice();\n\n        strings.slice memory nonceAndOnwards = emlAsString\n            .toSlice()\n            .copy()\n            .find(subject)\n            .find(nonce)\n            .beyond(nonce);\n\n        string memory nonceString = nonceAndOnwards\n            .until(nonceAndOnwards.copy().find(crlf))\n            .toString();\n\n        require(\n            nonceString.toSlice().len() != 0,\n            \"Could not find NONCE on email.\"\n        );\n\n        return nonceString;\n    }\n\n    function isEmailVerified(string memory email) public view returns (bool) {\n        return authEmailVerified[email];\n    }\n}\n",
  "sourcePath": "/Users/rjborba/git/wallet-dkim-api/contracts/contracts/SCW.sol",
  "compiler": {
    "name": "solc",
    "version": "0.5.16+commit.9c3226ce.Emscripten.clang"
  },
  "schemaVersion": "3.4.3",
  "updatedAt": "2023-03-28T16:54:59.638Z",
  "devdoc": {
    "methods": {}
  },
  "userdoc": {
    "methods": {}
  }
}