{
  "contractName": "DkimChecker",
  "abi": [
    {
      "inputs": [
        {
          "internalType": "address",
          "name": "_oracle",
          "type": "address"
        }
      ],
      "payable": false,
      "stateMutability": "nonpayable",
      "type": "constructor"
    },
    {
      "anonymous": false,
      "inputs": [
        {
          "indexed": false,
          "internalType": "bytes32",
          "name": "x",
          "type": "bytes32"
        }
      ],
      "name": "Debug",
      "type": "event"
    },
    {
      "anonymous": false,
      "inputs": [
        {
          "indexed": true,
          "internalType": "address",
          "name": "previousOwner",
          "type": "address"
        },
        {
          "indexed": true,
          "internalType": "address",
          "name": "newOwner",
          "type": "address"
        }
      ],
      "name": "OwnershipTransferred",
      "type": "event"
    },
    {
      "anonymous": false,
      "inputs": [
        {
          "indexed": false,
          "internalType": "bool",
          "name": "",
          "type": "bool"
        }
      ],
      "name": "ReturnVal",
      "type": "event"
    },
    {
      "constant": true,
      "inputs": [
        {
          "internalType": "uint256[8]",
          "name": "Ai",
          "type": "uint256[8]"
        }
      ],
      "name": "arrayToLE",
      "outputs": [
        {
          "internalType": "uint256",
          "name": "high",
          "type": "uint256"
        },
        {
          "internalType": "uint256",
          "name": "low",
          "type": "uint256"
        }
      ],
      "payable": false,
      "stateMutability": "pure",
      "type": "function"
    },
    {
      "constant": true,
      "inputs": [
        {
          "internalType": "bytes32",
          "name": "",
          "type": "bytes32"
        },
        {
          "internalType": "bytes32",
          "name": "",
          "type": "bytes32"
        }
      ],
      "name": "dkimKeysEd",
      "outputs": [
        {
          "internalType": "uint256",
          "name": "x",
          "type": "uint256"
        },
        {
          "internalType": "uint256",
          "name": "y",
          "type": "uint256"
        },
        {
          "internalType": "uint256",
          "name": "p",
          "type": "uint256"
        }
      ],
      "payable": false,
      "stateMutability": "view",
      "type": "function"
    },
    {
      "constant": true,
      "inputs": [
        {
          "internalType": "bytes32",
          "name": "",
          "type": "bytes32"
        },
        {
          "internalType": "bytes32",
          "name": "",
          "type": "bytes32"
        }
      ],
      "name": "dkimKeysRsa",
      "outputs": [
        {
          "internalType": "bytes",
          "name": "exponent",
          "type": "bytes"
        },
        {
          "internalType": "bytes",
          "name": "modulus",
          "type": "bytes"
        }
      ],
      "payable": false,
      "stateMutability": "view",
      "type": "function"
    },
    {
      "constant": true,
      "inputs": [
        {
          "internalType": "uint256[2]",
          "name": "_a",
          "type": "uint256[2]"
        },
        {
          "internalType": "uint256[2]",
          "name": "_b",
          "type": "uint256[2]"
        }
      ],
      "name": "ecAddVec",
      "outputs": [
        {
          "internalType": "uint256[2]",
          "name": "",
          "type": "uint256[2]"
        }
      ],
      "payable": false,
      "stateMutability": "view",
      "type": "function"
    },
    {
      "constant": true,
      "inputs": [
        {
          "internalType": "uint256",
          "name": "_r",
          "type": "uint256"
        },
        {
          "internalType": "uint256",
          "name": "_p",
          "type": "uint256"
        },
        {
          "internalType": "uint256",
          "name": "_hx",
          "type": "uint256"
        },
        {
          "internalType": "uint256[80]",
          "name": "w",
          "type": "uint256[80]"
        }
      ],
      "name": "initW",
      "outputs": [],
      "payable": false,
      "stateMutability": "pure",
      "type": "function"
    },
    {
      "constant": true,
      "inputs": [],
      "name": "isOwner",
      "outputs": [
        {
          "internalType": "bool",
          "name": "",
          "type": "bool"
        }
      ],
      "payable": false,
      "stateMutability": "view",
      "type": "function"
    },
    {
      "constant": true,
      "inputs": [],
      "name": "oracle",
      "outputs": [
        {
          "internalType": "address",
          "name": "",
          "type": "address"
        }
      ],
      "payable": false,
      "stateMutability": "view",
      "type": "function"
    },
    {
      "constant": true,
      "inputs": [],
      "name": "owner",
      "outputs": [
        {
          "internalType": "address",
          "name": "",
          "type": "address"
        }
      ],
      "payable": false,
      "stateMutability": "view",
      "type": "function"
    },
    {
      "constant": false,
      "inputs": [],
      "name": "renounceOwnership",
      "outputs": [],
      "payable": false,
      "stateMutability": "nonpayable",
      "type": "function"
    },
    {
      "constant": true,
      "inputs": [
        {
          "internalType": "uint256",
          "name": "value",
          "type": "uint256"
        },
        {
          "internalType": "uint256",
          "name": "d",
          "type": "uint256"
        }
      ],
      "name": "rotr",
      "outputs": [
        {
          "internalType": "uint256",
          "name": "",
          "type": "uint256"
        }
      ],
      "payable": false,
      "stateMutability": "pure",
      "type": "function"
    },
    {
      "constant": true,
      "inputs": [
        {
          "internalType": "uint256[2]",
          "name": "point",
          "type": "uint256[2]"
        },
        {
          "internalType": "uint256",
          "name": "s",
          "type": "uint256"
        }
      ],
      "name": "scalarMult",
      "outputs": [
        {
          "internalType": "uint256",
          "name": "",
          "type": "uint256"
        },
        {
          "internalType": "uint256",
          "name": "",
          "type": "uint256"
        }
      ],
      "payable": false,
      "stateMutability": "view",
      "type": "function"
    },
    {
      "constant": true,
      "inputs": [
        {
          "internalType": "uint256",
          "name": "_r",
          "type": "uint256"
        },
        {
          "internalType": "uint256",
          "name": "_p",
          "type": "uint256"
        },
        {
          "internalType": "uint256",
          "name": "_hx",
          "type": "uint256"
        }
      ],
      "name": "sha512modl",
      "outputs": [
        {
          "internalType": "uint256",
          "name": "hashmodl",
          "type": "uint256"
        }
      ],
      "payable": false,
      "stateMutability": "view",
      "type": "function"
    },
    {
      "constant": false,
      "inputs": [
        {
          "internalType": "address",
          "name": "newOwner",
          "type": "address"
        }
      ],
      "name": "transferOwnership",
      "outputs": [],
      "payable": false,
      "stateMutability": "nonpayable",
      "type": "function"
    },
    {
      "constant": true,
      "inputs": [
        {
          "internalType": "uint256[80]",
          "name": "W",
          "type": "uint256[80]"
        }
      ],
      "name": "update",
      "outputs": [
        {
          "internalType": "uint256[8]",
          "name": "",
          "type": "uint256[8]"
        }
      ],
      "payable": false,
      "stateMutability": "view",
      "type": "function"
    },
    {
      "constant": false,
      "inputs": [
        {
          "internalType": "string",
          "name": "_selector",
          "type": "string"
        },
        {
          "internalType": "string",
          "name": "_domain",
          "type": "string"
        },
        {
          "internalType": "bytes",
          "name": "_exponent",
          "type": "bytes"
        },
        {
          "internalType": "bytes",
          "name": "_modulus",
          "type": "bytes"
        }
      ],
      "name": "setDkimKeyRsa",
      "outputs": [
        {
          "internalType": "bool",
          "name": "",
          "type": "bool"
        }
      ],
      "payable": false,
      "stateMutability": "nonpayable",
      "type": "function"
    },
    {
      "constant": false,
      "inputs": [
        {
          "internalType": "string",
          "name": "_selector",
          "type": "string"
        },
        {
          "internalType": "string",
          "name": "_domain",
          "type": "string"
        },
        {
          "internalType": "uint256",
          "name": "x",
          "type": "uint256"
        },
        {
          "internalType": "uint256",
          "name": "y",
          "type": "uint256"
        },
        {
          "internalType": "uint256",
          "name": "p",
          "type": "uint256"
        }
      ],
      "name": "setDkimKeyEd",
      "outputs": [
        {
          "internalType": "bool",
          "name": "",
          "type": "bool"
        }
      ],
      "payable": false,
      "stateMutability": "nonpayable",
      "type": "function"
    },
    {
      "constant": true,
      "inputs": [
        {
          "internalType": "string",
          "name": "_selector",
          "type": "string"
        },
        {
          "internalType": "string",
          "name": "_domain",
          "type": "string"
        }
      ],
      "name": "getDkimKeyRsa",
      "outputs": [
        {
          "internalType": "bytes",
          "name": "",
          "type": "bytes"
        },
        {
          "internalType": "bytes",
          "name": "",
          "type": "bytes"
        }
      ],
      "payable": false,
      "stateMutability": "view",
      "type": "function"
    },
    {
      "constant": true,
      "inputs": [
        {
          "internalType": "string",
          "name": "_selector",
          "type": "string"
        },
        {
          "internalType": "string",
          "name": "_domain",
          "type": "string"
        }
      ],
      "name": "getDkimKeyEd",
      "outputs": [
        {
          "internalType": "uint256",
          "name": "x",
          "type": "uint256"
        },
        {
          "internalType": "uint256",
          "name": "y",
          "type": "uint256"
        }
      ],
      "payable": false,
      "stateMutability": "view",
      "type": "function"
    },
    {
      "constant": false,
      "inputs": [
        {
          "internalType": "bytes",
          "name": "body",
          "type": "bytes"
        },
        {
          "internalType": "bytes20",
          "name": "bodyHash",
          "type": "bytes20"
        }
      ],
      "name": "checkBodySHA1",
      "outputs": [
        {
          "internalType": "bool",
          "name": "",
          "type": "bool"
        }
      ],
      "payable": false,
      "stateMutability": "nonpayable",
      "type": "function"
    },
    {
      "constant": false,
      "inputs": [
        {
          "internalType": "bytes",
          "name": "body",
          "type": "bytes"
        },
        {
          "internalType": "bytes32",
          "name": "bodyHash",
          "type": "bytes32"
        }
      ],
      "name": "checkBodySHA256",
      "outputs": [
        {
          "internalType": "bool",
          "name": "",
          "type": "bool"
        }
      ],
      "payable": false,
      "stateMutability": "nonpayable",
      "type": "function"
    },
    {
      "constant": false,
      "inputs": [
        {
          "internalType": "string",
          "name": "_selector",
          "type": "string"
        },
        {
          "internalType": "string",
          "name": "_domain",
          "type": "string"
        },
        {
          "internalType": "bytes",
          "name": "_sig",
          "type": "bytes"
        },
        {
          "internalType": "bytes",
          "name": "_canonicalizedHeader",
          "type": "bytes"
        }
      ],
      "name": "verifyRSASHA256",
      "outputs": [
        {
          "internalType": "bool",
          "name": "",
          "type": "bool"
        }
      ],
      "payable": false,
      "stateMutability": "nonpayable",
      "type": "function"
    },
    {
      "constant": false,
      "inputs": [
        {
          "internalType": "string",
          "name": "_selector",
          "type": "string"
        },
        {
          "internalType": "string",
          "name": "_domain",
          "type": "string"
        },
        {
          "internalType": "bytes",
          "name": "_sig",
          "type": "bytes"
        },
        {
          "internalType": "bytes",
          "name": "_canonicalizedHeader",
          "type": "bytes"
        }
      ],
      "name": "verifyRSASHA1",
      "outputs": [
        {
          "internalType": "bool",
          "name": "",
          "type": "bool"
        }
      ],
      "payable": false,
      "stateMutability": "nonpayable",
      "type": "function"
    },
    {
      "constant": false,
      "inputs": [
        {
          "internalType": "string",
          "name": "_selector",
          "type": "string"
        },
        {
          "internalType": "string",
          "name": "_domain",
          "type": "string"
        },
        {
          "internalType": "uint256",
          "name": "_r",
          "type": "uint256"
        },
        {
          "internalType": "uint256[2]",
          "name": "_R",
          "type": "uint256[2]"
        },
        {
          "internalType": "uint256[2]",
          "name": "_lhs",
          "type": "uint256[2]"
        },
        {
          "internalType": "bytes",
          "name": "_canonicalizedHeader",
          "type": "bytes"
        }
      ],
      "name": "verifyED25519",
      "outputs": [
        {
          "internalType": "bool",
          "name": "",
          "type": "bool"
        }
      ],
      "payable": false,
      "stateMutability": "nonpayable",
      "type": "function"
    }
  ],
  "bytecode": "0x610a8060405267428a2f98d728ae226080908152677137449123ef65cd60a05267b5c0fbcfec4d3b2f60c05267e9b5dba58189dbbc60e052673956c25bf348b538610100526759f111f1b605d0196101205267923f82a4af194f9b6101405267ab1c5ed5da6d81186101605267d807aa98a3030242610180526712835b0145706fbe6101a05267243185be4ee4b28c6101c05267550c7dc3d5ffb4e26101e0526772be5d74f27b896f610200526780deb1fe3b1696b161022052679bdc06a725c712356102405267c19bf174cf6926946102605267e49b69c19ef14ad26102805267efbe4786384f25e36102a052670fc19dc68b8cd5b56102c05267240ca1cc77ac9c656102e052672de92c6f592b027561030052674a7484aa6ea6e48361032052675cb0a9dcbd41fbd4610340526776f988da831153b56103605267983e5152ee66dfab6103805267a831c66d2db432106103a05267b00327c898fb213f6103c05267bf597fc7beef0ee46103e05267c6e00bf33da88fc26104005267d5a79147930aa725610420526706ca6351e003826f6104405267142929670a0e6e70610460526727b70a8546d22ffc61048052672e1b21385c26c9266104a052674d2c6dfc5ac42aed6104c0526753380d139d95b3df6104e05267650a73548baf63de6105005267766a0abb3c77b2a8610520526781c2c92e47edaee6610540526792722c851482353b6105605267a2bfe8a14cf103646105805267a81a664bbc4230016105a05267c24b8b70d0f897916105c05267c76c51a30654be306105e05267d192e819d6ef52186106005267d69906245565a9106106205267f40e35855771202a6106405267106aa07032bbd1b8610660526719a4c116b8d2d0c861068052671e376c085141ab536106a052672748774cdf8eeb996106c0526734b0bcb5e19b48a86106e05267391c0cb3c5c95a6361070052674ed8aa4ae3418acb61072052675b9cca4f7763e3736107405267682e6ff3d6b2b8a36107605267748f82ee5defb2fc610780526778a5636f43172f606107a0526784c87814a1f0ab726107c052678cc702081a6439ec6107e0526790befffa23631e286108005267a4506cebde82bde96108205267bef9a3f7b2c679156108405267c67178f2e372532b6108605267ca273eceea26619c6108805267d186b8c721c0c2076108a05267eada7dd6cde0eb1e6108c05267f57d4f7fee6ed1786108e0526706f067aa72176fba61090052670a637dc5a2c898a66109205267113f9804bef90dae61094052671b710b35131c471b610960526728db77f523047d84610980526732caab7b40c724936109a052673c9ebe0a15c9bebc6109c05267431d67c49c100d4c6109e052674cc5d4becb3e42b6610a005267597f299cfc657e2a610a2052675fcb6fab3ad6faec610a4052676c44198c4a475817610a60526200042390600190605062000555565b50604051806101000160405280676a09e667f3bcc908815260200167bb67ae8584caa73b8152602001673c6ef372fe94f82b815260200167a54ff53a5f1d36f1815260200167510e527fade682d18152602001679b05688c2b3e6c1f8152602001671f83d9abfb41bd6b8152602001675be0cd19137e21798152506051906008620004b092919062000598565b50348015620004be57600080fd5b506040516200414f3803806200414f83398181016040526020811015620004e457600080fd5b5051600080546001600160a01b03191633178082556040516001600160a01b039190911691907f8be0079c531659141344cd1fd0a4f28419497f9722a3daafe3b4186f6b6457e0908290a3605980546001600160a01b0319166001600160a01b0392909216919091179055620005e8565b826050810192821562000586579160200282015b828111156200058657825182559160200191906001019062000569565b5062000594929150620005c8565b5090565b82600881019282156200058657916020028201828111156200058657825182559160200191906001019062000569565b620005e591905b80821115620005945760008155600101620005cf565b90565b613b5780620005f86000396000f3fe608060405234801561001057600080fd5b506004361061018d5760003560e01c80638f32d59b116100e3578063cb7034d21161008c578063e36027ab11610066578063e36027ab14611138578063f2fde38b14611348578063f3ae1b311461136e5761018d565b8063cb7034d214610fdd578063dbd1195c14611094578063dcb90bb9146110d55761018d565b8063af0df022116100bd578063af0df02214610bcd578063b217882514610cfa578063c82f10f514610da25761018d565b80638f32d59b146108ff5780639b0fd8cd14610907578063a2226ef6146109925761018d565b806351b6c0a111610145578063755d4add1161011f578063755d4add1461087f5780637dc0d1d0146108d35780638da5cb5b146108f75761018d565b806351b6c0a1146106475780635a6eb94e1461066a578063715018a6146108755761018d565b80632739c34f116101765780632739c34f1461025a5780633d69d2f7146103a6578063500d8107146105e15761018d565b806301f743371461019257806305e4fa19146101cd575b600080fd5b6101bb600480360360608110156101a857600080fd5b5080359060208101359060400135611391565b60408051918252519081900360200190f35b6102216004803603610a008110156101e457600080fd5b8101908080610a00019060508060200260405190810160405280929190826050602002808284376000920191909152509194506114e29350505050565b604051808261010080838360005b8381101561024757818101518382015260200161022f565b5050505090500191505060405180910390f35b610392600480360360a081101561027057600080fd5b81019060208101813564010000000081111561028b57600080fd5b82018360208201111561029d57600080fd5b803590602001918460018302840111640100000000831117156102bf57600080fd5b91908080601f016020809104026020016040519081016040528093929190818152602001838380828437600092019190915250929594936020810193503591505064010000000081111561031257600080fd5b82018360208201111561032457600080fd5b8035906020019184600183028401116401000000008311171561034657600080fd5b91908080601f0160208091040260200160405190810160405280939291908181526020018383808284376000920191909152509295505082359350505060208101359060400135611617565b604080519115158252519081900360200190f35b610392600480360360808110156103bc57600080fd5b8101906020810181356401000000008111156103d757600080fd5b8201836020820111156103e957600080fd5b8035906020019184600183028401116401000000008311171561040b57600080fd5b91908080601f016020809104026020016040519081016040528093929190818152602001838380828437600092019190915250929594936020810193503591505064010000000081111561045e57600080fd5b82018360208201111561047057600080fd5b8035906020019184600183028401116401000000008311171561049257600080fd5b91908080601f01602080910402602001604051908101604052809392919081815260200183838082843760009201919091525092959493602081019350359150506401000000008111156104e557600080fd5b8201836020820111156104f757600080fd5b8035906020019184600183028401116401000000008311171561051957600080fd5b91908080601f016020809104026020016040519081016040528093929190818152602001838380828437600092019190915250929594936020810193503591505064010000000081111561056c57600080fd5b82018360208201111561057e57600080fd5b803590602001918460018302840111640100000000831117156105a057600080fd5b91908080601f01602080910402602001604051908101604052809392919081815260200183838082843760009201919091525092955061177f945050505050565b61062e600480360360608110156105f757600080fd5b604080518082018252918301929181830191839060029083908390808284376000920191909152509194505090359150611ae49050565b6040805192835260208301919091528051918290030190f35b6101bb6004803603604081101561065d57600080fd5b5080359060200135611b99565b6107976004803603604081101561068057600080fd5b81019060208101813564010000000081111561069b57600080fd5b8201836020820111156106ad57600080fd5b803590602001918460018302840111640100000000831117156106cf57600080fd5b91908080601f016020809104026020016040519081016040528093929190818152602001838380828437600092019190915250929594936020810193503591505064010000000081111561072257600080fd5b82018360208201111561073457600080fd5b8035906020019184600183028401116401000000008311171561075657600080fd5b91908080601f016020809104026020016040519081016040528093929190818152602001838380828437600092019190915250929550611bb6945050505050565b604051808060200180602001838103835285818151815260200191508051906020019080838360005b838110156107d85781810151838201526020016107c0565b50505050905090810190601f1680156108055780820380516001836020036101000a031916815260200191505b50838103825284518152845160209182019186019080838360005b83811015610838578181015183820152602001610820565b50505050905090810190601f1680156108655780820380516001836020036101000a031916815260200191505b5094505050505060405180910390f35b61087d611e24565b005b61062e600480360361010081101561089657600080fd5b810190808061010001906008806020026040519081016040528092919082600860200280828437600092019190915250919450611edf9350505050565b6108db611fbb565b604080516001600160a01b039092168252519081900360200190f35b6108db611fca565b610392611fda565b61097b6004803603608081101561091d57600080fd5b604080518082018252918301929181830191839060029083908390808284376000920191909152505060408051808201825292959493818101939250906002908390839080828437600092019190915250919450611feb9350505050565b60408051825181529081908390808383602061022f565b610392600480360360808110156109a857600080fd5b8101906020810181356401000000008111156109c357600080fd5b8201836020820111156109d557600080fd5b803590602001918460018302840111640100000000831117156109f757600080fd5b91908080601f0160208091040260200160405190810160405280939291908181526020018383808284376000920191909152509295949360208101935035915050640100000000811115610a4a57600080fd5b820183602082011115610a5c57600080fd5b80359060200191846001830284011164010000000083111715610a7e57600080fd5b91908080601f0160208091040260200160405190810160405280939291908181526020018383808284376000920191909152509295949360208101935035915050640100000000811115610ad157600080fd5b820183602082011115610ae357600080fd5b80359060200191846001830284011164010000000083111715610b0557600080fd5b91908080601f0160208091040260200160405190810160405280939291908181526020018383808284376000920191909152509295949360208101935035915050640100000000811115610b5857600080fd5b820183602082011115610b6a57600080fd5b80359060200191846001830284011164010000000083111715610b8c57600080fd5b91908080601f016020809104026020016040519081016040528093929190818152602001838380828437600092019190915250929550612093945050505050565b61062e60048036036040811015610be357600080fd5b810190602081018135640100000000811115610bfe57600080fd5b820183602082011115610c1057600080fd5b80359060200191846001830284011164010000000083111715610c3257600080fd5b91908080601f0160208091040260200160405190810160405280939291908181526020018383808284376000920191909152509295949360208101935035915050640100000000811115610c8557600080fd5b820183602082011115610c9757600080fd5b80359060200191846001830284011164010000000083111715610cb957600080fd5b91908080601f01602080910402602001604051908101604052809392919081815260200183838082843760009201919091525092955061221c945050505050565b61039260048036036040811015610d1057600080fd5b810190602081018135640100000000811115610d2b57600080fd5b820183602082011115610d3d57600080fd5b80359060200191846001830284011164010000000083111715610d5f57600080fd5b91908080601f0160208091040260200160405190810160405280939291908181526020018383808284376000920191909152509295505091359250612355915050565b61039260048036036080811015610db857600080fd5b810190602081018135640100000000811115610dd357600080fd5b820183602082011115610de557600080fd5b80359060200191846001830284011164010000000083111715610e0757600080fd5b91908080601f0160208091040260200160405190810160405280939291908181526020018383808284376000920191909152509295949360208101935035915050640100000000811115610e5a57600080fd5b820183602082011115610e6c57600080fd5b80359060200191846001830284011164010000000083111715610e8e57600080fd5b91908080601f0160208091040260200160405190810160405280939291908181526020018383808284376000920191909152509295949360208101935035915050640100000000811115610ee157600080fd5b820183602082011115610ef357600080fd5b80359060200191846001830284011164010000000083111715610f1557600080fd5b91908080601f0160208091040260200160405190810160405280939291908181526020018383808284376000920191909152509295949360208101935035915050640100000000811115610f6857600080fd5b820183602082011115610f7a57600080fd5b80359060200191846001830284011164010000000083111715610f9c57600080fd5b91908080601f016020809104026020016040519081016040528093929190818152602001838380828437600092019190915250929550612423945050505050565b61039260048036036040811015610ff357600080fd5b81019060208101813564010000000081111561100e57600080fd5b82018360208201111561102057600080fd5b8035906020019184600183028401116401000000008311171561104257600080fd5b91908080601f016020809104026020016040519081016040528093929190818152602001838380828437600092019190915250929550505090356bffffffffffffffffffffffff191691506127449050565b6110b7600480360360408110156110aa57600080fd5b50803590602001356127a5565b60408051938452602084019290925282820152519081900360600190f35b61087d6004803603610a608110156110ec57600080fd5b60408051610a00818101835284359460208101359493810135938101929091610a6083019190606084019060509083908390808284376000920191909152509194506127d19350505050565b610392600480360361010081101561114f57600080fd5b81019060208101813564010000000081111561116a57600080fd5b82018360208201111561117c57600080fd5b8035906020019184600183028401116401000000008311171561119e57600080fd5b91908080601f01602080910402602001604051908101604052809392919081815260200183838082843760009201919091525092959493602081019350359150506401000000008111156111f157600080fd5b82018360208201111561120357600080fd5b8035906020019184600183028401116401000000008311171561122557600080fd5b91908080601f0160208091040260200160405190810160405280939291908181526020018383808284376000920191909152505060408051808201825293968535969095909460608201945092506020019060029083908390808284376000920191909152505060408051808201825292959493818101939250906002908390839080828437600092019190915250919493926020810192503590506401000000008111156112d357600080fd5b8201836020820111156112e557600080fd5b8035906020019184600183028401116401000000008311171561130757600080fd5b91908080601f0160208091040260200160405190810160405280939291908181526020018383808284376000920191909152509295506128f7945050505050565b61087d6004803603602081101561135e57600080fd5b50356001600160a01b0316612b71565b6107976004803603604081101561138457600080fd5b5080359060200135612bd6565b600061139b61393b565b6113a7858585846127d1565b6113af61395a565b6113b8826114e2565b905060005b600881101561140a57605181600881106113d357fe5b01548282600881106113e157fe5b60200201510167ffffffffffffffff168282600881106113fd57fe5b60200201526001016113bd565b5060008061141783611edf565b915091507f1000000000000000000000000000000014def9dea2f79cd65812631a5cf5d3ed8061144357fe5b7f1000000000000000000000000000000014def9dea2f79cd65812631a5cf5d3ed600183097f1000000000000000000000000000000014def9dea2f79cd65812631a5cf5d3ed806001700100000000000000000000000000000000097f1000000000000000000000000000000014def9dea2f79cd65812631a5cf5d3ed7001000000000000000000000000000000008709090898975050505050505050565b6114ea61395a565b60515460525460535460545460555460565460575460585460005b60508110156115d757600061151b866029611b99565b611526876012611b99565b61153188600e611b99565b18189050848616861985161860006001846050811061154c57fe5b01548e856050811061155a57fe5b602002015183858801010101905060006115758d6027611b99565b6115808e6022611b99565b61158b8f601c611b99565b8b9a999850181890508b8b168c8e168e8d16181880820168010000000000000000848d088f9e9d9c509a50680100000000000000008185089e5050600190950194506115059350505050565b5060408051610100810182529889526020890197909752958701949094526060860192909252608085015260a084015260c083015260e082015292915050565b6059546000906001600160a01b031633146116635760405162461bcd60e51b8152600401808060200182810382526033815260200180613af06033913960400191505060405180910390fd5b6000605b6000886040516020018082805190602001908083835b6020831061169c5780518252601f19909201916020918201910161167d565b6001836020036101000a0380198251168184511680821785525050505050509050019150506040516020818303038152906040528051906020012081526020019081526020016000206000876040516020018082805190602001908083835b6020831061171a5780518252601f1990920191602091820191016116fb565b51815160209384036101000a60001901801990921691161790526040805192909401828103601f190183528452815191810191909120865285019590955292909201600020978855505050506001808501939093555060029092019190915592915050565b6000611789613979565b605a6000876040516020018082805190602001908083835b602083106117c05780518252601f1990920191602091820191016117a1565b6001836020036101000a0380198251168184511680821785525050505050509050019150506040516020818303038152906040528051906020012081526020019081526020016000206000866040516020018082805190602001908083835b6020831061183e5780518252601f19909201916020918201910161181f565b6001836020036101000a038019825116818451168082178552505050505050905001915050604051602081830303815290604052805190602001208152602001908152602001600020604051806040016040529081600082018054600181600116156101000203166002900480601f01602080910402602001604051908101604052809291908181526020018280546001816001161561010002031660029004801561192b5780601f106119005761010080835404028352916020019161192b565b820191906000526020600020905b81548152906001019060200180831161190e57829003601f168201915b50505050508152602001600182018054600181600116156101000203166002900480601f0160208091040260200160405190810160405280929190818152602001828054600181600116156101000203166002900480156119cd5780601f106119a2576101008083540402835291602001916119cd565b820191906000526020600020905b8154815290600101906020018083116119b057829003601f168201915b5050505050815250509050600060606119ef8684600001518560200151612d1c565b90925090506000828015611a9f57508151611a15908390601f190163ffffffff612e0216565b6002876040518082805190602001908083835b60208310611a475780518252601f199092019160209182019101611a28565b51815160209384036101000a60001901801990921691161790526040519190930194509192505080830381855afa158015611a86573d6000803e3d6000fd5b5050506040513d6020811015611a9b57600080fd5b5051145b60408051821515815290519192507fff3010ae5fe3144d9922cf3389b9bf30da6f991746f58a3177e3427ff9c7ef54919081900360200190a198975050505050505050565b600080611aef613993565b611af7613993565b85518252602080870151838201526001604080850182905260008452918301819052908201525b8415611b54578460011660011415611b3d57611b3a8183612e1e565b90505b600185901c9450611b4d82612fb4565b9150611b1e565b6000611b6382604001516130f7565b90506013600160ff1b03825182900982526013600160ff1b03818360200151096020830181905291519791965090945050505050565b67ffffffffffffffff82821c604083900384901b17165b92915050565b606080611bc1613979565b605a6000866040516020018082805190602001908083835b60208310611bf85780518252601f199092019160209182019101611bd9565b6001836020036101000a0380198251168184511680821785525050505050509050019150506040516020818303038152906040528051906020012081526020019081526020016000206000856040516020018082805190602001908083835b60208310611c765780518252601f199092019160209182019101611c57565b6001836020036101000a038019825116818451168082178552505050505050905001915050604051602081830303815290604052805190602001208152602001908152602001600020604051806040016040529081600082018054600181600116156101000203166002900480601f016020809104026020016040519081016040528092919081815260200182805460018160011615610100020316600290048015611d635780601f10611d3857610100808354040283529160200191611d63565b820191906000526020600020905b815481529060010190602001808311611d4657829003601f168201915b50505050508152602001600182018054600181600116156101000203166002900480601f016020809104026020016040519081016040528092919081815260200182805460018160011615610100020316600290048015611e055780601f10611dda57610100808354040283529160200191611e05565b820191906000526020600020905b815481529060010190602001808311611de857829003601f168201915b5050509190925250508151602090920151919791965090945050505050565b611e2c611fda565b611e7d576040805162461bcd60e51b815260206004820181905260248201527f4f776e61626c653a2063616c6c6572206973206e6f7420746865206f776e6572604482015290519081900360640190fd5b600080546040516001600160a01b03909116907f8be0079c531659141344cd1fd0a4f28419497f9722a3daafe3b4186f6b6457e0908390a3600080547fffffffffffffffffffffffff0000000000000000000000000000000000000000169055565b60008080836003602002015160408560026020020151901b60808660016020020151901b60c08760006020020151901b17171790506000846007602002015160408660066020020151901b60808760056020020151901b60c08860046020020151901b17171790506040518260208201528160408201526060810160405260018101805b60208201811015611f8757805160ff168282036008021b9590950194600101611f63565b50602001805b60208201811015611fb157805160ff168282036008021b9690960195600101611f8d565b5050505050915091565b6059546001600160a01b031681565b6000546001600160a01b03165b90565b6000546001600160a01b0316331490565b611ff36139b4565b611ffb613993565b612003613993565b84518252602080860151838201526001604080850182905286518452868301519284019290925290820152612036613993565b6120408383612e1e565b9050600061205182604001516130f7565b905060405180604001604052806013600160ff1b038061206d57fe5b845184900981526020016013600160ff1b03838560200151099052979650505050505050565b6059546000906001600160a01b031633146120df5760405162461bcd60e51b8152600401808060200182810382526033815260200180613af06033913960400191505060405180910390fd5b6000605a6000876040516020018082805190602001908083835b602083106121185780518252601f1990920191602091820191016120f9565b6001836020036101000a0380198251168184511680821785525050505050509050019150506040516020818303038152906040528051906020012081526020019081526020016000206000866040516020018082805190602001908083835b602083106121965780518252601f199092019160209182019101612177565b6001836020036101000a0380198251168184511680821785525050505050509050019150506040516020818303038152906040528051906020012081526020019081526020016000209050838160000190805190602001906121f99291906139d2565b50825161220f90600183019060208601906139d2565b5060019695505050505050565b600080612227613993565b605b6000866040516020018082805190602001908083835b6020831061225e5780518252601f19909201916020918201910161223f565b6001836020036101000a0380198251168184511680821785525050505050509050019150506040516020818303038152906040528051906020012081526020019081526020016000206000856040516020018082805190602001908083835b602083106122dc5780518252601f1990920191602091820191016122bd565b51815160209384036101000a60001901801990921691161790526040805192909401828103601f1901835284528151918101919091208652858101969096525092830160002083516060810185528154808252600183015496820187905260029092015494019390935250909791965090945050505050565b6000806002846040518082805190602001908083835b6020831061238a5780518252601f19909201916020918201910161236b565b51815160209384036101000a60001901801990921691161790526040519190930194509192505080830381855afa1580156123c9573d6000803e3d6000fd5b5050506040513d60208110156123de57600080fd5b505160408051858314815290519192507fff3010ae5fe3144d9922cf3389b9bf30da6f991746f58a3177e3427ff9c7ef54919081900360200190a15060019392505050565b600061242d613979565b605a6000876040516020018082805190602001908083835b602083106124645780518252601f199092019160209182019101612445565b6001836020036101000a0380198251168184511680821785525050505050509050019150506040516020818303038152906040528051906020012081526020019081526020016000206000866040516020018082805190602001908083835b602083106124e25780518252601f1990920191602091820191016124c3565b6001836020036101000a038019825116818451168082178552505050505050905001915050604051602081830303815290604052805190602001208152602001908152602001600020604051806040016040529081600082018054600181600116156101000203166002900480601f0160208091040260200160405190810160405280929190818152602001828054600181600116156101000203166002900480156125cf5780601f106125a4576101008083540402835291602001916125cf565b820191906000526020600020905b8154815290600101906020018083116125b257829003601f168201915b50505050508152602001600182018054600181600116156101000203166002900480601f0160208091040260200160405190810160405280929190818152602001828054600181600116156101000203166002900480156126715780601f1061264657610100808354040283529160200191612671565b820191906000526020600020905b81548152906001019060200180831161265457829003601f168201915b5050505050815250509050600060606126938684600001518560200151612d1c565b90925090506000828015611a9f575081516126d79083907fffffffffffffffffffffffffffffffffffffffffffffffffffffffffffffffec0163ffffffff61315716565b6bffffffffffffffffffffffff19166126ef87613182565b6bffffffffffffffffffffffff19161460408051821515815290519192507fff3010ae5fe3144d9922cf3389b9bf30da6f991746f58a3177e3427ff9c7ef54919081900360200190a198975050505050505050565b60008061275084613182565b604080516bffffffffffffffffffffffff1986811690841614815290519192507fff3010ae5fe3144d9922cf3389b9bf30da6f991746f58a3177e3427ff9c7ef54919081900360200190a15060019392505050565b605b60209081526000928352604080842090915290825290208054600182015460029092015490919083565b60408051858152602081018590528082018490527f80000000000000000000000000000000000000000000000000000000000003006060820152608081019091526801000000000000000060005b601081101561284c57600881028301601719015167ffffffffffffffff166020820285015260010161281f565b5060105b60508110156128ee576020600f82030284015160206002830302850151602060108403028601516020600785030287015167ffffffffffffffff8460071c8560381b8660081c1786603f1b8760011c1718181667ffffffffffffffff8460061c8560031b86603d1c1786602d1b8760131c1718181667ffffffffffffffff8184018386010116602088028b0152505050505050600181019050612850565b50505050505050565b6000612901613993565b605b6000896040516020018082805190602001908083835b602083106129385780518252601f199092019160209182019101612919565b6001836020036101000a0380198251168184511680821785525050505050509050019150506040516020818303038152906040528051906020012081526020019081526020016000206000886040516020018082805190602001908083835b602083106129b65780518252601f199092019160209182019101612997565b6001836020036101000a03801982511681845116808217855250505050505090500191505060405160208183030381529060405280519060200120815260200190815260200160002060405180606001604052908160008201548152602001600182015481526020016002820154815250509050612a326139b4565b6000612aca8884604001516002886040518082805190602001908083835b60208310612a6f5780518252601f199092019160209182019101612a50565b51815160209384036101000a60001901801990921691161790526040519190930194509192505080830381855afa158015612aae573d6000803e3d6000fd5b5050506040513d6020811015612ac357600080fd5b5051611391565b9050612af2604051806040016040528085600001518152602001856020015181525082611ae4565b60208401528252612b016139b4565b612b0b8884611feb565b80518851919250600091148015612b29575060208083015190890151145b60408051821515815290519192507fff3010ae5fe3144d9922cf3389b9bf30da6f991746f58a3177e3427ff9c7ef54919081900360200190a19b9a5050505050505050505050565b612b79611fda565b612bca576040805162461bcd60e51b815260206004820181905260248201527f4f776e61626c653a2063616c6c6572206973206e6f7420746865206f776e6572604482015290519081900360640190fd5b612bd3816136cb565b50565b605a60209081526000928352604080842082529183529181902080548251601f600260001961010060018616150201909316929092049182018590048502810185019093528083529092839190830182828015612c745780601f10612c4957610100808354040283529160200191612c74565b820191906000526020600020905b815481529060010190602001808311612c5757829003601f168201915b505050505090806001018054600181600116156101000203166002900480601f016020809104026020016040519081016040528092919081815260200182805460018160011615610100020316600290048015612d125780601f10612ce757610100808354040283529160200191612d12565b820191906000526020600020905b815481529060010190602001808311612cf557829003601f168201915b5050505050905082565b60006060600083518551875160600101019050612d37613a50565b612d47818363ffffffff61378316565b508651612d5b90829063ffffffff6137bd16565b508551612d6f90829063ffffffff6137bd16565b508451612d8390829063ffffffff6137bd16565b50612d94818863ffffffff6137d716565b50612da5818763ffffffff6137d716565b50612db6818663ffffffff6137d716565b5084516040519080825280601f01601f191660200182016040528015612de3576020820181803883390190505b50925084516020840183602084510160055afa93505050935093915050565b60008251826020011115612e1557600080fd5b50016020015190565b612e26613993565b612e2e613a6a565b6013600160ff1b03836040015185604001510981526013600160ff1b038151800960208201526013600160ff1b03835185510960408201526013600160ff1b03836020015185602001510960608201526013600160ff1b038082606001518360400151097f52036cee2b6ffe738cc740797779e89800700a4d4141d8ab75eb4dca135978a30960808201526013600160ff1b0381608001516013600160ff1b030382602001510860a08201526013600160ff1b03816080015182602001510860c08201526013600160ff1b038082606001516013600160ff1b03036013600160ff1b0380612f1857fe5b84604001516013600160ff1b03036013600160ff1b0380612f3557fe5b6013600160ff1b0360208a01518a51086013600160ff1b0360208c01518c51080908086013600160ff1b0360a08401518451090982526013600160ff1b038082604001518360600151086013600160ff1b0360c08401518451090960208301526013600160ff1b038160c001518260a001510960408301525092915050565b612fbc613993565b612fc4613a6a565b6013600160ff1b03602084015184510881526013600160ff1b038151800960208201526013600160ff1b038351800960408201526013600160ff1b03602084015180096060820181905260408201516013600160ff1b03908103608084018190529091900860a08201526013600160ff1b036040840151800960e08201526013600160ff1b03808260e001516002096013600160ff1b03038260a001510860c08201526013600160ff1b0360c08201516013600160ff1b0383606001516013600160ff1b03036013600160ff1b038061309957fe5b85604001516013600160ff1b0303866020015108080982526013600160ff1b038082606001516013600160ff1b03038360800151088260a001510960208301526013600160ff1b038160c001518260a0015109604083015250919050565b60008060026013600160ff1b0303905060006013600160ff1b03905060405160208152602080820152602060408201528460608201528260808201528160a082015260208160c0836005600019fa61314e57600080fd5b51949350505050565b6000825182601401111561316a57600080fd5b5001602001516bffffffffffffffffffffffff191690565b60006040518251602084019350604067ffffffffffffffc0600183011601600982820310600181146131b3576131ba565b6040820191505b50776745230100efcdab890098badcfe001032547600c3d2e1f061320d565b600083831015613206575080820151928290039260208410156132065760001960208590036101000a0119165b9392505050565b60005b8281101561364b576132238482896131d9565b85526132338460208301896131d9565b60208601526040818503106001811461324b57613254565b60808286038701535b506040830381146001811461326857613276565b602086018051600887021790525b5060405b608081101561333a57858101603f198101517fffffffffffffffffffffffffffffffffffffffffffffffffffffffffffffffc8820151601f198301517ffffffffffffffffffffffffffffffffffffffffffffffffffffffffffffffff48401516002911891909218189081027ffffffffefffffffefffffffefffffffefffffffefffffffefffffffefffffffe1663800000009091047c010000000100000001000000010000000100000001000000010000000116179052600c0161327a565b5060805b6101408110156133ff578581017fffffffffffffffffffffffffffffffffffffffffffffffffffffffffffffff808101517fffffffffffffffffffffffffffffffffffffffffffffffffffffffffffffff90820151603f198301516017198401516004911891909218189081027ffffffffcfffffffcfffffffcfffffffcfffffffcfffffffcfffffffcfffffffc1663400000009091047c03000000030000000300000003000000030000000300000003000000031617905260180161333e565b508160008060005b605081101561362157601481048015613437576001811461347357600281146134ad57600381146134ec57613522565b6501000000000085046a0100000000000000000000860481186f01000000000000000000000000000000870416189350635a8279999250613522565b6501000000000085046f0100000000000000000000000000000086046a0100000000000000000000870418189350636ed9eba19250613522565b6a010000000000000000000085046f010000000000000000000000000000008604818117650100000000008804169116179350638f1bbcdc9250613522565b6501000000000085046f0100000000000000000000000000000086046a010000000000000000000087041818935063ca62c1d692505b50601f770800000000000000000000000000000000000000000000008504168063ffffffe073080000000000000000000000000000000000000087041617905080840190508063ffffffff86160190508083019050807c0100000000000000000000000000000000000000000000000000000000600484028c0151040190507401000000000000000000000000000000000000000081026501000000000086041794506a0100000000000000000000633fffffff6a040000000000000000000087041663c00000006604000000000000880416170277ffffffff00ffffffff000000000000ffffffff00ffffffff861617945050600181019050613407565b5050509190910177ffffffff00ffffffff00ffffffff00ffffffff00ffffffff1690604001613210565b506c0100000000000000000000000063ffffffff821667ffffffff000000006101008404166bffffffff0000000000000000620100008504166fffffffff000000000000000000000000630100000086041673ffffffff000000000000000000000000000000006401000000008704161717171702945050505050919050565b6001600160a01b0381166137105760405162461bcd60e51b8152600401808060200182810382526026815260200180613aca6026913960400191505060405180910390fd5b600080546040516001600160a01b03808516939216917f8be0079c531659141344cd1fd0a4f28419497f9722a3daafe3b4186f6b6457e091a3600080547fffffffffffffffffffffffff0000000000000000000000000000000000000000166001600160a01b0392909216919091179055565b61378b613a50565b60208206156137a05760208206602003820191505b506020828101829052604080518085526000815290920101905290565b6137c5613a50565b613206838460000151518460206137f1565b6137df613a50565b6132068384600001515184855161385b565b6137f9613a50565b846020015184830111156138165761381685858401600202613907565b60006001836101000a0390508260200360080284901c9350855183868201018583198251161781528151858801111561384f5784870182525b50959695505050505050565b613863613a50565b825182111561387157600080fd5b8460200151828501111561389b5761389b856138938760200151878601613924565b600202613907565b6000808651805187602083010193508088870111156138ba5787860182525b505050602084015b602084106138e15780518252601f1990930192602091820191016138c2565b51815160001960208690036101000a019081169019919091161790525083949350505050565b81516139138383613783565b5061391e83826137d7565b50505050565b600081831115613935575081611bb0565b50919050565b60405180610a0001604052806050906020820280388339509192915050565b6040518061010001604052806008906020820280388339509192915050565b604051806040016040528060608152602001606081525090565b60405180606001604052806000815260200160008152602001600081525090565b60405180604001604052806002906020820280388339509192915050565b828054600181600116156101000203166002900490600052602060002090601f016020900481019282601f10613a1357805160ff1916838001178555613a40565b82800160010185558215613a40579182015b82811115613a40578251825591602001919060010190613a25565b50613a4c929150613aaf565b5090565b604051806040016040528060608152602001600081525090565b60405180610100016040528060008152602001600081526020016000815260200160008152602001600081526020016000815260200160008152602001600081525090565b611fd791905b80821115613a4c5760008155600101613ab556fe4f776e61626c653a206e6577206f776e657220697320746865207a65726f2061646472657373546865206d73672e73656e64657220697320646966666572656e74207468616e20746865206f7261636c652061646472657373a265627a7a723158200017ce7deb2c4f39ea24e9dcbc11bfc2686158f19992bd3922179dc7da88ede164736f6c63430005100032",
  "source": "pragma solidity >=0.4.21 <0.6.0;\n\nimport \"./algorithms/BytesUtils.sol\";\nimport \"./algorithms/RSA.sol\";\nimport \"./algorithms/ED25519.sol\";\nimport \"./algorithms/SHA1.sol\";\nimport \"./algorithms/SHA512.sol\";\n\nimport \"openzeppelin-solidity/contracts/ownership/Ownable.sol\";\n\ncontract DkimChecker is Ownable, RSA, ED25519, SHA1, SHA512 {\n    using BytesUtils for *;\n\n    // ----------------------------------------------------------------------------------------------------//\n    // ----------------------------------------------------------------------------------------------------//\n\n    struct KeyRsa {\n        bytes exponent;\n        bytes modulus;\n    }\n\n    struct KeyEd {\n        uint x;\n        uint y;\n        uint p;\n    }\n\n    address public oracle;  // to be set to the oracle contract address for access restrictions\n    mapping(bytes32 => mapping(bytes32 => KeyRsa)) public dkimKeysRsa;     // domain name => selector => key\n    mapping(bytes32 => mapping(bytes32 => KeyEd)) public dkimKeysEd;     // domain name => selector => bytes(key)\n    \n    // ----------------------------------------------------------------------------------------------------//\n    // ----------------------------------------------------------------------------------------------------//\n\n    constructor(address _oracle) public {\n        oracle =_oracle;\n    }\n\n    // Should be used with all function involving the oracle interaction, for access restrictions\n    modifier onlyOracle() {\n        if(msg.sender != oracle) revert(\"The msg.sender is different than the oracle address\");\n        _;\n    }\n\n    // ----------------------------------------------------------------------------------------------------//\n    // ----------------------------------------------------------------------------------------------------//\n\n    // Dkim key setter function to be used by the oracle to save the public key components on-chain\n    //_selector and _domain should be used to access the key saved onchain since they are necessary to resolve \n    // TXT record they dns\n    function setDkimKeyRsa(string memory _selector, string memory _domain, bytes memory _exponent, bytes memory _modulus) public onlyOracle returns(bool){\n        // Extra requirements can be added here to avoid issue with domainkey dns record update\n        KeyRsa storage key = dkimKeysRsa[keccak256(abi.encodePacked(_selector))][keccak256(abi.encodePacked(_domain))];\n        key.exponent = _exponent;\n        key.modulus = _modulus;\n        return true;\n    }\n\n    function setDkimKeyEd(string memory _selector, string memory _domain, uint x, uint y, uint p) public onlyOracle returns(bool){\n        // Extra requirements can be added here to avoid issue with domainkey dns record update\n        KeyEd storage key = dkimKeysEd[keccak256(abi.encodePacked(_selector))][keccak256(abi.encodePacked(_domain))] ;\n        key.x = x;\n        key.y = y;\n        key.p = p;\n        return true;\n    }\n\n    function getDkimKeyRsa(string memory _selector, string memory _domain) public view returns (bytes memory,bytes memory) {\n        KeyRsa memory key = dkimKeysRsa[keccak256(abi.encodePacked(_selector))][keccak256(abi.encodePacked(_domain))];\n        return (key.exponent,key.modulus);\n    }\n\n    function getDkimKeyEd(string memory _selector, string memory _domain) public view returns (uint x, uint y) {\n        KeyEd memory key = dkimKeysEd[keccak256(abi.encodePacked(_selector))][keccak256(abi.encodePacked(_domain))];\n        return (key.x,key.y);\n    }\n    \n    // ----------------------------------------------------------------------------------------------------//\n    // ----------------------------------------------------------------------------------------------------//\n\n    event ReturnVal(bool);\n\n    // If any valuable information contained inside the body of the emain needs to be used checkBody function \n    // should be added to the verification step to avoid any exploit\n    \n    function checkBodySHA1(bytes memory body, bytes20 bodyHash) public returns (bool){\n      bytes20 computed = sha1(body);\n\n        emit ReturnVal(bodyHash == computed); // just added to simulate a non-view function\n        return true;\n    }\n\n    function checkBodySHA256(bytes memory body, bytes32 bodyHash) public returns (bool){\n      bytes32 computed = sha256(body);\n        emit ReturnVal(bodyHash == computed); // just added to simulate a non-view function\n        return true;\n    }\n\n    // ----------------------------------------------------------------------------------------------------//\n    // ----------------------------------------------------------------------------------------------------//\n\n    // _canonicalizedHeader is the header preprocessed and canonicalized all information can be extracted on-chain from from it\n    \n    function verifyRSASHA256(string memory _selector, string memory _domain, bytes memory _sig, bytes memory _canonicalizedHeader) public returns (bool) {\n        // Recover the message from the signature\n        KeyRsa memory key = dkimKeysRsa[keccak256(abi.encodePacked(_selector))][keccak256(abi.encodePacked(_domain))];\n\n        bool ok;\n        bytes memory result;\n        (ok, result) = modexp(_sig, key.exponent, key.modulus);\n        bool bl = ( ok &&  sha256(_canonicalizedHeader) == result.readBytes32(result.length - 32) );\n        \n        emit ReturnVal(bl); // just added to simulate a non-view function\n        return bl;\n    }\n\n    // _canonicalizedHeader is the header preprocessed and canonicalized all information can be extracted on-chain from from it\n    \n    function verifyRSASHA1(string memory _selector, string memory _domain,bytes memory _sig,  bytes memory _canonicalizedHeader) public returns (bool) {\n\n        KeyRsa memory key = dkimKeysRsa[keccak256(abi.encodePacked(_selector))][keccak256(abi.encodePacked(_domain))];\n\n        bool ok;\n        bytes memory result;\n        (ok, result) = modexp(_sig, key.exponent, key.modulus);\n        bool bl = (ok &&  sha1(_canonicalizedHeader) == result.readBytes20(result.length - 20) );\n        \n        emit ReturnVal(bl); // just added to simulate a non-view function\n        return bl;\n    }\n\n    // For more details abt ed25519 verification function check https://tools.ietf.org/html/rfc8032#section-5.1\n    // _r,_R and \"_s\" are the signature component.\n    // _canonicalizedHeader is the header preprocessed and canonicalized all information can be extracted on-chain from from it\n\n    function verifyED25519 ( \n        string memory _selector, \n        string memory _domain, \n        uint _r, \n        uint[2] memory _R, \n        uint[2] memory _lhs ,\n        bytes memory _canonicalizedHeader\n    )\n\n    public returns (bool)\n    {\n        KeyEd memory key = dkimKeysEd[keccak256(abi.encodePacked(_selector))][keccak256(abi.encodePacked(_domain))];\n        uint[2] memory rhs;\n\n        uint hash_512_mod_l = sha512modl(_r, key.p, uint256(sha256(_canonicalizedHeader)));\n        \n        (rhs[0], rhs[1])  = scalarMult([key.x , key.y], hash_512_mod_l);\n        uint[2] memory Rs = ecAddVec(_R,rhs);\n\n        bool bl = (_lhs[0] == Rs[0] && _lhs[1] == Rs[1]);\n\n        emit ReturnVal(bl); // just added to simulate a non-view function\n        return bl;\n    }\n}\n",
  "sourcePath": "/Users/rjborba/git/ddkim-verification-RideSolo/contracts/DkimChecker.sol",
  "compiler": {
    "name": "solc",
    "version": "0.5.16+commit.9c3226ce.Emscripten.clang"
  },
  "schemaVersion": "3.4.3",
  "updatedAt": "2023-03-22T12:14:29.462Z",
  "networkType": "ethereum",
  "devdoc": {
    "methods": {
      "isOwner()": {
        "details": "Returns true if the caller is the current owner."
      },
      "owner()": {
        "details": "Returns the address of the current owner."
      },
      "renounceOwnership()": {
        "details": "Leaves the contract without owner. It will not be possible to call `onlyOwner` functions anymore. Can only be called by the current owner.     * > Note: Renouncing ownership will leave the contract without an owner, thereby removing any functionality that is only available to the owner."
      },
      "transferOwnership(address)": {
        "details": "Transfers ownership of the contract to a new account (`newOwner`). Can only be called by the current owner."
      }
    }
  },
  "userdoc": {
    "methods": {}
  }
}