{
  "contractName": "SCW",
  "abi": [
    {
      "inputs": [
        {
          "internalType": "address",
          "name": "_ownerAddress",
          "type": "address"
        },
        {
          "internalType": "string",
          "name": "_ownerEmail",
          "type": "string"
        }
      ],
      "payable": false,
      "stateMutability": "nonpayable",
      "type": "constructor"
    },
    {
      "constant": true,
      "inputs": [],
      "name": "ownerAddress",
      "outputs": [
        {
          "internalType": "address",
          "name": "",
          "type": "address"
        }
      ],
      "payable": false,
      "stateMutability": "view",
      "type": "function"
    },
    {
      "constant": true,
      "inputs": [],
      "name": "ownerEmail",
      "outputs": [
        {
          "internalType": "string",
          "name": "",
          "type": "string"
        }
      ],
      "payable": false,
      "stateMutability": "view",
      "type": "function"
    }
  ],
  "bytecode": "0x608060405234801561001057600080fd5b506040516103af3803806103af8339818101604052604081101561003357600080fd5b81516020830180516040519294929383019291908464010000000082111561005a57600080fd5b90830190602082018581111561006f57600080fd5b825164010000000081118282018810171561008957600080fd5b82525081516020918201929091019080838360005b838110156100b657818101518382015260200161009e565b50505050905090810190601f1680156100e35780820380516001836020036101000a031916815260200191505b506040525050600080546001600160a01b0319166001600160a01b038516179055508051610118906001906020840190610120565b5050506101bb565b828054600181600116156101000203166002900490600052602060002090601f016020900481019282601f1061016157805160ff191683800117855561018e565b8280016001018555821561018e579182015b8281111561018e578251825591602001919060010190610173565b5061019a92915061019e565b5090565b6101b891905b8082111561019a57600081556001016101a4565b90565b6101e5806101ca6000396000f3fe608060405234801561001057600080fd5b50600436106100365760003560e01c806328ef87051461003b5780638f84aa09146100b8575b600080fd5b6100436100e9565b6040805160208082528351818301528351919283929083019185019080838360005b8381101561007d578181015183820152602001610065565b50505050905090810190601f1680156100aa5780820380516001836020036101000a031916815260200191505b509250505060405180910390f35b6100c0610194565b6040805173ffffffffffffffffffffffffffffffffffffffff9092168252519081900360200190f35b60018054604080516020600284861615610100027fffffffffffffffffffffffffffffffffffffffffffffffffffffffffffffffff0190941693909304601f8101849004840282018401909252818152929183018282801561018c5780601f106101615761010080835404028352916020019161018c565b820191906000526020600020905b81548152906001019060200180831161016f57829003601f168201915b505050505081565b60005473ffffffffffffffffffffffffffffffffffffffff168156fea265627a7a723158205313253db60a46b4bad51b271d59899c9cdf4a3decaf58c8840025a68f4ffc2164736f6c63430005100032",
  "source": "pragma solidity >=0.4.21 <0.6.0;\n\ninterface DkimCheckerInterface {\n    function verifyRSASHA256(\n        string calldata _selector,\n        string calldata _domain,\n        bytes calldata _sig,\n        bytes calldata _canonicalizedHeader\n    ) external returns (bool);\n}\n\ncontract SCW {\n    address public ownerAddress;\n    string public ownerEmail;\n\n    // address public authProcessStartedBy;\n    // uint public authProcessStartTime;\n    // string public authProccessNonce;\n    // bool public authEmailVerified;\n\n    // uint256 public constant RECOVERY_TIME_LIMIT_IN_MINUTES = 5;\n\n    // string[] public guardiansEmails;\n    // mapping(string => bool) public confirmedGuardians;\n    // bool public isRecoveryStarted = false;\n\n    // DkimCheckerInterface dkimChecker;\n\n    modifier onlyOwner() {\n        if (msg.sender != ownerAddress)\n            revert(\"The msg.sender is different than the owner address\");\n        _;\n    }\n\n    constructor(\n        address _ownerAddress,\n        string memory _ownerEmail // address dkimCheckerAddress\n    ) public {\n        ownerAddress = _ownerAddress;\n        // TODO: Verify if it is from a trustable email provider (google, hotmail, etc)\n        ownerEmail = _ownerEmail;\n        // dkimChecker = DkimCheckerInterface(dkimCheckerAddress);\n    }\n\n    // function startAuth(\n    //     string memory email,\n    //     string memory nonce\n    // ) public returns (bool) {\n    //     require(\n    //         compareStrings(email, ownerEmail),\n    //         \"This email isn't owner of this account\"\n    //     );\n\n    //     authProcessStartedBy = msg.sender;\n    //     authProcessStartTime = now;\n    //     authProccessNonce = nonce;\n\n    //     return true;\n    // }\n\n    // function confirmOwnerEmail(\n    //     string memory _selector,\n    //     string memory _domain,\n    //     bytes memory _sig,\n    //     bytes memory _canonicalizedHeader,\n    //     string memory _emailToVerify, // BORBA TODO: Should be extracted from email's header\n    //     string memory _nonceToVerify // BORBA TODO: Should be extracted from email's body\n    // ) public returns (bool) {\n    //     // TODO: This require won't be necessary after retrieving fROM from email's header\n    //     require(\n    //         compareStrings(_emailToVerify, ownerEmail),\n    //         \"This email isn't owner of this account\"\n    //     );\n\n    //     // TODO: This require won't be necessary after retrieving nonce from email's body\n    //     require(\n    //         compareStrings(_nonceToVerify, authProccessNonce),\n    //         \"This email isn't owner of this account\"\n    //     );\n\n    //     // Checks email's header\n    //     bool verified = dkimChecker.verifyRSASHA256(\n    //         _selector,\n    //         _domain,\n    //         _sig,\n    //         _canonicalizedHeader\n    //     );\n\n    //     // TODO: Check email's body\n\n    //     require(verified, \"DKIM check failed for this email\");\n\n    //     authEmailVerified = true;\n\n    //     return true;\n    // }\n\n    // function setNewOwnerAddress(address newOwnerAddress) public returns (bool) {\n    //     require(\n    //         authEmailVerified,\n    //         \"Email is not verified. Call startAuth first\"\n    //     );\n\n    //     require(\n    //         authProcessStartedBy == msg.sender,\n    //         \"New owner must be set by the same address that started the auth proccess\"\n    //     );\n\n    //     if (isAuthProcessExpired()) {\n    //         authProcessStartTime = 0;\n    //         authProcessStartedBy = address(0);\n    //         authProccessNonce = \"\";\n\n    //         revert(\n    //             \"Auth process expired. The process must be completed withing 5 minutes\"\n    //         );\n    //     }\n\n    //     ownerAddress = newOwnerAddress;\n\n    //     return true;\n    // }\n\n    // function isAuthProcessExpired() internal view returns (bool) {\n    //     return (now >= (authProcessStartTime + 5 minutes));\n    // }\n\n    // function addGuardian(\n    //     string memory guardianMail\n    // ) public onlyOwner returns (bool) {\n    //     // TODO: Verify if it is from a trustable email provider (google, hotmail, etc)\n    //     guardiansEmails.push(guardianMail);\n    //     return true;\n    // }\n\n    // function removeGuardian(\n    //     string memory email\n    // ) public onlyOwner returns (bool) {\n    //     for (uint i = 0; i < guardiansEmails.length; i++) {\n    //         if (compareStrings(guardiansEmails[i], email)) {\n    //             removeGuardianFromArray(i);\n    //             break;\n    //         }\n    //     }\n    // }\n\n    // function verifyGuardianEmail(\n    //     string memory _selector,\n    //     string memory _domain,\n    //     bytes memory _sig,\n    //     bytes memory _canonicalizedHeader,\n    //     string memory _emailToVerify // BORBA TODO: Should be extracted from header\n    // ) public {\n    //     if (isAuthStarted) {\n    //         if (recoveryProcessHasExpired()) {\n    //             clearUpRecoveryState();\n    //             revert(\"Recovery proccess has expired\");\n    //         } else {\n    //             require(\n    //                 authProcessStartedBy == msg.sender,\n    //                 \"Recovery process must be done through the same address\"\n    //             );\n    //         }\n    //     }\n\n    //     // TODO\n    //     require(\n    //         isGuardian(_emailToVerify),\n    //         \"This email is not a wallet guardian\"\n    //     );\n\n    //     bool verified = dkimChecker.verifyRSASHA256(\n    //         _selector,\n    //         _domain,\n    //         _sig,\n    //         _canonicalizedHeader\n    //     );\n\n    //     if (verified) {\n    //         confirmedGuardians[_emailToVerify] = true;\n\n    //         if (!isAuthStarted) {\n    //             authProcessStartTime = now;\n    //             isAuthStarted = true;\n    //             authProcessStartedBy = msg.sender;\n    //         }\n    //     }\n    // }\n\n    // function setNewOwner(address newOwner) public {\n    //     if (recoveryProcessHasExpired()) {\n    //         clearUpRecoveryState();\n    //         revert(\"Recovery proccess has expired\");\n    //     }\n\n    //     require(\n    //         msg.sender == authProcessStartedBy,\n    //         \"This email is not a wallet guardian\"\n    //     );\n\n    //     require(\n    //         haveAllGuardiansConfirmed(),\n    //         \"Still waiting for some guardians confirmations\"\n    //     );\n\n    //     _owner = newOwner;\n    // }\n\n    // function removeAllConfirmations() internal {\n    //     for (uint i = 0; i < guardiansEmails.length; i++) {\n    //         confirmedGuardians[guardiansEmails[i]] = false;\n    //     }\n    // }\n\n    // function haveAllGuardiansConfirmed() internal view returns (bool) {\n    //     for (uint i = 0; i < guardiansEmails.length; i++) {\n    //         if (!confirmedGuardians[guardiansEmails[i]]) {\n    //             return false;\n    //         }\n    //     }\n\n    //     return true;\n    // }\n\n    // function isGuardian(string memory email) internal view returns (bool) {\n    //     for (uint i = 0; i < guardiansEmails.length; i++) {\n    //         if (compareStrings(email, guardiansEmails[i])) {\n    //             return true;\n    //         }\n    //     }\n    // }\n\n    // function clearUpRecoveryState() internal {\n    //     removeAllConfirmations();\n    //     isRecoveryStarted = false;\n    //     authProcessStartTime = 0;\n    //     authProcessStartedBy = address(0);\n    // }\n\n    // function removeGuardianFromArray(uint256 index) internal {\n    //     if (index >= guardiansEmails.length) return;\n\n    //     for (uint i = index; i < guardiansEmails.length - 1; i++) {\n    //         guardiansEmails[i] = guardiansEmails[i + 1];\n    //     }\n    //     delete guardiansEmails[guardiansEmails.length - 1];\n    //     guardiansEmails.length--;\n    // }\n\n    // function compareStrings(\n    //     string memory a,\n    //     string memory b\n    // ) public pure returns (bool) {\n    //     return keccak256(bytes(a)) == keccak256(bytes(b));\n    // }\n}\n\ncontract SCWDeployer {\n    mapping(string => address) userEmailToSCW;\n\n    // Associating with email\n    mapping(string => address) authProcessStartedBy;\n    mapping(string => uint) authProcessStartTime;\n    mapping(string => string) authProccessNonce;\n    mapping(string => bool) authEmailVerified;\n\n    DkimCheckerInterface dkimChecker;\n\n    event ReturnVal(bool);\n\n    constructor(address dkimCheckerAddress) public {\n        dkimChecker = DkimCheckerInterface(dkimCheckerAddress);\n    }\n\n    function createNewAccount(\n        string memory email,\n        string memory nonce\n    ) public returns (bool) {\n        require(\n            userEmailToSCW[email] == address(0),\n            \"This email is already associated to a account\"\n        );\n\n        authProcessStartedBy[email] = msg.sender;\n        authProcessStartTime[email] = now;\n        authProccessNonce[email] = nonce;\n\n        emit ReturnVal(true);\n\n        return true;\n    }\n\n    function confirmNewAccountEmail(\n        string memory _selector,\n        string memory _domain,\n        bytes memory _sig,\n        bytes memory _canonicalizedHeader,\n        string memory _emailToVerify, // BORBA TODO: Should be extracted from email's header\n        string memory _nonceToVerify // BORBA TODO: Should be extracted from email's body\n    ) public returns (bool) {\n        require(\n            authProcessStartedBy[_emailToVerify] != address(0),\n            \"Auth proccess has not started. Call createNewAccount first\"\n        );\n\n        require(\n            authProcessStartedBy[_emailToVerify] == msg.sender,\n            \"Every steps of Auth process must be done by the same sender\"\n        );\n\n        if (isAuthProcessExpired(authProcessStartTime[_emailToVerify])) {\n            authProcessStartedBy[_emailToVerify] = address(0);\n            authProcessStartTime[_emailToVerify] = 0;\n            authProccessNonce[_emailToVerify] = \"\";\n            authEmailVerified[_emailToVerify] = false;\n\n            revert(\"Auth proccess expired\");\n        }\n\n        require(\n            compareStrings(_nonceToVerify, authProccessNonce[_emailToVerify]),\n            \"Invalid nonce\"\n        );\n\n        // Checks email's header\n        bool verified = dkimChecker.verifyRSASHA256(\n            _selector,\n            _domain,\n            _sig,\n            _canonicalizedHeader\n        );\n\n        // TODO: Check email's body\n\n        require(verified, \"DKIM check failed for this email\");\n\n        authEmailVerified[_emailToVerify] = true;\n\n        return true;\n    }\n\n    function deployNewSWC(\n        string memory ownerEmail,\n        address ownerAddress\n    ) public returns (address) {\n        require(\n            authEmailVerified[ownerEmail],\n            \"Email is not verified. Call confirmNewAccountEmail first\"\n        );\n\n        require(\n            authProcessStartedBy[ownerEmail] == msg.sender,\n            \"deployNewSWC must be called by the same address that started the auth proccess\"\n        );\n\n        if (isAuthProcessExpired(authProcessStartTime[ownerEmail])) {\n            authProcessStartedBy[ownerEmail] = address(0);\n            authProcessStartTime[ownerEmail] = 0;\n            authProccessNonce[ownerEmail] = \"\";\n            authEmailVerified[ownerEmail] = false;\n\n            revert(\"Auth proccess expired\");\n        }\n\n        SCW c = new SCW(ownerAddress, ownerEmail);\n        userEmailToSCW[ownerEmail] = address(c);\n\n        return userEmailToSCW[ownerEmail];\n    }\n\n    function getSCWAddressByEmail(\n        string memory userAddress\n    ) public view returns (address) {\n        return userEmailToSCW[userAddress];\n    }\n\n    function compareStrings(\n        string memory a,\n        string memory b\n    ) public pure returns (bool) {\n        return keccak256(bytes(a)) == keccak256(bytes(b));\n    }\n\n    function isAuthProcessExpired(uint startTime) internal view returns (bool) {\n        return (now >= (startTime + 5 minutes));\n    }\n}\n",
  "sourcePath": "/Users/rjborba/git/ddkim-verification-RideSolo/contracts/SCW.sol",
  "compiler": {
    "name": "solc",
    "version": "0.5.16+commit.9c3226ce.Emscripten.clang"
  },
  "schemaVersion": "3.4.3",
  "updatedAt": "2023-03-21T16:12:55.660Z",
  "devdoc": {
    "methods": {}
  },
  "userdoc": {
    "methods": {}
  }
}